:020000040800F2
:1000000048230020C5930008E3930008E593000807
:10001000E7930008E9930008EB9300080000000054
:10002000000000000000000000000000ED93000848
:10003000EF93000800000000F1930008F39300081C
:10004000F5930008F5930008F5930008F593000870
:10005000F5930008F5930008F5930008F593000860
:10006000F5930008F5930008F5930008F593000850
:10007000F5930008F5930008F5930008F593000840
:10008000F5930008F5930008F5930008F593000830
:10009000F5930008F5930008F5930008F593000820
:1000A000F5930008F5930008F5930008F593000810
:1000B000F5930008F74C0008F5930008F593000845
:1000C000F5930008F5930008F5930008CB5300085A
:1000D000F5930008F5930008F5930008F5930008E0
:1000E000F5930008F5930008F5930008F5930008D0
:1000F000F5930008F5930008F5930008F5930008C0
:10010000F5930008F5930008F5930008F5930008AF
:10011000F5930008F5930008F5930008F59300089F
:10012000F5930008F5930008F5930008F59300088F
:10013000F5930008F5930008F5930008F59300087F
:10014000F5930008F5930008F5930008F59300086F
:10015000F5930008F5930008F5930008F59300085F
:10016000F5930008F5930008F5930008F59300084F
:10017000F5930008F5930008F5930008F59300083F
:10018000F5930008F593000800F002F800F05CF821
:100190000AA090E8000C82448344AAF10107DA45E2
:1001A00001D100F051F8AFF2090EBAE80F0013F0D8
:1001B000010F18BFFB1A43F001031847F4AA00000F
:1001C00014AB00000A444FF0000C10F8013B13F090
:1001D000070408BF10F8014B1D1108BF10F8015BA0
:1001E000641E05D010F8016B641E01F8016BF9D193
:1001F00013F0080F1EBF10F8014BAD1C0C1B09D1EA
:100200006D1E58BF01F801CBFAD505E014F8016B5B
:1002100001F8016B6D1EF9D59142D6D370470000ED
:100220000023002400250026103A28BF78C1FBD8FF
:10023000520728BF30C148BF0B6070471FB50AF096
:1002400093FC1FBD10B510BD09F0B8FA1146FFF7B9
:10025000F5FF03F0C4FC09F0D6FA03B4FFF7F2FF90
:1002600003BC09F0D7FA000010B50446B4F5886F56
:100270007ED011DC40F22341A4EB01008C4278D007
:1002800005DCA4F2134098B1032873D137E00328AA
:1002900071D01728F9D1A2E0B4F5966F6CD0A4F212
:1002A000B340002869D0032868D04D28EDD14EE135
:1002B0000020FA494861FA48016CF8488162F84820
:1002C000416CF648C162F648816CF4480163F44819
:1002D000C16CF2484163F248016DF0488163F04817
:1002E000416DEE48C163EE48816DEC480164EC4815
:1002F000C16DEA4841644AF65521816446E1E84807
:10030000D0F88010E548C164E548D0F88410E3488F
:100310000165E348D0F88810E0484165E048D0F82E
:100320008C10DE488165DE48D0F89010DB48C1654E
:10033000DB48D0F89410D9480166D948D0F8981015
:10034000D6484166D648D0F89C10D4488166D44837
:10035000016ED248C166D248416ED0480167D0488C
:10036000816ECE484167CE48C16ECC48816706E0B9
:1003700036E03BE009E1E4E0BBE0D7E03CE0C84820
:10038000016FC648C167C648416FC448C0F88010B5
:10039000C348816FC148C0F88410C148C16FBF48CD
:1003A000C0F88810BE48D0F8A010BC48C0F8901023
:1003B000BB48D0F8A410B948C0F89410B848D0F899
:1003C000A810B648C0F89810B548D0F8AC10B3489B
:1003D000C0F89C104AF65521C0F8A010D6E0D5E030
:1003E0004AF65521AD48C0F8C010CFE04AF6552175
:1003F000AA48C0F8D810C9E0A948D0F8B010A7485A
:10040000C0F8DC10A648D0F8B410A448C0F8E0103A
:10041000A348D0F8B810A148C0F8E410A048D0F81C
:10042000BC109E48C0F8E8109D48D0F8C0109B480A
:10043000C0F8EC109A48D0F8C4109848C0F8F010F2
:100440009748D0F8C8109548C0F8F4109448D0F8F0
:10045000CC109248C0F8F8109148D0F8D0108F48CE
:10046000C0F8FC108E48D0F8D4108C48C0F80011A9
:100470008B48D0F8D8108948C0F804118848D0F8C3
:10048000DC108648C0F808118548D0F8E010834891
:10049000C0F80C118248D0F8E4108048C0F8101160
:1004A0007F48D0F8E8107D48C0F814117C48D0F897
:1004B000EC107A48C0F818117948D0F8F010774855
:1004C000C0F81C117648D0F8F4107448C0F8201118
:1004D0007348D0F8F8107148C0F824117048D0F86B
:1004E000FC106E48C0F828114AF65521C0F82C11AE
:1004F0004CE06B48D0F800116848C0F838116848E3
:10050000D0F804116548C0F83C116548D0F80811CE
:100510006248C0F840116248D0F80C115F48C0F83A
:1005200044114AF65521C0F848112FE05D48B0F853
:1005300078105A48C0F830114AF65521C0F83411E5
:1005400024E04AF655215548C0F854111EE056489B
:1005500001685248C0F86011534841684F48C0F8DC
:100560006411514881684D48C0F868114E48C1680F
:100570004A48C0F86C114C4801694848C0F87011ED
:100580004AF65521C0F8741100E000BF00BF4FF0DB
:1005900001104249486005F018FD10BD30B54348D0
:1005A000841FE488A3B2092B5FD004DC052B07D09D
:1005B000072B7DD11DE0112B7BD0132BF9D1C9E086
:1005C0004288012A03D10024354D2C6010E0022A14
:1005D00003D10024324D6C600AE0042A03D10024C8
:1005E0002F4DAC6004E0082A02D100242C4DEC60B1
:1005F0000AE1418801242A4DC5F82441012906D089
:1006000002290FD0042918D008292CD120E0848891
:10061000234DC5F81441D0F806402C65D0F80A40A7
:100620002C6420E085881E4CC4F81851D0F8065080
:100630006565D0F80A50656415E08588184CC4F8E3
:100640001C51D0F80650A565D0F80A50A5640AE000
:100650008588134CC4F82051D0F80650E565D0F8D1
:100660000A50E56400BF00BFCEE04188012906D0F2
:1006700002291FD004292CD0082948D138E08488C9
:10068000074DC5F88040D0F80640C5F89040D0F836
:100690000A402C67D0F80E402C6638E0501B002032
:1006A000BC0200209C01002008000020B20C0020A9
:1006B000A9E02EE08588F74CC4F88450D0F80650A5
:1006C000C4F89450D0F80A506567D0F80E506566AB
:1006D0001DE08588EF4CC4F88850D0F80650C4F867
:1006E0009850D0F80A50A567D0F80E50A5660EE0D5
:1006F0008588E84CC4F88C50D0F80650C4F89C505B
:10070000D0F80A50E567D0F80E50E56600BF00BF8C
:100710007AE04188012906D0022909D004290CD0A9
:10072000082914D10EE04468DA4DC5F800410FE005
:100730004568D84CC4F804510AE04568D54CC4F863
:10074000085105E04568D34CC4F80C5100E000BFE7
:1007500000BF59E04188012906D0022917D0042999
:1007600028D008294CD138E08488CA4DC5F8B0405B
:10077000D0F80640C5F8C040D0F80A40C5F8D040CF
:10078000C489C5F8E040048AC5F8F04039E085889E
:10079000C04CC4F8B450D0F80650C4F8C450D0F8D7
:1007A0000A50C4F8D450C589C4F8E450058AC4F886
:1007B000F45026E08588B74CC4F8B850D0F80650FD
:1007C000C4F8C850D0F80A50C4F8D850C589C4F845
:1007D000E850058AC4F8F85013E08588AD4CC4F899
:1007E000BC50D0F80650C4F8CC50D0F80A50C4F829
:1007F000DC50C589C4F8EC50058AC4F8FC5000E010
:1008000000BF00BF00E000BF00BF30BD1FB5044601
:100810000E20A14988700020C87081200871012C29
:100820000BD10120ADF800009A480068CDF8020015
:100830000020CDF80600CDF80A00022C0BD10220D2
:10084000ADF8000093484068CDF802000020CDF8D4
:100850000600CDF80A00042C0BD10420ADF80000EE
:100860008C488068CDF802000020CDF80600CDF855
:100870000A00082C0BD10820ADF800008548C0689C
:10088000CDF802000020CDF80600CDF80A000621C0
:10089000814804F0BCF80E21684604F0B8F81FBD8A
:1008A0002DE9F0410146002000278446DFF8EC8165
:1008B00098F802300B2B7CD008DC032B0DD0052BD5
:1008C00016D0072B76D0092B75D139E00F2B73D0BA
:1008D000112B72D0132BF7D174E108200B804FF04D
:1008E0000108A1F802804FF06408C1F8048002E218
:1008F000DFF8A88198F803200C200B804A80012A99
:1009000004D1DFF89081D8F8004013E0022A04D126
:10091000DFF88081D8F804400CE0042A04D1DFF825
:100920007481D8F8084005E0082A03D1DFF8648113
:10093000D8F80C404C604FF00008C1F80880DAE1AC
:10094000DFF8588198F8032012200B804A80012A92
:1009500018D1DFF84081B8F88080A1F80480DFF872
:100960003481D8F89080C1F80680DFF82881D8F863
:100970007080C1F80A80DFF81C81D8F86080C1F867
:100980000E8055E0022A1ED1DFF80881B8F8848075
:10099000A1F80480DFF8FC80D8F89480C1F80680C4
:1009A000DFF8F080D8F87480C1F80A80DFF8E480BE
:1009B00004E0BCE03DE09DE19CE0D4E0D8F8648038
:1009C000C1F80E8034E0042A18D1DFF8C880B8F8E6
:1009D0008880A1F80480DFF8BC80D8F89880C1F83E
:1009E0000680DFF8B080D8F87880C1F80A80DFF898
:1009F000A480D8F86880C1F80E8019E0082A17D1C1
:100A0000DFF89080B8F88C80A1F80480DFF884804B
:100A1000D8F89C80C1F80680DFF87880D8F87C8010
:100A2000C1F80A80DFF86C80D8F86C80C1F80E80BD
:100A300061E1DFF8688098F803200E200B804A807F
:100A4000012A12D1DFF84C80B8F81481A1F8048093
:100A5000DFF84080D8F85080C1F80680DFF8348095
:100A6000D8F84080C1F80A8043E0022A18D1DFF8A4
:100A70002480B8F81881A1F80480DFF81880D8F82D
:100A80005480C1F80680DFF80C80D8F84480C1F8A3
:100A90000A802EE0BC02002034000020AC0C0020B4
:100AA000042A12D1DFF82C86B8F81C81A1F8048042
:100AB000DFF82086D8F85880C1F80680DFF8148661
:100AC000D8F84880C1F80A8013E0082A11D1DFF86D
:100AD0000486B8F82081A1F80480DFF8F885D8F8FA
:100AE0005C80C1F80680DFF8EC85D8F84C80C1F84E
:100AF0000A8000E110200B804FF00108A1F802806D
:100B0000012A08D1A1F80480A1F8068032268E605F
:100B10000A25CD600AE0022A08D19046A1F8048097
:100B2000A1F8068032268E600C25CD60E3E00A2015
:100B30000B804FF00108A1F80280012A08D14FF084
:100B40000408A1F804804FF00108A1F8088009E02A
:100B5000022A07D14FF00408A1F804804FF00108E1
:100B6000A1F80880C7E0DFF8708598F80320082016
:100B70000B804A8042F21078C1F80480012A06D125
:100B8000DFF85085D8F80081C1F8048019E0022A06
:100B900006D1DFF84085D8F80481C1F8048010E060
:100BA000042A06D1DFF82C85D8F80881C1F8048022
:100BB00007E0082A05D1DFF81C85D8F80C81C1F8B8
:100BC000048098E0DFF8108598F8032012200B804D
:100BD0004A80012A22D14FF00108A1F80280DFF8F3
:100BE000F484B8F8B080A1F80480DFF8E884D8F87D
:100BF000C080C1F80680DFF8DC84D8F8D080C1F866
:100C00000A80DFF8D084B8F8E080A1F80E80DFF821
:100C1000C484B8F8F080A1F810806AE0022A21D1DB
:100C20009046A1F80280DFF8AC84B8F8B480A1F84F
:100C30000480DFF8A084D8F8C480C1F80680DFF80B
:100C40009484D8F8D480C1F80A80DFF88884B8F892
:100C5000E480A1F80E80DFF87C84B8F8F480A1F875
:100C6000108046E0042A21D19046A1F80280DFF8E6
:100C70006484B8F8B880A1F80480DFF85884D8F804
:100C8000C880C1F80680DFF84C84D8F8D880C1F855
:100C90000A80DFF84084B8F8E880A1F80E80DFF819
:100CA0003484B8F8F880A1F8108022E0082A20D116
:100CB0009046A1F80280DFF81C84B8F8BC80A1F847
:100CC0000480DFF81084D8F8CC80C1F80680DFF803
:100CD0000484D8F8DC80C1F80A80DFF8F883B8F81B
:100CE000EC80A1F80E80DFF8EC83B8F8FC80A1F866
:100CF000108000E000BF00BFBDE8F08110B50246E3
:100D00000020F649F64B32B1012A15D0022A25D02F
:100D1000032A47D134E08C6A012C04D091F82C408E
:100D200004F001043CB1EB4CD4F848411CB940F04C
:100D3000100040F0200036E08C6A012C04D091F8BD
:100D40002C4004F0010444B1E24CD4F84841012C99
:100D500003D140F0100040F0200024E08C6A012C08
:100D600004D091F82C4004F0010444B1D94CD4F8DB
:100D70004841022C03D140F0100040F0200012E066
:100D80008C6A012C04D091F82C4004F0010444B189
:100D9000D04CD4F84841032C03D140F0100040F06F
:100DA000200000E000BF00BF10BD2DE9F04F2DED89
:100DB000048BA9B0002008909FEDCA0AB0EE409ABB
:100DC00006909FEDC90AF0EE408AC54CC34EDFF88D
:100DD0001C93C148008880B2119012ADAF1DDFF89E
:100DE000F88208F106080020E870012028715020E0
:100DF0006871002010900F901198B0F58A6F00F084
:100E0000F6875ADC40F21342A0EB0201904275D003
:100E10002DDC40F21122A0EB020190426FD012DCD7
:100E200012286DD007DC02286BD005286AD0112863
:100E300042F0BB800FE114287CD015287BD0B0F5A0
:100E4000047FF5D1FEE3B1F5FC7F75D006DC022905
:100E500073D0032972D01229EAD1F5E0A1F2F91179
:100E600000296CD006296BD00729E1D1EBE32829B2
:100E700067D012DC10296ED008DC01296CD0032960
:100E800001F07B800429D3D101F087B8112977D0F4
:100E9000162976D02729CBD1FEE3A1F12D00092810
:100EA00082F08380DFE810F0C706D4068110ED06DB
:100EB00081103407390781105A0740F2F342811A32
:100EC000904201F0968148DC40F2B142A0EB020171
:100ED000904201F0FA801FDC40F26542A0EB020173
:100EE000904201F029800EDCA0F2514000287DD014
:100EF00002287CD006289BD100F0D6BFF2E3F2E3B3
:100F0000B2E0B9E059E0052901F061802D296FD0E8
:100F10004B298DD101F0CAB8062901F02F8111DCCF
:100F2000022901F0E380032901F0E680052988D138
:100F300001F0F4B893E2F8E3F8E3F8E3F8E3F8E358
:100F4000F8E3F8E308297DD0352901F0F38236294A
:100F50008BD101F0D0BAEFE3EFE340F2DD32881A33
:100F6000914201F09D8519DC0E296CD00ADC012923
:100F700001F02581022901F02B810D298BD1EFE3AE
:100F8000EFE3EFE3A1F2CD31002901F084850129DF
:100F900001F0EA820229AED101F0E1BA0A2882F01A
:100FA0000480DFE810F00210780C0210B00BFD0A8C
:100FB0000F0C0210780B0210790C062028805420A8
:100FC000A870287940F0800028715422484938469A
:100FD00008F066FB47A0007887F8420045A04178FA
:100FE0004320C15543A0C178442002E0FEE3FEE364
:100FF0003FE0C1553FA001794520C15540A000798F
:10100000202801D1302001E03DA000794621C855BB
:101010003BA041794720C15539A001784820C155EE
:1010200037A041784920C15535A081784A20C15563
:1010300000214B20C1550120109002203349086047
:1010400001F0B4BF1EE0FDE301203149C1F8980072
:10105000A1F87800F4E7706A20F4007000F50070E1
:10106000706200207063EBE7706A20F400707062B9
:10107000E6E700207063E3E70420244908600020CD
:101080001090DDE704F0ECFDB8F802001190119823
:10109000B0F5886F7ED011DC40F22342A0EB020154
:1010A000904278D005DCA0F2134098B3032873D1A6
:1010B00058E0032971D01729F9D1C3E0B0F5966F34
:1010C0006CD0A0F2B340002869D0032868D04D2826
:1010D000EDD19BE1BC020020AC0C0020740200208A
:1010E000741A00200000803D00000000C81C002091
:1010F0002601002030393A30363A313900000000FC
:101100004F63742032392032303135003C1B0020CF
:101110009C010020FFE70020F7494861F748016C77
:10112000F5488162F548416CF348C162F348816C2F
:10113000F1480163F148C16CEF484163EF48016D2C
:10114000ED48C163ED48416DEB48C163EB48816DEB
:10115000E948C163E948C16DE748C1634AF65521D2
:10116000816472E1E548D0F88010E348C164E34847
:10117000D0F88410E0480165E048D0F88810DE48D7
:101180004165DE48D0F88C10DB488165DB48D0F83B
:10119000901006E062E073E056E12BE102E11EE10F
:1011A00083E0D548C165D548D0F89410D24801668F
:1011B000D248D0F89810D0484166D048D0F89C105A
:1011C000CD488166CD48016ECB48C166CB48416EA3
:1011D000C9480167C948816EC7484167C748C16EA1
:1011E000C5488167C548016FC348C167C348416F9F
:1011F000C148C0F88010C148816FBF48C0F8841052
:10120000BE48C16FBC48C0F88810BC48D0F8A010D8
:10121000B948C0F89010B948D0F8A410B648C0F842
:101220009410B648D0F8A810B348C0F89810B34846
:10123000D0F8AC10B048C0F89C104AF65521C0F860
:10124000A01002E1AC48216BC0F8A410216BC0F8DB
:10125000A8104AF65521C0F8AC10F6E0A648E16B9C
:10126000C0F8B010216CC0F8B410616BC0F8B810B1
:10127000616CC0F8BC104AF65521C0F8C010E4E01B
:101280009D48216EC0F8C410616EC0F8C810A16EF0
:10129000C0F8CC10E16EC0F8D010216FC0F8D410A7
:1012A0004AF65521C0F8D810CFE09448D0F8B010D5
:1012B0009148C0F8DC109148D0F8B4108E48C0F8BE
:1012C000E0108E48D0F8B8108B48C0F8E4108B4876
:1012D000D0F8BC108848C0F8E8108848D0F8C01092
:1012E0008548C0F8EC108548D0F8C4108248C0F892
:1012F000F0108248D0F8C8107F48C0F8F4107F483A
:10130000D0F8CC107C48C0F8F8107C48D0F8D01049
:101310007948C0F8FC107948D0F8D4107648C0F865
:1013200000117648D0F8D8107348C0F804117348FB
:10133000D0F8DC107048C0F808117048D0F8E01000
:101340006D48C0F80C116D48D0F8E4106A48C0F838
:1013500010116A48D0F8E8106748C0F814116748BF
:10136000D0F8EC106448C0F818116448D0F8F010B8
:101370006148C0F81C116148D0F8F4105E48C0F80C
:1013800020115E48D0F8F8105B48C0F824115B4883
:10139000D0F8FC105848C0F828114AF65521C0F87A
:1013A0002C1152E05548D0F800115348C0F83811BC
:1013B0005248D0F804115048C0F83C114F48D0F8BA
:1013C00008114D48C0F840114C48D0F80C114A485B
:1013D000C0F844114AF65521C0F8481135E0484894
:1013E000B0F878104448C0F830114AF65521C0F8DA
:1013F00034112AE04048616FC0F84C11A16FC0F869
:1014000050114AF65521C0F854111EE03D480168BC
:101410003948C0F860113B4841683748C0F864114A
:10142000384881683448C0F868113648C168324885
:10143000C0F86C11334801692F48C0F870114AF6A2
:101440005521C0F8741100E000BF00BF4FF001103B
:101450002949486004F0B9FD04F0E0FBF0E5D8F854
:1014600000000490D8F804000390D8F80800029017
:10147000D8F80C0001900498222879D018DC0F28A5
:1014800077D00CDC0C2843D004DC022848D0042898
:1014900070D139E00D283FD00E28F9D127E110286E
:1014A00021D0112824D020287BD02128F0D140E061
:1014B000282860D008DCA0F1230005285AD2DFE8F4
:1014C00000F0738CA2A7AD0029286BD02A2806D083
:1014D000B0F5C87F67D0B0F5A06FD9D134E10398DB
:1014E000FEF7C2FE8DE105490398C1F86C0188E161
:1014F00007F03FFB85E10000501B0020BC020020EC
:101500009C01002008000020D8F80400606778E102
:10151000D8F80400A06274E1D8F80400606270E1B9
:10152000D8F80400FB49086004F04FFD002010903B
:1015300067E10398B0F57A7F0AD11120F649086077
:10154000012048610F2088610298C8620198886074
:10155000039810F57A7F0AD11220EF490860012024
:101560004861052088610298C8620198886048E156
:1015700007E0C8E044E1E949039808640298086577
:101580003FE10398B0F57A7F02D1E349029888637E
:10159000039810F57A7F03D14FF0FF30DE490860E1
:1015A0002FE1CBE07BE0FDE00398B0F57A7F03D13B
:1015B0004FF00040DA4908600398B0F5FA6F03D1A4
:1015C0004FF40040D649086040F6B831039888428D
:1015D00002D10120D049C86313E1039810B9CE4964
:1015E000039808640398012802D1CB490398086442
:1015F0000298002806DD0298B0F5FA6F02DAC649B3
:1016000002988860FDE0C5490398C1F87001F8E0D0
:10161000C2490398486502984864F2E0039801289B
:101620000AD1029818B94FF48030BE4988610298F7
:10163000012801D1BB498861039802280ED1029884
:1016400030B901E0F0E186E24FF40030B54988613D
:101650000298012802D10220B24988610398032828
:101660000BD1029818B94FF48020AE4988610298D6
:10167000012802D10420AB498861039804280DD1C8
:10168000029818B94FF40020A649886102980128F1
:1016900004D10820A34900E020E38861B1E0039869
:1016A00030B101280BD002280FD003281CD113E041
:1016B0004FF400109C4908604000086015E02020AD
:1016C00099490860400408600FE04FF40010964903
:1016D00008604020086008E020209349086040200E
:1016E000086002E05BE2FBE100BF00BF00BFD8F88A
:1016F00004008849C8604AF65520086104F065FC7A
:10170000002010907DE0D8F804108248C0F85811ED
:101710004AF65521C0F85C1104F057FC7D48D0F81A
:101720005801E067002010906BE06CE0FAE15FE1A7
:1017300069E1FAE10AE2DAE251E239E2039881B2C0
:101740007A48A0F8D0105CE0D8F804000E90D8F8E1
:1017500008000C900E98012805D17549086005E035
:1017600096E04CE208E20020714908600C9830B124
:10177000022808D004280AD0082810D10BE0002045
:101780006B4948600CE002206949486008E0042089
:101790006749486004E008206549486000E000BFF0
:1017A00000BF00BF40F2C5710398884227D102985C
:1017B00028BB642003F069F872B65E48006820F424
:1017C00080005C4908600846006820F4001008604A
:1017D00059485A49086000BFBFF34F8F5848006806
:1017E00000F4E06057490843001D01E004E315E3FD
:1017F00053490860BFF34F8F00BF00BFFEE700E012
:1018000000BF00BF1CE4162028700020687028204C
:10181000A870287940F08000287128224A4938466B
:1018200007F03EFF3D4890ED590AB8EEC00AB0EE11
:10183000408A9FED460A28EE000AB0EE408ABDEECF
:10184000C80A00E0AEE08DED070A90ED5A0AB8EE46
:10185000C00AF0EE408A9FED3D0A28EE800AF0EEC5
:10186000408ABDEEE80A8DED060A079838600698B2
:1018700078602A48D0F87401B8602848D0F8780118
:10188000F8602648D0F85C01F86001201090E5E58A
:101890002F48C0780E900E9800F001000D900D9822
:1018A00018B101202249086002E0002020490860A8
:1018B0002748C0780E900E9800F00E000D900D98FD
:1018C000022804D0042806D008280CD107E0022002
:1018D000174948600BE004201549486007E00820DC
:1018E0001349486003E000201149486000BF00BF71
:1018F0001748C0780E900E9800F010000D900D98CB
:10190000102827D101200A4988608007044908600F
:1019100027E00000501B002040040020BC020020F3
:101920001808024000000240180402409C010020F8
:101930000800002030380240EFBEADDEF01F00206E
:101940000CED00E00000FA05840400200000803D5A
:10195000AC0C00200020FA4988604FF48040F9491F
:101960000860F948C0780E900E9800F0E0000D90E5
:101970000D98202804D0402806D080280CD107E0FC
:101980002020EF49C8600BE04020ED49C86007E027
:101990008020EB49C86003E00020E949C86000BF2F
:1019A00000BF5BE500200D90E548C0680D90E4485D
:1019B0008068012803D10D9840F010000D90E04898
:1019C00040680D9908430D90DD4800680D99084363
:1019D0000D9002202870052068700120A8700D98D5
:1019E000E87001202871502068710120109035E5C1
:1019F000D548807800F0010010B100200D9001E082
:101A000001200D902AE540F2152028600D9828B994
:101A10000020A870E8700120109004E00020A87059
:101A2000E8700120109019E5C74880780D900D9856
:101A3000012806D0022818D0042829D008284DD122
:101A400039E00020C149C1F848014FF40010C049F5
:101A50000860400008600220BE4988610420886157
:101A6000082088614003886138E00120B749C1F847
:101A700048012020B6490860400408600120B549AB
:101A8000886104208861082088618003886125E0DE
:101A90000220AE49C1F848010005AD490860402068
:101AA00008600120AB4988610220886108208861B4
:101AB000C003886112E00320A449C1F84801202036
:101AC000A3490860402008600120A24988610220E3
:101AD0008861042088614004886100BF00BFBDE4C4
:101AE00040F2122028609948D0F8480108B9012036
:101AF000A8709648D0F84801012801D10220A870AA
:101B00009248D0F84801022801D10420A8708F48DB
:101B1000D0F84801032801D10820A8700120E870FE
:101B200010909BE4D8F802A098E440F20B402860A3
:101B30000620A870287940F08000287101203880A4
:101B4000D6F804A0C7F802A0109087E4D8F802A045
:101B5000C6F804A082E440F2124028600620A87073
:101B6000287940F08000287101203880D6F804A040
:101B7000C7F802A0109071E440F22A4028600620C5
:101B8000A870287940F0800028710120388000205A
:101B9000FFF7B4F8C7F80200012010905EE4D8F80F
:101BA0000600A060A068E060D8F80A00206155E453
:101BB00040F2154028600E20A870287940F080007F
:101BC0002871012038800020C7F80200A068C7F8FB
:101BD00006002069C7F80A00012010903EE4B8F81A
:101BE00002002066B8F804006066D8F80600A06617
:101BF000D8F80A00E066B8F80E0020672EE440F23C
:101C0000254028601020A870287940F080002871B5
:101C10000120388034F8600F7880A088B880A068F0
:101C2000C7F80600E068C7F80A00208A603CF8811F
:101C30000120109012E4D8F806006063B8F80200A2
:101C4000E063B8F804002064D8F80A00606405E492
:101C500040F2424028600E20A870287940F08000B1
:101C6000287101203880A08F7880B4F84000B880B7
:101C7000606BC7F80600606CC7F80A00012010907E
:101C8000C0E5B06A00B1BDE50620C9F800004FF01C
:101C90008040C9F804000020C9F808004AF2870013
:101CA000A063C9F80C00606BC9F81000E06BC9F8BC
:101CB00018000020C9F81400C9F81C000120306386
:101CC000B062F06A20F00100F062706A20F020003B
:101CD00020307062606BC9F8100093E5D8F80200FC
:101CE0002063206B002801DA002020638AE540F29F
:101CF0003C4028600620A870287940F080002871B8
:101D000001203880206BC7F802000120109079E58F
:101D1000D8F802001049086074E540F24740286096
:101D20000620A870287940F08000287101203880B2
:101D300009480068C7F802000120109062E5000021
:101D40000800002018080240AC0C0020BC02002053
:101D500018040240000002400000002096F82C0009
:101D600000F0010008B1B06A28B9B06A20B1D9F812
:101D70001C00022800D145E5D6F804A0FB480079F4
:101D800040F0800018B1D8F80200824402E0F84820
:101D9000006882440120B062F06A20F00100F06225
:101DA000706A20F0020070620120C9F80000C9F8D2
:101DB00004A0D9F804007168884201DA206B00E0C1
:101DC0000020C9F80800A068C9F80C002069C9F80B
:101DD00010006069C9F81400A069C9F81C00706A95
:101DE00020F008000830706206F048FE0AE5D8F8D6
:101DF0000200DF49486005E540F2524028600620B5
:101E0000A870287940F08000287101203880D848D7
:101E10004068C7F8020001201090F3E496F82C0007
:101E200000F0010008B1B06A28B9B06A20B1D9F851
:101E30001C00022800D1E5E4CC48007940F0800085
:101E400010B1D8F802A002E0C948D0F804A00120DF
:101E5000B062F06A20F00100F062706A20F00200C7
:101E600070620120C9F80000C9F804A0D9F8040084
:101E70007168884201DA206B00E00020C9F8080090
:101E8000A068C9F80C002069C9F810006069C9F899
:101E90001400A069C9F81C00706A20F0080008301E
:101EA000706206F0A4FDADE496F82C0000F001008D
:101EB00008B1B06A28B9B06A20B1D9F81C0002286C
:101EC00000D19FE42069C9F81000D9F810000B90E8
:101ED0000120B062F06A20F00100F062706A20F028
:101EE000020070622069C9F810000120C9F80000E2
:101EF000C9F804A00020C9F80800A068C9F80C00BF
:101F00002069C9F810006069C9F81400A069C9F80F
:101F10001C00706A20F0080070629448C0780128A4
:101F200002D106F0E6FD06E0D9F810004042C9F8FB
:101F3000100006F0DEFD65E48C48C078012802D16F
:101F400006F0BDF801E006F0BAF8706A20F008006B
:101F50007062706A20F01000103070620520C9F8BD
:101F60000000306B0D2802D1306B306301E000209F
:101F7000306300207F49086144E4B8F80200E06162
:101F8000D8F804002062D8F80C006062D8F810007D
:101F9000A062B8F81400E06234E44FF48360286073
:101FA0001620A870287940F0800028710120388020
:101FB000A08B7880206A78600020B860606AF86042
:101FC000A06A3861A08DB882012010901AE496F8BA
:101FD0002C0000F0010008B1B06A28B9B06A20B145
:101FE000D9F81C00022800D10CE40120B062F06A8C
:101FF00020F00100F062706A20F4805000F58050FB
:102000007062706A20F0020070620120C9F800005E
:102010000020C9F80800606AC9F80C00A06AC9F875
:1020200010006069C9F81400A069C9F81C00E069D3
:1020300001281AD1A06AC9F81000D9F810000B9035
:102040004A48C078012804D10321089806F0BBFC57
:1020500006E00B9840420B900521089806F0B3FC6F
:10206000706A20F0080070621FE04048C0780128C4
:102070000BD17068216A0844C9F80400D9F804A09B
:102080000421089806F09FFC0AE07068216A401A53
:10209000C9F80400D9F804A00621089806F093FCBA
:1020A000706A20F00800083070627AE4D8F8040002
:1020B0003149C8660846C06E0A900A98C11700EBFD
:1020C000D15149122C4A11676BE440F2B2402860AA
:1020D0001A20A870287940F08000287101203880EB
:1020E0002548C06E7860012010905AE4B8F80200CC
:1020F0002149A1F8780054E440F2B540286004205A
:10210000A870287940F080002871012038801A4892
:10211000B0F8780078800120109042E41648B0F8BA
:102120007A000990B8F802001349A1F87A0008462D
:10213000B0F87A100998814203D003200E49C1F803
:102140009800B8F802000C49A1F87A00D8F8040009
:10215000C867D8F80800C1F88000B8F80C00A1F8EA
:102160008400B8F80E00A1F886001AE4AC0C002038
:1021700000000020080000209C0100204FF4976020
:1021800028601020A870287940F080002871012074
:102190003880FE48B0F87A007880FC48C06F7860DC
:1021A000FA48D0F88000B860F848B0F88400B881E8
:1021B000F648B0F88600F8810120109017E4B8F8CE
:1021C0000200F24908840121882005F056FE0EE441
:1021D00040F2F64028600420A870287940F0800082
:1021E000287101203880E948008C78800120109007
:1021F00008E40020E6494861E648D0F81411E448B4
:102200008161E448016CE2488162E248016DE04886
:102210008163E048D0F81811DD48C161DD48416CA8
:10222000DB48C162DB48416DD948C163D948D0F869
:102230001C11D7480162D748816CD5480163D54845
:10224000816DD3480164D348D0F82011D048416251
:10225000D048C16CCE484163CE48C16DCC48416482
:102260004AF655218164CB48D0F88010C848C16433
:10227000C848D0F88410C6480165C648D0F8881010
:10228000C3484165C348D0F88C10C1488165C14836
:10229000D0F89010BE48C165BE48D0F89410BC4834
:1022A0000166BC48D0F89810B9484166B948D0F8E2
:1022B0009C10B7488166B748016EB548C166B548FD
:1022C000416EB3480167B348816EB1484167B14878
:1022D000C16EAF488167AF48016FAD48C167AD4877
:1022E000416FAB48C0F88010AA48816FA848C0F879
:1022F0008410A848C16FA648C0F88810A548D0F837
:10230000A010A348C0F89010A248D0F8A410A0488C
:10231000C0F894109F48D0F8A8109D48C0F89810B5
:102320009C48D0F8AC109A48C0F89C100021C0F826
:102330008C104AF65521C0F8A0109749C0F8A41097
:10234000C0F8A8104AF65521C0F8AC100221C0F818
:10235000B0100121C0F8B4109049C0F8B8104FF483
:102360004821C0F8BC104AF65521C0F8C01002211F
:10237000C0F8C410C0F8C8100021C0F8CC10C0F8D4
:10238000D0100121C0F8D4104AF65521C0F8D81059
:102390008048D0F8B0107E48C0F8DC107D48D0F8F6
:1023A000B4107B48C0F8E0107A48D0F8B8107848EC
:1023B000C0F8E4107748D0F8BC107548C0F8E810B1
:1023C0007448D0F8C0107248C0F8EC107148D0F8CA
:1023D000C4106F48C0F8F0106E48D0F8C8106C48B0
:1023E000C0F8F4106B48D0F8CC106948C0F8F81069
:1023F0006848D0F8D0106648C0F8FC106548D0F89E
:10240000D4106348C0F800116248D0F8D810604872
:10241000C0F804115F48D0F8DC105D48C0F808111E
:102420005C48D0F8E0105A48C0F80C115948D0F870
:10243000E4105748C0F810115648D0F8E810544836
:10244000C0F814115348D0F8EC105148C0F81811D6
:102450005048D0F8F0104E48C0F81C114D48D0F844
:10246000F4104B48C0F820114A48D0F8F8104848FA
:10247000C0F824114748D0F8FC104548C0F828118E
:102480004AF65521C0F82C114248D0F800114048B6
:10249000C0F838113F48D0F804113D48C0F83C114D
:1024A0003C48D0F808113A48C0F840113948D0F8F3
:1024B0000C113748C0F844114AF65521C0F84811AC
:1024C0003248B0F878103248C0F830114AF6552139
:1024D000C0F834111E21C0F84C110521C0F850116C
:1024E0004AF65521C0F854114FF0011028494860B0
:1024F00003F06BFD0BE44FF49D6028601420A8707E
:10250000287940F0800028710120BF1C27F8020CB8
:10251000A06C3860E06C7860206DB860606DF86029
:10252000BF1EA06D08B1022000E0012078820120CA
:10253000109020E4D8F80200A064D8F80600E06407
:10254000D8F80A002065D8F80E006065B8F81200C7
:10255000022801D1012000E00020A0650BE4FEF775
:102560001DF80020109006E43846FEF799F90F9008
:10257000C2202870082068700F98A870287940F051
:10258000800028710120109084E200009C0100204E
:10259000501B0020BC02002055150200FC7A4F01A0
:1025A000B8F800B0D8F802A0F848806A00B3F8483C
:1025B000D0F8480118B90321002005F087F8F44845
:1025C000D0F84801012802D1032105F07FF8F04836
:1025D000D0F84801022802D1032105F077F8EC4831
:1025E000D0F84801032803D10321084605F06EF80E
:1025F0000BF0010080B1E648C0F810A00069E44982
:102600000968401AE249C1F828010121002005F0BB
:102610005DF80120DD4988620BF0020080B1DC48E2
:10262000C0F814A04069DA494968401AD849C1F88D
:1026300028010121084605F049F80120D3498862A4
:102640000BF0040080B1D248C0F818A08069D049CE
:102650008968401ACE49C1F828010121022005F0FD
:1026600035F80120C94988620BF0080080B1C848DC
:10267000C0F81CA0C069C649C968401AC449C1F85D
:1026800028010121032005F021F80120BF498862BB
:1026900000201090FEE1BF4890F802B00BF001005E
:1026A00048B10321002005F011F80320B7498862E2
:1026B0000120FEF7ABF80BF0020048B10321012026
:1026C00005F004F80320B14988620220FEF79EF865
:1026D0000BF0040048B10321022004F0F7FF0320AF
:1026E000AA4988620420FEF791F80BF0080048B16F
:1026F0000321084604F0EAFF0320A4498862082069
:10270000FEF784F8C6E1B8F800B0D8F802A09F48F8
:10271000806A00B39E48D0F8480118B90321002010
:1027200004F0D4FF9A48D0F84801012802D10321CF
:1027300004F0CCFF9648D0F84801022802D10321CA
:1027400004F0C4FF9248D0F84801032803D10321C4
:10275000084604F0BBFF0BF0010048B18C48C0F8FC
:1027600028A10121002004F0B1FF012087498862DF
:102770000BF0020048B18648C0F828A101210846A4
:1027800004F0A4FF0120814988620BF0040048B1E5
:102790007F48C0F828A10121022004F097FF012002
:1027A0007A4988620BF0080048B17948C0F828A13E
:1027B0000121032004F08AFF01207449886200206F
:1027C0001090F3E37348C0780590724890F802B017
:1027D0000BF00100A0B10598012808D16E486C49A2
:1027E000C1F828010121002004F070FF08E06A48C8
:1027F00040426749C1F828010121002004F066FF2A
:102800000BF00200A0B10598012808D16248604988
:10281000C1F828010121084604F058FF08E05E488D
:1028200040425B49C1F828010121084604F04EFFEF
:102830000BF00400A0B10598012808D1564854496E
:10284000C1F828010121022004F040FF08E05248AD
:1028500040424F49C1F828010121022004F036FF0F
:102860000BF00800A0B10598012808D14A48484952
:10287000C1F828010121032004F028FF08E04648A0
:1028800040424349C1F828010121032004F01EFF02
:10289000002010908AE300BF3E48C07805903D4874
:1028A00090F802B03A48D0F84811903050F821A082
:1028B0009038D0F84811203040F821A03449D1F8A0
:1028C000480104F0EFFE83460BF0010098B3304856
:1028D000D0F88000022815D10598012805D12C4890
:1028E000006A2B49C1F8280108E00598022805D1A3
:1028F0002748006A40422649C1F8280102210020E9
:1029000004F0E4FE2248D0F88000012813D1059895
:10291000012804D120481E49C1F8280107E0059884
:10292000022804D11C4840421949C1F8280102215B
:10293000002004F0CBFE0BF0020078B31448D0F86E
:102940008400022815D10598012805D11048406A55
:102950000F49C1F8280108E00598022805D10C4864
:10296000406A40420A49C1F828010221012004F0CE
:10297000ADFE0748D0F8840001281BD10598012836
:102980000DD105480249C1F828010FE0740200206A
:10299000BC020020AC0C002078FDFF7F0AE0059807
:1029A000022803D1F648F749C1F828010221012085
:1029B00004F08CFE0BF0040098B3F248D0F88800C5
:1029C000022815D10598012805D1EE48806AED4905
:1029D000C1F8280108E00598022805D1E948806A75
:1029E0004042E849C1F828010221084604F06EFE81
:1029F000E448D0F88800012813D10598012805D1B2
:102A0000DF484042DF49C1F8280106E00598022866
:102A100003D1DB48DB49C1F828010221084604F054
:102A200055FE0BF0080098B3D648D0F88C00022869
:102A300015D10598012805D1D248C06AD149C1F8FD
:102A4000280108E00598022805D1CE48C06A404216
:102A5000CC49C1F828010221032004F037FEC948FF
:102A6000D0F88C00012813D10598012805D1C4485D
:102A70004042C449C1F8280106E00598022803D164
:102A8000BF48C049C1F828010221032004F01EFEFE
:102A9000002010908AE2FDF781FD0020109085E271
:102AA00003F0DEF8B8F80000119040F23A421198B5
:102AB000811A90427ED00FDC13287CD006DC0728D8
:102AC00017D0092852D0112876D1BEE0A0F22340B9
:102AD000F0B30328F8D131E279296ED004DC06295D
:102AE0006CD07629F0D101E27C2968D0C629EBD1DF
:102AF00030E20020A4494861A248D0F81411A2484D
:102B00008161A048016CA04881629E48016D9E4889
:102B100081639C48D0F818119B48C1619948416C69
:102B20009948C1629748416D9748C1639548D0F86C
:102B30001C11954801629348816C93480163914848
:102B4000816D914801648F48D0F820118E4800E0D3
:102B50003AE141628B48C16C8B4841638948C16D41
:102B6000894841644AF65521816412E28548D0F8CB
:102B700080108548C1648348D0F88410824801657C
:102B80008048D0F88810804841657E48D0F88C1085
:102B90007D4881657B48D0F890107B48C1657948B5
:102BA000D0F89410784801667648D0F898107648A6
:102BB000416605E0EAE065E0EAE1B4E1F2E018E14F
:102BC0007048D0F89C10704881666E48016E6E485F
:102BD000C1666C48416E6C4801676A48816E6A48FC
:102BE00041676848C16E684881676648016F6648FA
:102BF000C1676448416F6448C0F880106148816FC4
:102C00006148C0F884105F48C16F5F48C0F8881001
:102C10005C48D0F8A0105C48C0F890105948D0F833
:102C2000A4105948C0F894105648D0F8A810564837
:102C3000C0F898105348D0F8AC105348C0F89C1016
:102C40004AF65521C0F8A010A3E14E48D0F8001173
:102C50004D48C0F838114B48D0F804114A48C0F824
:102C60003C114848D0F808114748C0F84011454881
:102C7000D0F80C114448C0F844114AF65521C0F868
:102C8000481186E13F48D0F8B0103F48C0F8DC104A
:102C90003C48D0F8B4103C48C0F8E0103948D0F8AF
:102CA000B8103948C0F8E4103648D0F8BC1036489F
:102CB000C0F8E8103348D0F8C0103348C0F8EC1022
:102CC0003048D0F8C4103048C0F8F0102D48D0F883
:102CD000C8102D48C0F8F4102A48D0F8CC102A4863
:102CE000C0F8F8102748D0F8D0102748C0F8FC10DA
:102CF0002448D0F8D4102448C0F800112148D0F856
:102D0000D8102148C0F804111E48D0F8DC101E4825
:102D1000C0F808111B48D0F8E0101B48C0F80C118F
:102D20001848D0F8E4101848C0F810111548D0F829
:102D3000E8101548C0F814111248D0F8EC101248E9
:102D4000C0F818110F48D0F8F0100F48C0F81C1147
:102D50000C48D0F8F4100C48C0F820110948D0F8FD
:102D6000F8100948C0F824110648D0F8FC100648AD
:102D7000C0F828114AF65521C0F82C1109E10000CD
:102D800088020080BC020020501B0020FE48216BFE
:102D9000C0F8A410216BC0F8A8104AF65521C0F85D
:102DA000AC10F6E0F848E16BC0F8B010216CC0F848
:102DB000B410616BC0F8B810616CC0F8BC104AF672
:102DC0005521C0F8C010E4E0EF48216EC0F8C410EF
:102DD000616EC0F8C810A16EC0F8CC10E16EC0F8EA
:102DE000D010216FC0F8D4104AF65521C0F8D81081
:102DF000CFE0E648D0F8B010E348C0F8DC10E34874
:102E0000D0F8B410E048C0F8E010E048D0F8B810AE
:102E1000DD48C0F8E410DD48D0F8BC10DA48C0F84E
:102E2000E810DA48D0F8C010D748C0F8EC10D748FE
:102E3000D0F8C410D448C0F8F010D448D0F8C81066
:102E4000D148C0F8F410D148D0F8CC10CE48C0F822
:102E5000F810CE48D0F8D010CB48C0F8FC10CB48C2
:102E6000D0F8D410C848C0F80011C848D0F8D8101D
:102E7000C548C0F80411C548D0F8DC10C248C0F8F5
:102E80000811C248D0F8E010BF48C0F80C11BF4884
:102E9000D0F8E410BC48C0F81011BC48D0F8E810D5
:102EA000B948C0F81411B948D0F8EC10B648C0F8C9
:102EB0001811B648D0F8F010B348C0F81C11B34848
:102EC000D0F8F410B048C0F82011B048D0F8F8108D
:102ED000AD48C0F82411AD48D0F8FC10AA48C0F89D
:102EE00028114AF65521C0F82C1152E0A748D0F815
:102EF0000011A548C0F83811A448D0F80411A24820
:102F0000C0F83C11A148D0F808119F48C0F8401102
:102F10009E48D0F80C119C48C0F844114AF655213F
:102F2000C0F8481135E09A48B0F878109648C0F8D3
:102F300030114AF65521C0F834112AE09248616FE9
:102F4000C0F84C11A16FC0F850114AF65521C0F8D5
:102F500054111EE08F4801688B48C0F860118D48FD
:102F600041688948C0F864118A4881688648C0F879
:102F700068118848C1688448C0F86C1185480169A7
:102F80008148C0F870114AF65521C0F8741100E06C
:102F900000BF00BF4FF001107B49486003F015F8F7
:102FA00002F03CFE0020109000E000BF00BF10982F
:102FB00070B19DF84C0000F0800018B19DF84A00F7
:102FC000801D00E006200F9012A80F9901F01FFD50
:102FD00029B0BDEC048BBDE8F08F70B56E4C02F0EB
:102FE0003FFE00234FF4BC721946674802F04EFFC3
:102FF00005466548806C4AF65521884231D16248C1
:1030000080696249C1F814015F48806A08645E48BB
:10301000806B08655C48C1695C48C0F818115A4863
:10302000C16A5A4841645848C16B5848416556487E
:10303000016A5648C0F81C115348016B534881641B
:103040005148016C514881654F48416A4F48C0F86A
:1030500020114D48416B4D48C1644B48416C4B4871
:10306000C1654948D0F8A0004AF65521884262D18E
:103070004548C06C4549C1F880004348016D43484C
:10308000C0F884104048416D4048C0F888103E4860
:10309000816D3E48C0F88C103B48C06D3B49C1F87B
:1030A00090003948016E3948C0F894103648416E96
:1030B0003648C0F898103448C16D3448C0F89C10A8
:1030C0003148C06E314908662F48016F2F4841666C
:1030D0002D48416F2D4881662B48816F2B48C16672
:1030E0002948C06F294908672748D0F88010274829
:1030F00041672548D0F88410244881672248D0F8D9
:1031000088102248C1672048D0F890001F49C1F8B4
:10311000A0001D48D0F894101C48C0F8A4101A480C
:10312000D0F898101948C0F8A8101748D0F89C108B
:103130001648C0F8AC101448D0F8AC004AF6552137
:10314000884207D11048D0F8A40020630E48D0F878
:10315000A80020630C48D0F8C0004AF655218842E8
:103160000FD10948D0F8B000E0630748D0F8B400A8
:1031700020640548D0F8B80060630348D0F8BC006C
:10318000606401480AE00000501B0020BC020020DF
:103190009C01002008000020741A0020D0F8D800FC
:1031A0004AF65521884213D1FA48D0F8C400206667
:1031B000F848D0F8C8006066F648D0F8CC00A066A1
:1031C000F448D0F8D000E066F248D0F8D400206788
:1031D000F048D0F82C014AF65521884277D1ED48C5
:1031E000D0F8DC00EC49C1F8B000EA48D0F8E010B3
:1031F000E948C0F8B410E748D0F8E410E648C0F851
:10320000B810E448D0F8E810E348C0F8BC10E14832
:10321000D0F8EC00E049C1F8C000DE48D0F8F0106A
:10322000DD48C0F8C410DB48D0F8F410DA48C0F824
:10323000C810D848D0F8F810D748C0F8CC10D548F6
:10324000D0F8FC00D449C1F8D000D248D0F8001121
:10325000D148C0F8D410CF48D0F80411CE48C0F8F7
:10326000D810CC48D0F80811CB48C0F8DC10C948B9
:10327000D0F80C01C849C1F8E000C648D0F81011D8
:10328000C548C0F8E410C348D0F81411C248C0F8CB
:10329000E810C048D0F81811BF48C0F8EC10BD487D
:1032A000D0F81C01BC49C1F8F000BA48D0F8201190
:1032B000B948C0F8F410B748D0F82411B648C0F89F
:1032C000F810B448D0F82811B348C0F8FC10B14841
:1032D000D0F848014AF65521884217D1AD48D0F8B8
:1032E0003801AD49C1F80001AA48D0F83C11AA48FC
:1032F000C0F80411A748D0F84011A748C0F8081139
:10330000A448D0F84411A448C0F80C11A148D0F842
:1033100034014AF65521884203D101209F49A1F882
:1033200078009C48D0F854014AF65521884207D1CC
:103330009848D0F84C0160679648D0F85001A067D3
:103340009448D0F85C014AF65521884203D191484F
:10335000D0F85801E0678F48D0F874014AF655213B
:10336000884214D18B48D0F860018D4908608948A3
:10337000D0F8640148608748D0F8680188608548C3
:10338000D0F86C01C8608348D0F8700108618148AA
:1033900000694AF65521884211D17E48C0680F283D
:1033A00004D180A1814806F057F90CE07948C06843
:1033B0001E2808D17BA17D4806F04EF903E079A1D3
:1033C0007A4806F049F902F029FC70BD1FB5784C27
:1033D0000120ADF800007148406860606068CDF879
:1033E00002006E488068E060A08980B2ADF80600F7
:1033F0000020ADF8080006216E4801F008FB0E2100
:10340000684601F004FB1FBD30B58FB00446684D1F
:103410005020694948710C70200A48703820887023
:103420000020C8708120087140F24440844204D1D9
:103430000020C8700120887008710120ADF80400D8
:103440000020686054480068CDF806000020CDF8E0
:103450000A00FDF753FCCDF80E000220ADF8120073
:10346000002068604C4840680590002006900120CC
:10347000FDF744FC07900420ADF8200000206860B0
:1034800045488068CDF822000020CDF826000220B3
:10349000FDF734FCCDF82A000820ADF82E000020FE
:1034A00068603D48C0680C9000200D900320FDF737
:1034B00025FC0E900621404801F0A9FA40F2444054
:1034C000844203D0382101A801F0A1FA0FB030BD29
:1034D00010B5044601203949C8700846847001209F
:1034E00008710621354801F092FA10BD1FB5044657
:1034F0000E20334988700020C87081200871012C8B
:103500000BD10120ADF8000023480068CDF802007F
:103510000020CDF80600CDF80A00022C0BD10220C5
:10352000ADF800001C484068CDF802000020CDF83E
:103530000600CDF80A00042C0BD10420ADF80000E1
:1035400015488068CDF802000020CDF80600CDF8BF
:103550000A00082C0BD10820ADF800000E48C06806
:10356000CDF802000020CDF80600CDF80A000621B3
:10357000134801F04CFA0E21684601F048FA1FBDCD
:1035800010B5044672B6012C1CD0022C1ED0032CA0
:103590003AD135E0501B0020BC0200209C010020E5
:1035A0000800002054494D31303100002A0100202C
:1035B000740200201C0000202200002028000020AF
:1035C0002E000020002002F049FD1DE0012002F045
:1035D00045FDFE48808F012801D1002002E0FC4813
:1035E000B0F91800FA498883F848808F012801D182
:1035F000002002E0F648B0F91A00F549C88303E05C
:10360000012002F02BFD00BF00BFF148048462B628
:1036100010BD10B503F0DEFD0446EE480068A04280
:1036200009D0012C03D1EB480460012010BDE9480A
:1036300004600220FAE70020F8E72DE9F041E34EAC
:103640005036E54CE54DE6484068022804D0042891
:1036500045D008286FD184E0E1480069022800D1F4
:10366000A9E094F82C0000F0010008B1A06A20B98C
:10367000A06A18B1E869022800D19CE0D4F804805F
:103680006768D84800680744474500D193E00120A7
:10369000A062E06A20F00100E062606A20F00200AF
:1036A0006062012028606F6068686168884201DAA2
:1036B000306B00E00020A860B068E86030692861E5
:1036C00070696861B069E861606A20F008000830DC
:1036D00060620220C249086105F0D0F96BE0C04881
:1036E0000069042800D166E094F82C0000F0010085
:1036F00008B1A06A20B9A06A18B1E869022800D10F
:1037000059E0D4F80480B7484768B84500D152E082
:103710000120A062E06A20F00100E062606A20F00F
:1037200002006062012028606F60686861688842FA
:1037300002DA306B01E03DE00020A860B068E8608C
:103740003069286170696861B069E861606A20F079
:103750000800083060620420A149086105F047F9BB
:1037600029E09F480069082800D124E0062028604D
:103770004FF0804068600020A8604AF28700B06384
:10378000E860706B2861F06BA86100206861E861F7
:1037900001202063A062E06A20F00100E062606A1C
:1037A00020F0200020306062706B286108208C4976
:1037B000086100E000BF00BFBDE8F08110B5FFF771
:1037C00028FF044686480068012804D1012C02D154
:1037D000FFF733FF06E08248006818B9022C01D1D8
:1037E000FFF72BFF10BD70B57B4C7D48C0680028EB
:1037F0006FD000257A48C568202D04D0402D2CD0EC
:10380000802D7AD152E0A06A012807D174488068DF
:10381000012803D180037449086008E0A06A30B928
:103820006F488068012802D180076F490860A06A4C
:10383000012807D16A48806820B94FF080406A4962
:10384000086009E0A06A012806D16548806818B9B7
:103850004FF480406449086050E0A06A38B960487D
:103860008068012803D180035F49086009E0A06AED
:10387000012806D15A488068012802D180075A4998
:103880000860A06A38B95648806820B94FF0804077
:103890005549086009E0A06A012806D150488068AF
:1038A00018B94FF480405049086027E001210B20EF
:1038B00004F0E3FA4D4890F82C0000F002000028D4
:1038C0000EDD47488068012805D18003464908601D
:1038D00012E045E011E04FF08040434908600BE002
:1038E0003F488068012803D180073F49086003E012
:1038F0004FF480403C49086000E000BF00BFA06A70
:10390000012816D136488068012807D13448C0689C
:10391000202803D140023449086020E03048806804
:10392000E8B92F48C068202819D140062E49086000
:1039300015E02B488068012807D12948C068202855
:1039400003D140062849086009E02548806830B95D
:103950002348C068202802D140022349086000BFE4
:1039600070BD2DE9F0412DED048B044600269FED3E
:10397000200AB0EE408A9FED1E0AF0EE408A9FEDCD
:103980001C0AB0EE409AB0460027134D194850F873
:103990002460072E7DD2DFE806F0043696D4DE05DB
:1039A0006500F8E01348E83850F82430503890EDBE
:1039B000550ABDEEC00A10EE102AD0F82811204694
:1039C00003F02CFE00210B4816E00000241A002012
:1039D000141B00203C00002074020020C81C0020A2
:1039E0000800002000000020180802409C01002070
:1039F00000000000F403002040F824100020E749F4
:103A0000C1F84C01C7E00221E54840F8241002202B
:103A1000E249C1F84C01084690ED550AD0ED540A30
:103A200030EE200A80ED550A90ED550ABCEEC00A32
:103A3000DC4880ED020A8068DB49B1FBF0F0D9492F
:103A40004862D648503050F82430503890ED550A2E
:103A5000BDEEC00A10EE102AD0F82811204603F05F
:103A6000DDFD98E00221CE4840F824100220CB4929
:103A7000C1F84C01084690ED550AD0ED540A30EEDD
:103A8000200A80ED550A90ED550ABCEEC00AC548E3
:103A900000E07FE080ED020A8068C349B1FBF0F0EE
:103AA000C0494862BD48703050F82430703890EDFD
:103AB000550ABDEEC00A10EE102AD0F82811204693
:103AC00003F0ACFD67E0B54890ED550AD0ED540A1F
:103AD00030EE200A80ED550A90ED550ABCEEC00A82
:103AE000B04880ED020A8068AF49B1FBF0F0AD4903
:103AF00048620846406A322801D232204862A9480A
:103B0000406AA949884202D90846A6494862A348A2
:103B1000D0F84C01022813DDA048D0F84C0103284E
:103B200002D004280AD104E003219D4840F8241063
:103B300005E004219A4840F8241000E000BF00BFCF
:103B400029E09648D0F84C01032803DD042194486D
:103B500040F824101FE0914890ED550AD0ED540A2A
:103B600030EE600A80ED550A90ED550ABCEEC00AB1
:103B70008C4880ED020A80688B49B1FBF0F08949DE
:103B800048628648D0F84C0118B90021844840F8B2
:103B9000241000E000BF00BFA88CC0F34020D0B1CB
:103BA0007E49D1F8480103F07DFDC7B2686C90B141
:103BB000686C012802D002280CD105E03846FFF7D6
:103BC00095FC0020686405E03846FCF71FFE0020E5
:103BD000686400BF00BFBDEC048BBDE8F081002627
:103BE000002700BF00BF0025704C06F0BDFF05F0A8
:103BF000C4FC00F00FFE00F022FE642000F053FE33
:103C000000F0FCF900F0DCFB00F0DEF804F0ECFF63
:103C100001F068FE02F03FF802F022F801F068FFC0
:103C200000F034FF01F003F803F01AFC012002F069
:103C3000F5F9FFF7D2F9606A20F400606062606A0B
:103C400020F00400001D6062606A20F4806000F5CE
:103C5000806060624FF40040554908609DE000F0CC
:103C60009DFE5448006820B1FDF79FF8002051499F
:103C7000086000F0E1FE4948D0F848014E4908606C
:103C800002F018FD06464C480168304602F07AFE04
:103C9000074639464848006802F0B0FE00F01BFEB7
:103CA000F8B1A08CC0F3402018B140F6E100FFF756
:103CB000ABFBA06A012804D094F82C0000F00100AE
:103CC00018B1012002F0B3F902E0002002F0AFF9D0
:103CD0003A49D1F8980003F0A0FA03F0BEF803F0D7
:103CE00081F900F0C6FD36490988401A80B20928DA
:103CF0003CDD00F0BEFD324908802848D0F82401A0
:103D000001280DD100202549C1F82401D1F848210E
:103D100001F58A7151F8220002F0ACFA214988635A
:103D20002049886B02F053FB1E498863C86B02F080
:103D3000EEF91C49C8630B201849C1F87001D1F88D
:103D4000700101F01EFF0546681C78B11348D0F8D9
:103D500070010B2802D11148C0F878510F48D0F8F3
:103D60007001042802D10D48C0F8745100F081FDA3
:103D700014490988401A80B2042808DD00F079FD52
:103D8000104908800549D1F84801FFF7EAFD05F020
:103D900047F9FFF728FD02F0AEFB60E7BC02002008
:103DA000F403002040040020A086010074020020DB
:103DB0001808024058000020480000209C01002004
:103DC0004C0000204E0000208548006840F4802010
:103DD0008349086082481038006882490843804956
:103DE000103908608048006820F480107E4908601F
:103DF0000846006840F400100860081D006820F4C0
:103E00008060091D086078480C30006820F440107C
:103E100075490C310860081F006820F44010091F24
:103E200008607148406A20F4706040F4E0616E48B8
:103E30004162006820F480006B4908600846006811
:103E400040F40000086068480C30006820F440002E
:103E500065490C3108606448406A20F4704040F4C1
:103E6000E0416148416240F26D10604908800020E5
:103E70005E4908310880091D08805C48001D0088E3
:103E800040F400505949091D088058480C300088FA
:103E900040F0C00055490C3108805548806D20F035
:103EA00001005349886500E000BF5148806D00F073
:103EB00001000028F8D14E48806D20F060604C4928
:103EC00088650846806D40F0006088650846806D12
:103ED00040F4886088654548001F08660020C86572
:103EE0000846806A20F00100886200E000BF404878
:103EF000806A00F001000028F8D13D48806A20F077
:103F000060603B4988620846806A40F000608862D1
:103F10000846806A40F4A06088623448001F086345
:103F2000344848630815C86230480838008820F0D3
:103F300040002E49083908802C48001D008840F0B8
:103F40000C002A49091D08802948806A40F00100B8
:103F50002749886270472649C96AC1F58061264AA7
:103F60001268914202D14FF6FF700FE022490A68B1
:103F70000968491C204B19601E49885C194609686C
:103F8000B1F5806F02D100211A4611607047184ABE
:103F9000926D22F00102164B9A6500E000BF144AB0
:103FA000926D02F00102002AF8D1114A5066D165E3
:103FB0000E4A083A128822F040020C4B083B1A8045
:103FC0004FF000620A4B9A601A46926D42F001026D
:103FD0009A65704705480838008800F0400070472F
:103FE000403802400200200000040240084800401F
:103FF00000600240AC04002050000020E54800684A
:1040000040F00100E3490860E348006820F44030D4
:10401000E14908600846C06820F48030C86008465E
:10402000C06820F40030C86008460068DB490843D7
:10403000D949086008460068D9490840D64908604F
:104040000846806940F4004088610846806940F075
:10405000010088610846806940F0020088610846D6
:10406000806940F0040088610846806940F00800DB
:104070008861C848006840F00200C6490860C94825
:104080000068C9490843C749086008460068C7492D
:104090000840C44908600846006840F08050086045
:1040A0000846006820F0005008600846006840F0AC
:1040B000804008600846006820F000400860B94869
:1040C0001830006840F48030B6491831086008465E
:1040D000006840F4003008600846006840F40010B2
:1040E00008600846006840F0400008600846006824
:1040F00040F0007008600846006840F0805008609A
:104100000846006840F4804008600846006840F0B7
:1041100000400860A348006820F0C000A149086082
:10412000A0480C30006820F040009E490C31086027
:104130000846006820F0800008609A48006820F473
:1041400040709849086097480C30006820F48070EF
:1041500094490C3108600846006820F4007008603B
:104160009048006820F040708E4908608D480C30FF
:10417000006820F080708B490C31086008460068A8
:1041800020F0007008608748006820F04060854992
:10419000086084480C30006820F0806081490C3150
:1041A00008600846006820F0006008607D480068EC
:1041B00020F440407B4908607A480C30006820F4C5
:1041C000804078490C3108600846006820F40040BF
:1041D00008607448006820F44030724908607148F3
:1041E0000C30006820F480306E490C3108600846BD
:1041F000006820F4003008606A48006820F04060E1
:104200006849086067480C30006820F080606549A4
:104210000C3108600846006820F0006008605D48C6
:10422000006840F004005B4908606148006840F2A3
:10423000511108435E4908600846006840F2A22117
:1042400088435B490860084600685A490843584952
:104250000860084600685849084055490860084603
:10426000006820F08060086051480C30006820F041
:1042700080604F490C3108600846006820F00060FB
:1042800008604B48006820F0804049490860484871
:104290000C30006820F0804045490C310860084629
:1042A000006820F0004008604148006820F00400E9
:1042B0003F4908603E480C30006820F004003C494B
:1042C0000C3108600846006820F008000860384893
:1042D000006820F480403649086035480C3000689A
:1042E00020F4804032490C3108600846006820F410
:1042F000004008602E481830006840F001002C494A
:10430000183108600846006840F4802008600846BC
:10431000006840F4002008600846006840F0100083
:1043200008600846006840F0200008600846006801
:1043300040F4800008600846006840F4807008601F
:104340000846006840F0007008600846006840F0C9
:10435000804008600846006840F4004008600D484E
:10436000006840F008000B4908601448006840F0FD
:104370001000124908600846006820F0200008601C
:104380000E480830006840F030000C4908310860E1
:1043900070470000303802400000024055000040E5
:1043A00055FFFF7F0004024005140400F5D7F7FF16
:1043B0000008024000140510FFD7F5DF000C024092
:1043C000F948006840F01000F7490860F6481438D2
:1043D0000068F6490843F44914390860F448006855
:1043E00020F48020F24908600846006840F400206C
:1043F00008600846406820F4007048600846C068BD
:1044000020F44020C8600846806820F4402088607E
:104410000846406A20F0F00040F07001E448416234
:10442000006820F48010E24908600846006840F403
:10443000001008600846C06820F40010C8600846F4
:10444000C06840F48010C8600846406A20F470607C
:1044500040F4E061D6484162C002D549886108460F
:10446000006840F0807008600846006820F0007026
:1044700008600846806840F0407088600846006820
:1044800020F4400008600846C06820F40000C860BE
:104490000846C06840F48000C86040F2D920C54991
:1044A00008810020088288820846808940F40050F4
:1044B00088810846808A40F0C0008882BE48006833
:1044C00020F00100BC49086000E000BFBA48006865
:1044D00000F001000028F8D1B748006820F06060C3
:1044E000B54908600846006840F00060086008466A
:1044F000006840F488600860AE48001DAE4908318D
:1045000008600020091F0860AB487838006820F078
:104510000100A9497839086000E000BFA648783852
:10452000006800F001000028F7D1A348783800683F
:1045300020F06060A049783908600846006840F0C3
:10454000006008600846006840F4A0600860994870
:10455000001D9949703908609848091D08600815C0
:104560009549743908609348008820F040009149CB
:1045700008800846808940F00C0088818E48783891
:10458000006840F001008C4978390860704786481F
:10459000001F006840F400308349091F0860084686
:1045A0000068824908438049091F08608048006804
:1045B00020F480207E4908600846006840F400200E
:1045C00008600846406820F4007048600846C068EB
:1045D00020F44020C8600846806820F440208860AD
:1045E0000846406A20F0F00040F0700170484162D7
:1045F000006820F480106E4908600846006840F4A6
:10460000001008600846C06820F40010C860084622
:10461000C06840F48010C8600846406A20F47060AA
:1046200040F4E06162484162C00261498861084625
:10463000006840F0807008600846006820F0007054
:1046400008600846806840F040708860084600684E
:1046500020F4400008600846C06820F40000C860EC
:104660000846C06840F48000C86040F2D920514933
:1046700008810020088288820846808940F4005022
:1046800088810846808A40F0C00088824A480068D5
:1046900020F001004849086000E000BF464800687B
:1046A00000F001000028F8D14348006820F0606065
:1046B000414908600846006840F00060086008460C
:1046C000006840F4886008603A48001D3A490831A3
:1046D00008600020091F086037487838006820F01B
:1046E000010035497839086000E000BF3248783869
:1046F000006800F001000028F7D12F4878380068E2
:1047000020F060602C49783908600846006840F065
:10471000006008600846006840F4A0600860254812
:10472000001D2549703908602448091D08600815D6
:104730002149743908601F48008820F040001D4955
:1047400008800846808940F00C0088811A48783833
:10475000006840F001001849783908607047164930
:1047600074390968C1F58061154A1268914202D115
:104770004FF6FF700FE012490A680968491C104B98
:1047800019600E49885C19460968B1F5806F02D13D
:1047900000211A4611607047074A126822F0010290
:1047A000054B1A600FE00000443802400100400051
:1047B0000000024000100140B8640240AC08002034
:1047C0005400002000BF114A126802F00102002AC2
:1047D000F8D10E4A0C3210600C4A121D11600C4ABE
:1047E000128822F040020A4B1A804FF00062074BF9
:1047F000AC3B1A60054A126842F00102034B1A6092
:1048000070470348008800F040007047B8640240D9
:10481000001001405B48006840F001005949086001
:104820000806008840F00100090608804AF20F409F
:1048300008850846808A40F0010088827047514808
:10484000006840F008004F4908604F48008840F079
:1048500001004D49088045F208204B492831088065
:1048600049481430008840F001004749143108805D
:104870007047454824300068C0F34F0070474FF040
:104880008040406AC0F34F00704700B50146FFF713
:10489000F6FF024600E000BFFFF7F1FF801A80B28A
:1048A0008842F8DB00BD0246384850434FF47A7323
:1048B000B0FBF3F1B1F1807F01D3012070474FF0DD
:1048C000E020006940F001004FF0E0231861184635
:1048D00041610020F2E74FF0E020006900F48030F1
:1048E00070472848006840F08050264908602848F2
:1048F000006840F480702649086022483030006823
:1049000040F440701F49303108600846006840F4A8
:1049100000400860CA201F490860532008601D48F5
:104920001838006840F080001A491839086000E023
:1049300000BF18481838006800F040000028F7D081
:104940001448143800686FF30C0041F63F710844B6
:104950001049143908600846006820F4FE0040F44D
:10496000F800086000200B49243908600A48091D36
:10497000086008481838006820F080000549183998
:104980000860704740380240000C0040406F400112
:1049900000700040242800400244130010B5344841
:1049A0000068012801D1102010BD23E031480268C1
:1049B0000068401C2F4B18602F488454184600682C
:1049C00006280BD12C48007900F0800010B12A484D
:1049D000807800E00020801D284908602548006894
:1049E00026490968884205D1002022490860012033
:1049F0001F4908601E480068012806D0FFF7AFFE77
:104A000004464FF6FF718842D0D10420CCE710B5A0
:104A10001B4B1B681B4C24681A191A4B1B680B4450
:104A2000184C236003E010F8013B02F8013B0B0037
:104A3000A1F10101F7D110BD10B512480068B0B165
:104A4000FFF7DFFE98B10F4801680D480068FFF7D7
:104A5000A3FE0B4800680C49884202D101F5806032
:104A600000E009480649086000200649086010BDBA
:104A70005800002064000020AC0C002068000020DA
:104A80005C00002060000020AC10002030B5002346
:104A9000F74BF848006840F00200F6490860F64815
:104AA000006820F00100F44908600846006840F002
:104AB00002000860081D006820F00100091D086060
:104AC000ED480C30006820F00300EB490C31086021
:104AD000081F006840F00300091F0860E648203006
:104AE000006820F00F00801CE34920310860E24894
:104AF000006820F00400E04908600846006840F0C3
:104B000008000860081D006820F00200091D086008
:104B1000D9480C30006820F00C00D7490C310860EF
:104B2000081F006840F00C00091F0860D2482030C0
:104B3000006820F0F00040F02000CF4920310860EC
:104B4000CC481030006840F00200CA4910310860BB
:104B50000720CA4908803120091D086068200860C4
:104B60002820C64914310860C4480C38008840F039
:104B70006800C2490C390880081D008840F4807024
:104B8000091D08800520BD4918310860BB480C3854
:104B9000008840F4D040B9490C390880081D0088CD
:104BA00040F48050091D0880B4481438008840F053
:104BB0000100B24914390880B0481C38008840F020
:104BC0000800AE491C390880AC482838008840F0FD
:104BD0000100AA492839088003200246A84C216810
:104BE0004FF6FF042140A74C0C4344EA0221A44C99
:104BF000216000BF1D200121002808DA0A07150ED8
:104C00009F4A0C3200F00F04241F155503E00A07D9
:104C1000140E9D4A145400BF1D20012181404209F9
:104C2000920002F1E022C2F8001100BF30BD002066
:104C30008F489049096841F004018E4A11609349F8
:104C4000096821F48051914A11601146096841F4C4
:104C500000511160111D096821F04001121D116001
:104C60008A490C31096821F44051884A0C3211609C
:104C7000111F096841F44051121F1160834920310E
:104C8000096821F0706141F04071804A2032116062
:104C900078491431096841F00201764A14321160F2
:104CA00007217B4A1180F021121D11600521784AED
:104CB0000C32116076491039098841F06001744A5C
:104CC000103A118072490839098841F00101704A8F
:104CD000083A11806E491C31098841F400416C4A40
:104CE0001C3211806A492839098841F00101684A5B
:104CF000283A1180704710B50024604818380088A1
:104D000020F008005D49183908800846008820F026
:104D1000100008805E481838008820F002005C49C6
:104D2000183908800020554914310860091D0860B1
:104D30005848006802287DD003DC38B101280AD128
:104D400056E0112808D01228F9D106E014240420D6
:104D50004E49183108600FE300BF01204E498862B8
:104D60004C48006820F0F0004A4908600846006896
:104D7000012810D141481C38008840F008003F4904
:104D80001C3908800846008820F0100008800520A3
:104D9000404988610FE039481C38008840F0100015
:104DA00036491C3908800846008820F00800088031
:104DB0000520384988613748806810B90120354995
:104DC0008860344880683549B1FBF0F031490862A9
:104DD0000846006A48620846006A314908600020B7
:104DE0002C49C8614FF48020284918310860C3E27B
:104DF0002848406907287DD2DFE800F07C0424546D
:104E0000687D9A00234880691C4914310860244851
:104E10000068204908624FF480201C49183108605E
:104E20001C48C069401C1B49C8610846C069072866
:104E300007D100E027E1022048610020C8610A2074
:104E400088611EE1134880690C49143108601148DB
:104E5000C069401C0F49C8610846C069092805D1CE
:104E6000032048610020C8610F20886109E100002B
:104E700080DE8002303802400004024028040040F6
:104E80000CED00E00000FA0500E400E0000802403C
:104E9000280401404004002074020020A086010084
:104EA000A8000020FE488069FE490860FC48C069EF
:104EB000401CFB49C8610846C069082805D1042088
:104EC00048610020C8610A208861DAE0F4488069FE
:104ED000F4490860F248C069401CF149C8610846BD
:104EE000C069072805D1052048610020C861052058
:104EF0008861C6E0C4E0EA488069EA490860E84899
:104F0000C069401CE649C8610846C06906280ED938
:104F1000002088610846C069072808D90620486132
:104F200000208861C8610846006A20380862A8E04D
:104F3000DB48C06990B90420DB490860D848C069E3
:104F4000401CD749C86108464068D84951F820003C
:104F5000401CD3494968D54A42F82100D048006A2C
:104F6000002878D1D148D0F84C0130B1022805D0C2
:104F7000032829D0042838D136E037E0C848C06A71
:104F8000C749096B884204D80420C849C1F84C01BC
:104F900019E0C348406AC249896A884213D8C348A5
:104FA000D0F82801BE49C96A401AC049C1F8300189
:104FB000BB48C06AD1F83011401ABC49C1F834016D
:104FC0000320C1F84C0111E0B848D0F8340118B9F9
:104FD0000420B649C1F84C01B448D0F83401401E51
:104FE000B249C1F8340101E000E000BF00BFAC48A5
:104FF000C06A78B3AA48C06A401EA949C8620020A6
:10500000C8610846C06A38BB0846006C012811D147
:1050100048610520886108468068A549B1FBF0F029
:105020009F4908620846006AA249086001209C491D
:10503000C86224E000209A49086048619B49C1F891
:105040004C019D48806A012801D19B494864002099
:105050009949886213E00DE0FFE70120904948611B
:10506000052088610846406A08620846406A9149FE
:10507000086004E08A48006A401E8949086200E02E
:1050800000BF00BF78E186484069072873D2DFE897
:1050900000F072045D73889DBB00864800688049FB
:1050A00008620846C06970B904207F4908607C48DE
:1050B000C069401C7A49C86105208861002079498F
:1050C000091D086041E07648C06901280FD18004BD
:1050D00075490860082008607148C069401C704923
:1050E000C861084680696F49091D08602DE06C4859
:1050F000C06902280AD16A48C069401C6849C86171
:10510000084680696749091D08601EE06448C06957
:1051100002281AD9624880696249091D08606548F9
:1051200000685F4908620846C069401CC8610846BB
:10513000C069082809D100045B4908600220584969
:1051400048610020C8610520886113E154488069E6
:105150005449091D08605248C069401C5049C86143
:105160000846C069072805D1032048610020C861AE
:1051700046208861FEE0FCE0494880694949091DF4
:1051800008604748C069401C4549C8610846C06975
:10519000082805D1042048610020C8613C208861AE
:1051A000E8E03F4880693F49091D08603C48C06904
:1051B000401C3B49C8610846C069092805D1052043
:1051C00048610020C86114208861D3E034488069B8
:1051D0003449091D08603248C069401C3049C86123
:1051E0000846C06905280ED9002088610846C069B4
:1051F000062808D90620486100208861C861084651
:10520000006A20380862B5E02548C06990B90420DA
:10521000254908602248C069401C2149C8610846E8
:105220004068224951F82000401E1D4949681F4A24
:1052300042F821001A48006A002875D11B48D0F8AE
:105240004C0130B1022805D0032837D0042846D1BC
:1052500044E045E01248C06A1149096B884204D80D
:1052600004201249C1F84C0119E00D48406A0C496C
:10527000896A884213D80D48D0F828010849C96ABC
:10528000401A0A49C1F830010548C06AD1F8301106
:10529000401A0649C1F834010320C1F84C011FE04F
:1052A000400400203C04004018080240BC020020DA
:1052B000A0860100A800002074020020FE48D0F85B
:1052C000340118B90420FC49C1F84C01FA48D0F85F
:1052D0003401401EF849C1F8340101E000E000BF8C
:1052E00000BFF648C06A80B3F448C06A401EF34964
:1052F000C8620020C8610846C06A38BB0846006C16
:10530000012812D148610520886108468068EC496F
:10531000B1FBF0F0E94908620846006AE949086013
:105320000120E649C86223E01DE00020E34908604F
:105330004861E149C1F84C01E348806A012801D184
:10534000E14948640020E049886211E00120DB491E
:105350004861052088610846406A08620846406A3C
:10536000D849086004E0D548006A401ED349086265
:1053700000E000BF00BF00BF00BFD448006830B9E4
:10538000012000F064FC0120D049086017E0CA4801
:10539000D0F86001022808D1002000F058FC00F08D
:1053A00057FDC549C1F85C0106E0C348D0F860016B
:1053B000012801D100F04BFC0020C4490860BE4820
:1053C000D0F86C01C249086010BD00B52DED088B06
:1053D00081B0C048006800F0100000287ED0BE48B0
:1053E0008089BE490968401A00EE100AF8EEC09A9A
:1053F000BB480088B9494968401A00EE100AB8EE67
:10540000C09AB8484088B5498968401A00EE100A29
:10541000B8EEC0AA9FEDB40A29EE800AB348D0EDD9
:10542000020A9FEDB31A01EE200A80ED020A9FEDF9
:10543000AE0A29EE000AD0ED030A9FEDAD1A01EE87
:10544000200A80ED030A9FEDAB0A2AEE000AD0ED98
:10545000050A9FEDA91A01EE200A80ED050AC0EDAC
:10546000009A80ED019A80ED04AAA44890ED120AFA
:1054700020EE298A90ED130A60EE098AD0ED010A28
:105480009F4890ED000A08EE200A80ED000A90ED9A
:10549000000ADFED9C0AB4EEE00AF1EE10FA04DD3A
:1054A0009FED980A80ED000A0DE0954890ED000A06
:1054B000DFED950AB4EEE00AF1EE10FA03D29FEDAB
:1054C000920A80ED000A8D48D0ED010A8F4890EDD8
:1054D000000A08EEA00A80ED000A00E0D0E190ED9D
:1054E000000ADFED880AB4EEE00AF1EE10FA04DDFE
:1054F0009FED840A80ED000A0DE0844890ED000ADB
:10550000DFED810AB4EEE00AF1EE10FA03D29FED6E
:105510007E0A80ED000A794890ED030A7C48D0EDC0
:10552000000A78EE600A20EE200A7448D0ED030AE3
:10553000B7EE001A71EE600A764890ED001A00EEA0
:10554000810A80ED000A6D4890ED030A7248D0EDA3
:10555000000A78EEE00A20EE200A6848D0ED030A3F
:10556000B7EE001A71EE600A6C4890ED001A00EE7A
:10557000810A80ED000A664880ED008A6648C0ED29
:10558000008A5E48D0ED000A5D4890ED000A08EE02
:10559000200A5A48D0ED020A5E4890ED001AF0EE5B
:1055A00040AA41EE20AA5548D0ED000A574890ED98
:1055B000000A08EEA00A5148D0ED020A574890EDC3
:1055C000001AB0EE40BA01EE20BA554890ED000A3C
:1055D000544880ED000A544890ED000A504880ED90
:1055E000000A524890ED000A514880ED000A5148E7
:1055F00090ED000A4D4880ED000A4B48C0ED00AA2E
:105600004D48006890ED000A4748D0ED000A20EEB2
:10561000200A49480068D0ED010A414890ED001A7F
:1056200001EE200A44480068D0ED020A3D4890EDA2
:10563000001A01EE200A40480068D0ED030A3B48FA
:1056400090ED001A01EE200A3B480068D0ED040AF4
:10565000374890ED001A01EE200A364880ED000A26
:10566000364890ED000A364880ED000A354890ED46
:10567000000A324880ED000A334890ED000A3348B2
:1056800080ED000A324890ED000A2F4880ED000AB4
:105690002C4880ED00BA2848006890ED000A29489F
:1056A000D0ED000A20EE200A23480068D0ED010A60
:1056B000224890ED001A4DE0BC020020400400207A
:1056C000A0860100A800002074020020A000002095
:1056D000340401401408024000300140FC1A00204C
:1056E0000C380040C4000020A69BC43B141B0020C3
:1056F000C9767E3F6F12833A77BE7F3F241A00201F
:10570000AC00002000FEFF4600FEFFC6B0000020F7
:10571000B4000020BC000020B8000020C000002021
:10572000740000207800002070000020800000201D
:10573000840000207C0000206C0000208C000020F1
:105740009000002088000020980000209C0000208D
:105750009400002001EE200A53480068D0ED020AB0
:10576000524890ED001A01EE200A4F480068D0ED33
:10577000030A4F4890ED001A01EE200A4A480068DB
:10578000D0ED040A4B4890ED001A01EE200A4A4879
:1057900080ED000A4948008C032810D14848006871
:1057A00005F095F900F30F0044490883424800686A
:1057B00005F08DF900F30F00404948831AE03F4897
:1057C000808B3E4908830846C08B48839FED3D0A85
:1057D0003B4880ED000A9FED3B0A374880ED000A08
:1057E0009FED380A384880ED000A9FED360A3748A9
:1057F00080ED000A3148B0F918003549B1F93E1082
:10580000884204DA3248C08F2C4908830CE02B48C8
:10581000B0F918002E49B1F94010884204DD2C4837
:10582000B0F84000254908832448B0F91A002849F7
:10583000B1F94210884205DA2548B0F842001F4904
:1058400048830CE01D48B0F91A002149B1F9441011
:10585000884204DD1E48B0F84400184948834FF4DC
:1058600040101C4908601548408B00F500401A495B
:1058700008801248008B00F50040184988810EE02E
:105880001648808900901448008800903020114903
:1058900008601348806840F080401149886001B07A
:1058A000BDEC088B00BD00006C00002090000020C3
:1058B000980000209C00002094000020141B002071
:1058C0007C00002000000000AC000020B0000020A0
:1058D000241A0020180802400C3800400030014013
:1058E0000020014008B57E48006840F001007C4976
:1058F00008607B481430006840F4805078491431C7
:1059000008607848006820F48040764908600846BE
:10591000006840F4004008600846406820F08000BD
:1059200048600846C06820F44040C8600846806867
:1059300060F4404088600846006A20F0704040F003
:10594000A04008620846006820F4806008600846AD
:10595000006840F4006008600846406820F02000BD
:1059600048600846C06820F44060C8600846806807
:1059700060F4406088600846006A20F4700040F4DB
:10598000A00008620846006820F4805008600846BD
:10599000006840F4005008600846C06840F4805039
:1059A000C8600846C06820F40050C8600846006A15
:1059B00020F0706040F0A06008624948006840F044
:1059C00004004749086010204749086046481838D5
:1059D000006840F48070444918390860084600683F
:1059E00020F400700860081D006820F01000091DF8
:1059F00008603D480C38006820F440703A490C3982
:105A00000860081F006860F44070091F086037488C
:105A1000808820F04000354988800846008820F0C2
:105A20004000088040F20F3008800846008840F4AB
:105A3000006008800846008840F040000880084662
:105A40008089009008BD08B1102101E04FF4801159
:105A5000254A1160704708B1012101E04FF48031FF
:105A6000214A1160704710B5014600221F4B9981F1
:105A700000E000BF1D4B1B891BB91346521C642B51
:105A8000F7D31A4B9B89D8B210BD0021174A9181D8
:105A900000E000BF1549098901F001010029F8D093
:105AA00012498889704701461048818100BF0F481C
:105AB000008900F002000028F9D000BF0B480089DF
:105AC00000F001000028F9D000BF0848008900F06C
:105AD00080000028F9D105488089C0B270470000D5
