:020000040000fa
:08000000000c040000000000e8
:020000040000fa
:08020000000c000002000000e8
:020000040000fa
:101800008f3921000e7f22000e01880000000000a9
:101810000c000700208327000100200011000700b2
:10182000000020000000e000020032000000020082
:10183000000000009a350200000000000040da00bd
:101840000000fe004440a900a03c20000000e00091
:101850000300320000002000a00188004440a800de
:101860000000060091018800800078000000eb0075
:1018700015003700e280400032a0b4009101ba00a8
:10188000e280400032a0b4009102ba00e280400041
:1018900032a0b4000002eb00472bde00f507b200d7
:1018a000602ce10004003a000059eb008301e900dc
:1018b000fdff3e00040037006128e1000100320016
:1018c0000082eb00040007001101ba000200e000f2
:1018d000e8ff3a00000006003159ba008301e90030
:1018e0000c0032002159ba008301e90008003200df
:1018f0000400e00003003a00e280400032a0b4009f
:10190000f5ff370011d9ba008301e900faff3a0068
:101910008100e800e180400032a0b4000000060031
:10192000020007000400be00000006006022b800ac
:10193000060220000000d0008180d2000482d20084
:101940008582d2000000a0000202520083825a0069
:10195000030031000202420083824a000000a1001d
:101960000603e900f3ff3a0000000600889fbe006e
:101970008a9fbe00010578000100e00004003500e8
:1019800008003c000000e0002000320005003700a5
:1019900060001000e080180002003b0001f02c0005
:1019a0001a0037000004be006011b8006b09200067
:1019b0000982cf00020039000882cf000441b00044
:1019c000694252000e00320008003b008281710023
:1019d000610164008904d1000884d3008b05e8000c
:1019e0000442e800f9ff3a0005003700080444000b
:1019f00089844c008b05e9000442e900fbff3a00b2
:101a0000b40007000af0a70001f0a0004f05be00d7
:101a10004f04be0000000600889fbe008a9fbe00e3
:101a20008c1f7800d1000700d800330003866c00bb
:101a30006450e100240032006420e10027003200fd
:101a40006150e100220032006120e10021003200fb
:101a50008b854200eb07b1000134b800003ab800b2
:101a60000804420089844a00013ab8000030b800f6
:101a70008880400009014a00040033000000400053
:101a800081804800020149008b05e900c909dd0099
:101a9000830170000100320013002000c814de0032
:101aa0004814dd004709de001200b200c808de005d
:101ab000088470008700070001f0a1000cf0a70067
:101ac00001f0a000ba0037006120e100bc00320044
:101ad0000801be000200be00f7ff37006150e100c0
:101ae000fcff3a00b600370003f0a200889fbe005a
:101af0008a9fbe008c1f78009c000700a300330063
:101b00006450e1004f0032006420e10052003200d6
:101b100003826c0007003b000905d0000306d000db
:101b2000820f54000c065d000200390002003200f2
:101b300089017800030678008582550004003d0085
:101b40000003fd008103fd008502ea008b85420051
:101b5000840f720002003b0060001000e08018005b
:101b60006011b8000005eb007a28e1000a00390096
:101b700006007800c75ddd00f707b20087807500ba
:101b80002d003700828171000a0178006105600034
:101b90008180d1000080d3008502e900f9ff3b007d
:101ba000060440008784480002003b0060041400e3
:101bb000e0841c000988a300070032008a817100bc
:101bc00082817100610164008904d1000884d3001e
:101bd0008b05e800170037000978a30013003a00ce
:101be0000b00e000130034008b05e90008044400fa
:101bf00089844c000a4474000978a3000d003a005f
:101c00000b00e000070034008b05e90008044400e5
:101c100089844c0001003a000b0020000978a300e1
:101c2000f7ff32000001eb000200370082817100f3
:101c30000a017800270007000cf0a70001f0a000bf
:101c40005b0037006420e10002003a00838f6c00e3
:101c50005b0033000801be000200be0054003700e4
:101c60000001eb00590037000001be00c000070072
:101c70000470a70003f0a10003f8a30013003a00ca
:101c80006509b10010003200090035006928e10043
:101c9000020035000100280000000500000040009f
:101ca000818048008502e900fcff3a000000060040
:101cb000f88f4200050035008100d1000080d3007c
:101cc0008502e800fcff3a00000006008000eb00ff
:101cd0000000050081002000618055000b003d00e0
:101ce0000b00200061fe2f000100e1001d00340008
:101cf00082817100610164008904d1000884d300ed
:101d00000000e800faff3a00710020006100640062
:101d1000030070000200600009003200610444000a
:101d2000e0844c000988a500050032008b05e8001e
:101d30006808e10002003a008904d1000884d30059
:101d4000f20f20000258e10005003d00c75ddd00f4
:101d5000f907b200898075000800780000000600cd
:101d60000bf827008b007800000005000004be007f
:101d70007f0007000003be000405be000200be0095
:101d80007b000700844f7500000006000200be00c3
:101d90006450e100050036006420e10002003600d6
:101da0000968a30001003a000800be000160a0001d
:101db0004f0678004f05be004f04be00000006002d
:101dc000f0ff2f00f1ff2700f9ff3700889fbe00ca
:101dd0008a9fbe008c9fbe00820578000004be0072
:101de000630007000800be006420e100070039001e
:101df00002003a00f1ff2700f0ff2f000160a00071
:101e000012022000b29c8800550037006120e100da
:101e100003003a000b00a70001f823005000370030
:101e200001f0a10002002100936424006500070076
:101e30000800be0004003500b2fd2000930c240011
:101e4000620007000004be000005eb000b00a600c6
:101e50004f0dde0001f0a1000004be0032982f00fb
:101e600023ea2300ecfe07000001eb0003f023004f
:101e70000b00a70003f823001cff07005500070014
:101e80000000a7000a00a200b8fe07000b00e00057
:101e9000030032000200200003f0230012ff0700bd
:101ea00001f0a2000006be000200200093042400fe
:101eb000d9fe07000801be000cff0700809fbe008e
:101ec0000c00be0022a22a00d3a72300d2fe0700e6
:101ed0004f01be0005ff07000004be0001f0a10095
:101ee0000200200003982300360007000800be000f
:101ef000190035000001be00c7fe07000006be0045
:101f0000b2c52900e3622300c3fe070022222b0092
:101f1000f3942b00f5fe07000c01be00befe070087
:101f2000e273280083c02300f0fe07000c01be000e
:101f3000b9fe070042aa2a00a3e22b00ebfe07002d
:101f40000c01be00b4fe07000801be00b2fe07008f
:101f50000801be00e5fe07000a00a70001f0a2008c
:101f60004f06be004f05be004f04be000000060035
:101f7000c70ade00f107b200f50fb2000800320018
:101f8000e1cf4200020032000170a00024000500f1
:101f9000810f7000010032000408050044000500b4
:101fa000810f700002003a00140005008502e9006c
:101fb0000000400081c04800fcff3b000170a00011
:101fc0002400050014002000230037000400200036
:101fd0003c0037000001be00e5ff07000470a700c9
:101fe00003f0a1006509b100160032000d003500b4
:101ff0006828e10006003500f0ff2f00f1ff270000
:102000000300e00013003b00010028000000050071
:1020100000004000818048008502e900fcff3a0092
:1020200008003700f88f420002003c008000eb00ff
:10203000000005008100d1000080d3008502e80087
:10204000fcff3a000300e00002003b0060001000cb
:10205000e080180000000600889fbe008a9fbe0036
:10206000841f780041ff07004f0078001100330003
:10207000f0ff2f00838f6c0006003b000405650015
:102080000a00a7000800370009f0a6001000200091
:1020900008003700820f5400838f5c000300390072
:1020a0001000200001003e000000200009f0a70001
:1020b0000000ea004f05be004f04be000000e00033
:1020c00000000600889fbe008a9fbe008c1f78001b
:1020d0004f26dd0025ff07002cff33006120e100c3
:1020e000430032006250e10041003e003e003900f2
:1020f0006420e1003c003200058255000f003b00e7
:102100000402e80038003a00800f5300818f5b0022
:10211000350034000800be0003f0a10001f0a60065
:1021200003f0a0000cf0a70070fe070020ff3700ae
:102130000603430087834b000c464600000553000e
:1021400081855b00020033000a03be000c00a00082
:102150000402e900f6ff3b00850578000602430013
:1021600087824b0004003a006000b80009f0a70025
:1021700001f0a0000eff37000002520081825a00d9
:102180000704e000040033000603430087834b008c
:102190008b05e900faff3700090578000604be0048
:1021a0000203be006011b800cafe0700e00f520033
:1021b000e08f5a000700350002003c000c08a30025
:1021c000040032000601be0003f0a0000cf0a700de
:1021d00046fe07000a85680001f0a1000af0a7008a
:1021e00001f0a000f2fe37000800be00f0fe37004c
:1021f000100220000cf0a600b09c8800f0fe370012
:020000040000fa
:020000040001f9
:0457f0007fff000037
:020000040000fa
:020000040001f9
:0457f400fffc0000b6
:020000040000fa
:020000040001f9
:0457f800cefa0000e5
:020000040000fa
:020000040001f9
:0457fc007f3f0000eb
:020000040000fa
:100008003e7b00003e7b00003e7b00003e7b000004
:100018003e7b00003e7b00003e7b00003e7b0000f4
:100028003e7b00003e7b00003e7b00003e7b0000e4
:100038003e7b00003e7b00003e7b00003e7b0000d4
:100048003a1500003e7b00003e7b0000ca14000009
:10005800e61400003e7b00003e7b00003e7b000073
:100068003e7b00003e7b00003e7b000056150000f2
:100078003e7b00003e7b00003e7b00003e7b000094
:100088003e7b00003e7b00003e7b00003e7b000084
:100098003e7b00003e7b0000021500001e1500009c
:1000a8003e7b00003e7b00003e7b00003e7b000064
:1000b8003e7b00003e7b00003e7b00003e7b000054
:1000c8003e7b00003e7b00003e7b00003e7b000044
:1000d8003e7b00003e7b00003e7b00003e7b000034
:1000e8003e7b00003e7b00003e7b00003e7b000024
:1000f8003e7b00003e7b00003e7b00003e7b000014
:100108003e7b00003e7b00003e7b00003e7b000003
:100118003e7b00003e7b00003e7b00003e7b0000f3
:100128003e7b00003e7b00003e7b00003e7b0000e3
:100138003e7b00003e7b00003e7b00003e7b0000d3
:100148003e7b00003e7b00003e7b00003e7b0000c3
:100158003e7b00003e7b00003e7b00003e7b0000b3
:100168003e7b00003e7b00003e7b00003e7b0000a3
:100178003e7b00003e7b00003e7b00003e7b000093
:100188003e7b00003e7b00003e7b00003e7b000083
:100198003e7b00003e7b00003e7b00003e7b000073
:1001a8003e7b00003e7b00003e7b00003e7b000063
:1001b8003e7b00003e7b00003e7b00003e7b000053
:1001c8003e7b00003e7b00003e7b00003e7b000043
:1001d8003e7b00003e7b00003e7b00003e7b000033
:1001e8003e7b00003e7b00003e7b00003e7b000023
:0801f8003e7b00003e7b00008d
:020000040000fa
:100208003e7b00003e7b00003e7b00003e7b000002
:100218003e7b00003e7b00003e7b00003e7b0000f2
:100228003e7b00003e7b00003e7b00003e7b0000e2
:100238003e7b00003e7b00003e7b00003e7b0000d2
:100248003a1500003e7b00003e7b0000ca14000007
:10025800e61400003e7b00003e7b00003e7b000071
:100268003e7b00003e7b00003e7b000056150000f0
:100278003e7b00003e7b00003e7b00003e7b000092
:100288003e7b00003e7b00003e7b00003e7b000082
:100298003e7b00003e7b0000021500001e1500009a
:1002a8003e7b00003e7b00003e7b00003e7b000062
:1002b8003e7b00003e7b00003e7b00003e7b000052
:1002c8003e7b00003e7b00003e7b00003e7b000042
:1002d8003e7b00003e7b00003e7b00003e7b000032
:1002e8003e7b00003e7b00003e7b00003e7b000022
:1002f8003e7b00003e7b00003e7b00003e7b000012
:100308003e7b00003e7b00003e7b00003e7b000001
:100318003e7b00003e7b00003e7b00003e7b0000f1
:100328003e7b00003e7b00003e7b00003e7b0000e1
:100338003e7b00003e7b00003e7b00003e7b0000d1
:100348003e7b00003e7b00003e7b00003e7b0000c1
:100358003e7b00003e7b00003e7b00003e7b0000b1
:100368003e7b00003e7b00003e7b00003e7b0000a1
:100378003e7b00003e7b00003e7b00003e7b000091
:100388003e7b00003e7b00003e7b00003e7b000081
:100398003e7b00003e7b00003e7b00003e7b000071
:1003a8003e7b00003e7b00003e7b00003e7b000061
:1003b8003e7b00003e7b00003e7b00003e7b000051
:1003c8003e7b00003e7b00003e7b00003e7b000041
:1003d8003e7b00003e7b00003e7b00003e7b000031
:1003e8003e7b00003e7b00003e7b00003e7b000021
:0803f8003e7b00003e7b00008b
:020000040000fa
:102200000025000064000000256c0000002500008f
:1022100064250000640000002564000025640000bf
:1022200025640000000000001a0000000200000009
:102230000091000034000000020000000191000045
:10224000370000000600000000910000a60000001a
:1022500004000000009100003100000004000000b4
:1022600000910000ad000000060000000091000099
:10227000a4000000040000000091000047000000de
:102280000200000000910000d000000002000000e9
:10229000019100004d0000000200000004910000c8
:1022a0003b00000002000000049100004800000014
:1022b00002000000079100009700000002000000eb
:1022c00004910000aa00000002000000019100003b
:1022d000bc0000000200000001910000a800000006
:1022e0000200000001910000be000000020000009a
:1022f000019100006a00000002000000049100004b
:10230000da0000000200000001910000de00000081
:102310000200000007910000a00000000200000081
:1023200001910000ae0000000200000001910000d9
:1023300014000000020000000491000025000000cd
:1023400002000000019100002700000002000000d0
:102350000191000026000000020000000191000031
:102360009e000000020000000191000093000000a8
:1023700002000000019100002b000000020000009c
:10238000019100000f000000020000000191000018
:102390000600000002000000019100009c00000007
:1023a0000200000001910000950000000200000002
:1023b000049100007700000002000000019100007d
:1023c000eb00000002000000019100002f0000005f
:1023d0000200000001910000a200000002000000c5
:1023e00001910000d80000000200000001910000ef
:1023f000750000000200000001910000e2000000f2
:102400000200000001910000e8000000020000004e
:1024100001910000e40000000200000001910000b2
:10242000720000000200000001910000e6000000c0
:102430000200000001910000d60000000200000030
:102440000c910000d4000000020000000791000081
:102450001b000000020000000191000008000000c5
:1024600002000000019100000c00000002000000ca
:1024700001910000430000000200000001910000f3
:10248000f600000002000000079100007300000049
:1024900002000000079100005e0000000200000042
:1024a0000791000045000000020000000c910000b0
:1024b000fb0000000200000001910000620000002b
:1024c000020000000791000041000000020000002f
:1024d000079100006500000002000000019100006b
:1024e0009000000002000000049100009100000034
:1024f0000200000004910000110000000200000032
:10250000049100001300000002000000049100008c
:102510001000000002000000049100008f00000085
:1025200006000000009100007a0000000200000098
:10253000009100003600000006000000009100003d
:102540002e0000000200000000910000f5000000d5
:10255000020000000491000085000000020000005d
:10256000079100000e000000040000000091000030
:10257000290000000200000007910000ef000000a9
:102580000400000001910000c0560000fe0300009e
:1025900054420000443000003031000000000000d0
:1025a0001000000003000000010000000000000017
:1025b000000000000000000000000000000000001b
:1025c000000000000000000000000000000000000b
:1025d00000000000000000000000000000000000fb
:1025e00000000000000000000000000000000000eb
:1025f00000000000000000000000000000000000db
:1026000000000000000000000100000000000000c9
:1026100000000000000000000000000000000000ba
:1026200000000000010000000000000001000000a8
:10263000526500007365000074000000496e0000e0
:10264000766100006c69000064200000496e0000a3
:10265000737400007275000063740000696f0000fd
:102660006e000000496e0000766100006c69000099
:1026700064200000417800006973000000490000f8
:102680006e760000616c000069640000205000005c
:1026900061720000616d00006574000065720000e9
:1026a0000035000000360000003700000038000050
:1026b00000420000616400002043000068650000e3
:1026c000636b0000737500006d0000003130000086
:1026d000004e00006567000061740000697600002c
:1026e00065200000566500006c6f00006369000003
:1026f00074790000005300002d6300007572000023
:102700007665000020430000686100006e670000ed
:1027100065000000496e0000766100006c690000f1
:10272000642000004d6f000076650000204100002d
:1027300066740000657200002045000076650000a8
:102740006e740000004d00006f76000065200000f0
:10275000496e0000746f0000204c0000696d00009d
:10276000697400000031000035000000496e00006f
:10277000766100006c690000642000004f7000006a
:102780004d6f000064650000204100006674000089
:102790006572000020450000766500006e74000040
:1027a000004900006e760000616c00006964000062
:1027b000204900006e730000747200007563000011
:1027c000746900006f6e0000204300006f6e00000f
:1027d0007465000078740000000000000d0a00001d
:1027e0004e7500006d2000006d65000073730000e1
:1027f0006167000065730000203d00002025000097
:10280000640000000d0a00004d7300006720000006
:102810006e7500006d620000657200003a200000d5
:1028200025640000000d00000a2000002054000074
:10283000782000006c6500006e2000003d20000044
:1028400025640000000d00000a200000204d00005b
:102850007367000020540000783a00002000000058
:1028600025780000200000000d0a00002020000054
:102870004d7300006720000052780000206c0000bb
:10288000656e0000203d000020250000640000006f
:102890000d0a0000202000004d730000672000009a
:1028a000527800003a200000000d00000a200000cd
:1028b0002053000074610000747500007320000054
:1028c0003d20000025640000004c0000545300002f
:1028d00031350000300000004c540000533300003c
:1028e0003030000000410000505400002053000030
:1028f000746500007070000065720000204d0000db
:102900006f7400006f720000204300006f6e0000c3
:10291000747200006f6c00006c65000072000000b3
:102920002000000045450000577200006974000057
:102930006500000045450000566500007269000012
:102940006679000000810000040e00000081000094
:102950005000000000000000000000000000000027
:102960000000000000000000000000000000000067
:1029700030310000323300003435000036370000bb
:102980003839000041420000434400004546000041
:042990000000000043
:020000040000fa
:102994003600f800809fbe00829fbe00849fbe0068
:1029a400869fbe000000fa00643007000080fa0031
:1029b4004f03be004f02be004f01be004f00be00d9
:1029c4003600f900004006003600f800809fbe0083
:1029d400829fbe00849fbe00869fbe000000fa0056
:1029e4008c3007000080fa004f03be004f02be0087
:1029f4004f01be004f00be003600f9000040060043
:102a04003600f800809fbe00829fbe00849fbe00f7
:102a1400869fbe000000fa00c92f07000080fa005c
:102a24004f03be004f02be004f01be004f00be0068
:102a34003600f900004006003600f800809fbe0012
:102a4400829fbe00849fbe00869fbe000000fa00e5
:102a5400f22f07000080fa004f03be004f02be00b1
:102a64004f01be004f00be003600f90000400600d2
:102a74003600f800809fbe00829fbe00849fbe0087
:102a8400869fbe000000fa00bf3007000080fa00f5
:102a94004f03be004f02be004f01be004f00be00f8
:102aa4003600f900004006003600f800809fbe00a2
:102ab400829fbe00849fbe00869fbe000000fa0075
:102ac400ad2a07000080fa004f03be004f02be008b
:102ad4004f01be004f00be003600f9000040060062
:102ae4000000fa00f1300700a09b8800d4e2a8009f
:102af400cc82a800fc2f070000202c00110020002d
:102b0400722f070076300700fd3107006b32070093
:102b1400333207005a320700c91507000080fa0053
:102b2400000006002e00fa000000eb0010079800d9
:102b340020408000e6004700801f7800e03e290026
:102b4400801f780001007800d3270700e48757002e
:102b54006600470060260700670037009e0090006b
:102b64001e0090000000e80010079800660147006e
:102b7400811f780020402900801f7800020078001f
:102b8400c5270700e4875700660047005226070060
:102b94001e00780010009000e6004700801f7800b7
:102ba40030412900801f780001007800ba2707000f
:102bb400e487570066004700472607003042290093
:102bc400452607000000eb0020079800120037009c
:102bd4002e0090009e007800640040000100400038
:102be400104078000000fb00e6004700801f7800da
:102bf40000432900801f780001007800a627070001
:102c0400e487570066004700332607002e00900033
:102c14000000e800200798002e0090009e00780035
:102c240091009000810f5000e9ff39001e007800e8
:102c340010089000e6004700801f780040432900f8
:102c4400801f78000100780093270700e48757006d
:102c54006600470020260700804429001e2607003e
:102c64000000eb0020079800120037002e009000af
:102c74009e0078007600400001004000104078007b
:102c84000000fb00e6004700801f78000043290095
:102c9400801f7800010078007f270700e487570031
:102ca400660047000c2607002e0090000000e80094
:102cb400200798002e0090009e0078009108900054
:102cc400810f5000e9ff39001e00780000089000d1
:102cd400e6004700801f780050452900801f7800d7
:102ce400010078006c270700e4875700660047005e
:102cf400f9250700e52b0700972c0700000f780043
:102d04001e00e00095ff3a0010002000c7290700cc
:102d14000080fa00000006000400fa000000eb0046
:102d2400900188000000eb001000ba001007980022
:102d34000000eb001080ba00000f78001e0078003d
:102d440001002000c001dd00020020001e009000f0
:102d54000100200000007100818071000080fa00f1
:102d6400000006000c00fa001007980021079800e4
:102d7400320798004307980000f42000000f780001
:102d84001e00780000109000610060000000e00068
:102d9400180032001e009000ae009000e00f5000ba
:102da400e08f580008003a003e009000ce009000ea
:102db400e00f5000e08f58000e003d00100020008e
:102dc400500798002a0037001e0078002001900068
:102dd400b00190001e009000ae009000800f5100e2
:102de400818f590003003400100020005007980020
:102df4001f0037001e00780000109000640060007f
:102e04000000e000180032001e009000ae009000a8
:102e1400e00f5000e08f580008003a003e00900098
:102e2400ce009000e00f5000e08f58000e003400f8
:102e340010002000500798000d0037001e00780095
:102e440020019000b00190001e009000ae009000a0
:102e5400800f5100818f590003003d0010002000b5
:102e640050079800020037000000eb00500798005c
:102e74005e0090000080fa0000000600a800fa003e
:102e8400881f78006000b800200f9800310f980068
:102e94000000eb00100f98000000eb00000f9800fa
:102ea400a0dc20007007980080e3200060079800f1
:102eb400c0bc200050079800e0f1200040079800b3
:102ec40000f4200030079800c02921001000780089
:102ed40030179800a0d2bf000074a10020679800aa
:102ee400e00220000e00400060179800e00220007d
:102ef4000e0040006600400050179800202a210070
:102f0400401798006e109000e30040000040eb0072
:102f1400804878006e109000e400400010c0b300b8
:102f2400804878006e109000e500400000c5b300b2
:102f3400804878000040eb00106798003e10900035
:102f440000979800b04320008e909000808f50002e
:102f5400e9033200b04320000e919000800f51002d
:102f640082003e00904020008e919000808f51009e
:102f74002a023200904020000e929000800f5200ee
:102f84003a003e00000620008e909000808f500092
:102f940057013200000620000e919000800f51006e
:102fa40014003e008e919000f28f51008701320090
:102fb4000e929000f20f520007003e000e90900017
:102fc400e50f5000f50032008e909000f18f500014
:102fd40075013200950937000e919000f40f5100ed
:102fe400d00832008e919000f58f510064093200b0
:102ff4008e093700302120000e929000800f52007d
:1030040078013200302120008e909000808f500093
:1030140009003e00002120000e919000800f510015
:10302400a7013200102120008e919000808f510062
:10303400d00132007d093700302220000e9290002a
:10304400800f520027013200902220008e909000c1
:10305400808f500040013200402120000e919000ea
:10306400800f51007901320070093700604120005f
:103074008e919000808f51009405320060412000b1
:103084000e929000800f52001a003e001041200062
:103094008e909000808f50003b023200104120003f
:1030a4000e919000800f510009003e00a0402000c6
:1030b4008e919000808f5100e50132000041200084
:1030c4000e929000800f5200000232005709370020
:1030d400304120008e909000808f500069023200b1
:1030e400404120000e919000800f51007802320080
:1030f4004e093700404220008e919000808f51008d
:10310400b1023200404220000e929000800f520023
:1031140009003e00704120008e909000808f500086
:1031240087053200304220000e919000800f51003c
:103134008c0232003d093700904220008e919000ad
:10314400808f510036023200a04320000e9290007e
:10315400800f520057033200604220008e9090008e
:10316400808f50009e013200300937000049200052
:103174000e919000800f510022023200004920007d
:103184008e919000808f510040003e0080442000ca
:103194000e929000800f520092033200804420006f
:1031a4008e909000808f50001a003e003044200022
:1031b4000e919000800f5100f20232003044200042
:1031c4008e919000808f510009003e000044200041
:1031d4000e929000800f5200a8023200104420008a
:1031e4008e909000808f5000bd0232000f0937008e
:1031f400504420000e919000800f5100590332007a
:10320400604420008e919000808f51005b03320057
:1032140006093700304520000e929000800f5200be
:103224000d043200304520008e909000808f5000b5
:1032340009003e00004520000e919000800f5100cf
:10324400e3033200104520008e919000808f5100de
:10325400e6033200f5083700504620000e92900035
:10326400800f5200f8043200a04620008e90900097
:10327400808f500065053200704520000e9190004b
:10328400800f510066043200e8083700704b2000bc
:103294008e919000808f5100b2063200704b200056
:1032a4000e929000800f52001e003e00104b200032
:1032b4008e909000808f500058063200104b2000f2
:1032c4000e919000800f510009003e00204920001b
:1032d4008e919000808f5100cd013200004b200070
:1032e4000e929000800f52002b063200cf08370058
:1032f400404b20008e909000808f50006506320075
:10330400604b20000e919000800f5100790632002e
:10331400304b20008e919000808f5100590632006e
:10332400c2083700704e20000e929000800f5200a9
:10333400d3063200704e20008e909000808f500093
:1033440009003e00904b20000e919000800f510028
:103354002a073200604e20008e919000808f510029
:1033640002073200b1083700404f20000e9290004f
:10337400800f5200a3063200504f20008e90900020
:10338400808f5000a6063200304f20000e9190002e
:10339400800f5100de073200a4083700ee109000c1
:1033a40060002000800878006e1090008080e800a3
:1033b40040c5b300804878006e109000640140005e
:1033c4006e109000640040009040780000c8b30084
:1033d40000c07000004978005e109000c302210014
:1033e40029000900331878004005b1005e119000ef
:1033f40010758000217580000089be007075800002
:10340400ef0f500008003a005e109000e400400006
:1034140050462900801f7800010078009e2507008f
:103424008f87e9001200370070758000fe0f50008e
:1034340008003a005e109000e4004000c0462900f5
:10344400801f780001007800932507008f87e9002a
:10345400070037005e109000e40040005046290049
:10346400801f7800010078008b2507008f87e90012
:10347400de10900000012000e00098005e11900032
:10348400800020003100200070019800010998009c
:103494005e109000f200400030472900801f780041
:1034a400010078007c2507008f87e900de1090007a
:1034b40030002000f0209800de1090001000200062
:1034c40090289800de1090000000eb0080289800ff
:1034d40010c0b3001067980020002000b09b880043
:1034e4005408370010002000907f880051083700ee
:1034f4009ed2bf0000679800ee10900010062000d6
:10350400800878006e1090008080e8000e609000c3
:10351400804878006e10900063004000708f98001f
:103524000e6090000004e00003003a0014c0b300f1
:10353400445f99000200370020c0b300405f990047
:103544004e599100fe8890008248780010c0b30064
:1035540010679800370837009fd2bf0038efb700d4
:10356400ee10900000232000800878006e10900078
:103574008080e8000040eb00804878006e109000e6
:10358400e30040000040eb00804878006e1090009b
:10359400e500400038cfbf008048780010c0b30079
:1035a40010679800230837003e019000d20890006d
:1035b400002020000080700050099800be00900098
:1035c4000000eb00f00898001a0837003e01900054
:1035d400d2089000f0df2f000080600050099800ae
:1035e400140837009ed2bf000000fb006100600099
:1035f4000004e000070032007e009000b018900044
:1036040000402000808070007e00900031189800f7
:10361400060037007e009000b0189000f0bf2f0025
:10362400808060007e009000311898007e00900039
:1036340030189000801f7800200a2000801f780036
:10364400592a0700e4875700fa073700ee10900064
:1036540050212000800878003e009000300890003f
:103664004a00de00e10060007e0090003018900007
:103674004a00de0061006000808f500005003a00bf
:103684006e1090008080e80010c0b300804878007d
:10369400040037006e1090008080e8000040eb00ca
:1036a400804878006e109000e30040000040eb007a
:1036b4008048780010c0b30010679800dd07370019
:1036c4009fd2bf008000fb00f00f2000008060004c
:1036d400e10f500015003a000249290001002800ba
:1036e4000000eb005f0a07003e019000d208900042
:1036f400f07f2f000080600050099800be00900009
:10370400510890000020a000d00898003e019000cd
:10371400d2089000004020000080700050099800fa
:10372400c4e2a900cc62a900c20737003e019000a0
:10373400d2089000b0ff2f0000806000500998006c
:103744003e019000d2089000f0ff2d000080600040
:10375400500998003e019000d2089000f0bf2f005d
:103764000080600050099800c4e2a800cc62a80060
:10377400b0073700ee109000202120008008780068
:103784006e1090008080e80010c0b300804878007c
:103794006e10900063004000508f98003e0090002f
:1037a400d008900000402000008060000000e0008d
:1037b4000300320013c0b300035f99000200370016
:1037c40024c0b300045f99008e5891005e88900075
:1037d4000148780010c0b3001067980095073700bf
:1037e4004e109000a00090006e00900001309800f0
:1037f4004e109000900090006e00900011309800e0
:103804006e00900000309000f51307006e009000e9
:103814001030900024150700860737004e109000e2
:1038240010019000a0019000620f9800730f98009f
:103834006e089000fe089000809fbe00d004200017
:10384400801f7800d8290700e687570079073700da
:10385400ee109000b0402000800878006e109000b8
:103864008080e80060c0b300804878006e1090004b
:10387400640140006e1090006400400090407800a5
:1038840000c8b30000c0700000497800de1090004a
:1038940010002000800878003e0090002001900075
:1038a400b0019000620f9800730f98005e109000b2
:1038b4006e099000fe099000120098002300980001
:1038c40010c0b300106798005a0737004e109000dc
:1038d40010019000a0019000620f9800730f9800ef
:1038e4004f12070070758000ef0f50000b003a0074
:1038f4006e099000fe09900000002800913a200013
:10390400800f5100818f590004003400000028000a
:10391400913a2000600f9800710f98007075800034
:10392400fe0f50000b003a006e099000fe09900053
:103934000000200031752000800f5100818f590054
:10394400040034000000200031752000600f98004e
:10395400710f98006e089000fe089000307b88007c
:10396400417b88001100200010082000221107006c
:10397400307b8000417b80003e0190002001980054
:10398400310198002b073700ee10900020412000f1
:10399400800878006e1090008080e80060c0b3005a
:1039a400804878006e109000640140006e10900012
:1039b400640040009040780000c8b30000c070006c
:1039c40000497800de109000100020008008780084
:1039d4003e00900020019000b0019000620f98001a
:1039e400730f98005e1090006e099000fe0990001d
:1039f400120098002300980010c0b30010679800cc
:103a04000c07370010482000f907070009073700a2
:103a1400be0090000000eb00f00898000507370096
:103a2400ee109000a0422000800878006e109000f4
:103a34008080e80060c0b300804878006e10900079
:103a4400640140006e1090006400400090407800d3
:103a540000c8b30000c0700000497800de10900078
:103a640010002000800878005e1490004e080700c3
:103a7400100498002104980010c0b3001067980047
:103a8400ec0637004e109000c0009000300090000b
:103a94006e01900040019800510198006e00900062
:103aa400d0009000400090006e01900060019800ea
:103ab400710198004e109000e000900050009000ba
:103ac4006e0190000009980011099800d90637008a
:103ad400ee10900050412000800878006e10900095
:103ae4008080e800e0c0b300804878006e10900049
:103af400640140006e109000640040009040780023
:103b040000c8b30000c0700000497800de109000c7
:103b140010002000800878005e1190006000b8005a
:103b240010019800210198005e1190006e00900031
:103b3400d0009000400090003001980041019800ae
:103b44005e1190006e0090009008900000089000b4
:103b5400500198006101980010c0b30010679800ec
:103b6400b40637004e109000900090006e00900054
:103b7400112898004e109000a00090006e00900054
:103b8400212898004e109000c00090003000900052
:103b94006e01900030299800412998004e10900041
:103ba400e0009000500090006e01900050299800b1
:103bb400612998004e109000f00090006e00900073
:103bc400712898009b063700ee10900050422000a8
:103bd400800878006e1090008080e80000c1b30077
:103be400804878006e109000640140006e109000d0
:103bf400640040009040780000c8b30000c070002a
:103c040000497800de109000100020008008780041
:103c1400de1090006e009000102890009000980034
:103c2400de1090006e00900020289000a000980004
:103c34005e1190006e009000c02890003028900023
:103c440030019800410198005e1190006e009000d0
:103c5400e0289000502890005001980061019800dd
:103c6400de1090006e00900070289000f000980024
:103c740010c0b300106798006e0637004e10900015
:103c8400c0009000300090006e0190007011980008
:103c9400011998004e109000900090006e00900062
:103ca400311898004e109000a00090006e00900013
:103cb400411898004e109000e000900050009000d1
:103cc4006e01900050199800611998000000eb00f3
:103cd400201798000000eb002017980055063700c5
:103ce400ee10900020442000800878006e109000b0
:103cf4008080e800e0c0b300804878006e10900037
:103d0400640140006e109000640040009040780010
:103d140000c8b30000c0700000497800de109000b5
:103d24001000200080087800de1090006e009000e3
:103d34003018900090009800de1090006e00900003
:103d440040189000a00098005e1190006e00900052
:103d54008018900070109000300198004101980084
:103d64005e1190006e009000e018900050189000d2
:103d7400500198006101980010c0b30010679800ca
:103d84002c0637003e009000d0089000000022006e
:103d9400008060000000e00026063a003e0090002b
:103da40050089000640060000000e000210632002a
:103db400ce00900060002000800878004e01900042
:103dc4000000200001002400100198002101980047
:103dd4004e0190006000b800300198004101980045
:103de4006e01900070082a0001002000101998004c
:103df400211998006e009000a018900010189000ef
:103e04004e01900050019800610198006e009000ee
:103e140080189000701090004e019000700198007e
:103e2400010998006e009000b01890004e009000b8
:103e3400310898004e0190006000b8001009980005
:103e440021099800ce0090000000eb00c008980003
:103e5400be00900010002000e00898003e01900091
:103e6400d2089000000022000080700050099800e1
:103e74003e019000d2089000f0ff2b00008060000b
:103e8400500998003e019000d208900000022000e2
:103e940000807000500998006e0090008018900017
:103ea400701090004e019000700198000109980074
:103eb400e00537004e109000a00090001000900024
:103ec4006e01900050119800611198006e009000ee
:103ed400e010900050109000e00f5000e08f580068
:103ee400d4053d006e0190006000b80050119800a8
:103ef40061119800cf053700ee109000c0432000f8
:103f0400800878006e1090008080e80060c0b300e4
:103f1400804878006e109000640140006e1090009c
:103f2400640040009040780000c8b30000c07000f6
:103f340000497800de10900010002000800878000e
:103f44005e1190006e009000e01090005010900000
:103f5400100198002101980010c0b3001067980068
:103f6400b40537004e109000a0009000100090009f
:103f7400823721000089be00ae053700ee109000a4
:103f840070442000800878006e1090008080e80063
:103f940060c0b300804878006e1090006401400057
:103fa4006e109000640040009040780000c8b30098
:103fb40000c0700000497800de109000100020005e
:103fc400800878005e119000803721001000be0048
:103fd400100198002101980010c0b30010679800e8
:103fe400940537003e009000d008900000002400a3
:103ff400008060000000e000060032003e009000f7
:10400400d008900000002200008060000000e00062
:1040140088053a003e009000d0089000000022007d
:10402400008060000000e000040032004e009000b8
:1040340040089000e20f50007e0532003e009000e0
:1040440050089000640060000000e0007905320030
:104054003e00900020019000b0019000620f980093
:10406400730f98004e10900010019000a001900072
:104074006e089000fe089000000041008180490015
:10408400600f9800710f98006011b8006e089000de
:10409400fe08900033fb0700000f98000e08900004
:1040a400e10f5000630532003e019000d2089000f9
:1040b4000000220000807000500998003e0190002a
:1040c400d2089000f0ff2b00008060005009980097
:1040d4003e019000d2089000d0ff2f0000806000c5
:1040e40050099800ce00900010002000800878004d
:1040f4004e0090006e099000fe0990001200980096
:10410400230098004e00900010019000a001900040
:104114003e009000b000900020009000800f5100fd
:10412400818f590006003d006e00900050119000f0
:10413400e0119000228f9800338f9800030037001d
:104144006000b800208f9800318f98004e009000d6
:104154002e899000be899000320098004300980098
:104164006e009000d0009000400090004e0190003e
:1041740050019800610198006e0090009008900032
:10418400000890004e019000700198000109980009
:104194006e009000b0089000200890004e0190003e
:1041a40010099800210998006e009000c008900042
:1041b4004e00900041089800be0090005108900005
:1041c4000030a000d0089800a71707001905370091
:1041d4004e109000a0009000100090008237210043
:1041e400200198003101980012053700ee1090006c
:1041f40020452000800878006e1090008080e80040
:1042040060c0b300804878006e10900064014000e4
:104214006e109000640040009040780000c8b30025
:1042240000c0700000497800de10900010002000eb
:10423400800878005e11900080372100b000900063
:1042440020009000100198002101980010c0b300d4
:1042540010679800f70437003e009000d0089000e3
:1042640000002400008060000000e000060032002e
:104274003e009000d0089000000022000080600002
:104284000000e000eb043a003e009000d0089000eb
:1042940000002200008060000000e0000400320002
:1042a4004e00900040089000e20f5000e1043200fc
:1042b4003e00900050089000640060000000e000a0
:1042c400dc0432004e10900010019000a001900018
:1042d400620f9800730f98006011b8006e08900088
:1042e400fe0890009ffa0700000f98000e08900047
:1042f400e10f5000cf0432003e019000d20890003c
:104304000000220000807000500998003e019000d7
:10431400d2089000f0ff2b00008060005009980044
:104324003e019000d2089000d0ff2f000080600072
:1043340050099800ce0090001000200080087800fa
:104344004e0090006e099000fe0990001200980043
:10435400230098004e00900010019000a0019000ee
:104364003e009000b000900020009000800f5100ab
:10437400818f590006003d006e009000501190009e
:10438400e0119000028f9800138f9800030037000b
:104394006000b800008f9800118f98004e009000c4
:1043a4000e8990009e899000320098004300980086
:1043b4006e009000d0009000400090004e019000ec
:1043c40050019800610198006e00900090089000e0
:1043d400000890004e0190007001980001099800b7
:1043e4006e009000b0089000200890004e019000ec
:1043f40010099800210998006e009000c0089000f0
:104404004e00900041089800be00900051089000b2
:104414000030a000d0089800b116070085043700ca
:104424003e009000d008900000002400008060004e
:104434000000e000060032003e009000d00890002a
:1044440000002200008060000000e00079043a00cf
:104454003e009000d0089000000022000080600020
:104464000000e000040032004e009000400890007c
:10447400e20f50006f0432003e009000500890009c
:10448400640060000000e0006a0432006e009000e6
:1044940090089000000890004e0190007001980070
:1044a400010998004e00900070019000800990006e
:1044b400420f9800530f98004e099000de099000b7
:1044c4006000b80027fa0700000f98000e0890005b
:1044d400e10f5000570432003e019000d2089000d2
:1044e4000000220000807000500998003e019000f6
:1044f400d2089000f0ff2b00008060005009980063
:104504003e019000d2089000d0ff2f000080600090
:1045140050099800ce009000100020008008780018
:104524004e0090006e099000fe0990001200980061
:10453400230098004e0190006000b80030019800fc
:10454400410198006e009000d0009000400090005f
:104554004e01900050019800610198006e00900097
:1045640090089000000890004e019000700198009f
:10457400010998006e009000b00890002008900097
:104584004e01900010099800210998006e009000d7
:10459400c00890004e009000410898003e01900031
:1045a400d208900070ff2f0000806000500998002e
:1045b4004e00900080089000700090002b160700b9
:1045c400200f9800310f98004e0090002e099000a3
:1045d400be09900072009800030898009fd2bf00a3
:1045e4008000fb00f00f200000806000e10f50000d
:1045f40002003a00f71607000e0437004e00900040
:1046040070029000800a9000840078000080eb0023
:10461400000bb8000080eb0000a0b900070178008f
:10462400000141000080eb0000a8b9000001410036
:10463400820378004e0090007600980007089800e6
:10464400e4160700fb0337009fd2bf008000fb0085
:10465400f00f200000806000e10f500002003a00db
:10466400ef0e070001003700ed0e07003e01900039
:10467400d208900070ff2f0000806000500998005d
:10468400be009000510890000040a000d00898009f
:10469400ce00900050002000800878003e0090007a
:1046a40060089000ed0f500004003a003e009000b6
:1046b4006008900020179800de033700be009000c9
:1046c4000000eb00e0089800da0337004e10900079
:1046d40010009000800078006e009000510898004f
:1046e4004e109000b0009000200090006e019000e9
:1046f40060099800710998004e109000f000900035
:10470400600090006e019000001198001111980053
:104714004e10900090089000000890006e019000e8
:1047240020119800311198004e109000200890003c
:10473400800078006e00900041109800bd0337009f
:10474400ee10900080412000800878006e109000e8
:104754008080e80060c1b300804878006e1090004b
:10476400640140006e1090006400400090407800a6
:1047740000c8b30000c0700000497800de1090004b
:104784001000200080087800de1090006e00900079
:1047940050089000900098005e1190006e00900008
:1047a400f008900060089000200198003101980002
:1047b4005e1190006000b80040019800510198001b
:1047c4005e1190006e009000901090000010900018
:1047d40060019800710198005e1190006e009000d5
:1047e400b010900020109000000998001109980062
:1047f400de1090006e00900040109000a008980019
:1048040010c0b300106798008a0337003e00900080
:10481400d008900000002400008060000000e00048
:10482400060032003e009000d008900000002200f4
:10483400008060000000e0007e033a003e0090002b
:10484400d008900000002200008060000000e0001a
:10485400040032004e00900040089000e20f500027
:10486400740332003e009000500890006400600021
:104874000000e0006f0332003e019000d208900077
:104884000000220000807000500998003e01900052
:10489400d2089000f0ff2b000080600050099800bf
:1048a4003e019000d20890000000210000807000ba
:1048b400500998003e019000d2089000d0ff2f00cc
:1048c4000080600050099800ce0090001000200085
:1048d400800878004e0190006000b8003001980014
:1048e400410198006e00900090109000001090001c
:1048f4004e01900050019800610198006e009000f4
:10490400b0109000201090004e01900070019800ab
:10491400010998006e009000b008900020089000f3
:104924004e01900010099800210998006e00900033
:10493400c00890004e009000410898006e0090005e
:1049440050089000e10f500047003a006e009000bc
:10495400b0109000201090004e019000700198005b
:10496400010998004e0090007001900080099000a9
:10497400420f9800530f98009fd2bf008000fb00a5
:10498400f00f200000806000e10f500011003a0099
:104994004e099000de0990006000b800f1f80700ad
:1049a400000f98000e089000e10f500006003a0036
:1049b4003e019000d2089000f0ff2d0000806000be
:1049c400500998001b0337003000200090140700a2
:1049d4001f003700ce0890000080eb00000ab800ea
:1049e400ce0890000080eb000088b9000501780033
:1049f40000014100de0890000080eb000088b9004f
:104a04000001410082027800440f9800550f98007d
:104a14004e099000de0990006000b800d1f807004c
:104a2400000f98000e089000e10f500006003a00b5
:104a34003e019000d2089000f0ff2d00008060003d
:104a440050099800fb023700500020007014070042
:104a54003e019000d208900070ff2f00008060009b
:104a640050099800f30237009fd2bf008000fb007a
:104a7400f00f200000806000e10f500021003a0098
:104a84003e00900020019000b00190006e00900064
:104a9400f008900060089000020040008380480005
:104aa4004e01900010019800210198004e009000e2
:104ab40010019000a0019000620f9800730f9800fd
:104ac4006011b8006e089000fe089000a5f8070079
:104ad400000f98000e089000e10f500006003a0005
:104ae4003e019000d2089000f0ff2d00008060008d
:104af40050099800cf0237004000200044140700fa
:104b0400200037003e00900020019000b00190008a
:104b14006e009000f00890006008900000005100c2
:104b2400818059004e0190001001980021019800e5
:104b34004e00900010019000a0019000620f9800b8
:104b4400730f98006011b8006e089000fe08900082
:104b540084f80700000f98000e089000e10f500041
:104b640006003a003e019000d2089000f0ff2d00ac
:104b74000080600050099800ae02370060002000f9
:104b8400231407003e009000d00890000130a000dc
:104b940051089800a70237004e109000b000900012
:104ba40020009000407e8800517e8800407e800076
:104bb400517e8000200f9800310f98002e0890003d
:104bc400be08900010979800219798001e919000bd
:104bd400ae919000e00f5100e08f590006003d00b7
:104be4001e909000ae909000f01fb0000180b000c5
:104bf40010979800219798001e919000ae91900014
:104c0400471add004910de0000007200c998de007a
:104c1400607e8800717e880086023700ee10900066
:104c2400204b2000800878006e1090008080e800ff
:104c3400a0c1b300804878006e1090006401400069
:104c44006e109000640040009040780000c8b300eb
:104c540000c0700000497800de10900010002000b1
:104c6400800878005e119000407e8000517e8000b4
:104c7400200198003101980010c0b300106798001b
:104c84006c0237004e10900010009000a07e880047
:104c940068023700ee109000504b20008008780026
:104ca4006e1090008080e80040c0b3008048780017
:104cb4006e109000640140006e109000640040008b
:104cc4009040780000c8b30000c07000004978002c
:104cd400de1090001000200080087800de109000a4
:104ce400a07e80009000980010c0b3001067980068
:104cf40050023700b07e8000100f98004e109000d4
:104d040010009000b07e88009e089000b07e800065
:104d1400808f50000200320030002000907f880015
:104d24004e109000b000900020009000c07e8800db
:104d3400d17e88004e109000d0009000400090007a
:104d4400e07e8800f17e88004e10900060009000a4
:104d5400007f88004e10900070009000107f880043
:104d640034023700ee109000804b20008008780059
:104d74006e1090008080e80000c1b3008048780085
:104d84006e109000640140006e10900064004000ba
:104d94009040780000c8b30000c07000004978005b
:104da400de1090001000200080087800de109000d3
:104db400b07e8000900098005e119000c07e80005c
:104dc400d17e800020019800310198005e1190008e
:104dd400e07e8000f17e800040019800510198003f
:104de400de109000007f8000e0009800de1090004c
:104df400107f8000f000980010c0b3001067980086
:104e04000c0237004e10900010009000107c8800b7
:104e14001100200080082000f70b0700050237006e
:104e2400ee109000604f2000800878006e10900013
:104e34008080e80040c0b300804878006e10900085
:104e4400640140006e1090006400400090407800bf
:104e540000c8b30000c0700000497800de10900064
:104e64001000200080087800de109000107c800084
:104e74009000980010c0b30010679800ed0137004f
:104e8400ee109000804e2000800878006e10900094
:104e94008080e80040c1b300804878006e10900024
:104ea400640140006e10900064004000904078005f
:104eb40000c8b30000c0700000497800de10900004
:104ec40010002000800878005e1190006e009000b1
:104ed4008020900070189000100198002101980023
:104ee4005e1190006e009000a020900010209000b1
:104ef40030019800410198005e1190006e0090000e
:104f0400c02090003020900050019800610198006a
:104f14005e1190006e009000e02090005020900000
:104f240070019800010998005e1090007087980045
:104f34006e009000702090000000e000030032003a
:104f44002100200061879800020037001200200031
:104f5400628798006e829000fe8190009409980008
:104f640010c0b30010679800b20137004e109000d3
:104f7400a0009000100090006e019000701998003d
:104f8400012198004e109000c00090003000900065
:104f94006e01900010219800212198004e1090007d
:104fa400e0009000500090006e01900030219800c5
:104fb400412198004e1090008008900070009000ed
:104fc4006e01900050219800612198004e109000cd
:104fd400100890008000eb0051879800e20f500009
:104fe40002003a0012002000528798006e009000e0
:104ff400de819000732098008e0137004e109000df
:1050040010029000341798003e10900030979800da
:10501400a0432000be909000808f50005b003200bf
:10502400a04320003e919000800f510016003e00e6
:1050340060412000be919000808f51003800320002
:10504400604120003e929000800f520005003e0017
:1050540030412000be909000808f5000200032002c
:10506400a5003700304220003e919000800f51008f
:105074006600320060422000be919000808f510093
:10508400950032009c003700004b20003e929000b7
:10509400800f520084003200004b2000be9090002c
:1050a400808f500005003e00004420003e91900097
:1050b400800f5100420032008f003700304b200037
:1050c400be919000808f51007e003200604b200022
:1050d4003e929000800f520062003200860037003a
:1050e4006000b80090758800a17588006e0090007b
:1050f400d000900040009000b0758800c175880011
:105104006e0090009008900000089000d075880010
:10511400e175880050a52a00f075880076003700f4
:105124006e00900050089000007688006e00900099
:10513400f0089000600890001076880021768800be
:105144006e0090009010900000109000307688005f
:10515400417688006e009000b010900020109000fe
:1051640050768800617688006000b8007076880008
:10517400817688006e009000401090009076880040
:1051840050a52a00a07688005b0037006e009000ce
:10519400e010900050109000b0768800c17688002e
:1051a4006e009000e010900050109000d0768800bf
:1051b400e176880050a52a00f07688004e0037007a
:1051c4006e00900030189000007788006e00900008
:1051d40040189000107788006e00900080189000ae
:1051e4007010900020778800317788006e0090005e
:1051f400e01890005018900040778800517788009c
:1052040050a52a00607788003b0037006e009000ac
:1052140010289000707788006e009000202890007d
:10522400807788006e009000c0289000302890009d
:1052340090778800a17788006e009000e0289000a5
:1052440050289000b0778800c17788006e009000e5
:1052540070289000d077880050a52a00e077880055
:1052640025003700b07e8000f0778800c07e800083
:10527400d17e80000078880011788800e07e80006c
:10528400f17e80002078880031788800007f8000db
:1052940040788800107f80005078880050a52a004c
:1052a4006078880014003700407e8000517e8000c2
:1052b40090788800a178880050a52a00b0788800ea
:1052c4000d003700a07e80007078880050a52a0069
:1052d40080788800080037006e009000003090004d
:1052e400c07888006e00900010309000d07888005c
:1052f40050a52a00e078880030002000110020002a
:1053040030758800417588009e010700c900370088
:105314006000b80050758800617588009901070025
:10532400c40037004e1090001000be004087980063
:105334004e809000ee0f500055003200ce80900059
:10534400ee8f500011003c004e819000e40f51009c
:105354002f003200ce819000e48f510004003c0005
:105364004e829000e20f520040003200b10037003c
:105374004e809000ec0f50002e003200ce80900042
:10538400ed8f500032003200aa0037004e819000a9
:10539400ff0f510010003200ce819000ff8f5100aa
:1053a40004003c004e829000ef0f52004200320095
:1053b400a000370000022000ce809000808f5000b3
:1053c4000e003200001920004e819000800f510021
:1053d4006800320097003700e0808000f180800090
:1053e4001007980021079800e2808000f380800075
:1053f40012079800230798008e003700238180004d
:10540400030f780024818000040f7800890037009e
:105414004e109000d000900040009000e080880082
:10542400f180880011002000500d2000720a07004e
:10543400800037004e109000b000900020009000d3
:105444006e01900020119800311198007900370006
:105454004e109000b0009000200090006e0190006b
:105464000011980011119800720037004e1090003e
:10547400b00090002000900010758800217588000d
:10548400400107000040eb001067980069003700f6
:105494004e109000b00090002000900070758800bd
:1054a40050a52a0080758800360107000040eb00f3
:1054b400106798005f003700590b07004e109000ea
:1054c40020019000b0019000620f9800730f9800c3
:1054d40070758000ef0f50000b003a006e099000c9
:1054e400fe09900000002800913a2000800f51002e
:1054f400818f59000400340000002800913a2000f4
:10550400600f9800710f980070758000fe0f5000b6
:105514000b003a006e099000fe0990000000200084
:1055240031752000800f5100818f59000400340030
:105534000000200031752000600f9800710f980062
:105544006e089000fe089000307b8800417b880044
:105554001100200010082000270a0700307b80007b
:10556400417b80003e0190002001980031019800a9
:10557400300037004007a9000000fe002d0037006e
:10558400ee10900060012000800878006e109000fa
:105594008080e80080c2b300804878006e109000dc
:1055a400640140006e109000640040009040780058
:1055b40000c8b30000c07000004978008001eb000f
:1055c400c20720008000eb0020ea20005c230700d3
:1055d4000000eb002017980009003700de1090004f
:1055e4002e1090004200dd00010140006000b80070
:1055f4000089be002e1090000000e80020179800db
:105604002e109000e90f5000f4ff36005e10900059
:105614001275800023758000020898001308980012
:1056240010c0b30010679800020037000040eb0080
:10563400106798001e6090000004e0000300320030
:10564400e00220000e0040000d2707004f04780000
:105654000080fa00000006000800fa0080e3200041
:10566400000f78008001eb00c20720008000eb00ef
:1056740020ea20003223070010079800f17580000b
:1056840050a52a00808f50000a003a00b0758000af
:10569400c17580001e0178004001980051019800f6
:1056a400d0758000e17580001e0178000009980023
:1056b40011099800a176800050a52a00808f50001f
:1056c40015003a00017680001e0078005108980009
:1056d40010768000217680001e0178006009980011
:1056e4007109980030768000417680001e017800b0
:1056f40000119800111198005076800061768000a6
:105704001e017800201198003111980091768000d4
:105714001e00780041109800f176800050a52a0000
:10572400808f50000a003a00b0768000c176800075
:105734001e0178005011980061119800d076800005
:10574400e17680001e0178005011980061119800e4
:105754006177800050a52a00808f500012003a0023
:1057640000778000800078001e00780031189800cf
:1057740010778000800078001e007800411898009f
:1057840020778000317780001e0178007011980026
:105794000119980040778000517780001e0178003d
:1057a4007011980001199800e177800050a52a0033
:1057b400808f500016003a007077800080007800d7
:1057c4001e007800112898008077800080007800ff
:1057d4001e0078002128980090778000a17780002f
:1057e4001e0178003029980041299800b077800084
:1057f400c17780001e017800502998006129980023
:10580400d0778000800078001e007800712898000e
:105814006178800050a52a00808f50000e003a0065
:10582400f0778000b07e88000078800011788000d6
:10583400c07e8800d17e8800207880003178800086
:10584400e07e8800f17e880040788000007f880038
:1058540050788000107f8800b178800050a52a001d
:10586400808f50001b003a0090788000a17880005f
:10587400407e8800517e8800407e8000517e8000fa
:1058840020079800310798002e009000be00900079
:10589400e00f5000e08f580006003d002e019000fc
:1058a400be019000f21fb0000380b00022079800f0
:1058b400330798002e019000be019000471add00c6
:1058c4004910de0000007200c998de00607e880086
:1058d400717e88008178800050a52a00808f500056
:1058e40002003a0070788000a07e8800e178800091
:1058f40050a52a00808f500008003a00c07880002c
:10590400800078001e00780001309800d078800074
:10591400800078001e0078001130980081758000a6
:1059240050a52a00808f500010003a007075800046
:10593400ef0f500005003a000003210051462900f2
:1059440006000900315878000c003700707580009b
:10595400fe0f500009003a0002032100c34629004b
:1059640006000900335978000400370004032100bd
:105974005046290006000900305a78000080fa00d9
:10598400000006000200fa00c20720008000eb00bd
:1059940020ea2000bd220700000f7800100020003c
:1059a4009e0f10000400320022492900014d2800f6
:1059b4000000eb00ab01070013002000c207200029
:1059c4008000eb0020ea20005d220700000f780031
:1059d4001e00e00004003200a2492900014d280005
:1059e4000000eb009f0107000080fa0000000600a1
:1059f4001a00fa00400f980064004700314a290059
:105a040013000900315878004001b10000f420006f
:105a1400000f78001e007800f0089000200320009a
:105a2400808f500047003c00e400470000c5b300ed
:105a3400d04098004e0890008040780064004700f1
:105a4400014878004e0890004800de00804078004d
:105a54006400470011409800ce08900040442000a4
:105a6400808f500009003a00e40047000040eb003a
:105a7400b0409800e400470010c0b300a040980074
:105a8400e400470010c0b300c04098006400470021
:105a940066004000100798009e009000100020004f
:105aa40080087800307b8000417b80001e017800f4
:105ab40020019800310198001e007800b000900089
:105ac400200090001e019000100198002101980010
:105ad400507b8000617b8000800078001e0078008d
:105ae400610098001e00780060009000800078003b
:105af4001e009000310098009e0090000000eb0012
:105b0400c0009800280007001e0190005001980072
:105b14006101980064004700d92507001e00780041
:105b2400700890008000e8001e007800710898005a
:105b34001e007800700890008000e9001e007800c4
:105b4400710898000080fa00000006000800fa00be
:105b54009e00780040442000800878009e80e80081
:105b64000040eb00804878001e007800e30040000d
:105b74000040eb00804878001e007800e4004000fc
:105b840010c0b300804878001e007800e500400093
:105b940000c5b300804878000e80e800b8250700ef
:105ba4000080fa00000006000c00fa006000b80053
:105bb400200798003107980000f42000100798008f
:105bc40080e32000000f78001e009000d0089000b1
:105bd40000402000008060000000e0000800320067
:105be4002e009000be009000020020000300280058
:105bf400020070008380700020079800310798002d
:105c04001e00900060089000ed0f500009003a005b
:105c14002e009000be0090000240200003002000ef
:105c240002007000838070002007980031079800fc
:105c34000c0037001e009000600890000000e00097
:105c4400080034002e009000be00900002202000c6
:105c54000300200002007000838070002007980079
:105c6400310798001e009000d008900000802000aa
:105c7400008060000000e000080032002e00900068
:105c8400be00900002002000030024000200700007
:105c94008380700020079800310798001e00900050
:105ca400d008900000002200008060000000e000a6
:105cb40006003a001e009000d00890000000240066
:105cc400008060000000e0000d0032002e00900013
:105cd400be0090000040a000200798003107980003
:105ce4002e019000be01900000022000010020005f
:105cf400000071008180710020079800310798002e
:105d04001e009000100890004700de006100600053
:105d14000004e000080032002e009000be00900055
:105d24000200220003002000020070008380700043
:105d340020079800310798001e009000200890006a
:105d44004400de00610060000004e0000d00320049
:105d54001e00900050089000640060000000e00005
:105d6400080032002e009000be00900002002400c3
:105d74000300200002007000838070002007980058
:105d8400310798001e009000200890004700de00b4
:105d9400610060000004e000080032002e00900062
:105da400be009000020028000300200002007000e2
:105db4008380700020079800310798001e0090002f
:105dc400200890004800de00610060000004e0004c
:105dd400080032002e009000be0090000200200057
:105de40013002000020070008380700020079800d8
:105df400310798001e009000200890004900de0042
:105e0400610060000004e000080032002e009000f1
:105e1400be00900002002000230020000200700059
:105e24008380700020079800310798001e009000be
:105e3400200890004b00de00610060000004e000d8
:105e4400080032002e009000be00900002002000e6
:105e540083002000020070008380700020079800f7
:105e6400310798001e009000200890004a00de00d0
:105e7400610060000004e000080032002e00900081
:105e8400be009000020020004300200002007000c9
:105e94008380700020079800310798001e0090004e
:105ea400400890000000d100610060000004e000a0
:105eb400080032002e009000be0090000200200076
:105ec40003102000020070008380700020079800f7
:105ed400310798001e009000d008900000002100b7
:105ee400008060000000e000150032001e009000f9
:105ef400600090000000e000050034000004200071
:105f04000100200040079800510798000400370062
:105f1400020820000300200042079800530798005d
:105f24002e009000be0090004e019000de01900013
:105f340002007000838070002007980031079800e9
:105f44001e00780010289000e20f50000b003a0069
:105f54001e00900000109000610060000000e0004e
:105f6400140032002e009000be0090000000a0003b
:105f740020079800310798000e0037001e007800b3
:105f840010289000e30f50000a003a001e00900011
:105f940000109000610060000000e00005003a007d
:105fa4002e009000be0090000000a0002007980082
:105fb400310798001e00780020289000e20f50005e
:105fc4000b003a001e009000001090006400600076
:105fd4000000e000140032002e009000be0090008b
:105fe4000010a00020079800310798000e00370029
:105ff4001e00780020289000e30f50000a003a00a9
:106004001e00900000109000640060000000e0009a
:1060140005003a002e009000be0090000010a00081
:1060240020079800310798001c2507000000e000b5
:1060340008003a002e009000be00900002002000ec
:106044000301200002007000838070002007980084
:10605400310798002e009000be0090000080fa00e6
:10606400000006006800fa00003798001137980015
:1060740022379800019c80001e309000810f500050
:106084003e00320066004700200798006600470083
:106094006600400010079800ae0090001008200031
:1060a400800878002e0090008080e80040c4b3008f
:1060b400804878002e009000e30040000040eb0090
:1060c400804878002e009000e400400010c8b3001f
:1060d400804878002e009000e500400000c5b30021
:1060e400804878009e0090000e3090008008780070
:1060f4009e0090001e309000900098000000eb007d
:10610400000f78009e0190009e0078002e309000d1
:106114001041780064804000030040000248780089
:106124001e0fe8002e3090001040780060e79800c1
:106134006ee090000004e0000200320010c0b300e2
:1061440060e798006ee09000ae3090008100e800b7
:10615400213798000004e000eaff3a009e309000e6
:1061640000002800808f5000020032002e009000b2
:10617400432407001e309000009c88000080fa0031
:10618400000006001800fa00200f98006000b80014
:10619400000f9800110f98006000b8006007980085
:1061a400710798006000b8004007980051079800f4
:1061b4000000eb003007980080e3200020079800df
:1061c400e0f120001007980000f42000000f780090
:1061d400cbc2bf00614060000004e00029003a0027
:1061e400d07980000000e00028003a00d0798000d7
:1061f4000000e800d07988001e0078005008900064
:10620400640060000000e000120032001e0178000b
:10621400d2089000b0ff2f00008060005009980061
:106224001e017800d2089000f0ff2d00008060006d
:10623400500998001e017800d2089000f0bf2f008a
:106244000080600050099800c4e2a800cc62a80055
:106254000e0037009e007800510890000020a00036
:10626400d00898001e017800d20890000040200059
:106274000080700050099800c4e2a900cc62a90013
:10628400020037000000eb00d07988002e0890004f
:10629400300f9800be089000f08f50009c0132002f
:1062a4003e099000f00f51000a003c00be09900026
:1062b400e18f5100d20132003e089000e60f5000f9
:1062c4004d013200be0890000100e00008023200d7
:1062d40013023700000420003e099000800f510093
:1062e400a800320000042000be099000808f5100f5
:1062f40005003c0000022000be089000808f500082
:10630400e700320006023700000620003e09900034
:10631400800f51005000320000082000be09900098
:10632400808f510001003200fd013700d07a8000d7
:1063340001002200010060000000e000f8013a00c2
:106344001e00780020019000b00190002e00900003
:10635400f00890006008900002004000838048002c
:106364001e01900010019800210198001e00900069
:1063740010019000a0019000620798007307980034
:106384006011b8006e009000fe00900075f20700e6
:10639400300798003e009000e10f5000e001320009
:1063a4001e017800d20890000000220000807000d6
:1063b400500998001e017800d2089000f0ff2b00cd
:1063c40000806000500998001e017800d2089000f7
:1063d4000000210000807000500998001e01780020
:1063e400d2089000d0ff2f00008060005009980070
:1063f4001e0190006000b80030019800410198002f
:106404002e00900090109000001090001e0190004b
:1064140050019800610198002e009000b010900087
:10642400201090001e01900070019800010998004e
:106434002e009000c00890001e00900041089800b3
:106444009e0090001000200080087800400020008a
:10645400ef0d0700b2013700d07a8000010022005e
:10646400010060000000e000ad013a001e00780069
:1064740020019000b00190002e009000f0089000e0
:106484006008900000005100818059001e019000b6
:1064940010019800210198001e0090001001900046
:1064a400a001900062079800730798006011b8007b
:1064b4006e009000fe0090002af20700300798005a
:1064c4003e009000e10f5000950132001e0178005b
:1064d400d20890000000220000807000500998004b
:1064e4001e017800d2089000f0ff2b0000806000ad
:1064f400500998001e017800d20890000000210085
:1065040000807000500998001e017800d2089000a5
:10651400d0ff2f0000806000500998001e019000f9
:106524006000b80030019800410198002e009000ee
:1065340090109000001090001e01900050019800ef
:10654400610198002e009000b0109000201090007f
:106554001e01900070019800010998002e0090001f
:10656400c00890001e009000410898009e00900012
:10657400100020008008780060002000a40d0700af
:10658400670137002e009000b0109000201090009a
:106594001e01900070019800010998001e009000ef
:1065a40070019000800990004207980053079800fa
:1065b4004e019000de0190006000b800e9f1070090
:1065c400300798003e009000e10f50005401320063
:1065d4001e017800d20890000000220000807000a4
:1065e400500998001e017800d2089000f0ff2b009b
:1065f40000806000500998001e017800d2089000c5
:106604000000210000807000500998001e017800ed
:10661400d2089000d0ff2f0000806000500998003d
:106624009e00900010002000800878001e01900059
:106634006000b80030019800410198002e009000dd
:1066440090109000001090001e01900050019800de
:10665400610198002e009000b0109000201090006e
:106664001e01900070019800010998002e0090000e
:10667400b0089000200890001e01900010099800b6
:10668400210998002e009000c00890001e00900080
:1066940041089800300020005d0d070020013700fc
:1066a4002e009000b0109000201090001e01900069
:1066b40070019800010998001e009000700190007c
:1066c400800990004207980053079800ce0090007c
:1066d4000080eb00000ab800ce0090000080eb00c0
:1066e4000088b9000501780000014100de00900037
:1066f4000080eb000088b9000001410082027800ac
:1067040044079800550798004e019000de01900060
:106714006000b80093f10700300798003e00900035
:10672400e10f5000fe0032001e017800d2089000f4
:106734000000220000807000500998001e017800bb
:10674400d2089000f0ff2b000080600050099800f0
:106754001e017800d2089000000021000080700023
:10676400500998001e017800d2089000d0ff2f0035
:1067740000806000500998009e00900010002000e6
:10678400800878001e0190006000b8003001980075
:10679400410198002e00900090109000001090008d
:1067a4001e01900050019800610198002e00900095
:1067b400b0109000201090001e019000700198000d
:1067c400010998002e009000b00890002008900065
:1067d4001e01900010099800210998002e009000d5
:1067e400c00890001e00900041089800500020004e
:1067f400070d0700ca003700d07a8000010022008c
:10680400010060000000e000c5003a009e00900016
:1068140060002000800878001e0190000000200025
:106824000100240010019800210198001e0190002d
:106834006000b80030019800410198002e019000da
:1068440070082a00010020001019980021199800ee
:106854002e009000a0189000101890001e019000c7
:1068640050019800610198002e009000801890005b
:10687400701090001e0190007001980001099800aa
:106884002e009000b01890001e009000310898006f
:106894001e0190006000b8001009980021099800ba
:1068a4009e0090000000eb00c00898009e00780055
:1068b40010002000e00898001e017800d208900023
:1068c4000000220000807000500998001e0178002a
:1068d400d2089000f0ff2b0000806000500998005f
:1068e4002e019000603b2f0031262000701198008b
:1068f400011998002e0090008018900070109000ec
:106904001e0190007001980001099800840037006e
:10691400d07a800001002200010060000000e00045
:106924007f003a009e00900010002000800878004c
:106934001e017800d2089000000022000080700040
:10694400500998001e017800d2089000f0ff2b0037
:1069540000806000500998001e017800d208900061
:10696400d0ff2f0000806000500998001e007800be
:1069740020019000b0019000e07e8000f17e800054
:106984000000510081805900000f9800110f9800f9
:10699400e07e8000f17e80001e01900010019800ce
:1069a400210198002e00900090109000001090009b
:1069b4001e01900050019800610198002e00900083
:1069c400b0109000201090001e01900070019800fb
:1069d400010998000e0890009e089000e00f5000f6
:1069e400e08f58000300340040002000880c0700aa
:1069f4004b00370060002000850c0700480037007a
:106a0400d07a800001002200010060000000e00054
:106a140043003a009e009000100020008008780097
:106a24001e017800d208900000002200008070004f
:106a3400500998001e017800d2089000f0ff2b0046
:106a440000806000500998001e017800d208900070
:106a5400d0ff2f0000806000500998001e007800cd
:106a640020019000b0019000c07e8000d17e8000a3
:106a74000000510081805900000f9800110f980008
:106a8400c07e8000d17e80001e019000100198001d
:106a9400210198002e0090009010900000109000aa
:106aa4001e01900050019800610198002e00900092
:106ab400b0109000201090001e019000700198000a
:106ac400010998000e0890009e089000e00f500005
:106ad400e08f580003003400400020004c0c0700f5
:106ae4000f00370060002000490c07000c0037003d
:106af4006000b800000f9800110f9800e179800041
:106b040000022000808f500004003200e1798000f0
:106b140000042000808f500001003a00c0050700e7
:106b2400ae099000e37988000080fa0000000600b6
:106b34000c00fa00889fbe00a0dc2000000f780043
:106b4400e7ef0700e0000700d4e2a900cc42a80068
:106b540020032000be20070020032000bc200700e3
:106b6400cc42a900803e2000b9200700bafa0700f1
:106b740040062000b62007009a1a07003007980044
:106b84003e0090000000e00003003a0010002000e6
:106b940030079800020037001000200030079800ea
:106ba4003e0090000000e0008d003a00a0dc2000d0
:106bb400e1c020003600090031187800785e8000ba
:106bc400895e8000605e80006103b8008600780002
:106bd400002424000009b8006f30b90003027800d3
:106be400000242000024240000b8b9000002420060
:106bf400840178000200be0008004000898048003b
:106c0400f07488000175880010002000e07488008a
:106c14001e0078001000be001e0178007039980034
:106c2400018198001e007800b000900020009000c0
:106c34001e01780030399800413998001e00780010
:106c4400d0009000400090001e0178005039980058
:106c5400613998001e007800f000900060009000f8
:106c64001e01780010819800218198001e00780090
:106c7400403090004e00de008080fb001e00780053
:106c8400318098009e00780010002000c080980099
:106c94001e017800803e20000100200050819800f1
:106ca400618198001e007800b000900020009000e0
:106cb4001e01780070819800018998001e007800f8
:106cc4001000be001e0178001089980021899800e8
:106cd4009e00780020002000b08898001e007800f4
:106ce4001000be00a2002000030020000eeb0700ed
:106cf4001e01780060899800718998001e00780050
:106d0400b000900020009000420120000300200009
:106d140005eb07001e01780000919800119198007e
:106d24001e0178006000b8004089980051899800dd
:106d3400d05e8000e15e80001e0178007031980012
:106d440001399800b05e8000c15e80001e017800a9
:106d540010399800213998001e0078001000be00f8
:106d64004206200003002000efea07001e0178001d
:106d740060919800719198001e0078001000be0088
:106d8400a200200003002000e7ea07001e017800ab
:106d940000999800119998001e007800b0009000a6
:106da400200090001e0178002099980031999800e5
:106db4001e007800b00090002000900042012000e6
:106dc40003002000d8ea07001e01780040999800cb
:106dd400519998009e0078000000eb00e09898001c
:106de400f620070090d3bf000004e0000300320047
:106df40022f007000040eb0090f3b7008921070060
:106e0400100798001e009000c8100700da1f070042
:106e1400800078004e009000808050002003200005
:106e2400808f500012003600d31f070040079800df
:106e3400c4180700200798002e009000d1fc07001a
:106e44000c180700f0798000e90f500005003e009f
:106e5400cc42a900f07980000000e800f0798800b5
