:020000040800F2
:10000000B081002015030008330300083503000801
:1000100037030008390300083B0300080000000014
:100020000000000000000000000000003D03000888
:100030003F030008000000004F440008430300088D
:100040004503000845030008450300084503000870
:100050004503000845030008450300084503000860
:100060004503000845030008450300084503000850
:100070004503000845030008450300084503000840
:100080004503000845030008450300085D600008BB
:10009000655F0008450300084503000845030008A4
:1000A0004503000845030008450300084503000810
:1000B0004503000879560008450300084503000879
:1000C00045030008450300084503000845030008F0
:1000D000C156000845030008450300084503000811
:1000E00045030008231100084503000845030008E4
:1000F00045030008450300084503000845030008C0
:1001000045030008450300084503000845030008AF
:10011000450300084503000845030008450300089F
:10012000450300084503000845030008450300088F
:10013000450300084503000845030008450300087F
:10014000450300084503000845030008450300086F
:10015000450300084503000845030008450300085F
:10016000450300084503000845030008450300084F
:10017000450300084503000845030008450300083F
:10018000450300084503000800F002F800F0B2F84B
:100190000AA090E8000C82448344AAF10107DA45E2
:1001A00001D100F0A7F8AFF2090EBAE80F0013F082
:1001B000010F18BFFB1A43F00103184760FE00004F
:1001C00080FE00000A444FF0000C10F8013B13F0D1
:1001D000070408BF10F8014B1D1108BF10F8015BA0
:1001E000641E05D010F8016B641E01F8016BF9D193
:1001F00013F0080F1EBF10F8014BAD1C0C1B09D1EA
:100200006D1E58BF01F801CBFAD505E014F8016B5B
:1002100001F8016B6D1EF9D59142D6D370470000ED
:100220000023002400250026103A28BF78C1FBD8FF
:10023000520728BF30C148BF0B6070476E290CF0D1
:10024000478170290CF09C8166290EF0DD816529BB
:100250000EF0DA8167290EF0D7816129AFF30080B3
:1002600003681B0A28BF41F0800169290CF0F48063
:1002700064290CF0F18075290CF0EE806F290CF0E8
:10028000D18778290CF06881E9290CF06987E42985
:100290000CF06687F5290CF06387EF290CF0CE8708
:1002A000F8290CF067810368DB0928BF41F0800161
:1002B00063290CF0EA8673290CF0EF86E3290DF030
:1002C000A780F3290DF0AC80002070471FB50EF019
:1002D00091F90DF001F80400002000210DF01EFF3F
:1002E000401C6060002000210DF002FFE0601FBD97
:1002F00010B510BD0DF0E6FA1146FFF7E7FF02F06A
:100300009EFE0DF00DFB03B4FFF7F2FF03BC0DF0F2
:100310000DFB00000F481049026800608A4203D0BC
:100320000E4880470E4800470E48D0F800D040687D
:100330000047FEE7FEE7FEE7FEE7FEE7FEE7FEE733
:10034000FEE7FEE7FEE7000007480849084A094BB8
:1003500070470000F01F0020EFBEADDEB7120008AE
:10036000890100080000FF1FB07B0020B081002041
:10037000B07D0020B07D0020FB48006840F0010007
:10038000F94908604FF40030F84988610846006870
:1003900040F0040008600846006820F0080008608B
:1003A0000846806860F00C00886004208861084678
:1003B000006840F0100008600846006820F0200047
:1003C00008600846806860F03000886088008861B6
:1003D0000846006840F0400008600846006820F0C9
:1003E000800008600846806860F0C0008860402097
:1003F00088610846006840F480500860084600683C
:1004000020F4005008600846806860F4405088601E
:10041000C80188610846006840F4803008600846DA
:10042000006820F4003008600846806860F44030BE
:100430008860CD48006840F00200CB490860012088
:10044000CB490860CA481838006840F00100C84924
:10045000183908600846006820F002000860C448A7
:100460001038006860F00300C149103908600220AC
:10047000BF490860BE481838006840F00400BC4915
:10048000183908600846006820F008000860B8487D
:100490001038006860F00C00B5491039086004207D
:1004A000B3490860B2481838006840F01000B049FD
:1004B000183908600846006820F020000860AC4841
:1004C0001038006820F03000A94910390860102069
:1004D000A7490860A6481838006840F48070A4490D
:1004E000183908600846006820F400700860A048C9
:1004F0001038006860F440709D4910390860202071
:100500009B4908609A481838006840F48060984910
:10051000183908600846006820F4006008609448B4
:100520001038006860F440609149103908608E48C6
:10053000006840F004008C49086001208D49086083
:100540008C481838006840F001008A491839086062
:100550000846006820F002000860864810380068ED
:1005600060F0030083491039086002208149086067
:1005700080481838006840F004007E491839086047
:100580000846006820F0080008607A4810380068C3
:1005900060F00C007749103908604FF480207549ED
:1005A000086074481838006840F010007149183924
:1005B00008600846006820F0200008606D48103888
:1005C000006860F030006B49103908604FF480100B
:1005D0006849086067481838006840F480706549C9
:1005E000183908600846006820F400700860614807
:1005F0001038006860F440705E49103908602020AF
:100600005C4908605B481838006840F480605949CC
:10061000183908600846006820F4006008605548F2
:100620001038006860F4406052491039086040207A
:10063000504908604F481838006840F480504D49D0
:10064000183908600846006820F4005008604948DE
:100650001038006860F440504649103908604FF483
:1006600000404449086043481838006840F0804022
:100670004049183908600846006820F000400860CA
:100680003C481038006860F040403A491039086032
:1006900037481838006820F040703549183908602C
:1006A00033480C38006840F0807031490C390860DC
:1006B0000846006820F0007008602D48183800686F
:1006C00020F440402A491839086029480C3800684D
:1006D00020F4404026490C39086026481838006844
:1006E00020F0C00023491839086022480C380068FF
:1006F00020F0C0001F490C3908601E4818380068F7
:1007000020F440201B49183908601A480C3800684A
:1007100020F4402017490C39086016481838006842
:1007200020F0406013491839086012480C380068FE
:1007300020F040600F490C3908600E4818380068F6
:1007400020F040500B49183908600A480C380068FE
:1007500020F0805007490C3908600846006840F0D6
:10076000005008607047000030380240000002402E
:10077000180402401808024008B1402101E04FF47B
:100780008001584A9161704708B1022101E04FF49D
:100790000031544A9161704753480068012121EAB1
:1007A000502070475148006820F440404F4908608D
:1007B00001204D4908310860BFF35F8F4B4810306E
:1007C0000068C0F3C01070474FF48031464A0832C9
:1007D000116008B1802101E04FF40001434A183252
:1007E00011604249096841F48041404A11607047F4
:1007F0003D481038006820F0C0003B4910390860BF
:100800000220394908310860BFF35F8F364800681D
:10081000C0F3C00070474FF40031334A0832116012
:1008200008B1082101E04FF400212F4A083211607D
:100830002D491039096841F040012B4A103A1160E6
:10084000704710B14FF4803100E00121274A18327F
:100850001160704708B1202101E04FF40011234AD4
:1008600018321160704708B1202101E04FF40011E7
:100870001D4A08321160704708B1022101E04FF4AF
:1008800000311A4A18321160704708B1402101E066
:100890004FF48001144A08321160704708B11021EA
:1008A00001E04FF48011114A18321160704708B10D
:1008B000042101E04FF480210B4A08321160704797
:1008C00008B1082101E04FF40021064A9161704708
:1008D00008B1042101E04FF48021044A183211606C
:1008E000704700000000024010080240000402406F
:1008F0008448006840F480208249086081481038AC
:100900000068814908437F49103908607F480068C2
:1009100020F480107D4908600846006840F400100B
:100920000860081D006820F48060091D0860774891
:100930000C30006820F4401074490C310860081F26
:10094000006820F44010091F08607048406A20F4D5
:10095000706040F4E0616D484162006820F48000FE
:100960006A4908600846006840F40000086067486B
:100970000C30006820F4400064490C310860634882
:10098000406A20F4704040F4E0416048416240F227
:100990006D105F49088000205D4908310880091DFD
:1009A00008805B48001D008840F400505849091D2C
:1009B000088057480C30008840F0C00054490C3182
:1009C00008805448806D20F001005249886500E09D
:1009D00000BF5048806D10F0010FF9D14D48806D77
:1009E00020F060604B4988650846806D40F00060EB
:1009F00088650846806D40F4886088654448001F1B
:100A000008660020C8650846806A20F001008862F8
:100A100000E000BF3F48806A10F0010FF9D13D4867
:100A2000806A20F060603B4988620846806A40F036
:100A3000006088620846806A40F4A060886234489A
:100A4000001F0863344848630815C86230480838F6
:100A5000008820F040002E49083908802C48001DED
:100A6000008840F00C002A49091D08802948806A46
:100A700040F001002749886270472649C96AC1F5DC
:100A80008061264A1268914202D14FF6FF700FE052
:100A900022490A680968491C204B19601E49885C74
:100AA00019460968B1F5806F02D100211A4611601C
:100AB0007047184A926D22F00102164B9A6500E0C9
:100AC00000BF144A926D12F0010FF9D1114A50661D
:100AD000D1650F4A083A128822F040020C4B083BBD
:100AE0001A804FF000620B4B9A601A46926D42F0EA
:100AF00001029A65704706480838008800F04000F7
:100B0000704700004038024002002000000402400C
:100B10000848004000600240CC0200200000002095
:100B2000FE48006840F40030FC490860A720FC49FA
:100B3000088040F2E730091D08604010F8490C3188
:100B40000860F7480838008840F00100F449083987
:100B50000880F3481038008840F06000F0491039F0
:100B60000880081F008840F00100091F0880EC4839
:100B70002838008840F00100E94928390880E74812
:100B8000006840F48030E54908602020E54908818C
:100B90000846008940F007000881002008854FF6CC
:100BA000FF70C8620846008840F001000880704766
:100BB000DC48406A80B270470246501A80B27047E3
:100BC000D648001F006840F01000D449091F086093
:100BD0005320D54908854FF6FF704862C862084621
:100BE000008840F0080008800846008840F00100B6
:100BF000088070474142CC484162018841F00101C0
:100C000001800188C907FCD17047C448001F0068F3
:100C100040F00800C149091F0860C0482438006836
:100C200040F00800BD492439086000E000BFBB481F
:100C30002438006810F0080FF8D0B848243800684D
:100C400020F00800B549243908600020B749088021
:100C5000091F0860B1481438006840F00100AF492E
:100C600014390860B248006820F00100B0490860FB
:100C70000846006840F0020008600846006A20F05C
:100C80000F00801C08624FF0FF30A849091D086062
:100C90005720A64920390880A4481038008840F021
:100CA0000100A24910390880081F008840F00100A7
:100CB000091F08809D482838008840F001009B49A2
:100CC0002839088095481438006840F0020093499C
:100CD000143908609748006820F4805095490860EE
:100CE0000846006840F400500860924820300068D0
:100CF00020F0706040F000708E4920310860084696
:100D0000006820F0704040F0005008608348001FE9
:100D1000006840F004008149091F086000208649EE
:100D20000880091F086041F267008349091D0860B7
:100D3000401081490C31086008460068091D0860B0
:100D400047F270007C49103908807B4808380088D9
:100D500040F0010078490839088077481438008845
:100D600040F00100744914390880704730B50346DB
:100D7000FFF71EFF044600E000BFFFF719FF05461E
:100D80002146FFF719FF9842F6DB30BD02466B485B
:100D900050434FF47A73B0FBF3F1B1F1807F01D38C
:100DA000012070474FF0E020006940F001004FF053
:100DB000E0231861184641610020F2E74FF0E0207F
:100DC000006900F4803070470CB558B95C49096877
:100DD00001915B49283909685A4A116058492439F8
:100DE000096800914D49091F096841F080514B4A3B
:100DF000121F11605449096841F48071524A116010
:100E000046492C31096841F48031444A2C32116042
:100E10001146096821F4803111601146096841F4D6
:100E2000407111601146096841F400411160CA2106
:100E3000434A121F11605321116041491C3909684E
:100E400041F080013E4A1C3A116000E000BF3C497D
:100E50001C39096811F0400FF8D039491839096870
:100E60006FF30E0142F20F721144354A183A1160C5
:100E70001146096821F4FE0141F4C60111603149AF
:100E800009682F4A283A11603049121D11602C4917
:100E90001C39096821F08001294A1C3A116000E0E0
:100EA00000BF27491C39096811F0800FF8D1FF21D4
:100EB000234A121F116022491C39096821F02001C0
:100EC0001F4A1C3A11600CBD1449091F096841F002
:100ED0008051124A121F11601B49096841F4807148
:100EE000194A11600D492C31096841F480310B4ACF
:100EF0002C3211601146096821F4803111601146CD
:100F0000096840F205121143044A2C32116011465F
:100F1000096841F40041116010B319E044380240FF
:100F2000284401400040014000100040280C0040CF
:100F3000000002400004024028080040406F4001C9
:100F400028280040040000200070004002441300E4
:100F500084492839098841F00101824A283A1180E0
:100F6000CA21814A1160532111607F4918390968EB
:100F700041F080017C4A183A116000E000BF7A49D4
:100F80001839096811F0400FF8D077491439096809
:100F90006FF30E0142F20F721144734A143A11605A
:100FA0001146096821F4FE0141F4803111606F4956
:100FB00009686D4A243A11606D49121D11606A4931
:100FC0001839096821F08001674A183A116000E079
:100FD00000BF65491839096811F0800FF8D1FF2169
:100FE000614A116060491839096821F020015E4AA0
:100FF000183A116070475F4901405C4A11607047C0
:10100000CA21594A1160532111605749183909689A
:1010100041F08001544A183A116000E000BF524983
:101020001839096811F0400FF8D0524901404E4A72
:10103000243A11604C491839096821F080014A4A64
:10104000183A1160FF21484A1160704730B50246D6
:10105000CA20454B18605320186043481C3800686C
:1010600020F48070404B1C3B1860181D006840F055
:1010700001001B1D186000E000BF3B4818380068E5
:1010800010F0010FF8D03B48104040F00040364BC4
:10109000083B1860C1F30E0040F07060324B203303
:1010A000186031481838006820F001002E4B183BBA
:1010B00018601846006820F480701860181F0068D7
:1010C00040F488501B1F1860181D006820F00100B4
:1010D0001B1D1860FF20244B18602748006840F44F
:1010E0000030254B186024480838006840F4003070
:1010F000214B083B186020480C30006840F4003059
:101100001D4B0C331860292000F01F040123A3405D
:1011100044094FF0E02505EB8404C4F8003100BF1A
:1011200030BD10B510481838006820F480700E49A2
:101130001839086000E000BF0B481838006810F448
:10114000807FF8D10C480C30006840F400300A4928
:101150000C310860094A50691169884708A002F0FB
:10116000A3FA10BD280800402428004004000020F5
:10117000024413007F7F3F00083C01403869002093
:101180000D0A52544320416C61726D210D0A00001A
:10119000002100205E4A126842F480325C4B1A60E3
:1011A00000BF5B4A126802F40030491C10B9B1F567
:1011B000705FF6D1564A1268C2F34040002879D0D9
:1011C000534A4032126842F08052514B40331A6009
:1011D000504A126842F480424E4B1A6040F2056257
:1011E0004D4B1A604A4A08321268494B08331A605C
:1011F0001A46126842F400421A601A46126842F413
:10120000A0521A601A46126822F4F81242F44022E0
:101210001A601A46126822F07C521A601A46126846
:1012200042F080621A601A46126842F060521A60F8
:101230001A46126822F040421A601A46126842F0BA
:1012400080421A60354A1B1F1A601A1F126842F04A
:1012500080721B1F1A6000E000BF2D4A126812F056
:10126000007FF9D02A4A0832126822F00302284B84
:1012700008331A601A46126842F002021A6000E04F
:1012800000BF234A0832126802F00C02082AF7D184
:10129000234A1F4B84331A601D4A126842F0806251
:1012A0001B4B1A6001E005E000BF194A126812F0FA
:1012B000006FF9D0704710B51A48006840F470000C
:1012C000184908601248006840F0010010490860A1
:1012D00000200F49083108600D4800681249084095
:1012E0000B4908601148091D0860081F006820F4B8
:1012F0008020091F0860002005490C310860FFF7B5
:1013000047FF4FF0006007498039086010BD0000BA
:101310000038024000700040003C02400C5440077E
:101320000040005088ED00E0FFFFF6FE1030002482
:10133000704710B54FF00054F94890F85400C0F3CE
:10134000800010B144F0004401E024F0004403F0B8
:1013500054FF022802D144F4806401E024F4806444
:10136000EF48406F012819D1ED48C06F012808D11E
:10137000FFF718FA10B144F4801411E024F480143B
:101380000EE0E748C06F02280AD1FFF70BFA10B150
:1013900024F4801404E044F4801401E024F4801464
:1013A000DF48806F01281DD1DD48D0F8800001287A
:1013B00008D1FFF71DFA10B144F4001412E024F430
:1013C00000140FE0D648D0F88000022808D1FFF7BB
:1013D0000FFA10B124F4001404E044F4001401E006
:1013E00024F40014204610BD2DE9F04397B0804648
:1013F0000D461646CB480068854202D117B0BDE8BD
:10140000F083B5F5004F1FD06C46A71D81202080CA
:101410004420A0700020E070812020715020607175
:10142000A7F800807D804FF0000900BF3278484661
:1014300009F10109391D0A5416F8011B0029F5D1DB
:101440004A21204603F0C8FDB648056000BFD5E735
:1014500010B54FF488720021B34803F0F4FA044643
:10146000012C05D0B1A248F2D0410020FFF7BCFF0B
:1014700000234FF488721946AB4803F0A1FA0446E2
:101480002CB1ACA248F2D0410020FFF7ADFF10BD57
:101490002DE9F04F2DED048BABB000201190109092
:1014A000A74800881390A648007900F07F000A90B2
:1014B00014ACA51DA24EB61D0020E07001202071C5
:1014C0000A9860710020099040F253621398811AC3
:1014D000904200F0F58736DC40F22322A0EB0201B7
:1014E00090427DD017DC15287BD009DC052866D01A
:1014F000112877D0122876D0142841F0658535E17F
:10150000B0F5047F70D0A0F5007011386DD00228BE
:10151000F3D101F0EFBC40F22142881A91427BD016
:1015200008DCA1F580611D3977D0012976D0032927
:10153000E3D151E3022872D0032800F003870E287C
:10154000DBD100F010BFB1F5BF7F00F0E8871BDCF6
:10155000B02901F082810CDC022901F016800329F8
:1015600001F058800D2901F01785AD29C5D101F092
:1015700060B9B32901F08E81B42901F08F81A1F502
:1015800080717D39B9D128E340F29D12881A9142C9
:1015900001F0888109DCA1F580717F3900F0D987DD
:1015A000022972D00329A8D1F1E3012801F00082B9
:1015B000032801F0468204289FD101F07DBC06205B
:1015C00020805420A070207940F0800020715422A7
:1015D0005C4928460BF0F8F953480068286005E09C
:1015E0003CE0EEE344E051E057E087E056A00078AD
:1015F00085F8420054A041784320415552A0C1785B
:101600004420415550A001794520415551A0007911
:10161000202805D1302005E0FEE3FEE3FEE3FEE3F3
:101620004CA00079462148554AA0417947204155B0
:1016300048A001784820415546A0417849204155AD
:1016400044A081784A20415500214B20415501207A
:10165000099002204249086001F0B6BC402041498F
:10166000C8632F4AD2F88810106D04F043FFF3E7E7
:101670003D48C06820F0100010303B49C860002091
:101680008860FA20FFF772FBE6E7FBE33648C068A4
:1016900020F010003449C860DEE72948C0780128EE
:1016A00011D11F48406D20F00400001D1C49486501
:1016B0000AF0E8FC1A4890F8540010F0010F16D117
:1016C00009F00AF913E01E48C07802280FD1144827
:1016D000406D20F00400124948650AF0D3FC104820
:1016E00090F8540010F0010F01D109F0F5F80C4A00
:1016F000D2F88810106D04F0FDFEADE740F2122024
:1017000020800120A0701848007BC0F3401008B171
:10171000012000E00220E070012009909CE7000019
:101720007C680020140000206C670020454557723B
:101730006974650045455665726966790000000068
:101740005C000020A0E7000831323A32333A3034EE
:10175000000000004D61722020322032303137000D
:101760000C00002038690020846900203068039054
:10177000D6F804B0B0680290F068019003F03AFD2A
:101780004B2801D1012000E0002011900398492846
:101790007ED014DC42287CD008DC012828D0022826
:1017A0003DD00B284ED00C2874D151E0452855D09F
:1017B000462876D047286FD04828F5D1C8E0682859
:1017C0006BD008DC642869D0652868D0662867D0AB
:1017D0006728E9D176E1C82875D0B0F5C87F73D005
:1017E000B0F5167F71D0A0F500705938DCD14AE30E
:1017F000FA48C0F800B00168F9A001F055FF2C22AA
:10180000FE49F648001D0BF024F949F65A20F34929
:10181000C1F80C01FFF71CFE002009904CE30027E3
:1018200005E00020F64901EB870108607F1C0A2FC4
:10183000F7DBF34903980860E84800684860002037
:10184000099039E35846FEF7BFFF0020099033E3C3
:101850005846FEF7E0FF002009902DE3ABF5E0606D
:10186000D33814D145F6A520E44988622C22DB4800
:10187000001D0BF0EEF849F65A20D849C1F80C01CA
:10188000FFF7E6FDDFA001F00FFF0020099013E352
:1018900071E07DE20DE304E018E063E1AFE0C6E053
:1018A00007E1029801B2E0484268D448001D20F8E0
:1018B0001210019800B2DC494968D04A22F81100A0
:1018C00000200990F8E275E282E2ACE2002705E030
:1018D0000020CB4901EB870108607F1C0A2FF7DB52
:1018E000D1484168C548001D30F911000290CE482A
:1018F0004068C24931F910000190C149039808605D
:10190000029888600198C860C7484368BB48001DBA
:1019100030F91320C4484068012801D1C3A000E079
:10192000C3A00146C4A001F0BFFEBF484068B34B4E
:1019300033F91020BC484068012801D1BBA000E069
:10194000BBA00146CAA001F0AFFE00200990B3E29F
:10195000029801B2B4484268A848103020F812102A
:10196000019801B2B0484268A4480C3020F8121027
:1019700000200990A0E2002705E00020A04901EB2B
:10198000870108607F1C0A2FF7DBA74841689B4846
:10199000103030F911000290A348416897480C308C
:1019A00030F9110001909649039808600298886008
:1019B0000198C8609C4843689048103030F9132063
:1019C00099484068012801D198A000E098A00146FC
:1019D000B5A001F069FE9448436888480C3030F99E
:1019E000132091484068012801D190A000E090A008
:1019F0000146BBA001F058FE002009905CE27B206C
:101A00007E4988622C227548001D0BF022F849F6A9
:101A10005A207249C1F80C01FFF71AFDBEA001F06F
:101A200043FE78A001F040FE0020099044E27E4889
:101A3000C0F864B04068012802D14B20049001E056
:101A4000962004907848406E049A504300EE100AA5
:101A5000B8EE400A10EE101A08460CF053FD41ECA7
:101A6000100BB0EE409AF0EE609A9FEDB30B53EC82
:101A7000102B51EC190B0CF099FB41EC100BB0EE54
:101A8000408AF0EE608A51EC180B0CF05DFB089078
:101A900008980CF037FD41EC100BB0EE408AF0EEE8
:101AA000608A53EC182BA6A001F0FEFD00200990DF
:101AB00002E25D48406D6BF382005B49486500209F
:101AC0000990F9E1DA465848C06F01280ED156480E
:101AD000406F0A280AD11AF0010F03D00120FEF747
:101AE00073FE15E00020FEF76FFE11E04E48C06F58
:101AF00002280DD14C48406F0A2809D11AF0010F75
:101B000003D00020FEF760FE02E00120FEF75CFE3D
:101B10004548D0F8800001280ED14348806F0A283C
:101B20000AD11AF0020F03D00120FEF774FE16E06E
:101B30000020FEF770FE12E03B48D0F8800002283B
:101B40000DD13948806F0A2809D11AF0020F03D04D
:101B50000020FEF760FE02E00120FEF75CFE0020A0
:101B60000990A9E1304890F8300000F00E000228FA
:101B700006D0042807D0082808D14FF0030906E052
:101B80004FF0010903E04FF0020900E000BF00BF81
:101B900003F030FB4B2804D0642805D0962809D1E7
:101BA00005E04FF0010808E04FF0020805E04FF0B3
:101BB000030802E04FF0010800BF00BF40F2D670FA
:101BC00020800A20A070207940F080002071012040
:101BD0002880A5F80280C3E080E17FE26C670020E6
:101BE0000D0A53657269616C206E756D62657220B5
:101BF00073657420746F2025750000000C69002047
:101C0000CC0600200D0A454550524F4D2063616CB3
:101C10006962726174696F6E2064617461207361BE
:101C2000766564210D0A00007C6800203735560077
:101C300031353056000000000D0A43616C69627254
:101C40006174696F6E2076616C7565202D2044414A
:101C500043207363616C6520666F72202573207268
:101C6000616E67652069733A2025640D00000000ED
:101C70000D0A43616C6962726174696F6E207661EE
:101C80006C7565202D20444143206F666673657432
:101C900020666F722025732072616E6765206973FC
:101CA0003A2025640D0A00000D0A43616C696272D6
:101CB0006174696F6E2076616C7565202D204144DA
:101CC00043207363616C6520666F722025732072F8
:101CD000616E67652069733A2025640D000000007D
:101CE0000D0A43616C6962726174696F6E2076617E
:101CF0006C7565202D20414443206F6666736574C2
:101D000020666F722025732072616E67652069738B
:101D10003A2025640D0A00000D0A556E6974206989
:101D200073206E6F742063616C69627261746564A4
:101D3000206E6F77210D0A0000000000C0FFDF4019
:101D40000D0A4A6F6720737465702069732073658C
:101D50007420746F2025332E336620560D0A000040
:101D6000A5F804900020E88028819DF8540010F028
:101D7000800F03D09DF85200801D00E006201290D5
:101D800014A8129903F028F90020099094E064E166
:101D9000002705E00020FE4901EB870108607F1C59
:101DA0000A2FF7DB4220FA4908600B204860002028
:101DB000099081E0BBF1000F04D1012003F020FA6B
:101DC00003E07BE0022003F01BFA0020099073E09F
:101DD000F0A001F069FC6420FEF7C8FF72B6F44879
:101DE000006820F48000F24908600846006820F48A
:101DF00000100860EF48F049086000BFBFF34F8F44
:101E0000EE48006800F4E060ED490843001DEB492E
:101E10000860BFF34F8F03E0A7E07DE12BE239E2DA
:101E200000BF00BFFEE7E748C0F850B0E6A001F0F1
:101E30003BFCE448006DA8B1E248406D20F0010091
:101E4000401CE04948650846006D642801DD6420B7
:101E5000086508F046FD0AF015F9DA49086D04F046
:101E60002FFB0CE0D748006D48B9D648406D20F0F4
:101E70000100D449486508F02FFD0AF003F900205D
:101E8000099019E082E0002705E00020C04901EB3D
:101E9000870108607F1C0A2FF7DBCA48D0F850B0D2
:101EA000BB49039808600846C0F804B000200990B8
:101EB00002E00020099000BF00BF1EE41620208031
:101EC0002820A070207940F0800020712822B0499D
:101ED00028460AF079FD012009900EE4B94AD2F8AB
:101EE0008810106D04F006FBB64890F8300000F042
:101EF0003000102804D0202811D0302827D117E036
:101F00007088B049C860002008610846C068002891
:101F100001DA0020C860B2A001F0C6FB23E070889F
:101F2000A849C86000200861B3A001F0BDFB1AE019
:101F30007088A449C860002008610846C06800286D
:101F400001DA0020C860B2A001F0AEFB0BE070889F
:101F50009C49096908449B49C86000200861B4A0F5
:101F600001F0A2FB00BF00BFA7E740F24560208060
:101F70000420A070207940F080002071012028808A
:101F8000AF48808868800120099096E7B6F8028003
:101F9000B6F8049003F02EF91090B8F1010F06D0B6
:101FA000B8F1020F0CD0B8F1030F1BD111E04B2098
:101FB0008449086003F09FF801208249486011E0DD
:101FC00064208049086003F096F800207D4948604D
:101FD00008E096207B49086003F08DF800207949DD
:101FE000486000BF00BFB9F1010F06D0B9F1020F80
:101FF00012D0B9F1030F2DD11DE07248006B40F0F3
:102000000200704908630846006B20F00C0008636A
:10201000012003F00EF91EE06A48006B40F0040056
:10202000684908630846006B20F00A000863022034
:1020300003F0FFF80FE06348006B40F008006149CF
:1020400008630846006B20F006000863032003F0D5
:10205000F0F800E000BF00BF2FE75A4890F83000CA
:1020600000F00E00022806D0042807D0082808D166
:102070004FF0030906E04FF0010903E04FF00209B9
:1020800000E000BF00BF03F0B5F84B2804D064287F
:1020900005D0962809D105E04FF0010808E04FF07F
:1020A000020805E04FF0030802E04FF0010800BF0E
:1020B00000BF40F2D67020800A20A070207940F046
:1020C0008000207101202880A5F80280A5F80490E6
:1020D0000020E880288101200990EEE677882C22F4
:1020E000584959480AF0B5FC9022364956482C30D8
:1020F0000AF0AFFC4C2255495348BC300AF0A9FC09
:1021000049F65A205049091FC1F80C01FFF7A0F900
:102110004FA001F0C9FAD0E65248C078079007985E
:10212000012802D0079803281DD103F066F8022881
:1021300019D1012003F064F8224890F8300010F023
:10214000100F03D0012003F0CAF802E0002003F0D2
:10215000C6F81C4A5168D2F88C0003F0AAF8194955
:10216000C860002008610798022802D00798042858
:102170000DD103F042F801287CD1002003F0AFF824
:10218000022003F03DF80F4A516890696CE071E05D
:10219000CC0600200D0A456E746572696E67206278
:1021A0006F6F746C6F616465722E2E2E0D0A0000C5
:1021B00030380240EFBEADDEF01F00200CED00E035
:1021C0000000FA057C6800200D0A42726967687495
:1021D0006E657373206368616E6765210D0A000088
:1021E0000D0A534F46545741524521202B20455844
:1021F0005420494E0D0A00000D0A534F46545741D2
:10220000524521202B20504F54204F4E0D0A0000E4
:102210000D0A534F46545741524521202B20504F11
:1022200054202B2045585420494E0D0A0000000030
:102230000D0A534F465457415245210D0A000000E4
:10224000846900200C690020706700203869002034
:102250000D0A5361766564204545506172616D7366
:102260000D0A00005C00002003F012F8FE49C8616E
:102270000020086221E640F2426020800120A07028
:1022800002F0BBFF012800D100E00220E070012035
:10229000099012E6F44AD2F88810106D04F02AF979
:1022A000F14890F8300000F03000102804D02028C9
:1022B00011D0302830D11DE07088EB49C861002072
:1022C00008620846C069002801DA0020C861E7A05A
:1022D00001F0EAF92FE07088E349C8610020086244
:1022E0000846C069002801DA0020C861E6A001F0B4
:1022F000DBF920E07088DC49096A0844DA49C861E2
:10230000002008620846C069002801DA0020C86180
:10231000E6A001F0C9F90EE07088D349C861002039
:1023200008620846C069002801DA0020C861E7A0F9
:1023300001F0BAF900BF00BFCB48C169EAA001F0C3
:10234000B3F9BAE54FF4C96020800420A070207969
:1023500040F08000207101202880C348808C688074
:1023600001200990A9E570880690069830B10128EF
:102370002AD0022856D0032876D176E0002002F039
:10238000A8FFB948006B20F01000B7490863084661
:10239000006B20F0200008630846C0680969084403
:1023A000B149C86000200861D4498863AE48806E96
:1023B00040F0100048630020AB49886602F08FFFB0
:1023C000CFA001F071F979E0002002F082FFA64869
:1023D000006B20F02000A44908630846C068096922
:1023E0000844A149C86000200861C44988639E4828
:1023F000806E40F01000486300209B4988660120F1
:1024000002F06DFF9848006B40F010009649086399
:102410000846C068096908449349C860C3A001F030
:1024200043F94BE0012002F054FF8F48006B40F06D
:1024300020008D4908630120B04988630846406B3D
:10244000894988660846806E20F010008866002062
:1024500002F045FF8448006B20F0100082490863B9
:10246000C1A001F021F929E027E0012002F031FFAD
:102470007D48006B40F020007B49086301209F49A4
:1024800088630846406B784988660846806E20F06D
:1024900010008866012002F022FF7348006B40F0B4
:1024A0001000714908630846C068096908446E490C
:1024B000C860B9A001F0F8F800E000BF00BFFCE47C
:1024C00000200690684890F8300000F03000102896
:1024D00004D0202807D030280FD109E0069840F01A
:1024E000010006900AE0069840F00200069005E020
:1024F000069840F00300069000E000BF00BF40F2E5
:10250000546020800420A070207940F08000207169
:10251000012028800698688001200990CDE4308849
:102520000590059800EB401000EB4000FF21B0FB48
:10253000F1F005900A210598B0FBF1F000EB800066
:1025400040000590484905980865086D03F0B8FFFC
:10255000B3E44548006D05900598C0EB0020632169
:10256000B0FBF1F005909BA0059901F09DF840F2B9
:10257000D37020800220A070207940F0800020716C
:10258000059828800120099097E4708800EE100AD1
:10259000B8EE400ADFED950A80EE201AB1EE000A8F
:1025A00021EE000A924880ED080AB08800EE100A79
:1025B000F8EE400A9FED8F1A9FED8F0A00EE810A18
:1025C000DFED8E0A80EE201A894880ED091A90ED21
:1025D000090A10EE101A08460BF094FF41EC100B9C
:1025E000B0EE408AF0EE608A814890ED080A10EE65
:1025F000101A08460BF086FF41EC100BB0EE409A23
:10260000F0EE609A8DED008B53EC192B7CA001F05D
:102610004BF852E440F2576020800620A0702079E9
:1026200040F08000207101202880714890ED080A58
:10263000DFED6E0A20EE200AF1EE000A80EE201A8D
:1026400011EE10BA58460BF088FF00F30F006880B7
:102650006748D0ED090A9FED691A9FED670A10EEF1
:10266000810ADFED640AD7E07C6800200D0A20456E
:10267000585420494E2028636C6F736564206C6F3A
:102680006F70290D0A0000000D0A20506F7420267B
:1026900020536F6674776172652028636C6F736571
:1026A00064206C6F6F70290D0A0000000D0A205025
:1026B0006F7420262045585420494E2028636C6FA3
:1026C000736564206C6F6F70290D0A000D0A20532A
:1026D0006F6674776172652028636C6F7365642020
:1026E0006C6F6F70290D0A000D0A506F7369746961
:1026F0006F6E2069733A2025640D0A003869002046
:102700000D0A20536F667477617265206F6E6C7965
:102710002C20506F74207475726E6564206F66662D
:10272000206279204150540D0A0000000D0A205308
:102730006F66747761726520706C7573206578744C
:1027400065726E616C20696E7075742C20506F74A8
:10275000207475726E6564206F6666206279204110
:1027600050540D0A000000000D0A20536F66747764
:1027700061726520706C757320706F742C20506FBF
:1027800074207475726E6564206F6E2062792041CA
:1027900050540D0A000000000D0A20536F66747734
:1027A00061726520706C757320706F7420616E6447
:1027B0002065787420696E7075742C20506F7420B9
:1027C0007475726E6564206F6E206279204150547A
:1027D0000D0A00000D0A4272696768746E657373B2
:1027E0002069733A2025640D0A00000000903245EC
:1027F0000C69002007F0563E0AD7233C00401C46D7
:102800000D0A50493A2050203D2025662C204920B1
:102810003D2025660000000080EE201A11EE10BA5F
:1028200058460BF09AFE00F30F00A8800120099093
:10283000CAE3B6F802B0B088039002F0DBFC4B2884
:1028400001D1012000E000201190BBF5007F03DCE6
:10285000FE49039841F82B00B6E3FD4836F8021F05
:1028600001607188416071688160B1684FF47A726B
:102870005143C160F1685143016131695143416184
:10288000B18A8161D6F81610C161718BA6F102067A
:10289000016299E30220EF49086095E30320ED49C6
:1028A000086091E37088EC49C865B0880866D6F87E
:1028B00006004866708988660846006D0E900846D6
:1028C000D0F884000D900846D0F888000C90F0688D
:1028D000C86630690867B08A0865F08A48B9308BE5
:1028E00038B941F27070C1F884000220C1F8880044
:1028F00011E0308BD849C1F88800F08A20B96FF018
:102900000040C1F8840006E0F08A4FF41671484395
:10291000D149C1F88400D048016D0E9881420BD195
:10292000CD48D0F884100D98814205D1CA48D0F81E
:1029300088100C98814201D0012000E000200B900B
:10294000C548006D642802DD6420C3490865C24A99
:10295000D2F88810106D03F0CDFDBF48806E18B915
:10296000002002F0B6FC0BE0BB48806E012803D0CB
:10297000B948806E022803D1B748806EB7494863D2
:10298000B548006E012803D16D20B34988650EE07B
:10299000B148006E022803D10B20AF49886506E0DC
:1029A000AD48006E032802D10120AB4988650BE3D6
:1029B00040F2F27020802220A070207940F0800048
:1029C000207101202880A448B0F85C006880A248EB
:1029D000B0F86000A880A048406EC5F806009E4888
:1029E000B0F8680068819C48C06EE8609A48006F43
:1029F00028619948B0F85000A8829748D0F8840020
:102A00006FF00041884202D10020E88207E092483E
:102A1000D0F884004FF4167190FBF1F0E8828E48F4
:102A2000B0F888002883002706E0002105F11A008D
:102A300000EB470001807F1C042FF6DB012009908A
:102A4000C2E2708884494867B088C867F1888248C4
:102A500081673189C0F88010416F806F0A2202FBC4
:102A600000100F900F9817286CD008DC02280DD0AA
:102A700003282BD0142849D0162876D16AE01E28C6
:102A800074D0202873D02128F7D1D1E17248C06FCB
:102A9000012806D17148406C20F001006F4948645C
:102AA0000AE06D48C06F022806D16C48406C20F0E7
:102AB0000100401C6949486402206849086368A015
:102AC00000F0F2FD70A000F0EFFDF1E16248C06F90
:102AD000012806D16148406C20F001005F4948643C
:102AE0000AE05D48C06F022806D15C48406C20F0C7
:102AF0000100401C594948640220584908636CA0F1
:102B000000F0D2FD60A000F0CFFDD1E15248D0F836
:102B10008000012806D15148406C20F002004F4946
:102B200048640BE04C48D0F88000022806D14B489E
:102B3000406C20F00200801C48494864022047494C
:102B4000086300E063E064A000F0AEFD6EA000F05A
:102B5000ABFDADE14048C06F012809D13F48406C52
:102B600020F001003D4948640DE09AE12DE026E1A6
:102B70003948C06F022806D13848406C20F0010067
:102B8000401C364948643448D0F88000012806D1FA
:102B90003248406C20F00200304948640BE02E4877
:102BA000D0F88000022806D12C48406C20F00200AA
:102BB000801C2A4948640220284908635BA000F071
:102BC00073FD51A000F070FD72E12348D0F8800041
:102BD000012806D12148406C20F002001F494864BA
:102BE0000BE01D48D0F88000022806D11B48406C3D
:102BF00020F00200801C194948640220174908632C
:102C000054A000F051FD40A000F04EFD50E11248EC
:102C1000C06F012806D11148406C20F001000F4917
:102C200048640AE00C48C06F022806D10B48406C8B
:102C300020F00100401C094948640748D0F8800092
:102C4000012801D105489DE0A2E00000946F00201A
:102C500094770020A80100207C68002038690020BB
:102C60000D0A492F4F3120636F6E66696775726573
:102C70006420746F207374657070696E67202E32E3
:102C80002E210D0A000000000D0A492F4F32206945
:102C900073206E6F7420636F6E666967757265640A
:102CA00020746F207374657070696E67210D0A005F
:102CB0000D0A492F4F3120636F6E66696775726523
:102CC0006420746F207374657070696E67202E3392
:102CD0002E210D0A000000000D0A492F4F312069F6
:102CE00073206E6F7420636F6E66696775726564BA
:102CF00020746F207374657070696E67202E323097
:102D00002E20210D0A0000000D0A492F4F322063AA
:102D10006F6E6669677572656420746F2073746581
:102D20007070696E67210D0A000000000D0A492FBE
:102D30004F3120636F6E6669677572656420746FCA
:102D4000207374657070696E67202E32322E2021D8
:102D50000D0A00000D0A492F4F31206973206E6F54
:102D60007420636F6E6669677572656420746F2086
:102D70007374657070696E67202E33302E20210DBC
:102D80000A000000406C20F00200FB4948640BE0A0
:102D9000FA48D0F88000022806D1F748406C20F0AD
:102DA0000200801CF44948640220F3490863F4A03F
:102DB00000F07AFCAFF2B00000F076FC78E0EF486B
:102DC000C06F012806D1EC48406C20F00100EA49B0
:102DD00048640AE0E948C06F022806D1E648406C22
:102DE00020F00100401CE4494864E448D0F8800029
:102DF000012806D1E048406C20F00200DE4948641A
:102E00000BE0DE48D0F88000022806D1DA48406C9A
:102E100020F00200801CD84948640220D64908638B
:102E2000E1A000F041FCAFF2201000F03DFC3FE0DB
:102E3000D248C06F012806D1CF48406C20F0010075
:102E4000CD4948640AE0CD48C06F022806D1CA487F
:102E5000406C20F00100401CC7494864C748D0F8C6
:102E60008000012806D1C448406C20F00200C2490D
:102E700048640BE0C148D0F88000022806D1BE4863
:102E8000406C20F00200801CBB4948640220BA4913
:102E90000863CFA000F008FCAFF2941000F004FC2F
:102EA00006E0D5A000F000FC0020B349086300BF95
:102EB00000BF0020099087E040F2F57020801620C6
:102EC000A070207940F08000207101202880AB485C
:102ED000B0F874006880A948B0F87C00A880A748C2
:102EE000B0F87800E880A548B0F88000288101207B
:102EF000099069E0CD4890F802A0A048C06F012871
:102F00000ED19E48406F0A280AD11AF0010F03D053
:102F10000120FDF759FC15E00020FDF755FC11E0FC
:102F20009648C06F02280DD19448406F0A2809D1F5
:102F30001AF0010F03D00020FDF746FC02E001204B
:102F4000FDF742FC8D48D0F8800001280ED18B4857
:102F5000806F0A280AD11AF0020F03D00120FDF772
:102F60005AFC16E00020FDF756FC12E08348D0F82A
:102F7000800002280DD18148806F0A2809D11AF0FB
:102F8000020F03D00020FDF746FC02E00120FDF710
:102F900042FC0020099017E040F2616020800A2086
:102FA000A070207940F08000207101202880A04886
:102FB000808868809E480088A880FEF7BAF9C5F826
:102FC00006000120099000BF00BF099870B19DF86C
:102FD000540010F0800F03D09DF85200801D00E0D7
:102FE0000620129014A8129901F0F6FF2BB0BDEC48
:102FF000048BBDE8F08F7FB506468E4B0FCB8DE876
:103000000F008B4D50208DF80500F0B28DF80000B8
:10301000300A8DF801000DF1060401202080A888F7
:1030200060802888A080FEF784F9C4F8060010218B
:10303000684601F0D1FFA868401CA8607FBD1CB5A0
:103040000BF0D8FAFDF798F9FDF76AFD6420FDF75B
:103050009DFEFDF7B5FDFDF7D8FD0020FDF7CBFF88
:103060000120FDF7B1FE4FF480707349886100F0D4
:1030700061FD01F029FEFDF73BFC00F0C1FB01F012
:10308000C7FA01F03BFD02F05BFA02F01FFE62B6E8
:10309000C820FDF76BFE0120FDF71AFC01F0DDFBF7
:1030A000C820FDF763FE65A000F0FEFA6CA000F0FA
:1030B000FBFA62A000F0F8FA7248D0F80E1072A085
:1030C00000F0F2FA9FED760B53EC102B76A000F097
:1030D000EBFA7D48006810F4005F01D07BA000E0AF
:1030E0007DA001467FA000F0DFFA09F0AFF80020D4
:1030F00009F023F908F0C6FF7D4807F0F7FD4FF40B
:10310000207009F0E1F807F0ECFB322003F0D8F969
:1031100000234FF488721946764801F051FC754837
:103120000068754990FBF1F01D2802D07348714981
:1031300008603220FDF71AFE6E48D0F80C01A0F5A9
:103140001A415A3916D12C226A49091D6C4809F0D6
:1031500080FC6B48806AA0F5B441A5390BD12C22C4
:103160006449091D664809F074FC3248103000F0CB
:103170009BFACCE0E7E0C5E0386900207C680020DD
:103180000D0A492F4F3120636F6E6669677572654E
:103190006420746F207374657070696E67202E32BE
:1031A000332E210D0A0000000D0A492F4F312063F4
:1031B0006F6E6669677572656420746F20737465DD
:1031C0007070696E67202E33322E20210D0A0000A8
:1031D0000D0A492F4F3120636F6E666967757265FE
:1031E0006420746F207374657070696E67202E336D
:1031F000332E20210D0A00000D0A492F4F31206186
:103200006E6420492F4F3220617265206E6F7420EA
:10321000636F6E6669677572656420746F2073747E
:10322000657070696E67210D0A0000005C00002067
:10323000846900200CE60008000002400D0A2D2DD4
:103240002D2D2D2D2D2D2D2D2D2D2D2D2D2D2D2DAE
:103250002D2D2D2D2D2D2D2D2D2D2D2D2D2D2D00CB
:103260000D0A7C204B505A313031205069657A6FFD
:10327000204D6F746F7220436F6E74726F6C6C654B
:1032800072207C00A0E700080D0A0A4669726D777B
:10329000617265207265763A092530365800000063
:1032A00000000000000065400D0A53797374656DDD
:1032B00020636F726520636C6F636B203D20252E49
:1032C0003266204D487A0000100802406F6E20746C
:1032D00068652068756200007374616E64616C6F6C
:1032E0006E6500000D0A4D6F64653A20257300007D
:1032F00038FC00086C67002040420F004081BA0192
:103300000C69002001F025FBA6A000F0CDF9902269
:10331000B449B54809F09DFBB348D0F8840038B9EA
:1033200041F27070B049C1F884000220C1F88800F1
:10333000AE48C06820F080008030AC49C860ACA0C6
:1033400000F0B2F902E0B4A000F0AEF9A6490868B6
:1033500001F0D1FEA44890F8300000F00E000228E1
:1033600004D0042806D008280CD107E0012001F081
:1033700060FF08E0022001F05CFF04E0032001F0A0
:1033800058FF00E000BF00BF012001F0A2FF9648F7
:1033900090F8300010F0100F03D0012001F09FFFD3
:1033A00002E0002001F09BFFA34880690090A24842
:1033B000C0690190DDE9000101F0B5FF8A48006BAA
:1033C00020F0010088490863012001F019FF8648B8
:1033D0004068012803D10020FDF74EFA02E00120E9
:1033E000FDF74AFA0120FDF750FA94A000F05CF9CD
:1033F0004FF47A70FDF7BAFC7B48C06F012806D104
:103400009648406C20F00100944948640AE07648F0
:10341000C06F022806D19148406C20F00100401C8A
:103420008E4948647048D0F88000012806D18B4846
:10343000406C20F00200894948640BE06A48D0F8EB
:103440008000022806D18548406C20F00200801CD4
:10345000824948640220814908638148006801214B
:1034600031EA502005D103207C49886208F00AFE29
:1034700010E07CA008F0FCFD7E48D0F80E207EA174
:10348000804808F081FF0221002007F0AFFC7D4852
:1034900008F0EEFDFDF78CFB054601E000F0C4FAF4
:1034A000FDF786FB06462946FDF786FBB0F5FA6F69
:1034B000F4DB4D48006D40B94B48406D20F00100F1
:1034C0004949486507F008FA0CE04749086D02F0E1
:1034D000F7FF4548406D20F00100401C4249486517
:1034E00007F0FFF900204049C86008618861C861A1
:1034F00008624862886253E001F020FD0446902C87
:1035000002D161A0FDF714FF6648D0F80001012840
:1035100005D1FDF7BDFF02206249C1F8000101F0AD
:1035200070FDFDF74BFCA8B33048007BC0F30010E2
:1035300018B140F26160FFF75EFD4848C06B00289B
:103540000EDD464890F83C10C06B401E434AD063E5
:1035500011F0040F02D007F0BFF901E007F0C1F944
:1035600002F0A3FF3D49086202F075FF3B49486243
:1035700002F0FDFF05F067F906F02BF906F0A7FA57
:1035800006F012FC3548806A032803D10020164952
:103590008861486200F048FA00F000F900F009FF85
:1035A000AAE700000D0A0A556E6974206973206E3F
:1035B0006F742063616C696272617465642E20446B
:1035C000656661756C742063616C696272617469AF
:1035D0006F6E2064617461206C6F61646564210D9D
:1035E000000000009C6700207C68002084690020A7
:1035F0000D0A454550524F4D20636F6E74656E74D1
:10360000206C6F61646564207375636365737366B2
:10361000756C6C79210D0A000D0A454550524F4DCD
:1036200020636F6E74656E74206E6F74206C6F61B2
:10363000646564210D0A00000C6900200D0A5072B7
:1036400065737320456E74657220666F72206465C1
:10365000627567206D656E752E0000003869002068
:103660001008024054686F726C616273204B505AAC
:1036700031303100A0E700085377526576203025BD
:1036800030345800F4060020496E76616C6964207D
:10369000415054206D65737361676520666F726D6C
:1036A00061742E005C0000200FB438B505A80090AE
:1036B0004D4909684D4A12688818009A049908F023
:1036C00051FE0446494800682044484908600020EB
:1036D0000090204638BC5DF814FB2DE9F04105460A
:1036E0000E4600274248006808B9424805603DE0A0
:1036F000082C04D00A2C1DD00D2C20D119E03C48F8
:103700000068A8B108213CA0FFF7CEFF20213AA015
:10371000FFF7CAFF082138A0FFF7C6FF344800684A
:10372000401E3349086033480068401E3149086034
:103730001BE000BF012700202D49086015E02C4840
:103740000068B04210D221462BA0FFF7ADFF2949F7
:1037500009680C7027480068401C26490860244806
:103760000068401C2249086000BF00BFFDF785F9D2
:103770000446A0F57F41FF39BAD16FB100201D4941
:10378000096808701B480068401C1A490860084610
:103790000068401BBDE8F0810020FBE710B513482E
:1037A0000068B0B1FDF7A7F998B1104801680E485C
:1037B0000068FDF77EF90C4800681049884202D184
:1037C00001F5805000E00D480749086000200749D6
:1037D000086010BD10B500E000BFFDF78CF90028AF
:1037E000FAD0FFF7DBFF10BD1C00002020000020F6
:1037F0002400002028000020256300000C07002082
:1038000008B58448006840F00100824B1860814888
:103810001430006840F480507E4B143318607E48AA
:10382000006820F480407C4B18601846006840F423
:10383000004018601846406820F080005860184624
:10384000C06820F44040D8601846806860F440406A
:1038500098601846006A20F0704040F0A04018625E
:103860001846006820F4806018601846006840F42C
:10387000006018601846406820F020005860184624
:10388000C06820F44060D8602020986118468068A5
:1038900060F4406098601846006A20F4700040F4BC
:1038A000A00018625B48006840F00100594B1860A6
:1038B0001020594B98611846006840F480701860D9
:1038C0001846006820F4007018601846406820F020
:1038D000100058601846C06820F44070D860184640
:1038E000806860F4407098604C48808820F0400008
:1038F0004A4B98801846008820F0400018802A2300
:10390000B3FA83F3C3F12001481E382303EAC0024F
:1039100042F44170414B18801846808840F0020004
:1039200098803C48006840F480003A4B18603C485E
:10393000006820F001003A4B186000E000BF3848F2
:10394000006810F0010FF9D14FF40060344B7C3B5C
:1039500018603348006820F06060314B18601846EA
:10396000006840F0C06018601846006840F480604D
:1039700018601846006840F04000186027480C3076
:10398000274B0833186000201B1F1860234800884D
:1039900040F04000214B188018468089009001209B
:1039A0008840204BB3FBF0F008BD08B1102101E0C6
:1039B0004FF48011184A91617047194A126822F039
:1039C0000102174B1A6000E000BF154A126812F09E
:1039D000010FF9D1124A0C321060114A121D116008
:1039E000D2140F4B7C3B1A600D4A126842F0010260
:1039F0000B4B1A6070470A488438006810F4006F57
:103A000006D00648008910F0800F01D101207047D0
:103A10000020FCE730380240000002400030014046
:103A20008864024000BD010510B53B48006820B124
:103A300001282BD0022867D154E038480068374964
:103A40004968884221D93648344A06CA06C03348F4
:103A500040683449884207D101F500502F49486039
:103A600008464068086005E02E482C494860084632
:103A7000406808602A4840682B490860084600688A
:103A80002A4908600120244908603DE02448006874
:103A900025490968884221D92348006804782248CA
:103AA000006840882249088020480068001D1F499E
:103AB0000860DA2C03D10120FCF75EFE04E0C02C84
:103AC00002D10020FCF758FE194801881748006809
:103AD000FFF773FF02201049086002E000200E4942
:103AE000086011E0FFF787FF68B1104800681049CF
:103AF000098808440D490860084600680A490860BA
:103B000001200549086000BF00BF0348006808B1F4
:103B1000012010BD0020FCE7480000202C00002000
:103B20003C0000200C27002038000020340000203A
:103B3000440000203948006840F00300374908601D
:103B40003748006820F08040354908600846006822
:103B500040F0004008600846C06840F08040C860FF
:103B60000846C06820F00040C8600846406A20F05F
:103B7000704040F080512A4841622A48006820F095
:103B80004000284908600846006840F0800008604E
:103B900024480C30006840F0400022490C31086095
:103BA0000846006820F0800008601E482030006849
:103BB00020F4704040F480501A49203108601748C2
:103BC0001030006840F001001449103108604FF0D7
:103BD000FF300906C8620846008B40F20111084315
:103BE00089070883022008814007008840F001000F
:103BF000088070474FF08040406A70474FF0804126
:103C0000098821F001014FF080421180114648627D
:103C1000098841F0010111807047000030380240EE
:103C2000000002400004024070472DE9F0419EB0C0
:103C3000074600201B901C901D9013261BAAFEA176
:103C4000384608F06FFD00240AE0FC4800EB041041
:103C500041681BA808F030FF08B9264602E0641C42
:103C6000132CF2DD00BF132E74D2DFE806F00A2118
:103C70003D545C747AA9B7C7CDE6FCFBFAF9F8F7B6
:103C8000F60017AAEEA1384608F04CFD179909B1C5
:103C9000012100E000210846FCF796FD179808B1C5
:103CA000012000E000200146E7A0FFF7FDFC67E3EC
:103CB000EC48C06F012807D1FCF774FD80464146EF
:103CC000E9A0FFF7F1FC0EE0E648C06F02280AD138
:103CD000FCF768FD08B9012000E00020804641465D
:103CE000E1A0FFF7E1FC4BE317AAD5A1384608F0A5
:103CF00019FD179909B1012100E000210846FCF7E0
:103D00008AFD179808B1012000E000200146DCA0E0
:103D1000FFF7CAFC34E3FCF76BFD80464146DFA0A9
:103D2000FFF7C2FC2CE317AAC5A1384608F0FAFC3D
:103D3000179909B1012100E000210846FCF724FD94
:103D4000179808B1DBA000E0DBA00146DBA0FFF77D
:103D5000ABFC15E3E2E202F084F8DFA0FFF7A4FC7D
:103D60000EE318AAE1A1384608F0DCFCE14800782F
:103D7000E149086018A808F008FEDF49087300242C
:103D800005E018A8015DDC48001D0155641C18A859
:103D900008F0FBFDA042F4D80020D749487388738F
:103DA000084602F0DAF90020D449086018A808F0A3
:103DB000ECFD8046424618A9D1A0FFF775FCDFE272
:103DC00017AA9FA1384608F0ADFCCA491798087099
:103DD00008460178D3A0FFF767FCD1E217AA98A1A3
:103DE000384608F09FFC1799C8B2002102F04FF83E
:103DF0001798C1B2D1A0FFF757FCC1E202F0E9F970
:103E0000D5A0FFF751FCBBE217AA8DA1384608F0F8
:103E100089FC1798012803D10005D449086002E005
:103E20001020D2490860179808B9D1A000E0D2A0AC
:103E30000146D3A0FFF738FCA2E215A816AB17AADB
:103E4000D8A10090384608F06DFC1799149861F3DA
:103E5000154014901699149806E04AE23CE215E2E7
:103E6000FBE1E7E157E01BE061F30E201490DDE990
:103E7000140161F3060014901498FDF7C1F814982A
:103E800000F07F03C0F30622C0F30541C8A0FFF78E
:103E90000BFCD0A0FFF708FC0220CF4908606FE2BE
:103EA00015A816AB17AABFA10090384608F03AFC37
:103EB0001799149861F3154014901699149861F3AA
:103EC0000E201490DDE9140161F306001490002126
:103ED0001498FDF7BBF8C148C068042808D1002039
:103EE000FCF799FCBE48BD4908610120486107E024
:103EF0000020FCF769FCBB48B84908610120486113
:103F0000149800F07F03C0F30622C0F30541B6A069
:103F1000FFF7CAFB34E217AA49A1384608F002FCB1
:103F2000BA480468B948283800681590B74824385A
:103F30000068159814901498C0F303401499C1F3C5
:103F4000015101EB810100EB410016901498C0F380
:103F500003201499C1F3023101EB810100EB410010
:103F60001590149800F00F001499C1F3021101EBA1
:103F7000810100EB41054FF46161169848431599A2
:103F8000C1EB011100EB81002844179908441790F8
:103F90009F49179890FBF1F201FB120017904FF424
:103FA0006161179890FBF1F016900A21169890FB2A
:103FB000F1F1149861F3155014900A21169890FBB2
:103FC000F1F201FB1201149861F3134014904FF4C5
:103FD0006161179890FBF1F201FB120016903C21F1
:103FE000169890FBF1F01590169890FBF1F201FBFA
:103FF00012050A21159890FBF1F1149861F30E3027
:1040000014900A21159890FBF1F201FB120114980B
:1040100061F30B2014900A2095FBF0F1149861F3E2
:10402000061014900A2095FBF0F100FB1151149832
:1040300061F303001490EDE02539730060E6000899
:10404000252A7325640000000D0A5472696720490F
:104050002F4F2023312073657420746F2025640D49
:104060000A0000007C6800200D0A5472696720492C
:104070002F4F2023312069732025640D0A00000092
:104080000D0A5472696720492F4F2023322073652F
:104090007420746F2025640D0A0000000D0A54720C
:1040A000696720492F4F2023322069732025640D32
:1040B0000A0000006F6E00006F6666000D0A434143
:1040C0004E207465726D696E6174696F6E206973DC
:1040D0002025730D0A0000000D0A43414E20737421
:1040E00061727465642E0D0A00000000252A732594
:1040F00038730000540000205C6700204C00002052
:104100000D0A43414E206D73672073656E743A202B
:10411000222573222C2025642062797465732E0D6C
:104120000A0000000D0A43414E2049442073657483
:1041300020746F2025640D0A000000000D0A434121
:104140004E2052782066696C746572202564206167
:10415000646465642E0D0A000D0A43414E20737499
:104160006F707065642E0D0A000000001808024090
:10417000696E7075740000006F757470757400005E
:104180000D0A53796E63682070696E20697320731D
:10419000657420746F20626520616E2025730D0A9E
:1041A00000000000252A7325582025582025580096
:1041B0000D0A5254432074696D6520736574207430
:1041C0006F20253032583A253032583A253032584F
:1041D000000000000D0A0000500000203869002097
:1041E00017080008C90700080D0A52544320616CE3
:1041F00061726D2073657420746F20253032583AD7
:10420000253032583A253032580000002828004026
:104210008051010021461498FCF718FF149800F013
:104220007F03C0F30622C0F30541AFF24400FFF75D
:104230003BFAA5E017AAAFF2F811384608F072FA77
:104240001798FCF741FE179808B186A000E087A0F8
:10425000014688A0FFF728FA92E017AAAFF22021C2
:10426000384608F05FFA179802F00CF840B9874911
:104270001798C8600846C16885A0FFF715FA04E0E2
:104280008248C16889A0FFF70FFA79E015A816AB3C
:1042900017AAAFF2F0010090384608F043FA1799D8
:1042A000149861F3154014901699149861F30E2038
:1042B0001490DDE9140161F3060014901498FCF7E2
:1042C0009AFE149800F07F03C0F30622C0F3054164
:1042D00082A0FFF7E9F953E08A48006810F4007FF4
:1042E00002D189A0FFF7E0F94FF080709049886112
:1042F00046E017AAAFF2B821384608F013FA17982B
:10430000FCF7D5FA179810B1AFF2582001E0AFF2E0
:104310005820014687A0FFF7C7F931E000208A49FD
:1043200008608AA0FFF7C0F9002423E08A4800EB68
:1043300004108068007840B9874800EB041087A11A
:104340004268684608F020F80BE0834800EB041050
:104350008368814800EB041081A14268684608F038
:1043600013F87D4800EB04106946C2687EA0FFF791
:104370009BF9641C132CD9DB7EA0FFF795F900BFD5
:1043800000BF1EB0BDE8F08110B54F217A48FFF79D
:10439000A4F9044654B104E000222046641C764986
:1043A0000A544F2CF8DD7448FFF73FFCFFF7F6F98D
:1043B00010BDFEB5FFF7E8FFFFF736FC01F022FE67
:1043C000050013D0002404E0281D005D0DF8040052
:1043D000641C287BA042F7DC0021601C0DF8001053
:1043E0002A7B6B4665A02968FFF75EF901F029FF7B
:1043F00006464EB16A48006830B9314669A0FFF7F9
:1044000053F9012066490860FEBD00B585B04E48ED
:10441000007810F0020F18D06A48006802906948CE
:10442000283800680490674824380068039004988E
:10443000019002980090019800F07F03C0F30622DB
:10444000C0F3054160A0FFF72FF905B000BD10B51E
:104450006648006820F080506449086064A0FFF757
:1044600023F910BD6D61737465720000736C617621
:10447000650000000D0A5254432073796E6368652D
:1044800064206173206120257300000038690020DA
:104490000D0A53796E6368206D6F646520736574CF
:1044A00020746F2025642E0D0A0000000D0A496E4D
:1044B00076616C696420706172616D657465722CDF
:1044C0002073796E6368206D6F64652072656D611D
:1044D000696E732025642E0D0A0000000D0A5254E7
:1044E000432077696C6C207374617274206174204E
:1044F000253032583A253032583A253032580D0A94
:1045000000000000100802400D0A55736520706F0E
:1045100077657220627574746F6E20746F20747585
:10452000726E2063756265206F66662E0D0A00004C
:10453000000002400D0A48562072656C61792069BE
:1045400073202573200D0A00500000200D0A4D65D0
:104550006E753A0A0000000060E6000825733A0014
:1045600025732025733A00000D0A252D313073097B
:10457000257300000D0A3E000C6700200D0A434120
:104580004E2052782066726F6D2025642C202564A1
:104590002062797465733A20222573220D0A000087
:1045A0004C0000200D0A43414E206572726F723A32
:1045B00020737461747573203D20307825582E0D5A
:1045C0000A000000282800400D0A53796E63682015
:1045D00054696D65203D20253032583A25303258D7
:1045E0003A253032582E25640000000004ED00E02A
:1045F0000D0A46656174757265206E6F7420796569
:104600007420696D706C656D656E74656421000061
:1046100018B58B48006840F0020089490860884856
:104620001030006840F480408549103108608548AA
:10463000006820F08040834908600846006840F028
:1046400000400860081D006820F40040091D086053
:104650007C480C30006820F040407A490C310860FA
:10466000081F006860F04040091F08607548406AF4
:1046700020F0704040F0A04172484162006820F094
:104680008060704908600846006840F0006008607B
:10469000081D006820F40050091D086069480C30AE
:1046A000006820F0406067490C310860081F00680E
:1046B00060F04060091F08606248406A20F47000A2
:1046C00040F4A0015F484162006820F080505D49DD
:1046D00008600846006840F00050086059480C30F7
:1046E000006840F0805057490C3108600846006867
:1046F00020F0005008605348406A20F0706040F09D
:10470000A061504841624E48006840F004004C49A6
:10471000086088154C4908604B481838006840F418
:1047200080304949183908600846006820F4003094
:104730000860081D006820F48070091D0860424868
:104740000C38006820F440303F490C390860081FDD
:10475000006860F44030091F08603C48008820F081
:1047600040003A490880081F008820F04000091FD7
:10477000088040F6143008800846008840F0400069
:104780000880081D008840F04000091D0880242092
:104790000121002807DA0A07140E2D4A00F00F0342
:1047A0001B1FD45403E00A07130E2A4A135400BFF8
:1047B000242000F01F020121914042094FF0E02324
:1047C00003EB8202C2F8001100BF204808300088C5
:1047D000009018BD10B14FF4807101E04FF080716E
:1047E000194A1160704708B1802101E04FF40001BF
:1047F000154A11607047014600E000BF134A121DC0
:10480000128812F0020FF8D0104B0833198000E024
:1048100000BF0E4A121D128812F0010FF8D00B4A89
:104820000832128810B2704710B504460020FFF716
:10483000D1FF2046FFF7DFFF0120FFF7CBFF10BDC0
:10484000303802400004024018080240043800409A
:1048500018ED00E000E400E0704710B50020514979
:10486000086048605049486008605049C860086165
:1048700048618861C86108624862886248638863E9
:104880004948C06820F010004749C860002088608F
:104890000846C06820F04000C8600846C06820F0A4
:1048A00020002030C8600846C06820F08000C86042
:1048B0004B203E49086001204860282008631422EC
:1048C0003B493A483C3008F0C4F800203549C860FC
:1048D000AFF27B000861002048618861086288832C
:1048E00048628862C862886032203049086541F2B7
:1048F0007070C1F884000220C1F888000846406D3D
:1049000020F00100401C48650846406D20F0020080
:10491000801C48650846406D20F004004865DA2098
:1049200048660220C86501208866032008660120C9
:10493000886641F21310C866400008670020486787
:104940000120C8670021194881670121C0F8801043
:1049500010BD41F23C501749088042F6F070888043
:104960004FF4AA50488042F6FC711248C18041F2CF
:1049700082401049888143F6D070088241F290410C
:104980000C48C18143F6CB7141829FED0B0A80ED4B
:10499000080A9FED0A0A80ED090A0020054988628D
:1049A0007047000038690020846900207C6800207E
:1049B000F4E700080C690020FF5D0F3ED29EDC3951
:1049C0002DE9F05F81460C4617469A464FF0010BE1
:1049D0004E46E019B0F5006F02D30120BDE8F09F0C
:1049E000002000F048F9032000F04DF9C4F307203F
:1049F00000F049F9E0B200F046F94FF0000816E087
:104A0000002000F040F90546BAF1000F02D106F887
:104A1000015B0AE0BBF1000F05D016F8011BA942AB
:104A200001D1012000E00020834608F10108B845CB
:104A3000E6D3012000F01FF9BBF1010F01D00120E6
:104A4000CCE70020CAE72DE9F05F81460D46164607
:104A5000A819B0F5006F02D30120BDE8F09FC84649
:104A60002C4643E004F01F07AC4200D0AFB9002051
:104A700000F001F9062000F006F9012000F0FBF833
:104A8000002000F0F8F8022000F0FDF8C4F3072041
:104A900000F0F9F8E0B200F0F6F818F8010B00F0B9
:104AA000F2F81F2F03D0A819401EA0421DD14FF0CD
:104AB000000B012000F0DFF800BF002000F0DBF861
:104AC000052000F0E0F8002000F0DDF8824601202B
:104AD00000F0D1F858460BF1010BB0F57A7F01D9FF
:104AE0000220BAE71AF0010FE7D1641CA819A0420E
:104AF000B8D8012000F0BFF80120AEE708B56E4835
:104B0000006840F004006C4908600846006840F006
:104B10000800086068481030006840F400406649AA
:104B2000103108606548006820F0807063490860B3
:104B30000846006840F000700860081D006820F416
:104B40008050091D08605D480C30006820F04070FE
:104B50005A490C310860081F006860F04070091F56
:104B600008605648406A20F4702040F4C021534841
:104B70004162006820F480105049086008460068CF
:104B800040F400100860081D006820F48060091DD2
:104B900008604A480C30006820F4401047490C3146
:104BA0000860081F006860F44010091F086043484F
:104BB000406A20F4706040F4C0614048416200687F
:104BC00020F480003D4908600846006840F4000079
:104BD00008603A480C30006840F4800037490C31D6
:104BE00008600846006820F4000008603348406A06
:104BF00020F4704040F4C041304841620420304904
:104C000008602F481838006840F010002C49183907
:104C100008600846006820F020000860081D006851
:104C200020F00400091D086025480C38006820F0B9
:104C3000300023490C390860081F006860F030001C
:104C4000091F08601F48008820F040001D490880A7
:104C5000081F008820F04000091F08804FF44970A9
:104C600008800846008840F0400008801548083059
:104C70000088009008BD08B1042101E04FF48021B4
:104C80000F4A11607047014600E000BF0D4A121D37
:104C9000128812F0020FF8D00A4A0832118000E0A0
:104CA00000BF084A121D128812F0010FF8D0054A01
:104CB00008321288D0B270473038024000080240F3
:104CC000180C0240043C00409548006840F0100079
:104CD0009349086092481438006892490843904903
:104CE000143908609048006820F480208E490860DC
:104CF0000846006840F4002008600846406820F438
:104D0000007048600846C06820F44020C86008462B
:104D1000806820F4402088600846406A20F0F00057
:104D200040F0700180484162006820F480107E49A4
:104D300008600846006840F4001008600846C06833
:104D400020F40010C8600846C06840F48010C860B5
:104D50000846406A20F4706040F4E06172484162A5
:104D6000C002714988610846006840F080700860A0
:104D70000846006820F0007008600846806840F02F
:104D8000407088600846006820F4400008600846CB
:104D9000C06820F40000C8600846C06840F4800085
:104DA000C86040F2D92061490881002008828882C9
:104DB0000846808940F4005088810846808A40F087
:104DC000C00088825A48006820F0010058490860F5
:104DD00000E000BF5648006810F0010FF9D15448B8
:104DE000006820F06060524908600846006840F0A2
:104DF000006008600846006840F4886008604B481E
:104E0000001D4B49083108600020091F0860484810
:104E10007838006820F0010045497839086000E0E2
:104E200000BF43487838006810F0010FF8D14048BF
:104E30007838006820F060603D497839086008469D
:104E4000006840F0006008600846006840F4A06018
:104E500008603648001D3649703908603548091D1C
:104E6000086008153249743908603048008820F01D
:104E700040002E4908800846808940F00C00888157
:104E80002B487838006840F00100294978390860DB
:104E90007047274974390968C1F58061264A12684C
:104EA000914202D14FF6FF700FE023490A6809686A
:104EB000491C214B19601F49885C19460968B1F5E6
:104EC000806F02D100211A4611607047184A12689B
:104ED00022F00102164B1A6000E000BF144A12686B
:104EE00012F0010FF9D1124A0C321060104A121D53
:104EF00011600E4A128822F040020C4B1A804FF0CB
:104F000000620B4BAC3B1A60094A126842F0010286
:104F1000074B1A6070470548008800F04000704752
:104F200044380240010040000000024000100140EF
:104F3000B8640240946900205800002070B5012533
:104F40005848D0F80001022801D0022070BD35E099
:104F5000554802680068401C534B186051488454FF
:104F60001846006806281BD14E48007910F0800FC3
:104F700002D04C48807800E00020801D4B4908603A
:104F80004848007900F07F00502807D14548407913
:104F9000012803D108460068802801D99020D5E770
:104FA0004148006841490968884207D100203E49CC
:104FB000086001203B49C1F8000103253948D0F8B9
:104FC0000001012806D0FFF764FF0446A0F57F41E9
:104FD000FF39BDD12846B9E710B5354B1B68354CB4
:104FE00024681A19334B1B680B44324C236003E0CE
:104FF00010F8013B02F8013B0B00A1F10101F7D1D0
:1050000010BD10B52B480068B0B1FFF784FF98B110
:105010002848016826480068FFF758FF24480068C0
:105020002549884202D101F5807000E022482049DC
:10503000086000201F49086010BD2DE9F04393B0BF
:1050400080460D4616461D480068854202D113B0C1
:10505000BDE8F0836C46A71D812020604420A0702D
:105060000020E0708120207150206071A7F800803E
:105070007D804FF0000900BF3278484609F10109F0
:10508000391D0A5416F8011B0029F5D1B5F5004F5A
:1050900003D04A212046FFF79FFF0848056000BF64
:1050A000D5E700005C000020680100206C010020B2
:1050B0006001002064010020946D00207001002038
:1050C00030B50246540042F210756C438C4D35F9F0
:1050D000115094FBF5F303F31003894C241F34F9AA
:1050E0001140E018002800DA0020B0F5803F01DB15
:1050F0004FF6FF7030BD2DE9F041044600264FF613
:10510000FF77804804604B2C04D0642C26D0962C6A
:105110006CD147E00020FBF794FB0020FBF7ACFBD1
:1051200001210020FFF7CCFF0646012147F6FF7062
:10513000FFF7C6FF074674484068B0F5004F03DB31
:1051400047F6FF70704948606F4948680121FFF7D2
:10515000B7FF05B22846FFF767FB48E00120FBF7E1
:1051600070FB0120FBF788FB00210846FFF7A8FF32
:105170000646002145F25550FFF7A2FF0746624858
:10518000406845F25551884202DD08465E49486054
:105190005D4948680021FFF793FF05B22846FFF7F5
:1051A00043FB24E00120FBF74CFB0120FBF764FBF1
:1051B00000210846FFF784FF0646002147F6FF70EE
:1051C000FFF77EFF074650484068B0F5004F03DB0D
:1051D00047F6FF704C4948604B4948680021FFF78B
:1051E0006FFF05B22846FFF71FFB00E000BF00BFBE
:1051F000BDE8F08143480068704744480068704744
:1052000010B5044641480460006801280AD13D48B1
:10521000006B20F001003B4908630021084600F0C4
:105220007BF805E03748006B40F001003549086322
:1052300010BD10B50446012C04D0022C09D0032C5B
:1052400012D10DE00020FBF705FB0020FBF726FB49
:105250000BE00020FBF7FEFA0120FBF71FFB04E048
:105260000120FBF7F7FA00E000BF00BF10BD10B54A
:105270000246234B083333F91130D01A42F210732F
:1052800043431F4C0C3434F9114093FBF4F010BD30
:1052900010B502461A4B0C3333F91130534342F226
:1052A000107493FBF4F4164B083333F91130E01803
:1052B00010BD10B50246124B1B1F33F91130D31A23
:1052C0000F4C34F91140634344F6206493FBF4F02F
:1052D00010BD0F49086070470D480068704710B551
:1052E00004460C480460006818B10020FBF7BBFAC4
:1052F00002E00120FBF7B7FA10BD064800687047CE
:10530000106900207C68002084690020740100205E
:10531000780100207C0100200D4A10607047704722
:105320000C480068704703B50B49019808600B49A9
:10533000009808600CBD0CB5084909680091064941
:1053400009680191DDE90012C0E900120CBD704747
:1053500080010020980100208401002088010020A5
:10536000704773480068022810D17248007810F026
:10537000080F03D101206E49086007E06D480078EE
:10538000C0F3401010B1012069490860704700B5B2
:105390006848007810F0020F05D0674880696549B9
:1053A0008968884203D06248006803280AD1052032
:1053B0006149486000205E4908605F498861C860B3
:1053C000086008615C484068062869D2DFE800F0A0
:1053D000680C253E500356480068012803D1564901
:1053E0004860002088615BE054480068524988604A
:1053F00050488069C8610846C0684E4909698842BA
:1054000005D300204C49C8600220486004E04A48A7
:10541000C068401C4849C86042E0474800684749A6
:1054200051F82000444988600846006841494968AD
:10543000884203D304204049486006E03E480068A3
:10544000401C3D4908600320486029E03A48006953
:105450003849C968884205D30020374908610220CD
:10546000486004E034480069401C3349086117E093
:105470003148C0682F49496988420BD300202E4922
:10548000C860012048600020086008468069401C10
:10549000886104E02848C068401C2749C86000BFF4
:1054A00000BF2448007810F0040F3DD02248406827
:1054B000052839D0204800681F49C96988421BD196
:1054C0001C48007810F0100F03D00120FFF748FFB0
:1054D00002E00020FFF744FF00201749486115480B
:1054E000007810F0800F1FD00846C0691149096A82
:1054F00008441149C86117E00F4840690D49C9695E
:1055000088420CD30B48007810F0100F03D0002015
:10551000FFF726FF08E00120FFF722FF04E006481E
:105520004069401C044948610348806800BD000090
:10553000A801002094770020AC010020946F002087
:1055400010B5F948006840F00400F74908604FF4CE
:105550000000F6490860F5481838006820F48040DB
:10556000F249183908600846006840F400400860B5
:10557000081D006820F08000091D0860EB480C3809
:10558000006820F44040E9490C390860081F0068B1
:1055900040F44040091F0860E4480830006820F0EB
:1055A000704040F00050E14908310860DE4810309A
:1055B000006840F00200DC49103108605320DC49EB
:1055C00008803120091D08600520D9491031086084
:1055D000D7481038008840F4C040D54910390880B9
:1055E000D3480838008840F01000D14908390880B5
:1055F000CF481438008840F00100CD4914390880A4
:10560000CB481C38008840F00400C9491C39088088
:10561000C7482838008840F00100C549283908806B
:1056200003200246C34B19684FF6FF031940C24BD3
:105630000B4343EA0221BF4B196000BF1D2001212B
:10564000002808DA0A07140EBA4A0C3200F00F03D9
:105650001B1FD45403E00A07130EB84A135400BFAB
:105660001D200121814042094FF0E02303EB82021B
:10567000C2F8001100BF10BD10B5AD481838008841
:1056800020F00400AA49183908800020AC4908809D
:10569000AC4890F8300010F0010F0DD0AA48806897
:1056A00018B90020FBF7F1F809E0A7488068012845
:1056B00005D1FBF7EAF802E00120FBF7E6F810BDA0
:1056C00000B52DED068B81B0002000909FED9F0A64
:1056D000F0EE409A9FED9D0AF0EE408A9FED9B0A06
:1056E000B0EE409A9FED990AB0EE408A9FED970A7E
:1056F000B0EE40AA9FED950AF0EE40AA8B48001F3D
:10570000006810F4807F75D08D4800888E4908604D
:105710008C4890F8300010F0010F6CD0084680687B
:1057200001280BD1084600688649C862864800688F
:10573000874908600020844988600DE082488068BD
:1057400050B9804A5168804A1068FFF790FD81493E
:10575000086001207C4988607E4890ED000AB8EE20
:10576000C00AF0EE408A9FED7C0A28EE800A754858
:10577000D0ED0A0AF8EEE00A9FED781A01EE200A51
:10578000BDEEC00A80ED0A0A7548007810F0010FDE
:1057900003D0FFF7FCFD6B4948626A4890ED0B0AA5
:1057A000B8EEC00AF0EE409A90ED090AB8EEC00AD1
:1057B000B0EE409A6B4880ED009A39EEC90AB0EE1F
:1057C000408A6948D0ED090A684890ED000A08EE61
:1057D000200A674880ED000A90ED000ADFED650AB7
:1057E000B4EEE00AF1EE10FA06DD9FED620A80EDFC
:1057F000000A0FE02FE1D5E05D4890ED000ADFEDF3
:105800005E0AB4EEE00AF1EE10FA03D29FED5A0AF6
:1058100080ED000A5448D0ED080A554890ED000A82
:1058200008EE200AB0EE40AA544890ED000A544811
:1058300080ED000A534890ED000A504880ED000AC0
:10584000514890ED000A514880ED000A504890ED13
:10585000000A4D4880ED000A4A4880ED00AA4D48F4
:10586000006890ED000A4748D0ED000A20EE200ABB
:1058700048480068D0ED010A404890ED001A01EE5A
:10588000200A44480068D0ED020A3D4890ED001A15
:1058900001EE200A3F480068D0ED030A3A4890ED37
:1058A000001A01EE200A3B480068D0ED040A374890
:1058B00090ED001A01EE200A354880ED000A0068DC
:1058C00008F04BFE00F310003349086033480068CD
:1058D0000968401A3249086008460068002801DA61
:1058E000002008602E480068B0F5803F03DB4FF6CB
:1058F000FF702B4908602A4800681249C1F88C00E3
:105900000020FEF767FF264800880D490880F0EE6A
:1059100048AA174890ED000A144880ED000A09488B
:10592000406A1E4908609CE0303802401808024076
:10593000280400400CED00E00000FA0500E400E05F
:105940000C3800407C68002038690020000000000E
:1059500084690020E8010020CDCC4C3D3333733FF7
:10596000A8010020000200200C690020E4010020B2
:10597000E001002000008047000080C7D001002027
:10598000D4010020EC010020D8010020DC0100201F
:10599000F0010020CC010020FC010020F8010020D3
:1059A000F40100201FED170AF0EE409A1FED190ACE
:1059B000F0EE408A1FED1B0AB0EE409A1FED1D0A63
:1059C000B0EE408A1FED1F0AB0EE40AA1FED210A7B
:1059D000B54880ED000A1FED230AB44880ED000AA7
:1059E000B34A51689069FFF753FCB2490860B04A66
:1059F0005168B14A1068FFF73AFCB04908600846A0
:105A000090ED000AB8EEC00AF0EE408A1FED2E0AB3
:105A100028EE800AA648D0ED0A0AF8EEE00A1FED4B
:105A2000311A01EE200ABDEEC00A80ED0A0AA44830
:105A3000007810F0010F03D0FFF7A9FC9C498861A2
:105A40000020FEF7C7FE9A4A51689069FFF738FBBD
:105A50009C49088005E09B48008800900120FEF7E3
:105A6000B9FE934890F8300010F0010F5FD09048D5
:105A7000C0698F49096A08448D4948620846406AEE
:105A8000002811DA002048620846406AC969401AB5
:105A9000401C8749096A884206DD8548406A844976
:105AA000C969401A824908628148406A45F25551E5
:105AB000884215DD7E480068642811D108467C497B
:105AC00048620846406AC969401A7949096A8842A9
:105AD00006DA7748406A7649C969401A744908620B
