:020000040800F2
:1000000040E700201D0300083B0300083D030008F3
:100010003F030008410300084303000800000000FC
:100020000000000000000000000000004503000880
:100030004703000800000000916100084B0300081E
:100040004D0300084D0300084D0300084D03000850
:100050004D0300084D0300084D0300084D03000840
:100060004D0300084D0300084D0300084D03000830
:100070004D0300084D030008AF9E00084D03000823
:100080004D0300084D0300084D03000847730008A6
:100090001B7200084D0300084D0300084D030008C3
:1000A0004D0300084D0300084D0300084D030008F0
:1000B0004D0300084D0300084D0300084D030008E0
:1000C0004D0300084D0300084D0300084D030008D0
:1000D0004D0300084D0300084D0300084D030008C0
:1000E000079700089D1A00084D0300084D030008FB
:1000F0004D0300084D0300084D0300084D030008A0
:100100004D0300084D0300084D0300084D0300088F
:100110004D0300084D0300084D0300082597000813
:100120004D0300084D0300084D0300084D0300086F
:100130004D0300084D0300084D0300084D0300085F
:100140004D0300084D0300084D0300084D0300084F
:100150004D0300084D0300084D0300084D0300083F
:100160004D0300084D0300084D0300084D0300082F
:100170004D0300084D0300084D0300084D0300081F
:100180004D0300084D03000800F002F800F0B2F83B
:100190000AA090E8000C82448344AAF10107DA45E2
:1001A00001D100F0A7F8AFF2090EBAE80F0013F082
:1001B000010F18BFFB1A43F0010318472436010052
:1001C000443601000A444FF0000C10F8013B13F0D4
:1001D000070408BF10F8014B1D1108BF10F8015BA0
:1001E000641E05D010F8016B641E01F8016BF9D193
:1001F00013F0080F1EBF10F8014BAD1C0C1B09D1EA
:100200006D1E58BF01F801CBFAD505E014F8016B5B
:1002100001F8016B6D1EF9D59142D6D370470000ED
:100220000023002400250026103A28BF78C1FBD8FF
:10023000520728BF30C148BF0B6070476E290DF0D0
:100240007F8270290DF0D48266290FF0D78365294B
:100250000FF0D48367290FF0D1836129AFF30080B9
:1002600003681B0A28BF41F0800169290DF02C8228
:1002700064290DF0298275290DF026826F290EF070
:10028000098178290DF0A082E9290EF0A180E429E6
:100290000EF09E80F5290EF09B80EF290EF006816E
:1002A000F8290DF09F820368DB0928BF41F0800127
:1002B00063290EF0228073290EF02780E3290EF0C7
:1002C000DF81F3290EF0E481002070471FB50FF0A5
:1002D0008BFB0EF039F90400002000210FF056F8D6
:1002E000401C6060002000210FF03AF8E0601FBD64
:1002F00010B510BD0EF01EFC1146FFF7E7FF03F02E
:10030000F9FA0EF045FC03B4FFF7F2FF03BC0EF060
:1003100045FC000040BA704740BA70470F4810498A
:10032000026800608A4203D00E4880470E480047AA
:100330000E48D0F800D040680047FEE7FEE7FEE731
:10034000FEE7FEE7FEE7FEE7FEE7FEE7FEE700006A
:1003500007480849084A094B70470000F01F002071
:10036000EFBEADDE891C0008890100080000FF1FF8
:1003700040DD002040E7002040DF002040DF00207B
:1003800070B504460025062C79D2DFE804F003128C
:100390003C5E81AFFD48008820F48070FB490880F6
:1003A0000120FB49086040040860002001F0CBF9FF
:1003B000C1E0F648008820F48850F4490880F348EA
:1003C0002038008820F00100F04920390880012001
:1003D000EF49086040040860EE48806F20F4E04078
:1003E00000F5C040EB4988670846406F48B9886F00
:1003F00009F039F800E000BF09F02DF80028FAD024
:1004000000E0012597E00220E1490860C003086090
:10041000E048806F20F4E04000F5E040DD49886767
:100420000846406F48B9886F09F01DF800E000BF2A
:1004300009F011F80028FAD000E00125D34800881F
:1004400040F48070D149088075E0D048008820F4DD
:100450008070CE4908800120CD49086040040860C2
:10046000CC48806F20F4E04000F5E040C94988673F
:100470000846406F50B9886F08F0F5FF01E058E07A
:1004800000BF08F0E8FF0028FAD000E0012552E0A4
:10049000C048806F20F4E04000F5A040BD49886767
:1004A0000846806F20F00700801D88670846806F2F
:1004B00020F00041B7488167406F50B9B549886F57
:1004C00008F0D1FF00E000BF08F0C5FF0028FAD017
:1004D00000E001250120AE49086040040860AB48F7
:1004E000008840F48070A949088024E0A948806F02
:1004F00020F4E04000F58040A64988670846806FF8
:1005000020F0804000F1804088670846406F48B97D
:10051000886F08F0A8FF00E000BF08F09CFF0028EB
:10052000FAD000E0012501209949086040040860E4
:1005300001E0012500BF00BF284670BD70B500F086
:10054000A8FD044624B99448006808B1022504E0D7
:100550001CB19148006800B904258F48046044EA42
:10056000050070BD10B507F040F8C001192190FBDF
:10057000F1F404F3070010BD10B5044600EE104A74
:10058000F8EEC00A9FED851AB6EE000A00EE810A69
:1005900010EE101A08460FF0DAF90446E0B20BF03C
:1005A0000FF9002C02DD0BF0DEFA01E00BF0D6FAB9
:1005B00010BD2DE9F0418CB007460C469046B8F1CD
:1005C000010F01D1012000E0002006467148406F74
:1005D00018B101200CB0BDE8F081012F02D0022F2C
:1005E00071D1A7E0132C6FD2DFE804F00A0B0C0DD9
:1005F0000EA1A1A1A1A12E572F6F70713031320031
:1006000000BF00BF00BF00BF00F043FD6148806F26
:1006100020F000515F488167806F20F0004000F1BA
:1006200000405C4988670846806F20F4E07000F560
:10063000E0708867886F08F016FF00E000BF08F0E0
:100640000AFF0028FAD073E000BF00BF00BF00BF60
:100650005048806F20F0005000F100504D498867ED
:100660000846806F20F000414A488167806F20F083
:100670000700C01D47498867886F08F0F4FE00E056
:1006800000BF08F0E8FE0028FAD00EB9012100E012
:100690000021084600F00BFD4AE03E48806F20F044
:1006A00000413C488167806F20F00700401D3949B8
:1006B0008867886F08F0D7FE00E000BF08F0CBFE27
:1006C0000028FAD034E0E6E031E000BF00BF314856
:1006D000806F20F0005000F100502E4988670846D6
:1006E000806F20F000412B488167806F20F0070069
:1006F000001D28498867012E01D0012100E000215A
:100700002448806F61F31860224988670846806F2B
:1007100020F000611F4881670146886F08F0A3FE42
:1007200000E000BF08F097FE0028FAD000E000BF0C
:1007300000BFB2E0132C72D2DFE804F00A0B0C0DFC
:100740000EAAAAAAAAAA38613978797A3A3B3C005B
:1007500000BF00BF00BF00BF00F0BDFC0D48806FB0
:1007600020F080510B488167806F20F0804000F1BD
:100770008040084988670846806F20F4606000F573
:1007800040608867886F08F06EFE0AE02004004031
:100790001808024068C60020000000209A99993E7F
:1007A00000BF08F058FE0028FAD072E000BF00BF7A
:1007B00000BF00BFFB48806F20F0805000F18050E8
:1007C000F84988670846806F20F08041F5488167C6
:1007D000806F20F038003830F2498867886F08F061
:1007E00042FE00E000BF08F036FE0028FAD00EB945
:1007F000012100E00021084600F07AFC49E0E948C8
:10080000806F20F08041E7488167806F20F03800DA
:100810002830E4498867886F08F025FE01E037E05A
:1008200000BF08F018FE0028FAD032E000BF00BF79
:10083000DC48806F20F0805000F18050D9498867F3
:100840000846806F20F08041D6488167806F20F095
:1008500038002030D3498867012E01D0012100E003
:100860000021D048806F61F31860CE498867084640
:10087000806F20F0006000F100608867886F08F0EA
:10088000F2FD00E000BF08F0E6FD0028FAD000E02D
:1008900000BF00BF01E001209CE600BF0B2C1FD170
:1008A000012E07D1C048B0F9360020F48060BE495F
:1008B000C88606E0BC48B0F9360040F48060BA490A
:1008C000C886B948B0F9360080F03001A22008F09F
:1008D000C1FB4FF480631A465910452008F0BAFB5B
:1008E000012F02D0022F04D101E0B04D02E0B04D43
:1008F00000E000BF00BF132C7ED2DFE804F00A0B3B
:100900000C0D0EB6B6B6B6B60F1011154D861213F5
:10091000140000BF00BF00BF00BF00BF00BF00BF8A
:1009200000BF00BF00BFA1E00120A84708F068FE9B
:100930009D48D0F8940001909B48D0F89800029010
:100940009948D0F89C000390012004909648D0F874
:100950009420D0F89C00401E9349D1F8981000FBD9
:10096000012005909048D0F89800414206918E48A9
:10097000D0F89C10079100210891D0F8AC000990A4
:100980008948D0F8B00040000B900A9501A808F003
:100990006DFE08F01DFE69E00120A84708F030FE5A
:1009A0008148D0F8A00001907F48D0F8A4004042D0
:1009B00002907D48D0F8A8000390012004907A4866
:1009C000D0F8A020D0F8A800401E7749D1F8A41094
:1009D00000FB112005907448D0F8A4100691D0F8BF
:1009E000A810079100210891D0F8AC0009906E483A
:1009F000D0F8B000400000E037E00B900A9501A865
:100A000008F034FE08F0E4FD30E00120A84708F0CB
:100A1000F7FD6548D0F8940001906348D0F898003D
:100A200002906148D0F89C000390012004905E4839
:100A3000D0F8A00005905C48D0F8A400414206918F
:100A40005948D0F8A810079101210891D0F8AC00BE
:100A500009905548D0F8B00040000B900A9501A8C5
:100A600008F004FE08F0B4FD00E000BF00BF002065
:100A7000B0E52DE9F84F83460E46904600200090E1
:100A8000BBF1010F03D0BBF1020F0FD105E0DFF87E
:100A900024A1494C494D4A4F0BE0DFF828A1464CB0
:100AA000241D464D2D1D464F3F1D02E00020BDE890
:100AB000F88F00BF3868B04203D06FF001002860A3
:100AC00020603E60022E06D0032E02D0042E18D1E4
:100AD00000E000BF00BF20682860D0472060206889
:100AE0002968A0EB0109B8F1010F02D1B9F1010F9A
:100AF00005D0B8F1020F03D119F1010000D1009621
:100B000004E06FF001002860206000BF00BF009883
:100B1000CDE710B52448D0F884000C2806D0102862
:100B20001AD0112830D012287DD15AE02648008FE3
:100B3000C0F3C0341C49D1F88C10012901D0012127
:100B400000E00021012C01D1012200E0002281EA15
:100B5000020000F0ACFA66E01B48B0F92800012161
:100B600021EA10141049D1F88C10012901D001217B
:100B700000E00021012C01D1012200E0002281EAE5
:100B8000020000F094FA4EE00F48B0F9280001216D
:100B900021EA50140449D1F88C10012916D0012102
:100BA00015E0000068C6002008C50020AF1000084E
:100BB000F110000893100008040000200C00002031
:100BC00014000020D710000808C600200021012CC6
:100BD00001D1012200E0002281EA020000F067FA60
:100BE00021E04C4890F8280010F0100F05D049483B
:100BF00090F8280010F0200F01D1012000E0002023
:100C000004464549D1F88C10012901D0012100E0AA
:100C10000021012C01D1012200E0002281EA020022
:100C200000F045FA00BF00BF3B48D0F888000C2810
:100C300006D010281AD0112830D0122868D145E0EB
:100C40003448008FC0F3C0343349D1F890100129E3
:100C500001D0012100E00021012C01D1012200E09E
:100C6000002281EA020000F043FA51E02948B0F97D
:100C70002800012121EA10142749D1F890100129F8
:100C800001D0012100E00021012C01D1012200E06E
:100C9000002281EA020000F02BFA39E01D48B0F989
:100CA0002800012121EA50141B49D1F89010012994
:100CB00001D0012100E00021012C01D1012200E03E
:100CC000002281EA020000F013FA21E0114890F8B6
:100CD000280010F0100F05D00E4890F8280010F0F2
:100CE000200F01D1012000E0002004460A49D1F87C
:100CF0009010012901D0012100E00021012C01D137
:100D0000012200E0002281EA020000F0F1F900BFB8
:100D100000BF10BD08C6002008C50020FD480068BF
:100D200040F00100FB490860FB48006820F00C001F
:100D3000F94908600846C06820F00C00C860084601
:100D4000C06840F00800C86040208861084600681C
:100D500040F4805008600846006820F400500860A5
:100D60000846806840F4405088600846006820F0DB
:100D7000404008600846C06820F04040C86008460F
:100D8000C06840F00040C860E248006840F00200DF
:100D9000E0490860E148006820F00C00DF49086085
:100DA000DE480C30006820F00C00DC490C31086093
:100DB0000846006840F0080008600420D749183150
:100DC0000860D648006840F01000D4490860084622
:100DD000006820F020000860D0480830006820F04B
:100DE0003000CE49083108604FF40020CB4918315B
:100DF0000860CA48006840F04000C84908600846DA
:100E0000006820F080000860C4480830006860F086
:100E1000C000C24908310860C048006820F4706012
:100E2000BE490860BD480C30006820F47060BB49C2
:100E30000C3108604FF08060B84918310860B7483D
:100E4000006840F48010B54908600846006820F446
:100E500000100860B1480830006860F44010AF49E5
:100E6000083108600806AD4918310860AB480068D1
:100E700040F48000A94908600846006820F400009A
:100E80000860A6480830006860F44000A3490831B3
:100E90000860A048006840F004009E4908600120F6
:100EA0009F4908609E481838006840F001009C493E
:100EB000183908600846006820F002000860984869
:100EC0001038006820F003009549103908604FF48D
:100ED00000309349086092481838006840F00400D8
:100EE0008F49183908600846006820F0080008603B
:100EF0008B481038006820F00C00894910390860D0
:100F000004208749086086481838006840F01000BF
:100F10008349183908600846006820F020000860FE
:100F20007F481038006820F030007D491039086093
:100F30007B481838006820F0C000794918390860EB
:100F400077480C38006820F0C00075490C390860FB
:100F50000846006840F08000086010207049086072
:100F60006F481838006840F480706D49183908607F
:100F70000846006820F4007008606948103800686E
:100F800020F44070664910390860654818380068D8
:100F900020F4406062491839086061480C380068E4
:100FA00020F440605E490C3908605D4818380068DC
:100FB00020F440205A491839086059480C38006814
:100FC00020F4402056490C3908604FF40050544931
:100FD000086053481838006840F08060504918395C
:100FE00008600846006820F0006008604C4810382F
:100FF000006820F040604A491039086048481838B5
:10100000006820F0405046491839086044480C38C0
:10101000006820F0805042490C390860084600689A
:1010200040F0005008603E481838006820F040400A
:101030003B49183908603A480C38006820F04040B5
:1010400037490C390860704735490968012801D1D2
:10105000042201E04FF480221143314A11607047AD
:1010600008B1402101E04FF480012B4A91617047A3
:1010700010B14FF4006101E04FF00061274A1832CF
:1010800011607047254810300068012121EA501096
:1010900070472248006820F00C0020490860BFF328
:1010A0005F8F1E4810300068C0F34000704708B1E1
:1010B000022101E04FF40031184A1832116017493B
:1010C000096841F00401154A11601146096821F0D0
:1010D0000801116070471048006820F00C000E49AC
:1010E0000860BFF35F8F08460069C0F34000704797
:1010F00008B1022101E04FF40031074A9161114625
:10110000096841F0040111601146096821F00801E5
:101110001160704730380240000002400004024075
:101120001808024070B504460126D4F800020228CF
:1011300001D0022070BD2FE0384802680068401CD2
:10114000364B1860A55418460068062817D1207938
:1011500010F0800F01D0A07800E00020801D304901
:101160000860207900F07F00502806D160790128BE
:1011700003D108460068802801D99020DAE7274883
:10118000006827490968884206D100202349086081
:101190000120C4F800020326D4F80002012806D07A
:1011A00000F02BF90546A0F57F41FF39C4D1304648
:1011B000C0E730B5D0F8003202461A4C24681A4D08
:1011C0002D686119184C24681C44174D2C6003E0ED
:1011D00012F8014B01F8014B1C00A3F10103F7D1F8
:1011E00030BD10B510480068B0B100F048F998B1B2
:1011F0000D4801680B48006800F01CF909480068B8
:101200000A49884202D101F5007000E0074805490B
:10121000086000200449086010BD0000280200207A
:101220002C0200202002002024020020C4060020FE
:101230009548006840F010009349086092481438BF
:101240000068924908439049143908609048006842
:1012500020F480208E4908600846006840F4002091
:1012600008600846406820F4007048600846C0687E
:1012700020F44020C8600846806820F44020886040
:101280000846406A20F0F00040F07001804841625A
:10129000006820F480107E4908600846006840F429
:1012A000001008600846C06820F40010C8600846B6
:1012B000C06840F48010C8600846406A20F470603E
:1012C00040F4E06172484162C00271498861084699
:1012D000006840F0807008600846006820F00070E8
:1012E00008600846806840F04070886008460068E2
:1012F00020F4400008600846C06820F40000C86080
:101300000846C06840F48000C86040F2D9206149B6
:1013100008810020088288820846808940F40050B5
:1013200088810846808A40F0C00088825A48006858
:1013300020F001005849086000E000BF56480068EE
:1013400010F0010FF9D15448006820F06060524954
:1013500008600846006840F00060086008460068C1
:1013600040F4886008604B48001D4B490831086014
:101370000020091F086048487838006820F0010004
:1013800045497839086000E000BF43487838006874
:1013900010F0010FF8D140487838006820F0606004
:1013A0003D49783908600846006840F000600860F0
:1013B0000846006840F4A06008603648001D3649C1
:1013C000703908603548091D0860081532497439BC
:1013D00008603048008820F040002E490880084608
:1013E000808940F00C0088812B487838006840F0F4
:1013F000010029497839086070472749743909681C
:10140000C1F58061264A1268914202D14FF6FF7001
:101410000FE023490A680968491C214B19601F49DC
:10142000885C19460968B1F5806F02D100211A461F
:1014300011607047184A126822F00102164B1A60B8
:1014400000E000BF144A126812F0010FF9D1124AED
:101450000C321060104A121D11600E4A128822F0E0
:1014600040020C4B1A804FF000620B4BAC3B1A60F1
:10147000094A126842F00102074B1A60704705489A
:10148000008800F0400070474438024001004000EE
:101490000000024000100140B8640240C40A00206D
:1014A00030020020FE48006840F40030FC4908602B
:1014B000A720FC49088040F2E730091D0860401071
:1014C000F8490C310860F7480838008840F00100FE
:1014D000F44908390880F3481038008840F060006B
:1014E000F04910390880081F008840F00100091FEA
:1014F0000880EC482838008840F00100E949283984
:101500000880E748006840F48030E5490860202002
:10151000E54908810846008940F00700088100205D
:1015200008854FF6FF70C8620846008840F0010049
:1015300008807047DC48406A80B270470246501A03
:1015400080B27047D648001F006840F01000D449B0
:10155000091F08605320D54908854FF6FF7048627F
:10156000C8620846008840F00800088008460088E5
:1015700040F00100088070474142CC484162018838
:1015800041F0010101800188C907FCD17047C448BE
:10159000001F006840F00800C149091F0860C048EA
:1015A0002438006840F00800BD492439086000E094
:1015B00000BFBB482438006810F0080FF8D0B848C6
:1015C0002438006820F00800B5492439086000205C
:1015D000B7490880091F0860B1481438006840F016
:1015E0000100AF4914390860B248006820F00100DA
:1015F000B04908600846006840F0020008600846EC
:10160000006A20F00F00801C08624FF0FF30A849EC
:10161000091D08605720A64920390880A4481038C1
:10162000008840F00100A24910390880081F008896
:1016300040F00100091F08809D482838008840F0CC
:1016400001009B49283908809548001F006840F038
:1016500002009349091F0860002097490880091F6C
:1016600008608F481438006840F002008C49143933
:1016700008609248006820F0010090490860084620
:10168000006840F0020008608C482030006820F0BC
:101690000F00801C8949203108600846006820F04E
:1016A000F00040F02000086041F267008249091D07
:1016B0000860401080491431086008460068091D20
:1016C000086047F270007C490C390880081D0088CA
:1016D00040F48070091D088077481438008840F075
:1016E0000100754914390880704730B50346FFF78B
:1016F00021FF044600E000BFFFF71CFF054621461E
:10170000FFF71CFF9842F6DB30BD02466C485043A1
:101710004FF47A73B0FBF3F1B1F1807F01D3012074
:1017200070474FF0E020006940F001004FF0E023E7
:101730001861184641610020F2E74FF0E02000698F
:1017400000F48030704710B548B95E4B19685D4BA6
:10175000283B1B685C4C23605A4B243B1A68504B57
:101760001B1F1B6843F080534D4C241F2360574BB5
:101770001B6843F48073554C2360494B2C331B6822
:1017800043F48033464C2C34236023461B6823F4F7
:101790008033236023461B6843F440732360234651
:1017A0001B6843F400432360CA23464C241F236074
:1017B00053232360434B1C3B1B6843F08003414C85
:1017C0001C3C236000E000BF3E4B1C3B1B6813F039
:1017D000400FF8D03B4B183B1B686FF30E0342F2EF
:1017E0000F742344374C183C236023461B6823F4B2
:1017F000FE0343F4C6032360334B1B68314C283C83
:101800002360334B241D23602E4B1C3B1B6823F0AD
:1018100080032C4C1C3C236000E000BF294B1C3B88
:101820001B6813F0800FF8D1FF23264C241F236080
:10183000244B1C3B1B6823F02003224C1C3C2360E0
:1018400010BD1749091F096841F08051144A121F41
:1018500011601E49096841F480711C4A11601049E9
:101860002C31096841F480310D4A2C321160114647
:10187000096821F4803111601146096840F20512AF
:101880001143074A2C3211601146096841F40041A6
:10189000116010B308492839098841F0010119E0A5
:1018A00044380240284401400040014000100040FC
:1018B000280C0040000002402804004000040240C0
:1018C000406F400128280040340200200070004092
:1018D00002441300854A283A1180CA21844A1160C3
:1018E0005321116082491839096841F08001804A0A
:1018F000183A116000E000BF7D491839096811F0FD
:10190000400FF8D07A49143909686FF30E0142F29A
:101910000F721144764A143A11601146096821F495
:10192000FE0141F48031116072490968704A243A1D
:1019300011607149121D11606D491839096821F053
:1019400080016B4A183A116000E000BF68491839FD
:10195000096811F0800FF8D1FF21654A11606449D0
:101960001839096821F02001614A183A116070475E
:10197000624901405F4A11607047CA215C4A1160A8
:10198000532111605A491839096841F08001584AB9
:10199000183A116000E000BF55491839096811F084
:1019A000400FF8D055490140514A243A116050493E
:1019B0001839096821F080014D4A183A1160FF2159
:1019C0004B4A1160704730B50246CA20484B186038
:1019D0005320186046481C38006820F48070444B3F
:1019E0001C3B1860181D006840F001001B1D1860AA
:1019F00000E000BF3E481838006810F0010FF8D032
:101A00003E48104040F00040394B083B1860C1F39D
:101A10000E0040F07060364B2033186034481838A0
:101A2000006820F00100324B183B1860184600682F
:101A300020F480701860181F006840F488501B1F45
:101A40001860181D006820F001001B1D1860FF20A1
:101A5000274B18602A48006840F40030284B186073
:101A600027480838006840F40030254B083B1860D0
:101A700023480C30006840F40030214B0C331860D0
:101A8000292000F01F040123A34044094FF0E02562
:101A900005EB8404C4F8003100BF30BD10B5144814
:101AA0001838006820F4807011491839086000E087
:101AB00000BF0F481838006810F4807FF8D1104834
:101AC0000C30006840F400300D490C3108600D4ABC
:101AD00050681168884710BD054B1B1D1A68044BE0
:101AE000243B18681B1D196870470000280400403B
:101AF0002428004034020020024413007F7F3F006E
:101B0000083C014068C6002000210020744A126889
:101B100042F4A022724B1A6000BF00BF704A1268E4
:101B200002F40030491C10B9B1F5705FF6D150BB1A
:101B30006B4A126822F48032694B1A6000E000BFE1
:101B4000674A126812F4803FF9D1654A126822F49C
:101B50008022634B1A6000E000BF614A126812F4F1
:101B6000802FF9D15E4A126842F480325C4B1A60D1
:101B7000002100BF5A4A126802F40030491C10B913
:101B8000B1F5705FF6D1564A1268C2F340400028A2
:101B900079D0534A4032126842F08052504B403361
:101BA0001A60504A126842F480424E4B1A6040F26A
:101BB00005624D4B1A604A4A08321268484B083396
:101BC0001A601A46126842F400421A601A461268F5
:101BD00042F4A0521A601A46126822F4F81242F433
:101BE00040221A601A46126822F07C521A601A4685
:101BF000126842F080621A601A46126842F060521F
:101C00001A601A46126822F040421A601A46126898
:101C100042F080421A60354A1B1F1A601A1F126870
:101C200042F080721B1F1A6000E000BF2C4A12684D
:101C300012F0007FF9D02A4A0832126822F003021B
:101C4000274B08331A601A46126842F002021A60E3
:101C500000E000BF224A0832126802F00C02082A93
:101C6000F7D1234A1E4B84331A601D4A126842F092
:101C700080621B4B1A6001E005E000BF184A126841
:101C800012F0006FF9D0704710B51A48006840F4A0
:101C90007000184908601248006840F001001049BF
:101CA000086000200E49083108600D48006812499C
:101CB00008400B4908601148091D0860081F0068AA
:101CC00020F48020091F0860002005490C310860BD
:101CD000FFF71AFF4FF0006006498039086010BD19
:101CE0000038024000700040003C02400C544007A5
:101CF000803E002088ED00E0FFFFF6FE103000245B
:101D00004FF08050F3490A8FC2F3C0220AB140F06D
:101D1000004091F83820C2F3401212B140F48060C4
:101D200006E091F83820C2F300120AB140F40070C6
:101D30000A8FC2F300320AB140F080400A8FC2F32A
:101D4000803232B18A69002A01DD102200E02022AF
:101D5000104391F8242012F0040F01D040F4805079
:101D600091F8242012F0800F01D040F4005091F837
:101D7000262012F0100F06D091F83820C2F38012FE
:101D80000AB140F4804091F8262012F0800F01D073
:101D900040F40040CA8C12F4807F01D040F48030BF
:101DA000CA8C12F4007F01D040F40030CA8C12F4C7
:101DB000006F01D040F40020CA8C12F4806F01D073
:101DC00040F48020CA8C12F4805F01D040F0807013
:101DD00091F82A2012F0020F01D040F080700A8F93
:101DE000C2F3403232B18A69002A01DD402200E0AC
:101DF0008022104391F8282012F0100F01D140F0FA
:101E0000020091F8282012F0200F01D140F00100CB
:101E1000B14AD2F88420012A0ED1AF4AD2F88C20E0
:101E2000012A00D100E00022AC4B1B68C3F3400341
:101E30009A4201D140F48010A74AD2F88820012AA2
:101E40000ED1A54AD2F89020012A00D100E000224C
:101E5000A34B1B69C3F340039A4201D140F4001025
:101E600070472DE9F74F92B09B4EDFF878B2129889
:101E700060B1DDF848A0DDF848A0BAF8000080B2F3
:101E80001190DDF848A00AF1060708E0139830B178
:101E90004FF0000A00271398008880B21190149D1B
:101EA000149DAC1D0020E87001202871502068713D
:101EB00000201090149DC5F800021198B0F58A6FAB
:101EC00078D05DDC40F21342A0EB0201904272D068
:101ED00032DC40F21122A0EB020190426CD015DC02
:101EE000142801F0B18007DC05287DD011287CD0B2
:101EF000122841F0088157E1152801F0EA80812875
:101F000001F08A80B0F5047FF3D154E1B1F5FC7F94
:101F10006CD008DC022900F0C386032900F0FE869D
:101F20001229E6D127E1A1F58071F93974D006298B
:101F300073D00729DDD179E128296FD010DC05297C
:101F40006DD006DC01296BD003296AD00429D0D1D9
:101F500009E2112972D0162971D02729C9D1A9E225
:101F6000A1F12D00092881F0CE80DFE810F04F02AA
:101F70005602CC0871029902C002C502CC08D702F1
:101F800040F2DA42811A90425AD037DCB0F5926FB3
:101F900057D019DC40F26442A0EB020190427DD0A0
:101FA0000BDCA0F58060513879D0022878D0062863
:101FB0009FD18FE32FE394E10CE1012971D0022935
:101FC00070D0062995D1E2E340F2D442811A9042C2
:101FD00069D00CDCA0F58060913872D0012871D0F6
:101FE000282886D101F001B836E0C8E016E10129C1
:101FF00069D0032968D0042986D1F1E3192900F0BA
:10200000FF8716DC092960D00CDC01295ED0062987
:102010005DD0072985D1FDE3EDE000E155E2A1E1C6
:1020200079E191E10A2953D0162952D017298ED18E
:10203000F1E3A1F14600082895D203E0B2E13EE1C8
:10204000EAE314E1DFE810F07F06D706D60628079A
:1020500046075F0872079007062028805420A87062
:10206000287940F08000287154221F4920460BF047
:10207000E3FD18481DA222A1036804F112000BF031
:10208000BBFA24480068206023A0007884F842004E
:1020900021A04178432001551FA005E0D9E0BFE20F
:1020A000D0E259E3D6E0FDE3C178442001551AA0FF
:1020B0000179452001551BA00079202838D1302016
:1020C00039E0C8E0F7E0EEE3CDE3EDE3EDE3EDE387
:1020D000EDE3EDE308C6002008C50020100402402F
:1020E0000000024046C00020A4FC00084B424431DE
:1020F000303120424C4443204472697665720000BE
:10210000257320284D4335383131333A2025303876
:10211000582900005CC3002031353A31313A353658
:10212000000000004A616E20333120323031370028
:10213000AFF21000007946210855AFF2180041793E
:1021400047200155AFF22400017848200155AFF235
:102150002C00417849200155AFF2380081784A209F
:10216000015500214B200155012010900220FA4911
:10217000C86600F0CBBF4020F7498865F9E7F6480C
:10218000006F20F010001030F34908670020C86588
:10219000F248008FC0F3802028B9F1A248F2F5017F
:1021A000812000F0C5FFE4E7EB48006F20F010004D
:1021B000E9490867DDE79AF80300012806D1C00362
:1021C000E5490866012005F0EBFB02E0022005F07E
:1021D000E7FBCEE740F2122028800120A870DF48FC
:1021E000008FC0F3C02008B1012000E00220E87099
:1021F00001201090BDE740F20B4028800620A87017
:10220000287940F08000287101202080D348D0F840
:102210000490C4F8029001201090AAE700BFD7F8FC
:10222000029049464D2006F015FFA2E740F2124009
:1022300028800620A870287940F0800028710120AD
:102240002080C648D0F80490C4F802900120109075
:102250008FE700BF00BFC04890F87000C0F30010C7
:1022600020B1BD48C06D322800DD82E700BF119863
:10227000B0F5926F02D140F2914000E0119800B2A7
:1022800028800E20A8700020E870287940F0800097
:10229000287101202080B1484068C4F80200AF488E
:1022A000008BE08000202081FFF72AFDC4F80A009F
:1022B000012010905DE70020A749C86559E740F26A
:1022C0002A4028800620A870287940F080002871D4
:1022D00001202080FFF714FDC4F8020001201090B7
:1022E00047E7D7F80600A549886008468068C860B7
:1022F000D7F80A00086108468168902006F0AAFE17
:102300009E48C168912006F0A5FE9C4801691120F5
:1023100006F0A0FE2DE740F2154028800E20A870A0
:10232000287940F080002871012020800020C4F826
:10233000020092488068C4F8060090480069C4F81A
:102340000A000120109014E7788800B28B49488376
:102350007868C861F868086238694862B88A00B26B
:10236000088506E700BF4FF4836028801620A87018
:10237000287940F080002871012020807F48408B20
:1023800060807E48C06960600020A0607B48006A71
:10239000E0607A48406A20617848008DA082012080
:1023A0001090E6E640F2254028801020A870287999
:1023B00040F0800028710120208096F86A0010B952
:1023C0000120608009E096F8360010F0100F02D06E
:1023D0000320608001E00220608096F86B0010B955
:1023E0000120A08009E096F8360010F0200F02D0FE
:1023F0000320A08001E00220A0800020C4F8060095
:10240000C4F80A00E08101201090B2E6D7F8060077
:102410005A49086378888863ABE640F242402880D6
:102420000E20A870287940F08000287101202080BB
:102430005248008F60800120A0805048006BC4F893
:1024400006004EF66020C4F80A000120109090E6C5
:1024500040F2434005F092FE012803D048A003F06B
:102460007FFF86E63D48806B20F00400001D3B495D
:1024700088630846806B20F02000886305F074FABA
:1024800001203649C8623448006F20F00800083047
:10249000314908670846006F20F00200086768E6C7
:1024A00040F2444028800120A8700020E8700120FC
:1024B00010905EE6D7F802003049C8620846C06A4C
:1024C000002801DA0020C86253E640F23C40288030
:1024D0000620A870287940F0800028710120208013
:1024E0002648C06AC4F802000120109041E6D7F8DF
:1024F00002001949C8643CE640F2474028800620A3
:10250000A870287940F080002871012020801248AE
:10251000C06CC4F80200012010902AE64FF48960D4
:1025200005F02CFE012803D015A003F019FF20E6CA
:102530000A48806B20F00400001D084988630846A3
:10254000D0F804909AF8040050F0800034D0D7F806
:102550000200814433E0000068C6002008C6002065
:10256000506861736520696E697469616C69736133
:1025700074696F6E206661696C656400ACC400208C
:102580000D0A496E76616C6964206D6F7665207204
:1025900065717565737420696E2063757272656EFE
:1025A00074206F7065726174696E672073746174F2
:1025B000652E0D0A00000000FE48C06C8144CDF875
:1025C0001090FD4904984968884202DAFB48C06AC5
:1025D00000E000200590F94880680690F7480069FF
:1025E0000790F64840690890F448008BADF8240045
:1025F00007A807C88DE8070003A80FC805F0C4FAAC
:102600000120ED49C862EB48006F20F00200801CF9
:10261000E8490867ADE5D7F80200E6490865A8E58E
:1026200040F2524028800620A870287940F08000AF
:10263000287101202080DF48006DC4F802000120CD
:10264000109096E540F2534005F098FD012804D023
:10265000AFF2D40003F084FE8BE5D748806B20F006
:102660000400001DD44988630120C8629AF8040060
:1026700050F0800002D0D7F8029002E0CD48D0F8A8
:102680005090CDF81090CC4904984968884202DAFD
:10269000CA48C06A00E000200590C84880680690DB
:1026A000C64800690790C54840690890C348008B38
:1026B000ADF8240007A807C88DE8070003A80FC8D5
:1026C00005F062FABB48006F20F00200801CB94997
:1026D00008674EE540F2574005F050FD012804D050
:1026E000AFF2641003F03CFE43E5B348806B20F08A
:1026F0000400001DB04988630120C8629AF80300F5
:10270000012806D1AD4800690790AC48D0F8009088
:1027100006E0AA48006940420790A848D0F8049013
:10272000CDF8109000200590A44880680690A3483A
:10273000406908900120ADF8240007A807C88DE87B
:10274000070003A80FC805F01FFA9A48006F20F091
:102750000200984908670CE59AF80310012900D196
:1027600000E00221084605F01CFA05F015F9914831
:10277000006F20F002008F4908670846006F20F0C4
:102780000400001D086701208B49C862F1E440F293
:102790006A4005F0F3FC012804D0AFF21C2003F0DE
:1027A000DFFDE6E48548408B012810D19AF803004C
:1027B000012802D18148006801E0804840688146D4
:1027C0007C48006F20F002007A49086715E07C48D9
:1027D00041689AF80300012803D17848C06903E0F2
:1027E0009BE07648C069404201EB00097148006FE8
:1027F00020F00200801C6F49086770480068484557
:1028000030DB6E48406848452CDC6B48806B20F01C
:10281000040002E015E1E8E1A4E0001D66498863D8
:102820000120C8626348006F20F020002030614919
:102830000867CDF81090002005906048006A069067
:102840005E48406A07905D48406908905B48008B8D
:10285000ADF8240007A807C88DE8070003A80FC833
:1028600005F092F985E4788800B27084B88800B2E7
:10287000F084D7F80600C6F83200788900B2B08438
:10288000B88900B23086F8893085388A00B2B085C0
:10289000788A00B2708578693061B6F9222000210B
:1028A000672006E015E161E1E9E08BE0A4E0F9E0F2
:1028B0007EE106F0CFFBB6F926200121672006F065
:1028C000C9FBD6F83200B6F9261000FB01F202214E
:1028D000672006F0BFFBB6F924200321672006F02D
:1028E000B9FBB6F930200421672006F0B3FB328D26
:1028F0000521672006F0AEFBB6F92C2006216720E3
:1029000006F0A8FBB6F92A200721672006F0A2FBF3
:102910003169972006F09EFBF8E340F2D940288009
:102920001C20A870287940F08000287101202080A8
:10293000708C6080F08CA080D6F83200C4F806005D
:10294000B08C6081308EA081308DE081B08D20828E
:10295000708D608230696061002020836083012077
:102960001090D3E3788800B2A6F85600B88801B278
:1029700006F15600A6F85810B6F9580041F66E1147
:10298000884203DB06F15600A6F85810F888F08557
:10299000B6F956200021412006F05CFBB6F958201C
:1029A0000121412006F056FBF18D062006F052FB76
:1029B000ACE3000068C6002008C60020ACC40020BC
:1029C000ECC5002040F2DC4028800E20A870287959
:1029D00040F08000287101202080B6F85600608009
:1029E000B6F85800A080F08DE08000202081608142
:1029F000A0810120109089E37888B082B888F082A5
:102A0000F8883083B08A08B1012100E0002196F8EF
:102A1000690061F3000086F8690096F8690000F02B
:102A20000101EB2006F016FBB18AAA2006F012FB8A
:102A3000F18ABC2006F00EFB318BA82006F00AFBC1
:102A400064E340F2E24028800C20A870287940F02E
:102A5000800028710120208096F8690010F0010F95
:102A600001D1002000E0B08A6080F08AA080308B25
:102A7000E0800020208160810120109046E3B8783A
:102A800000F00300FA490883786848610846B0F905
:102A90001810A02006F0DEFAF5484169132006F070
:102AA000D9FA33E340F2E54028800C20A870287959
:102AB00040F08000287101202080ED48008B60806C
:102AC000EB48406960600020208160810120109007
:102AD0001CE3B88801B206F13800A6F84410F88863
:102AE00001B206F13800A6F84610388901B206F1A5
:102AF0003800A6F84810B6F944200021732006F0EB
:102B0000A9FAB6F946200121732006F0A3FAB6F916
:102B100048200221732006F09DFAB6F944204FF4B4
:102B20008071732006F096FAB6F9462040F2011142
:102B3000732006F08FFAB6F948204FF481717320A4
:102B400006F088FA788901B206F13800A6F84E102E
:102B5000B88901B206F13800A6F85010B6F9502035
:102B60004FF40171732006F075FACFE240F2D640BF
:102B700028801220A870287940F080002871012058
:102B8000208002206080B6F84400A080B6F846009D
:102B9000E080B6F848002081B6F84E006081B6F8B3
:102BA0005000A0810020E081208201201090ADE241
:102BB000D7F81E00AE49486008464068DBF80A10A6
:102BC000884203DADBF80A00A9494860D7F82200F6
:102BD000A749086008460068DBF80E10884203DD4C
:102BE000DBF80E00A249086090E240F2F240288033
:102BF0004A20A870287940F08000287101202080A8
:102C0000BBF80000102806D0112808D012280AD0DE
:102C1000152811D10BE010200B900A9010E0112024
:102C20000B900A900CE012200B900A9008E075209F
:102C30000B9003200A9003E001200B900A9000BF44
:102C400000BF0B9860800A98A0804FF0000808E051
:102C50000BF12E0010F80810A01D00F8081008F164
:102C60000108B8F1100FF3DBDBF8020044F8160F8F
:102C7000DBF81E0060607E484068A0607C48006809
:102C8000E060DBF822002061DBF826006061DBF801
:102C90002A00A0610120A083A4F11604109035E25F
:102CA0009AF802007349096F60F386117148016751
:102CB0009AF80200C0F340016E48006F61F3C7103C
:102CC0006C4908676C48D0F884000A280FD191F845
:102CD0007010C1F38011684AD2F88C20022A01D109
:102CE000012200E0002281EA0200FEF7E0F96248DA
:102CF000D0F888000A2810D15E4991F87010C1F30D
:102D0000C0115D4AD2F89020022A01D1012200E0D0
:102D1000002281EA0200FEF7EBF9F7E140F215200C
:102D20002880544890F87000C0F38010514991F801
:102D30007010C1F3C01100EB4100A8700020E870D2
:102D400001201090E2E178884949C86378680864F6
:102D5000B8684864B88900B2A1F84800D7F80E00F6
:102D60004549C867D7F812104348C0F88010006F73
:102D70000F904148406F0E903F48806F0D90F88A49
:102D80003D490867388B38B9788B28B941F27070A3
:102D90004867022088670EE0788B37498867388B50
:102DA00018B96FF00040486705E0388B4FF4167192
:102DB0004843314948673048016F0F98814209D133
:102DC0002D48416F0E98814204D12B48816F0D9898
:102DD000814201D0012000E000200C90139840B9FE
:102DE0000C9830B10020234948612349086FFDF752
:102DF000C3FB8BE100BF40F2225028802420A87042
:102E0000287940F080002871012020801848808FA8
:102E100060801748006C60601548406CA0601448E2
:102E2000B0F84800A0811448C06FC4F80E001248E2
:102E3000D0F88000C4F812000F48B0F87000E082AB
:102E40000D48406F6FF00041884202D1002020837E
:102E500006E00948406F4FF4167190FBF1F02083B3
:102E60000548B0F8780060834FF000080EE00000DD
:102E7000ACC4002068C6002008C50020002104F171
:102E80001C0000EB4800018008F10108B8F1040FB4
:102E9000F4DB0120109039E17888FE49C1F8840004
:102EA000B888C1F88C00F988FA48C0F888103989C8
:102EB000C0F89010D0F88C20D0F884100120FDF7D5
:102EC00078FBF448D0F89020D0F888100220FDF765
:102ED00070FB1BE140F2255028801620A87028794D
:102EE00040F08000287101202080EA48B0F884007A
:102EF0006080E848B0F88C00A080E648B0F8880010
:102F0000E080E448B0F8900020814FF0000807E02E
:102F1000002104F10A0000EB4800018008F10108DB
:102F2000B8F1060FF4DB01201090EFE057F8020F24
:102F3000D849C1F894007968D648C0F89810B968A3
:102F4000C0F89C10F968C0F8A0103969C0F8A41046
:102F50007969C0F8A810B969C0F8AC10F969A7F18F
:102F60000207C0F8B010D1E04FF4A56028802E20F1
:102F7000A870287940F080002871012004F1020433
:102F800024F8020CC348D0F894002060C148D0F85F
:102F900098006060BF48D0F89C00A060BD48D0F8A1
:102FA000A000E060BB48D0F8A4002061B948D0F888
:102FB000A8006061B748D0F8AC00A061B548D0F86F
:102FC000B000E061A4F102044FF0000807E0002126
:102FD00004F1220000EB4800018008F10108B8F17B
:102FE000060FF4DB0120109090E043F20110AA4993
:102FF000C1F84C0100F0D8F8A8A003F0B1F985E0C1
:103000000020A549486005F0EFFAA848A249C1F898
:103010004C0100F0C9F879E0812028804420A87094
:103020000020E870287940F080002871002020807E
:1030300013988088608013989DA18268201D0AF0F3
:10304000DBFA0120109061E03868022808D00A28D5
:103050000ED0B0F5C87F13D0B0F5FA7F36D126E098
:1030600078688D49086000F09FF8002010902EE0ED
:103070009248806B20F0200020309049886326E041
:103080008FA003F06DF96420FEF72FFB72B6934812
:10309000006820F48000914908600846006820F428
:1030A000001008608E488F49086001F091FA8EA0E8
:1030B00003F056F903F0F2F94FF00050944908601C
:1030C0000AF018F9012001F0C7FF00E000BF00BFBF
:1030D0001CE0162028802820A870287940F0800065
:1030E00028714FF0000805E0002004EB880108601B
:1030F00008F10108B8F10A0FF6DB674800682061A3
:103100000120109002E00020109000BF00BF109836
:1031100050B1287910F0800F02D0A878801D00E00F
:1031200006201499C1F80002109815B0BDE8F08F80
:103130000FB47FB509A80390BDF8200000900020CF
:1031400001905DA00290BDF82000812814D1039861
:1031500010C80390039840C80390002000906D4869
:10316000006EA04208D0B4F5004F03D0812000903B
:103170000194029667480466002003906548C06E7B
:1031800002280ED1644A69460020FEF76AFE054611
:10319000012D06D16048FEF70CF800215E4803F0CF
:1031A00002F87FBC5DF814FB10B55C225B493A481D
:1031B000F0300AF086FDE422364937480C300AF038
:1031C00080FD5748406834494860564888604FF44D
:1031D000A8720021304801F068FA0446012C05D09D
:1031E00051A248F2D0418120FFF7A2FF01234FF402
:1031F000A8720021284801F015FA04462CB14CA20F
:1032000048F2D0418120FFF793FF10BD04462146CC
:103210004AA003F0A5F804204E49086001E003F03D
:1032200021F9FCE72DE9F04705F0D3FB054615B978
:1032300049A0FFF7EBFFAF7F97B12048806B20F4E8
:10324000805000F580501D498863394647A02A68A0
:1032500003F086F854A248F2EA018120FFF768FFE4
:10326000B5F92000FDF756F884B2286A06BA286836
:10327000372809D009DC0E2808D0312807D0342897
:1032800006D0362805D1C1E09DE093E08EE1EAE06A
:103290007BE1BAE008C500205CC300200D0A536141
:1032A000766564204545646174610000FECEFFFFD1
:1032B000252D36332E3633730000000008C600205B
:1032C0000D0A456E746572696E6720626F6F746C6B
:1032D0006F616465722E2E2E0D0A00003038024098
:1032E000EFBEADDEF01F00200D0A4C696E6B696EFB
:1032F0006720746865204D43353831313320746F51
:10330000207468652055534220706F72740000006D
:103310001808024068C60020C0040020ACC4002089
:1033200044C00020050001004545577269746500DE
:103330004545566572696679000000000D0A4578BA
:1033400069742077697468206572726F723A2025FB
:103350007300000018040240504D444765744C73DC
:10336000744D7367203D204E554C4C000D0A4D6F37
:1033700074696F6E204572726F723A207374617453
:103380007573203D20307825582C20696E20726599
:1033900073706F6E736520746F20636F6D6D616EF7
:1033A0006420307825580000496E7374724572723B
:1033B0006F7200008F287DD0A4287CD0A6282FD043
:1033C000AD2822D1F6E0FC4846604068FA49896899
:1033D000A0EB0109F848006900EB0908F748C16C47
:1033E000404605F0EAF9F449086108460069A8EB8F
:1033F0000000F249C96C90FBF1F0EF49C96808443C
:10340000ED49C860084640688860EAE0EA4806621C
:10341000806B20F4807000F58070E7498863E0E0FD
:1034200020B2E54988840846808CC0F30021E24838
:10343000806B61F3CB20E04988630846808CC0F341
:103440008021DD48806B61F38E30DB49886308465C
:1034500090F82400C0F34001D748806B61F3CF306F
:10346000D5498863BDE020B2D349C8840846806B43
:1034700020F4007000F500708863D148006843F6BE
:1034800090710840CC49B1F9261043F69072114072
:10349000884253D0C848C08C10F43E5F07D0C6485D
:1034A000806B20F4805000F58050C3498863C24887
:1034B000C08C01E092E064E010F4806F05D0C1A2FE
:1034C00048F2E8018120FFF733FEBB48C08C10F4BE
:1034D000006F05D0BEA248F2EB018120FFF728FE65
:1034E000B548C08C10F4007F05D0BCA248F2ED01B5
:1034F0008120FFF71DFEB048C08C10F4807F05D0FE
:10350000BAA248F2F4018120FFF712FEAA4890F80F
:10351000260010F0800F06D0AFF2741248F2EA01D4
:103520008120FFF705FEA448C08C10F4005F05D091
:10353000B1A248F2EC018120FFF7FAFD9E4890F815
:10354000260010F0010F16D09B48806BC0F3C040DE
:1035500088B19948806B20F4801000F5801096495E
:1035600088630846806B20F4002088630846806BDF
:1035700020F0040088639048B0F926009049086064
:103580002FE020B28C4908852BE00CB9012000E027
:1035900000204FF6FE71884307D08748806B20F4E7
:1035A000002000F50020844988631AE020B2824997
:1035B000488516E020B2804988618869002801DBCF
:1035C000014600E041427C4AD269914205DD8DA26C
:1035D00048F6B9018120FFF7ABFD02E076480660AE
:1035E00000BF00BFBDE8F08770B50446884800689A
:1035F000052870D2DFE800F003081A55650014B9F9
:1036000001208349086066E082A002F0A9FE43F22F
:1036100001108549C1F84C01FFF7C6FDFDF78AFF8F
:103620008249088002207A49086054E01CB10020D9
:103630007749086034E0FDF77DFF05467B48018847
:103640002846FDF77BFFB0F5FA6F29DD78A002F080
:1036500087FE0220FFF76CFD03220021482005F0C1
:10366000F9FC7648006F20F00200744908670846AC
:10367000006F20F004000867012004F092FA04F0C3
:103680008BF96E48006F20F010006C4908674FF00E
:1036900080606B490860C011086003205C490860C5
:1036A00019E0FDF747FF0546604801882846FDF709
:1036B00045FF40F6B831884202DD042054490860D5
:1036C00009E04FF000505F4908604FF4FA70FEF7D0
:1036D0000CF800F07DFF00BF4D48006870BDF0B5EC
:1036E0008BB006460D460027002E62D1002D60D01B
:1036F0000124F8E005EA040010283ED008DC012887
:1037000010D0022819D004280DD0082852D12AE060
:1037100020281AD0402807D0802806D0B0F5807F16
:10372000F4D12EE000BF00BF00BF47A002F018FE9A
:1037300040F22250FFF7FCFCD3E04DA002F010FE57
:103740004FF48360FFF7F4FCCBE004F00DF93B4845
:10375000006F20F00800394908670846006F20F024
:1037600002000867BDE0012004F01AF949A24FF4F5
:1037700000418120FFF7DCFCB3E0022004F010F9E7
:10378000AFE00D4890F83800C0F3800010B90A4847
:10379000C06A00B1A5E00848008FC0F3803050B97E
:1037A0003D4840682549496C884204D02348416C13
:1037B00074E09CE094E092E008C60020ACC40020D5
:1037C00038020020427573566F6C746167650000A3
:1037D000436F6D6D75746174696F6E004F766572BD
:1037E00074656D706572617475726500496E74659B
:1037F000726C6F636B0000004F7665726375727256
:10380000656E740056656C6F636974790000000022
:10381000400200200D0A506F776572696E67206460
:103820006F776E2E2E2E00005CC300203C0200201D
:10383000676F6F646279650D0A00000068C600203A
:1038400018040240180802400D0A415054206E6FBF
:1038500074696669636174696F6E3A206A6F79731F
:103860007469636B2073657474696E67730000001C
:103870000D0A415054206E6F746966696361746902
:103880006F6E3A206A6F6720737465702073697A6F
:103890006500000020000000ECC50020F9A002F047
:1038A0005FFDFD48806B20F00400001DFA4988632D
:1038B0000520C862F948008BADF82800F748006A77
:1038C0000790F648406A0890F548406C059008A8B3
:1038D00007C88DE8070004A80FC804F055F900BF19
:1038E00000BF00BF6400002C7FF404AF01273846FE
:1038F0000BB0F0BD0CF078F8FDF710FAFDF7D2FD33
:103900006420FDF702FFFDF71DFEFDF740FE0020DD
:10391000FEF72EF80120FDF716FF4FF40050E149A5
:10392000086003F009FEFDF783FC05F0C9FF05F010
:10393000A7FB02F0BFFE06F0F7F802F0D5FD03F09A
:10394000D7FA04F029FD04F0CCFC0120FDF77CFB44
:103950004FF08060D44908606420FDF7C6FE002067
:10396000FDF772FB4FF48060CF4908600A20FDF735
:10397000BCFE0820CC490860C0030860CBA002F060
:10398000EFFCD3A002F0ECFCC8A002F0E9FCD9489F
:10399000D0F80E10D8A002F0E3FC9FEDDD0B53EC45
:1039A000102BDDA002F0DCFCE248006810F4802F50
:1039B00001D0E1A000E0E2A00146E3A002F0D0FCCB
:1039C000B8480838006810F4004F01D0E3A000E0C8
:1039D000E5A00146E7A002F0C3FC09F06FFD00205E
:1039E00009F0E3FD09F086FCE54808F0C1FA4FF460
:1039F000207009F0A1FDBF48D0F80E20E1A14FF4DE
:103A0000FA6007F00CFD05F0E2FCA549486708469E
:103A1000406F40B9E249E3A002F0A2FCA049886FE0
:103A200005F021FD1FE09E48416FE4A002F098FCE4
:103A30009B48406F012805D19948406D40F0010036
:103A4000974948659648406F022805D19448406DD3
:103A500040F00200924948659148E3A1426F4FF45B
:103A6000FA6007F0DCFC8E48406F00282AD18C49B0
:103A7000886F05F0F8FC8A49C8670846C06F010ED8
:103A8000DFA002F06DFC8648C06FC0F30740C62877
:103A900015D00320824948670846406D40F0040075
:103AA00048650846C06FC0F30742C621DA4802F0F5
:103AB00057FCDAA14FF4FA6007F0B1FC02E0DEA097
:103AC00002F04EFC03F048F80446002C15D1DFA0AC
:103AD00002F046FCE149E2A002F042FCDF48303847
:103AE0004168E5A002F03CFCDC4AE8A14FF4FA6032
:103AF00007F095FC04F078FD0EE02146E9A002F005
:103B00002FFC6748406D40F0080065494865EDA10D
:103B10004FF4FA6007F083FC6048008BEE4908839D
:103B20005E488068C8605D480069086102F0B6FCC4
:103B300000234FF4A8721946E84800F073FDE748E7
:103B40000168E7A002F00CFCE4480068E94990FB3A
:103B5000F1F01C2802D0E848E04908606420FDF735
:103B6000C4FD4F4890F8540010F0080F6BD1DB48AB
:103B7000D0F84C0143F20111884235D1D748416851
:103B8000DEA002F0EDFBD548C06FE94908670846A2
:103B9000016FE8A002F0E4FBE549086FFCF7ECFCDC
:103BA000CE484168AD4830384068814217D15C2228
:103BB000CA49F03139480AF084F8E422C7490C3187
:103BC000DB480AF07EF83648006F20F4807000F57C
:103BD000807033490867DEA002F0C2FB07E08E4820
:103BE0004C3002F0BDFB02E0E1A002F0B9FB04F0B2
:103BF00041FDE9A14FF4FA6007F011FC04F002FF67
:103C000004460CB9EBA000E0EBA001462246ECA074
:103C100002F0A6FB02F042FC012004F047FF04463C
:103C200094B12146EDA002F09BFB2246F5A14FF492
:103C3000FA6007F0F4FB02F05DFA1748806B20F49D
:103C40008060154988631DE2F6A002F089FBB84840
:103C5000B0F85C00662110FB01F0FA2190FBF1F056
:103C600087B23846FDF741FDFA20FDF73EFD022000
:103C700004F01CFF044624B90748806B20F48060E0
:103C8000DAE1EFE10D0A4D6F766520746F20706FF9
:103C900073203D202564000008C60020ACC400202D
:103CA00068C6002018080240180402400D0A2D2D95
:103CB0002D2D2D2D2D2D2D2D2D2D2D2D2D2D2D2D34
:103CC0002D2D2D2D2D2D2D2D2D2D2D2D2D2D2D0051
:103CD0000D0A4B42443130312042525553484C4535
:103CE0005353204D4F544F5220434F4E54524F4C3C
:103CF0004C455200A4FC00080D0A0A4669726D7713
:103D0000617265207265763A0925303658000000E8
:103D100000000000000065400D0A53797374656D62
:103D200020636C6F636B3A09252E3266204D487A0A
:103D300000000000003802404D454D5300000000D7
:103D40005854414C000000000D0A436C6F636B2017
:103D5000736F757263653A09257300006F6E207486
:103D600068652068756200007374616E64616C6FD1
:103D70006E6500000D0A4D6F64653A0909257300F0
:103D8000AC31010854686F726C616273204B42441D
:103D90003130310A5377526576202530365800008D
:103DA000C50001080D0A465047412066696C652030
:103DB000646174653A092573000000000D0A4650DD
:103DC000474120636F6E66696775726174696F6ED3
:103DD000206661696C7572652C20737461747573EB
:103DE000203D2025642E0000465047412065727218
:103DF0006F720A537461747573203D20256400004E
:103E00000D0A46504741207265766973696F6E3AB4
:103E1000092530325800000000FA0008465047419A
:103E2000206572726F720A496E76616C6964205304
:103E300050492064617461000D0A46504741207367
:103E400074617475733A094F4B0000000D0A0A4FF4
:103E50006E6557697265204F4B2E000074C00020BC
:103E60000D0A537461676520636F6E6E65637465D8
:103E7000643A20252E3873000D0A5374616765205B
:103E8000532F4E203D2025640000000053746167CD
:103E90006520636F6E6E65637465643A0A252E381B
:103EA000730000000D0A0A4F6E6557697265204560
:103EB00072726F722C20537461747573203D2025CB
:103EC000640000004572726F720A556E6B6E6F77F8
:103ED0006E20737461676500ECC500205CC3002030
:103EE0000D0A426F61726420532F4E203D20256CD5
:103EF000750D0A0040420F00003FAB010D0A4F70E4
:103F0000506172616D7320666F756E6420696E20FA
:103F1000453250524F4D2C20736176656420666F98
:103F20007220737461676520532F4E202564000052
:103F300008C500200D0A53657474696E67206272AB
:103F4000696768746E65737320746F202564000060
:103F50000D0A4F70506172616D73206C6F61646502
:103F6000642066726F6D20453250524F4D2E000016
:103F70000D0A4E6F2076616C696420454550617270
:103F8000616D732C207573696E6720646566617559
:103F90006C74732E00000000506861736520696EB8
:103FA00069740A506C6561736520776169742E2E9F
:103FB0002E0000004F4B00004572726F720000002F
:103FC0000D0A53796E636820737461747573203DB4
:103FD0002020257320282564290000000D0A506840
:103FE00061736520696E6974202331206661696C94
:103FF00065642C20737461747573203D2025303402
:1040000058000000506861736520496E6974202370
:10401000310A6661696C65642C207374203D20252B
:10402000640000000D0A506861736520696E697450
:10403000202331204F4B000000F58060E949886360
:10404000E9A002F08DF9032004F030FD6420FDF7B3
:104050004CFBEAA002F084F9EDA14FF4FA6007F0FE
:10406000DEF90FE0DF48806B20F48060DD49886373
:104070002146EDA002F074F92246F5A14FF4FA6052
:1040800007F0CDF902F00AFA8F2004F0E3FFF8A060
:1040900002F066F905F016FAFE48D0F88C20D0F848
:1040A00084100120FCF785FAFA48D0F89020D0F867
:1040B00088100220FCF77DFA89E2F748FDF732F814
:1040C0000546902D02D1F5A0FFF7A0F8F248D0F8F0
:1040D0000002012816D10121EF4802F064F8F64AE7
:1040E0000021ED48FDF7BDFE0646012E06D1F2483F
:1040F000FDF75FF80021F04802F055F80220E6498C
:10410000C1F80002FDF76DF8FDF717FB00287DD020
:10411000B448008FC0F3802000B3E8480068E8B9D5
:10412000372004F097FF0446A62004F093FF0446CE
:10413000312004F08FFF0446A42004F08BFF0446D6
:104140000E2004F087FF0446AD2004F083FF0446F0
:1041500014F4004F02D0DAA002F002F9DC4890F823
:104160007000C0F3001018B140F29140FEF7E0FF7C
:1041700003F04AFA9B48006B09281BD19948806BD1
:1041800020F0200020309749886300208860C860B4
:104190000861CF4890F87000C0F3C000A0B140F2B1
:1041A0004440FEF7C5FFCA48006F20F00800C84928
:1041B000086709E08B48006B0B2805D1C5A248F2BF
:1041C000D2418120FEF7B4FFFCF7CCF9C0498860EA
:1041D0000846006A28B9C34AD16BBD4A906803F00B
:1041E000F6FCC1480068012121EA1010B849886135
:1041F000886905F003FFB649C8610846C06918B36D
:104200007848008FC0F38030F0B100E057E0012023
:1042100003F0C7FC03F0C0FBAD48006F20F00200C4
:10422000AB4908676F48C06A012801D1012100E04D
:104230000021A748006F61F38200A54908670020AC
:10424000C861AAA002F08CF8A14B1A699968D869D4
:10425000243305F076FF9E490862086A06F01AFCCE
:10426000A1480068012121EA50109949C860C86836
:10427000FFF7BAF9964908610A46516A106AFFF7D2
:104280002EFA934988620846806A012801D10020ED
:1042900048628F48806D002811DD8D4991F85820C3
:1042A000896D491E8A4B996512F0040F01D00021D7
:1042B00002E07849096F491C0846FCF75DF903F0F4
:1042C000D1FB484890F8380010F0010F23D0804807
:1042D000006F20F020007E4908674248806B20F084
:1042E0000400404988630020C862794890F8700053
:1042F000C0F3400078B1764890F8700010F0010FDC
:1043000003D040F26440FEF713FF7148006F20F0C5
:1043100002006F4908676E4890F87000C0F3800093
:1043200078B16B4890F8700010F0010F03D040F2A4
:104330006640FEF7FDFE6648006F20F00400644909
:104340000867284890F83800C0F3C01020B125480D
:10435000008FC0F3803020B12248008FC0F3C0200E
:1043600078B92048806B20F080001E498863084699
:10437000806B20F00200801C8863084640685D491D
:10438000486000BF04F0A7FA044614F4004F09D0B7
:1043900059A001F0E5FF5DA248F2EE018120FEF791
:1043A000C7FE05E0042C03D1FEF73CFF04F080FAC1
:1043B000032C02D014F4004FE4D014F4004F02D0C8
:1043C00055A0FEF723FF04F034FA0648806BC0F3D3
:1043D000405028B9034890F8260010F0020FA1E0E1
:1043E000C8E0000008C600200D0A5068617365200F
:1043F000696E6974202332204F4B00000D0A50680B
:1044000061736520696E6974202333204F4B00006F
:10441000506861736520696E69740A636F6D706CB2
:1044200065746564000000000D0A506861736520C2
:10443000696E6974202332206661696C7572652C1F
:1044400020737461747573203D20256400000000A2
:10445000506861736520696E69742023320A666151
:10446000696C65642C207374203D20256400000075
:104470000D0A0A507265737320456E74657220666A
:104480006F72206465627567206D656E752E0D0A0A
:104490000000000008C500201C000020496E766165
:1044A0006C696420415054206D65737361676520A9
:1044B000666F726D61742E00C0040020E8C8002091
:1044C0000D0A5478517565756546756C6C00000071
:1044D00068C60020486F6D696E67206661696C650B
:1044E00064000000ACC40020100402400D0A5374A4
:1044F0006F702100ECC500200D0A4D7367207863B2
:104500006867206572726F7200000000527854690B
:104510006D656F7574000000504D4420636F6D6DC4
:104520007300000032D03248806B20F4001000F598
:1045300000102F4988630846C06B401C0A4601469C
:10454000D0632CA001F00CFF294840684142F520BF
:1045500004F080FD26480169F52004F07BFD4FF64C
:10456000FD71342004F076FD002021498860C86088
:1045700008610BE01E4890F8260010F0020F05D1EC
:104580001B48806B20F400101949886302F0A6F9DB
:1045900001F084FD1F48D0F88C20D0F88410012051
:1045A000FCF767FA1C4948661A48D0F89020D0F802
:1045B00088100220FCF75DFA17498866486E03F000
:1045C0002AFD1549886E03F026FDFCF7A2FA74E572
:1045D000BFF34F8F1148006800F4E06010490843B2
:1045E000001D0E490860BFF34F8F00BFFEE70000BB
:1045F00008C600200D0A504D4420706F736974691D
:104600006F6E207772617061726F756E64202575B0
:104610000000000008C5002068C600200CED00E086
:104620000000FA052DE9F05F81460C4617469A46D0
:104630004FF0010B4E46E019B0F5006F02D3012098
:10464000BDE8F09F002002F00BF8032002F010F804
:10465000C4F3072002F00CF8E0B202F009F84FF0C2
:10466000000816E0002002F003F80546BAF1000F3A
:1046700002D106F8015B0AE0BBF1000F05D016F885
:10468000011BA94201D1012000E00020834608F16E
:104690000108B845E6D3012001F0E2FFBBF1010FAC
:1046A00001D00120CCE70020CAE72DE9F05F814668
:1046B0000D461646A819B0F5006F02D30120BDE8DB
:1046C000F09FC8462C4643E004F01F07AC4200D0E0
:1046D000AFB9002001F0C4FF062001F0C9FF01209E
:1046E00001F0BEFF002001F0BBFF022001F0C0FF7F
:1046F000C4F3072001F0BCFFE0B201F0B9FF18F8E5
:10470000010B01F0B5FF1F2F03D0A819401EA042D6
:104710001DD14FF0000B012001F0A2FF00BF0020CF
:1047200001F09EFF052001F0A3FF002001F0A0FF93
:104730008246012001F094FF58460BF1010BB0F5C1
:104740007A7F01D90220BAE71AF0010FE7D1641C81
:10475000A819A042B8D8012001F082FF0120AEE7DD
:104760007CB5C048007810F0020F12D0BE48056832
:10477000BD4828380468001D06680194009501981A
:1047800000F07F03C0F30622C0F30541B7A001F09B
:10479000E7FDB448007810F0040F04D0BC488168ED
:1047A000BCA001F0DDFD7CBD10B5FCF7C3FE0446E6
:1047B000BB4801882046FCF7C1FEB0F5FA7F10D94E
:1047C000FCF7B8FEB6490880B648006808B9012071
:1047D00000E00020B34908600846006808B1FFF710
:1047E000BFFFAB4890F87C0010F0010F03D004200D
:1047F000AD49086003E04FF48020AB49086010BD6C
:1048000010B5AA4C01F04AFEA9A001F0A9FD01F0E3
:1048100045FE6188ABA001F0A3FD01F03FFE616899
:10482000AFA001F09DFD01F039FEA168B1A001F03B
:1048300097FD01F033FEE168B3A001F091FD01F0B6
:104840002DFE2169B4A001F08BFD01F027FE616906
:10485000B5A001F085FD01F021FEA169B6A001F02F
:104860007FFD01F01BFEE169B8A001F079FD01F0C8
:1048700015FE216ABBA001F073FD01F00FFE616A15
:10488000BFA001F06DFD01F009FEA16AC2A001F018
:1048900067FD01F003FEE16AC5A001F061FD01F0D2
:1048A000FDFD04F130021021C6A001F059FD01F018
:1048B000F5FD616DC9A001F053FD01F0EFFDB4F805
:1048C0005810CCA001F04CFD01F0E8FDB4F85A10EE
:1048D000CDA001F045FD01F0E1FDB4F85C10D0A0E1
:1048E00001F03EFD01F0DAFDB4F96610D2A001F04E
:1048F00037FD01F0D3FDB4F96810D3A001F030FD0D
:1049000001F0CCFDB4F96A10D3A001F029FD01F04B
:10491000C5FDB4F86C10D4A001F022FD01F0BEFD7D
:10492000B4F96E10D5A001F01BFD01F0B7FDB4F98C
:104930007010D7A001F014FD01F0B0FDB4F87210B2
:10494000D8A001F00DFD01F0A9FDB4F97410DAA0B2
:1049500001F006FD01F0A2FDD4F87610DAA001F016
:10496000FFFC01F09BFDB4F97A201146DAA001F0BA
:10497000F7FC01F093FDB4F97C10DEA001F0F0FC2F
:1049800001F08CFDB4F97E10DFA001F0E9FC01F02C
:1049900085FDB4F98010E1A001F0E2FC01F07EFD9C
:1049A000B4F98210E2A001F0DBFC01F077FDB4F96C
:1049B0008410E4A001F0D4FC01F070FDB4F986107D
:1049C000E5A001F0CDFC01F069FDB4F98810E7A085
:1049D00001F0C6FC01F062FDB4F98A10E8A001F014
:1049E000BFFC01F05BFDB4F98C10EAA001F0B8FC4B
:1049F00001F054FDB4F99A10ECA001F0B1FC01F003
:104A00004DFDB4F99C10F1A001F0AAFC01F046FDA7
:104A1000B4F99E10F4A001F0A3FC01F03FFDB4F93D
:104A2000A010F6A001F09CFC01F038FDB4F9A21032
:104A3000F7A001F095FC01F031FDB4F9A410FAA043
:104A400001F08EFC01F02AFDB4F9A610FCA001F0E3
:104A500087FC01F023FDB4F9A810FEA001F080FC52
:104A600002E2000048020020282800400D0A537985
:104A70006E63682054696D65203D20253032583AB8
:104A8000253032583A253032582E25640000000077
:104A900068C600200D0A4A53203D2025640000000E
:104AA000600200205C0200201804024044C0002084
:104AB0000D0A312D5769726520506172616D733A2C
:104AC000000000000D0A53746167654D6F64656CEA
:104AD000416E6441786973203D20256875000000AF
:104AE0000D0A53657269616C4E756D626572203D89
:104AF000202575000D0A4D617854726176656C2031
:104B00003D202575000000000D0A4D696E506F7341
:104B1000203D2025640000000D0A4D6178506F7320
:104B2000203D2025640000000D0A486F6D65506F20
:104B300073203D20256400000D0A486F6D654F66A7
:104B400066736574203D2025640000000D0A486FDF
:104B50006D655265664D61726B506F73203D202507
:104B6000640000000D0A456E636F646572436F75E3
:104B70006E74506572556E6974203D202564000086
:104B80000D0A4D6178416363656C65726174696F8C
:104B90006E203D20256400000D0A4D617844656358
:104BA000656C65726174696F6E203D20256400003C
:104BB0000D0A4D617856656C6F63697479203D20EC
:104BC000256400000D0A4465736372697074696F2F
:104BD0006E203D20252E2A73000000000D0A506F24
:104BE000734572726F724C696D6974203D20257532
:104BF000000000000D0A536574746C6554696D659E
:104C0000203D2025687500000D0A536574746C659D
:104C100057696E646F77203D20256875000000009D
:104C20000D0A547261636B696E6757696E646F77C2
:104C3000203D2025687500000D0A506F73204B70D1
:104C4000203D2025686400000D0A506F73204B64DE
:104C5000203D2025686400000D0A506F73204B69C9
:104C6000203D2025686400000D0A506F73204B6FB3
:104C70007574203D20256875000000000D0A506FF6
:104C800073204B616666203D2025686400000000AB
:104C90000D0A506F73204B766666203D20256864B0
:104CA000000000000D0A4D6F746F72204C696D6931
:104CB00074203D20256875000D0A506F73204474E0
:104CC000203D2025686400000D0A506F7320496C58
:104CD000696D203D202564000D0A5369676E616C83
:104CE00053656E7365203D20256875202825303476
:104CF000582900000D0A437572722041204B702024
:104D00003D202568640000000D0A43757272204141
:104D1000204B69203D202568640000000D0A437582
:104D20007272204120496C696D203D202568640025
:104D30000D0A437572722042204B70203D20256879
:104D4000640000000D0A437572722042204B6920F6
:104D50003D202568640000000D0A437572722042F0
:104D600020496C696D203D20256864000D0A53655B
:104D700074746C6564204B70203D202568640000CD
:104D80000D0A536574746C6564204B69203D2025C1
:104D9000686400000D0A536574746C656420496C86
:104DA000696D203D20256864000000000D0A4375F0
:104DB0007272204C696D69742028636F6E74696E1D
:104DC000756F757329203D20256875000D0A4375A0
:104DD0007272204C696D69742028656E65726779FE
:104DE00029203D20256875000D0A5068436F756EB7
:104DF0007473203D20256875000000000D0A50687E
:104E0000496E69742054696D65203D2025687500E0
:104E10000D0A5068496E697420506F776572203DA5
:104E200020256875000000000D0A5068496E6974FD
:104E30002052616D7054696D65203D2025686400C5
:104E40000D0A5068496E6974202B50543D20256826
:104E5000640000000D0A5068496E6974202D50549A
:104E6000203D20256864000001F018FBB4F9AA1069
:104E7000E8A001F075FA01F011FB94F8AC0000F025
:104E80000101EAA001F06CFA01F008FB94F8AC0013
:104E9000C0F34101EAA001F063FA01F0FFFA94F8CF
:104EA000AC00C0F3C001EBA001F05AFA01F0F6FA31
:104EB00094F8AC00C0F30111EBA001F051FA01F03D
:104EC000EDFA94F8AC00C0F38011ECA001F048FAC0
:104ED00001F0E4FA94F8AC00C109EDA001F040FA49
:104EE00001F0DCFA94F8AD0000F00101EEA001F051
:104EF00037FA01F0D3FA94F8AD00C0F34101F1A004
:104F000001F02EFA01F0CAFA94F8AD00C0F3C10125
:104F1000F1A001F025FA01F0C1FA94F8AD00810981
:104F2000F1A001F01DFA01F0B9FA94F8AE10F2A068
:104F300001F016FA01F0B2FA94F8AF10F3A001F004
:104F40000FFA01F0ABFAB4F8B010F5A001F008FACE
:104F500001F0A4FAF7A001F003FA10BD10B5F6486D
:104F60000068B0B104F0AAF998B1F3480168F348B9
:104F7000006804F07CF9F1480068F149884202D1E8
:104F800001F5806000E0EE48EC4908600020EA4945
:104F9000086010BD10B5EB4B1B68EB4C24681A1968
:104FA000E94B1B680B44E84C236003E010F8013B1D
:104FB00002F8013B0B00A1F10101F7D110BD10B5C2
:104FC000DE4B1B68DC4C24681A19DB4B1B680B4456
:104FD000D94C236003E010F8013B02F8013B0B00C1
:104FE000A1F10101F7D110BD10B5D7480068B0B1EB
:104FF00004F074FD98B1D4480168D248006804F008
:1050000048FDD0480068D149884202D101F580604E
:1050100000E0CE48CB4908600020CB49086010BDB5
:1050200010B5C9480068B0B1FCF729FA98B1C64874
:105030000168C4480068FCF7FDF9C2480068C3492C
:10504000884202D101F5806000E0C048BD49086097
:105050000020BD49086010BD2DE9F04FADF6540D9C
:10506000064600240025A246A346012E11D1B848C9
:10507000808920F00C00B649888140F2B250088146
:105080000846808940F00C008881B24FAFF26F086B
:1050900019E0022E13D1B048008820F00C00AE4970
:1050A000088040F2D920091F0880081D008840F0C0
:1050B0000C00091D0880A94FAFF2D30803E00DF6DC
:1050C000540DBDE8F08F72B648E004E028466D1C30
:1050D00015A901F80090B8478146A0F57F41FF3936
:1050E000F4D12DB1294615A8FFF769FFAB4400257F
:1050F00005E02046641C0DF2544101F8009004F0D4
:1051000099F88146A0F57F41FF39F2D134B12146AB
:105110000DF25440FFF73EFFA2440024FFF71EFFAC
:10512000C047FCF70AFBB8B152468DA10BA808F0A6
:1051300063FA5A468CA101A808F05EFA00210846DD
:1051400006F096FF0BA808F0CBF80221002006F02D
:105150008FFF01A808F0C4F801F0C0FBB5E72DE906
:10516000F0439FB0804600201C901D901E90202789
:105170001CAA7FA1404608F00DFC00240AE07D48EF
:1051800000EB041041681CA808F0CEFD08B92746C2
:1051900002E0641C202CF2DD00BF202F39D2DFE8B2
:1051A00017F02000F900160133016E019C01D701B0
:1051B00005021C022202540266027B0281029A024C
:1051C000B10252046F040F0522053B0561056E050F
:1051D0006F0598059F05BA05BD05D105D905DA0506
:1051E000E00519AA64A1404608F0D4FB64A119A8FF
:1051F00008F09AFD18B9022062490860C9E062A16E
:1052000019A808F091FD18B904205E490860C0E0B3
:10521000BCE0F9E30D0A5068496E6974204C65766C
:10522000656C203D20256864000000000D0A506870
:10523000436F72724D6F6465203D202568750000D4
:105240000D0A5068496E69744D6F6465203D2025D4
:10525000687500000D0A5068436F6D6D4D6F646591
:10526000203D2025687500000D0A50685072657356
:1052700063616C65203D2025687500000D0A43754B
:105280007272436E744D6F6465203D202568750011
:105290000D0A437572724761696E536368656420D5
:1052A0003D202568750000000D0A4D6F74696F6E12
:1052B000436F6D706C6574654D6F6465203D20258E
:1052C000687500000D0A53746F704D6F6465203D62
:1052D00020256875000000000D0A43617074537248
:1052E00063203D20256875000D0A50726F66696C59
:1052F00065203D20256875000D0A4C696D41637479
:10530000696F6E2B203D2025687500000D0A4C69E1
:105310006D416374696F6E2D203D20256875000016
:105320000D0A50574D2066726571203D2025687525
:10533000000000000D0A0000580200205402002066
:10534000446800204C0200205002002044600020ED
:1053500000100140FB1300080C4400405B9A000859
:105360005278202575000000547820257500000033
:105370002539730094FA0008252A73253873000034
:1053800073740000480200206A6F79000020E4492D
:10539000086057E318AAE3A1404608F0FBFAE34986
:1053A00018984860189820B1012806D002280CD11E
:1053B00007E0DFA000F0D4FF07E0E3A000F0D0FF9B
:1053C00003E0EFA000F0CCFF00BF00BFE1E718AAA8
:1053D000D4A1404608F0DEFAD4491898886018989D
:1053E00020B1012806D002280CD107E0EBA000F084
:1053F000B7FF07E0EFA000F0B3FF03E0FBA000F071
:10540000AFFF00BF00BFC4E718AAC6A1404608F01E
:10541000C1FAFD48806F20F0005000F10050FA49B9
:1054200088670846806F20F00041F7488167806FE9
:1054300020F00700C01DF44988670846406FD0B9C6
:10544000886F04F010F800E000BF04F004F80028B2
:10545000FAD0189909B1012100E000210846FBF7B4
:1054600026FE189808B1012000E000200146E7A0C0
:1054700000F076FF02E0ECA000F072FF89E7FBF796
:1054800008FEE148806F20F00051DF488167806F9F
:1054900020F0004000F10040DB4988670846806F3B
:1054A00020F4E07000F5E07088670846406F80B92E
:1054B000886F03F0D8FF00E000BF03F0CCFF0028A6
:1054C000FAD0FBF7E6FD81464946DFA000F048FF31
:1054D00002E0D5A000F044FF5BE718AA91A1404686
:1054E00008F058FAC848806F20F0805000F18050D2
:1054F000C54988670846806F20F08041C2488167AF
:10550000806F20F038003830BF4988670846406F08
:10551000D0B9886F03F0A7FF00E000BF03F09BFF46
:105520000028FAD0189909B1012100E000210846AD
:10553000FBF7DEFD189808B1012000E000200146CD
:10554000C7A000F00DFF02E0B7A000F009FF20E7C0
:10555000FBF7C1FDAC48806F20F08051AA488167FD
:10556000806F20F0804000F18040A749886708469E
:10557000806F20F4606000F5406088670846406FE7
:1055800080B9886F03F06FFF00E000BF03F063FF96
:105590000028FAD0FBF79FFD81464946B7A000F0EE
:1055A000DFFE02E0A0A000F0DBFEF2E618AA5DA19B
:1055B000404608F0EFF9189909B1012100E00021F7
:1055C0000846FBF755FD189808B1B2A000E0B2A05C
:1055D0000146B2A000F0C4FEDBE601F054FDB6A027
:1055E00000F0BEFEFAE319AAAFF27421404608F0BB
:1055F000D1F9B648008BC0F30A00B549086019A874
:1056000008F0FBFAB2490873002405E019A8015D0F
:10561000AF48001D0155641C19A808F0EEFAA0421D
:10562000F4D80020AA4948738873084601F0EEFEBA
:105630000020A849086019A808F0DFFA81464A4608
:1056400019A9A5A000F08CFEC8E318AA35A1404610
:1056500008F0A0F91898C0F30A009C498861084630
:10566000008BC0F30A01A5A000F07AFEB6E318AAE9
:105670002CA1404608F08EF91898C0F30A0593480B
:10568000C5610021284601F07FFD90482A46C16B84
:10569000A0A000F065FEA1E301F0F4FEAAA000F0D6
:1056A0005FFE9BE318AA1FA1404608F073F9189803
:1056B000012803D10004A949086002E00120A7499C
:1056C0000860189808B9A6A000E0A7A00146A8A005
:1056D00000F046FE82E318AAAEA1404608F05AF94F
:1056E0004948406F50B94849886F03F0BCFE179095
:1056F000AAA0DDE9172100F033FE02E0B2A000F01D
:105700002FFE6BE316A817AB18AABCA10090404669
:1057100008F040F9032802D11899159875E18EE137
:1057200048020020252A732564000000C40E0020D2
:105730000D0A415054205278206D6F6E69746F725B
:10574000206F66660D0A00000D0A41505420527801
:10575000206D6F6E69746F72206F6E2C20537461B0
:1057600074757341636B732077696C6C206E6F7412
:10577000206265207072696E7465640D0A00000015
:105780000D0A415054205278206D6F6E69746F720B
:10579000206973206F6E0D0A000000000D0A415051
:1057A00054205478206D6F6E69746F72206F666636
:1057B0000D0A00000D0A415054205478206D6F6E80
:1057C00069746F72206F6E2C2053746174757355F9
:1057D0007064732077696C6C206E6F742062652032
:1057E0007072696E7465640D0A0000000D0A415004
:1057F00054205478206D6F6E69746F722069732025
:105800006F6E0D0A0000000068C600200D0A547279
:10581000696720492F4F2023312073657420746FEE
:105820002025640D0A0000000D0A4572726F723A5D
:105830002046504741206E6F7420636F6E66696723
:10584000757265642E0000000D0A54726967204964
:105850002F4F2023312069732025640D0A0000009A
:105860000D0A5472696720492F4F20233220736537
:105870007420746F2025640D0A0000000D0A547214
:10588000696720492F4F2023322069732025640D3A
:105890000A0000006F6E00006F6666000D0A43414B
:1058A0004E207465726D696E6174696F6E206973E4
:1058B0002025730D0A0000000D0A43414E20737429
:1058C00061727465642E0D0A00000000300F002024
:1058D000200F0020440200200D0A43414E206D732A
:1058E000672073656E743A20222573222C2025646C
:1058F0002062797465732E0D0A0000000D0A434181
:105900004E2049442073657420746F2025640D0A6D
:10591000000000000D0A43414E2052782066696C59
:10592000746572206E756D6265722025642C207717
:105930006974682076616C756520256420616464F3
:1059400065642E0D0A0000000D0A43414E20737459
:105950006F707065642E0D0A000000001808024088
:10596000696E7075740000006F7574707574000056
:105970000D0A53796E63682070696E206973207315
:10598000657420746F20626520616E2025730D0A96
:1059900000000000252A7325580000000D0A46501B
:1059A0004741206461746120696E3A203078253067
:1059B00038582C2064617461206F75743A203078F7
:1059C00025303858000000000D0A4650474120633A
:1059D0006F6E666967206661696C65643A20756EF2
:1059E00061626C6520746F20777269746520746FD2
:1059F000206465766963652E00000000252A732502
:105A00005820255820255800B6E161F3154015901F
:105A10001799159861F30E201590DDE9150161F3D2
:105A2000060015901598FBF7A8FF159800F07F0366
:105A3000C0F30622C0F30541F5A000F091FC02205E
:105A4000FC490860CAE116A817AB18AAAFF25401C6
:105A50000090404607F09EFF1899159861F3154095
:105A600015901799159861F30E201590DDE9150131
:105A700061F30600159000211598FBF7A4FFADE136
:105A800018AAAFF26031404607F084FFEA48046884
:105A9000E948283800681690E748243800681698C6
:105AA00015901598C0F303401599C1F3015101EB0E
:105AB000810100EB410017901598C0F30320159960
:105AC000C1F3023101EB810100EB41001690159802
:105AD00000F00F001599C1F3021101EB810100EBF9
