:020000040800F2
:10000000A8C3002015030008330300087D7F000803
:1000100037030008390300083B0300080000000014
:100020000000000000000000000000003D03000888
:100030005703000800000000597F00085B03000818
:100040005D0300085D0300085D0300085D03000810
:100050005D0300085D0300085D0300085D03000800
:100060005D0300085D0300085D0300085D030008F0
:100070005D0300085D0300085D0300085D030008E0
:100080005D0300085D0300085D0300082F9700086A
:10009000039600085D0300085D0300085D03000887
:1000A0005D0300085D0300085D0300085D030008B0
:1000B0009DA000085D0300085D0300085D030008C3
:1000C0005D0300085D0300085D0300085D03000890
:1000D0005D0300085D0300085D0300085D03000880
:1000E0005D030008B54400085D0300085D030008D7
:1000F000913E00085D0300085D0300085D030008F1
:100100005D0300085D0300085D0300085D0300084F
:100110005D0300085D0300085D030008CBA0000834
:100120005D0300085D0300085D0300085D0300082F
:100130005D0300085D0300085D0300085D0300081F
:100140005D0300085D0300085D0300085D0300080F
:100150005D0300085D0300085D0300085D030008FF
:100160005D0300085D0300085D0300085D030008EF
:100170005D0300085D0300085D0300085D030008DF
:100180005D0300085D03000800F002F800F0B2F81B
:100190000AA090E8000C82448344AAF10107DA45E2
:1001A00001D100F0A7F8AFF2090EBAE80F0013F082
:1001B000010F18BFFB1A43F001031847B0260100D6
:1001C000D02601000A444FF0000C10F8013B13F058
:1001D000070408BF10F8014B1D1108BF10F8015BA0
:1001E000641E05D010F8016B641E01F8016BF9D193
:1001F00013F0080F1EBF10F8014BAD1C0C1B09D1EA
:100200006D1E58BF01F801CBFAD505E014F8016B5B
:1002100001F8016B6D1EF9D59142D6D370470000ED
:100220000023002400250026103A28BF78C1FBD8FF
:10023000520728BF30C148BF0B6070476E290DF0D0
:10024000A98470290DF0FE84662910F05284652976
:1002500010F04F84672910F04C846129AFF30080BF
:1002600003681B0A28BF41F0800169290DF05684FC
:1002700064290DF0538475290DF050846F290EF018
:100280003D8378290DF0CA84E9290EF0D582E4294E
:100290000EF0D282F5290EF0CF82EF290EF03A83CC
:1002A000F8290DF0C9840368DB0928BF41F08001FB
:1002B00063290EF0568273290EF05B82E3290EF05B
:1002C0006986F3290EF06E86002070471FB510F086
:1002D0008BFB0EF0BFFD04000020002110F004F99C
:1002E000401C60600020002110F0E8F8E0601FBDB5
:1002F00010B510BD0FF0A8F81146FFF7E7FF05F0A5
:100300007CFF0FF0F7FA03B4FFF7F2FF03BC0FF026
:100310000BFB000015481649026800608A4203D0B2
:1003200014488047144800471448D0F800D040686B
:100330000047FEE7FEE7FEE7FEE7FEE71EF0040FDC
:100340000CBFEFF30880EFF30980806910F8020C0E
:1003500007F00DBEFEE7FEE7FEE7FEE7FEE7000062
:1003600007480849084A094B70470000F01F002061
:10037000EFBEADDE47460008890100080000FF1F00
:10038000A8BD0020A8C30020A8BF0020A8BF00204F
:1003900001468A1E0A2A1AD2DFE802F00507090B75
:1003A0000D0F11131517022013E0032011E0042094
:1003B0000FE005200DE006200BE0072009E00820F3
:1003C00007E0092005E00A2003E00B2001E00120FE
:1003D00000BF00BF704710B504464FF04040FE49D3
:1003E00048604042086088644042C8640120486612
:1003F0000846806E20F00100401C88660846806E2A
:1004000020F00200801C88660846806E20F0040000
:10041000001D88660846806E20F008000830886657
:100420000846806E20F01000103088660846806E06
:1004300020F0200020308866022008610862102029
:10044000C8620021E44801660D2C7DD2DFE814F07B
:100450007C0084060D0096001D01A4015802E302F1
:100460006C034705BD04F503D0050120DB49086096
:1004700002208860DAA1D9480C300DF0E7FA01209B
:10048000D649C86108629FEDD80A084680ED0D0A7A
:10049000B1EE080A80ED0E0A9FEDD40A80ED0A0A3B
:1004A0009FEDD10A80ED090A9FEDD10A80ED0B0A7C
:1004B0009FEDD00A80ED0C0AB6EE000A80ED0F0A1F
:1004C000B6EE000A80ED100A9FEDCB0A80ED110A0E
:1004D0009FEDCA0A80ED120A4FF41030BE49086041
:1004E0000846806E20F00100401C88660846806E39
:1004F00020F00400001D88660846806E20F0100081
:10050000103088660846806E20F00200801C8866E5
:100510000846806E20F00800083088660846806E25
:1005200020F02000203088660846806E20F04000D1
:1005300088660846806E20F0800088669520886076
:10054000AF48C860AF4800E0FDE388624FF4C040A8
:10055000086340F69910486195208861A848C861F1
:10056000F520486240F2B3100865C3219A484165FE
:1005700040F2E1318165C321C165D4E20120974990
:10058000086003208860A0A194480C300DF05EFA4A
:1005900001209249C86108629FED930A084680EDE8
:1005A0000D0AB2EE080A80ED0E0A9FED900A80ED6A
:1005B0000A0A9FED8D0A80ED090A9FED8D0A80EDF4
:1005C0000B0A9FED8C0A80ED0C0AB6EE000A80ED56
:1005D0000F0AB6EE000A80ED100A9FED870A80ED43
:1005E000110A9FED860A80ED120A4FF490207A4995
:1005F00008600846806E20F00100401C88660846AE
:10060000806E20F00400001D88660846806E20F091
:100610001000103088660846806E20F00200801CB2
:1006200088660846806E20F0080008308866084614
:10063000806E20F02000203088660846806E20F012
:10064000400088660846806E20F08000886695200D
:1006500088606B48C8606B4888624FF4C04008638C
:1006600040F699104861952088616548C861F52079
:10067000486240F2B3100865C3215748416540F213
:10068000E1318165C321C16577E7012053490860E5
:10069000042088605EA151480C300DF0D7F901208C
:1006A0004E49C86108629FED500A084680ED0D0A68
:1006B000B3EE090A80ED0E0A9FED4C0A80ED0A0A9E
:1006C0009FED490A80ED090A9FED490A80ED0B0A6A
:1006D0009FED480A80ED0C0AB6EE000A80ED0F0A85
:1006E000B6EE000A80ED100A9FED430A80ED110A74
:1006F0009FED420A80ED120A4FF416203649086039
:100700000846806E20F00100401C88660846806E16
:1007100020F00400001D88660846806E20F010005E
:10072000103088660846806E20F00200801C8866C3
:100730000846806E20F00800083088660846806E03
:1007400020F02000203088660846806E20F04000AF
:1007500088660846806E20F0800088669520886054
:100760002748C860274888624FF4C040086340F6B5
:1007700099104861952088612148C861F520486238
:1007800040F2B3100865C3211348416540F2E131DE
:100790008165C321C165F0E602201049086005208B
:1007A00088601DA10D480C300DF050F901200B4957
:1007B000C86108629FED0C0A084680ED0D0A9FEDA6
:1007C000180A80ED0E0A9FED170A80ED0A0A90EDD7
:1007D0000A0ADFED130A27E0FC04002008060020C7
:1007E0005A3630360000000000000000ABAA2A385C
:1007F000B53706498D773B430000704300409C4568
:100800007D080500BD3104005A3631320000000079
:100810005A36323500000000435A312D5A36000056
:100820000000B4430000203A80EE801A80ED091ADF
:100830001FED110A80ED0B0A1FED120A80ED0C0A64
:10084000B6EE000A80ED0F0AB6EE000A80ED100A3F
:100850001FED170A80ED110A1FED180A80ED120A2C
:100860004FF08040FE490860404248600846806E74
:1008700020F0010088660846806E20F0040088663B
:100880000846806E20F01000103088660846806EA2
:1008900020F0020088660846806E20F008000830CC
:1008A00088660846806E20F0200020308866084662
:1008B000806E20F0400088660846806E20F0800040
:1008C000886663208860E748C8604010886240F20C
:1008D0004710086340F2666048614A208861E24838
:1008E000C86140F24710486240F252300865322138
:1008F000DB4841654FF42A6181653221C1653CE6E0
:100900000220DA49086006208860D9A1D7480C3057
:100910000DF09CF80120D549C86108621FED4E0A10
:10092000084680ED0D0A1FED420A80ED0E0A9FED8C
:10093000D20A80ED0A0A90ED0A0A5FED470A80EEBE
:10094000801A80ED091A9FEDCD0A80ED0B0A9FED0C
:10095000CC0A80ED0C0AB3EE090A80ED0F0AB3EE63
:10096000090A80ED100A1FED5C0A80ED110A1FEDE7
:100970005D0A80ED120ABA48806E20F00100B84985
:1009800088660846806E20F0040088660846806EFF
:1009900020F01000103088660846806E20F00200BB
:1009A00088660846806E20F0080008308866084691
:1009B000806E20F02000203088660846806E20F08F
:1009C000400088660846806E20F080008866AD484A
:1009D000886241F6FE5008634FF080400860404254
:1009E000486092208860A748C86042F27E50486103
:1009F000DB208861A448C86140F27F70486240F201
:100A0000523008659621964841654FF42A61816508
:100A10003221C165FBE3012094490860072088600A
:100A20009AA192480C300DF011F801208F49C8614D
:100A300008621FED930A084680ED0D0AB3EE090A1D
:100A400080ED0E0A9FED940A80ED0A0A1FED9A0AC6
:100A500080ED090A9FED910A80ED0B0A9FED900A47
:100A600080ED0C0A9FED8F0A80ED0F0AB1EE040AAB
:100A700080ED100A1FEDA00A80ED110A1FEDA10AFA
:100A800080ED120A8848764908600846806E20F09A
:100A90000100401C88660846806E20F00400001D9E
:100AA00088660846806E20F0100010308866084680
:100AB000806E20F00200801C88660846806E20F060
:100AC0000800083088660846806E20F0200020303C
:100AD00088660846806E20F0400088660846806E72
:100AE00020F080008866714888624FF406400863F1
:100AF0004FF4C47088606E48C8604FF48640486107
:100B00004FF4C47088616A48C86140F2B3604862BB
:100B100040F2313008653321514841654FF42A6174
:100B200081653321C16572E30120504908600820C6
:100B3000886060A14D480C300CF088FF01204B49C3
:100B4000C86108621FEDD80A084680ED0D0A9FEDC6
:100B50005C0A80ED0E0A9FED500A80ED0A0A1FED37
:100B6000DE0A80ED090A9FED4D0A80ED0B0A9FED2C
:100B70004C0A80ED0C0A9FED4B0A80ED0F0AB1EE96
:100B8000040A80ED100A1FEDE40A80ED110A1FED42
:100B9000E50A80ED120A4B48314908600846806E2C
:100BA00020F00100401C88660846806E20F004009A
:100BB000001D88660846806E20F0100010308866A0
:100BC0000846806E20F00200801C88660846806E11
:100BD00020F00800083088660846806E20F020006B
:100BE000203088660846806E20F0400088660846FF
:100BF000806E20F0800088662C4888624FF40640A2
:100C000008634FF4C47088602948C8604FF4864078
:100C100048614FF4C47088612548C86140F2B360F0
:100C2000486240F23130086533210D4841654FF488
:100C30002A6181653321C165E9E201200B49086021
:100C40000B20886020A109480C300CF0FFFE012029
:100C50000649C86108629FED1E0A08463AE0000096
:100C6000FC04002052790400FE5A0300080600200C
:100C700050524D312D5A38000E8F083AA9BD2747E2
:100C80005C8F6A41C58B0600A7D109004D545332D1
:100C9000352D5A38000000008D89F437A2293B49D0
:100CA00060B582439A99194000160D009AB20B0064
:100CB000E2C020004D545335302D5A38000000005A
:100CC00000004842002C1A005A383036000000005C
:100CD0000000000080ED0D0AB1EE080A80ED0E0A5A
:100CE0001FED130A80ED0A0A1FED070A80ED090ABD
:100CF0001FED160A80ED0B0A1FED170A80ED0C0A96
:100D00009FEDFE0A80ED0F0AB1EE040A80ED100A95
:100D10009FEDFB0A80ED110A9FEDFA0A80ED120AA1
:100D20004FF44930F84908600846806E20F0010011
:100D3000401C88660846806E20F00400001D88660E
:100D40000846806E00E006E220F010001030886651
:100D50000846806E20F00200801C88660846806E7F
:100D600020F00800083088660846806E20F02000D9
:100D7000203088660846806E20F04000886608466D
:100D8000806E20F0800088664FF4C4708860DF4871
:100D9000C860DF48886242F63300086340F6665058
:100DA000486140F20A208861DA48C86140F259304F
:100DB000486240F2B3100865C321D348416540F250
:100DC000E1318165C321C16521E20120D24908607A
:100DD0000A208860D1A1D0480C300CF037FE0120E9
:100DE000CD49C86108621FED460A084680ED0D0A2C
:100DF000B2EE080A80ED0E0A1FED590A80ED0A0ACC
:100E00001FED4D0A80ED090A1FED5C0A80ED0B0A0B
:100E10001FED5D0A80ED0C0A9FEDB80A80ED0F0A08
:100E2000B1EE040A80ED100A9FEDB50A80ED110ABB
:100E30009FEDB40A80ED120A4FF4C920B249086050
:100E40000846806E20F00100401C88660846806ECF
:100E500020F00400001D88660846806E20F0100017
:100E6000103088660846806E20F00200801C88667C
:100E70000846806E20F00800083088660846806EBC
:100E800020F02000203088660846806E20F0400068
:100E900088660846806E20F0800088664FF4C47033
:100EA00088609A48C8609A48886242F633000863AE
:100EB00040F66650486140F20A2088619548C86152
:100EC00040F25930486240F2B3100865C3218E48A1
:100ED000416540F2E1318165C321C16597E101209F
:100EE0008D490860092088608EA18B480C300CF079
:100EF000ADFD01208849C86108621FED8B0A0846D4
:100F000080ED0D0AB3EE090A80ED0E0A1FED9E0A70
:100F100080ED0A0A1FED920A80ED090A1FEDA10A71
:100F200080ED0B0A1FEDA20A80ED0C0A9FED730AFB
:100F300080ED0F0AB1EE040A80ED100A9FED700AF1
:100F400080ED110A9FED6F0A80ED120A77486E4915
:100F500008600846806E20F00100401C8866084644
:100F6000806E20F00400001D88660846806E20F028
:100F70001000103088660846806E20F00200801C49
:100F800088660846806E20F00800083088660846AB
:100F9000806E20F02000203088660846806E20F0A9
:100FA000400088660846806E20F0800088664FF416
:100FB000C47088605548C8605548886242F633005E
:100FC000086340F66650486140F20A208861514843
:100FD000C86140F25930486240F2B3100865C3213D
:100FE0004948416540F2E1318165C321C1650EE1A7
:100FF000022049490860052088604DA146480C3010
:101000000CF024FD01204449C861002008621FED56
:10101000D00A084680ED0D0A9FED470A80ED0E0AC2
:101020009FED460A80ED0A0A90ED0A0ADFED420ABA
:1010300080EE801A80ED091A9FED410A80ED0B0ABF
:101040009FED400A80ED0C0AB1EE000A80ED0F0A18
:10105000B1EE000A80ED100A9FED290A80ED110A19
:101060009FED280A80ED120A4FF080402649086063
:10107000404248600846806E20F0010088660846BD
:10108000806E20F0040088660846806E20F0100014
:10109000103088660846806E20F002008866084698
:1010A000806E20F0080088660846806E20F02000E0
:1010B000203088660846806E20F04000886608462A
:1010C000806E20F0800088663220886044F65A40A6
:1010D000C860012088620020086340F266604861B1
:1010E0002620886143F64410C86140F247104862E8
:1010F00040F2523008653221034825E03333134073
:101100000000704300409C45FC040020E2C0200029
:101110009AB20B0034651700080600205A383132A5
:10112000000000005A3832350000000000160D00A3
:101130004352312D5A3700000000B4430000203ADA
:10114000002A0F47508DBE4241654FF42A618165E8
:101150003221C1655BE000BF00203C4908603CA132
:101160003A480C300CF072FC01203849C8619FED00
:101170003A0A084680ED0D0AB7EE000A80ED0E0A25
:10118000B7EE000A80ED0A0A9FED330A80ED090AE6
:10119000B7EE000A80ED0B0AB7EE000A80ED0C0AEC
:1011A000B7EE000A80ED0F0AB7EE000A80ED100AD4
:1011B0009FED2A0A80ED110A9FED290A80ED120A9F
:1011C0004FF0804027490860952088602648C86015
:1011D000264888624FF4C040086340F69910486181
:1011E000952088612048C861F52048620846806ED5
:1011F00020F00100886640F2B3100865C321194849
:10120000416540F2E1318165C321C16500BF00BF86
:101210000E4890ED0F0ADFED160A20EE200AD0ED01
:101220000B0A20EE200ABDEEC00A0E4880ED0F0A20
:1012300090ED020AB8EEC00ADFED0D0A20EE200A9A
:10124000BDEEC00A80ED100A10BD000008060020A7
:10125000756E6B6E6F776E000000000000007A44C0
:1012600000401C46FC0400207D080500BD31040040
:101270006666663F594800685949084357490860FF
:101280005848006840F03F005649086055480C3007
:10129000006820F03F0053490C3108604F4814307B
:1012A000006840F480704D49143108604E48006871
:1012B00040F440304D49C1F8040340F203308860E7
:1012C00040F2FF10C8600846C06A20F47000C8628F
:1012D0000846C06A40F40010C86243F26A104863CE
:1012E0004348006820F001004149086000E000BF69
:1012F0003F48006810F0010FF9D13D48006820F028
:1013000060603B4908600846006840F4506008602F
:1013100036484C303649083108603648091D0860A7
:1013200003203349091D08603048406840F480704C
:101330002E4948600846406820F000704860084622
:10134000406840F0807048602948006840F0010023
:10135000274908602548806840F08040234988601C
:1013600070472348006820F001002149086000E030
:1013700000BF1F48006810F0010FF9D11B488068BA
:1013800020F00100194988600846C06A20F4700006
:10139000C8620846C06A40F48010C862022014493E
:1013A000091D08604FF4B57010494863084680680D
:1013B00040F0010088600E48006840F001000C49D0
:1013C00008600A48806840F080400849886070479B
:1013D0000146084830F811007047000030380240DC
:1013E00004004000000802400423014000200140A6
:1013F000706402400000002070B50020FFF7E8FF95
:101400004FF47A7100FB01F50220FFF7E1FFB5FB15
:10141000F0F41A2C01D2012070BD482C01D2022018
:10142000FAE7982C01D20320F6E7B4F5857F01D2C4
:101430000420F1E7B4F5B47F01D20520ECE7B4F560
:10144000E17F01D20620E7E740F22320844201D267
:101450000720E1E7B4F5207F01D80820DCE740F25F
:10146000E720844201D20920D6E7B4F5557F01D8A0
:101470000A20D1E740F2BB30844201D20B20CBE7F7
:101480000C20C9E710B50120FFF7A2FF00EE100AFB
:10149000B8EE400ADFEDFE0A20EE200A10BD70B55E
:1014A00004460025062C7DD2DFE804F0031E4462CA
:1014B00082B1F848006840F00400F6490860084628
:1014C000006820F008000860F348008820F480706D
:1014D000F14908804814EF4918310860C0030860DA
:1014E000002002F03CFEC0E0EA48006840F0040042
:1014F000E84908600846006820F008000860E648EF
:10150000008820F48850E4490880E34820380088A7
:1015100020F00100E049203908804814DD491831E5
:101520000860C00308608012DC4988610820DC493B
:1015300008609AE0D748006840F00400D549086088
:101540000846006820F0080008608814D149183166
:101550000860400408600420D04988610820D04910
:101560000860CD48008840F48070CB4908807CE05A
:10157000C848006840F00400C64908600846006892
:1015800020F008000860C448008820F48070C24938
:1015900008804814BF4918310860C003086004205F
:1015A000BE4900E05FE088610820BD4908605CE05A
:1015B0004FF48020BA490860B9481838006840F0F4
:1015C0001000B749183908600846006820F020006C
:1015D0000860B048006820F00400AE490860084682
:1015E000006840F008000860C804AA491831086083
:1015F000401408600420A94988610820A8490860AF
:10160000A548008840F48850A34908802DE0A148EF
:10161000006840F004009F4908600846006820F018
:10162000080008609D48006820F00C009B49086095
:1016300004209B4908609A481838006840F0100060
:101640009749183908600846006820F020000860B3
:101650004FF400508F4918310860C00308604012F1
:101660008F49086001E0012500BF00BF284670BD1A
:1016700010B508F0AEF9C001192190FBF1F404F3A4
:10168000070010BD10B5044600EE104AF8EEC00A7F
:101690009FED841AB6EE000A00EE810A10EE101AD1
:1016A00008460FF054F90446E0B20AF0B3FA002CF1
:1016B00002DD0AF082FC01E00AF07AFC10BD2DE99F
:1016C000F0418EB006460D4617464FF00008012E39
:1016D00002D0022E11D107E07348744908607448A3
:1016E0000C9074480D900CE06F4810306F49086002
:1016F00071480C9071480D9003E000200EB0BDE8D9
:10170000F08100BF012F01D1012000E0002004463C
:10171000132D7DD2DFE805F00A0B0C0D0E7C7C7CCE
:101720007C7C1521255F8FD82223240000BF00BFB9
:1017300000BF00BF5D48006800F0E1FC0C988047E6
:10174000EBE05A48006800F0DAFC0CB9012200E036
:10175000002210460D998847DFE000BF00BF00BFA0
:1017600000BFA5F10B0008281ED2DFE800F0040935
:101770001D1D1D0E131802204C490968086013E056
:1017800001204A49096808600EE0032047490968BA
:10179000086009E0042045490968086004E0052064
:1017A00042490968086000BF00BF40490D980968B8
:1017B00048600CB9012000E000203C4909688860BD
:1017C0003A480068C4600CB9012200E000221046CB
:1017D0000D998847A1E03548006800F090FC384832
:1017E000406A01903648806A02903548C06A03908A
:1017F0000D9804903248426AC06A401E3049896A96
:1018000000FB012005902E48806A4142069100E0CD
:1018100082E02B48C16A07912A490891C06B099060
:101820002748006C40000B900A9401A808F0F4FBD4
:101830004FF0010871E01D48006800F060FC20488E
:10184000006B01901E48406B404202901C48806B28
:1018500003900D9804901A48026B806B401E184943
:10186000496B00FB112005901548416B0691816B77
:10187000079114490891C06B09901148006C400011
:101880000B900A9401A808F0C7FB4FF0010844E050
:1018900068A2893F0004024020040040000002408A
:1018A000180802409A99993EE80500200800002097
:1018B000513600087336000899360008BB36000818
:1018C00068050020FD2000083D48006800F017FC76
:1018D0003C48406A01903B48806A02903948C06A9F
:1018E00003900D9804903748006B05903548406B85
:1018F000414206913348816B07910D990891C06B65
:1019000009903048006C40000B900A9401A808F040
:1019100083FB4FF0010800E000BF00BF4046EDE64A
:101920002DE9F84F83460E46904600200090BBF10B
:10193000010F03D0BBF1020F0FD105E0DFF888A043
:10194000224C234D234F0BE0DFF88CA01F4C241DAD
:101950001F4D2D1D1F4F3F1D02E00020BDE8F88FD9
:1019600000BF3868B04203D06FF0010028602060EB
:101970003E60022E06D0032E02D0042E18D100E0C5
:1019800000BF00BF20682860D04720602068296819
:10199000A0EB0109B8F1010F02D1B9F1010F05D097
:1019A000B8F1020F03D119F1010000D1009604E053
:1019B0006FF001002860206000BF00BF0098CDE7F5
:1019C0000800002068050020513600080C000020A7
:1019D000140000201C000020993600082DE9F04377
:1019E000044604F30F02AC4800681044DFF8A882F4
:1019F000C8F80000A948C06D01024046006888424E
:101A000002DD404601600AE0A3480068C1F1000819
:101A1000404504DA4842DFF88082C8F800009E485A
:101A200000680012DFF87482D8F8548000FB08FCCC
:101A30009B48D0F800800068401CDFF86492C9F829
:101A400000009648006E80450EDB0020C846C8F8AE
:101A5000000094480068171A07F30F00DFF8488267
:101A6000C8F800008F4802608C48006D00FB02F54A
:101A70008D480068012803D08B480068401C01D1C4
:101A8000002307E08548806DDFF81C82D8F80080CD
:101A900000FB08F30CEB0500C61806F30F00BDE8C9
:101AA000F08310B500207C4908602C2000F0DEF89F
:101AB00010BD10B52C2000F0E5F800207649086034
:101AC00010BD10B52C2000F0DDF87848006878498A
:101AD00048607848006808607748006848612C20B2
:101AE00000F0C4F875480068C0F300106B4991F825
:101AF0006810C1F300114840C1436D48006B61F3A9
:101B00008E306B4908636D480068C0F3401063492C
:101B100091F86810C1F340114840C1436448006B1C
:101B200061F3CF306249086310BD01B5FFF7C1FF13
:101B3000009808F0BAFB5E49009808605D4900987B
:101B4000086000231A460099084600F0BFFA68466C
:101B500000F0BCF8022000F0C3FA684600F0B6F8C6
:101B6000FFF79FFF08BD5248006A032827D14B4862
:101B700090F86800C0F3C01050B150480068C0F33E
:101B80000010464991F86810C1F30011884210D145
:101B9000424890F86800C0F3C01080B94748006818
:101BA000C0F340103D4991F86810C1F340118842DC
:101BB00005D0404800683E498860042008627047AC
:101BC0002DE9F04708F06DFB3D49C96900FB01F8BC
:101BD00038480068A0EB0800374908603548C0F86D
:101BE0000080324800F072F8064630490968314AF0
:101BF0001268881AFFF7F2FE3149C96900FB01F744
:101C00003049098807FB01F0C11700EB5141C913A6
:101C10000FFA81FA2648008EC0F3002010B9504612
:101C200002F0FBF822480761C66016F0010F05D0EC
:101C3000006B20F00100401C1D49086300240FE0E8
:101C40001B48343000EB04152868012807D1C6F37F
:101C5000800905F1080252F8290069688847641C68
:101C6000022CEDDBFFF77FFFBDE8F08700F01F02DD
:101C70000121914042094FF0E02303EB8202C2F8B8
:101C80000011704700F01F02012191400E4A4309E4
:101C900042F823107047000024000020FC040020BC
:101CA00028000020300000202C00002038000020F8
:101CB000B4050020340000203C0000201004024045
:101CC00008060020C001002080E100E02DE9F04777
:101CD0000746FC4843698446DCE90E564068012803
:101CE00004D0022878D0032877D1C8E0F5480068EE
:101CF000012857D1F4480068DFF8C8C3CCF82000A9
:101D0000F1488068CCF81C00EF48C068CCF8180097
:101D1000ED484068DFF8B0C3DCF800C0A0EB0C0071
:101D2000DFF8A0C3CCF8100060460069002811DD80
:101D3000604600694FEAE07C4FEA4C4C4CEAD03CEC
:101D40004004DFF88083C8E90C0C0020C446CCF8BE
:101D5000080011E0DB48006940424FEAE07C4FEAAE
:101D60004C4C4CEAD03C4004DFF85883C8E90C0CDA
:101D70000120C446CCF808000020DFF848C3CCF8A6
:101D80001400E046C8F82800C8F82C008446C8F8BB
:101D900038C0C8F83CC0C446CCF80C000220CCF8CF
:101DA00000005DE0C8484068DFF818C3DCF820C0D8
:101DB000A0EB0C00DFF80CC3CCF810006046806884
:101DC00060B16046006940424FEAE07C4FEA4C4C0B
:101DD0004CEAD03241040AE048E059E0B9480069D1
:101DE0004FEAE07C4FEA4C4C4CEAD0324104B54813
:101DF000D0E90E90DFF8CCC2DCF814C04FEAEC78E2
:101E000019EB0C0C40EB0800DFF8B892D9E90A890D
:101E1000B1EB080A62EB0908BCEB0A0C70EB080096
:101E200016DAA848C0E90C12A748C068DFF894C2C7
:101E3000CCF8180060464069DCF818C0604501DA4B
:101E4000022000E04020DFF87CC2CCF8000007E070
:101E50008020DFF870C2CCF80C001020CCF8000015
:101E60000020DFF860C2CCF8040011E01020DFF899
:101E700054C2CCF800000020CCF8040008E0202078
:101E8000DFF840C2CCF800000020CCF8040000BF0E
:101E900000BF8C480068102877D006DC022809D0E3
:101EA000042830D008282DD12EE020286ED04028DC
:101EB000F9D150E083484069DFF808C2DCF81CC063
:101EC0006044DFF800C2CCF8140060464069DCF8DA
:101ED00018C0604507DD7B4843610420DFF8E4C19A
:101EE000CCF800000EE07748D0E90E9C4069184419
:101EF0004FEAE07819EB00004CEB080CDFF8C481E6
:101F0000C8E90E0C7FE07EE06E484069DFF8B4C19E
:101F1000DCF81CC0A0EB0C00DFF8A8C1CCF8140062
:101F200060464069002806DA0020CCF81400012041
:101F3000CCF800000EE06348D0E90E9C40691844DC
:101F40004FEAE078B9EB00006CEB080CDFF8748125
:101F5000C8E90E0C57E05B484069DFF868C1DCF85F
:101F60001CC0A0EB0C00DFF85CC1CCF8140060468C
:101F70004069DCF818C0604509DA52484361042022
:101F8000DFF840C1CCF8000010E010E024E04D483C
:101F9000D0E90E9C406918444FEAE078B9EB0000A4
:101FA0006CEB080CDFF81C81C8E90E0C2BE04548EF
:101FB000D0E90A9C406919EB000A4CEBE070DFF8AD
:101FC0000491D9E90E891AEB080C40EB0900DFF8FF
:101FD000F480C8E90CC016E00020DFF8E8C0CCF8B7
:101FE000140000236046D0E90AC0DFF8D880C8E9B1
:101FF0000CC09C46C8F838C0C8F83CC00120C44694
:10200000CCF8000000BF00BF2E48D0E90A80DFF8FE
:10201000B4C0DCF814C09C444FEAEC7918EB0C0C0B
:1020200040EB0900DFF89C80C8E90AC04046D0E9CF
:102030000CC0C146D9E90A8ABCEB080960EB0A006A
:10204000DFF88080D8E90EC8B9EB0C0C70EB080003
:1020500012DA1C484361D0E90CC0BCEB050C60EB04
:102060000600DFF86080C8E90AC04046C0E90E56A5
:102070000820C446CCF800001248D0E90AC04FEA54
:10208000C03848EA5C440F48806838B10D48006A9F
:10209000001BDFF830C0CCF8400006E00948006AB9
:1020A0002044DFF820C0CCF840000648006C3860BF
:1020B00004480068DFF80CC0DCF80CC040EA0C00F3
:1020C000BDE8F087400000202404002030B5094C12
:1020D00020606160A260E3600124074D6C6030BD48
:1020E000012803D10221044A516002E00321024A7F
:1020F00051607047240400204000002070470021F8
:102100000160AFF2070141600022C26000218160DE
:10211000704700B58048006B20F008007E490863D6
:102120000846006B20F0100008630846006B20F0A2
:10213000040008630020C86188610846006B20F035
:10214000400008630846006B20F020000863002070
:1021500008620846006B20F00200801C08630846F5
:10216000006B20F4806008630846006B20F4803028
:1021700008630020C8620846006B20F48070086382
:102180000846006B20F4007000F5007008630846F4
:10219000006B20F4803008630846006B20F40030A8
:1021A00008630846006B20F400500863002306E033
:1021B0005949343101EB0310FFF7A1FF5B1C022BDF
:1021C000F6DB00205449886203204862012053490D
:1021D0008860C86010205249C8620120A1F84400FC
:1021E000886300204F490860B7EE000A084680ED7A
:1021F0000A0AB7EE000A80ED0B0AB7EE000A80ED7E
:102200000C0A9FED490A80ED110A9FED480A80ED06
:10221000120A0120486000200873AFF21F104449E1
:1022200048600020886008628861C8604861C864AE
:10223000486288620120C862002008650846806EF6
:1022400020F0400088660846806E20F08000886696
:102250000020486648654FF4004088650846806E57
:1022600020F0020088660846806E20F00400886630
:102270000846806E20F0100088660846806E20F0C8
:102280000100401C8866002008638863C8630864F6
:10229000886448640846806E20F48070886608462A
:1022A000806E20F4007088663C202249086041F26C
:1022B0007070486002208860002305E000211D48FE
:1022C0000C3040F823105B1C022BF7DB012019496E
:1022D0004861C8610A21174881610121016200201B
:1022E00014494862002113488162C162016341635D
:1022F00081631149C163002101640121816400BD32
:10230000024692FBF1F001FB1020002A01DA0B4695
:1023100000E0002318447047B4050020C0060020E8
:10232000FC0400200806002000007A4400401C46FF
:102330005406002068050020A086010010B5044660
:10234000002010BD2DE9F04F87B009200090F9481A
:102350000068C0F30010F84991F86810C1F300114B
:10236000484080F00107F3480068C0F34010F2498C
:1023700091F86810C1F34011484080F001083FB166
:10238000ED4890F8680010F0010F01D0012000E046
:1023900000200490B8F1000F07D0E74890F86800DB
:1023A000C0F3400008B1012000E000200390E348A2
:1023B00090F83000C0F3801048B1DF48406E02282A
:1023C00003D0DD48406E032801D1012000E0002049
:1023D0000290029838B1D9480068D749896C884280
:1023E00001DB012000E000208246029838B1D3488A
:1023F0000068D149C96C884201DC012000E000205E
:102400000190049810B9BAF1000F01D0012000E04A
:1024100000200590039808B9019808B1012000E058
:1024200000208346C448406E03280BD1BAF1000F48
:1024300001D1019830B1049820B9039810B908204F
:10244000009001E009200090BC48006A012824D1D6
:10245000B94890F86800C0F3C01050B1B5480068A2
:10246000C0F30010B44991F86810C1F3001188421C
:1024700010D0B14890F86800C0F3C01068B9AD48FA
:102480000068C0F34010AC4991F86810C1F34011E6
:10249000884202D10220A9490862A848806A01281E
:1024A00004D0022810D003281FD118E0A348406AA6
:1024B000022802D0A148406A10B901209F49486211
:1024C00000209E49886210E09C48406A022802D1A0
:1024D00008209A49486200209849886205E009204E
:1024E000964948620020886200BF00BF9348406A56
:1024F0000D2871D2DFE800F07007A1FCFBFADCF9CF
:10250000F8F7F6F5D8008D4890F83000C0F3801049
:1025100078B38948406E04282BD1894800688649E1
:10252000896C88420DDD854800688349896C884242
:1025300002DD8248006801E07F48806C80490860C5
:1025400017E07F4800687E494968401A7A49C96C9B
:1025500088420EDA794800687749C96C884202DA05
:102560007648006801E07448C06C75490860002036
:1025700048607348006871490968884201DA01219E
:1025800000E000216D48006B61F3C7106B490863E0
:10259000084690F83000C0F3C01010B1BBF1000F36
:1025A00007D1664890F83000C0F3C01040B90598D4
:1025B00030B103206149486262A0FFF7BFFE3BE0F3
:1025C0005E4890F83000C0F3C01030B15C4800683D
:1025D0005B494968401A02E089E159480068814630
:1025E0005749CB688A68554908684946FFF76EFD28
:1025F00052484A46016856A0FFF7A0FE4F48006BBC
:1026000020F002004D4908630846006B20F480600A
:1026100000F5806008630846006B20F400600863E2
:102620000846006B20F0010008630220486208465B
:10263000006B20F48050086359E1404890F8300066
:10264000C0F3C01010B1BBF1000F07D13B4890F8A8
:102650003000C0F3C01068B9059858B13748008EF3
:10266000C0F3003030B93549009848620020344941
:10267000486018E0314890F8300010F0010F12D097
:102680002E48007B10F0800F03D00C202B494862AD
:1026900009E02B48406818B106202849486202E04A
:1026A00004202649486222E10120244948621EE1B3
:1026B0000020234948602148006B20F080001F491A
:1026C0000863022048620846006B20F0010008639E
:1026D000DFF86CC0DCF80C30DCF80820DCF8001007
:1026E00007E0FBE0EAE0A9E087E00CE040E014E06E
:1026F0005FE0DFF848C0DCF80000FFF7E7FC0720E8
:102700000E494862F3E00D4890F8300010F0010FD8
:1027100002D0042009494862E9E001F017FC12499F
:10272000088006480068114908600520034948628E
:10273000DDE0000010040240FC040020B40500208D
:10274000C00600200D0A4D6F7665496E68000000D6
:102750000D0A4D6F76652066726F6D20256C6420C2
:10276000746F20256C640000880000208C0000201D
:10277000F7480068F74909680E1A022E15DA16F1B3
:10278000020F12DD01F0E2FBF3490988401A80B222
:1027900064280DDDEE48006B20F4006000F5006059
:1027A000EB4908630320486202E00420E8494862DC
:1027B0009DE0E748006B20F48050E5490863084637
:1027C000006B20F00200801C08630846006B20F4B8
:1027D000806008630846008EC0F3403048B1084668
:1027E0000068DE490860DA48006B20F40050D849E0
:1027F00008630020D649486279E0D9A0FFF79EFD22
:10280000D348006B20F4005000F50050D049086315
:102810000846006B20F4805000F58050086308469D
:10282000006B20F0010008630020CC4948600120C3
:10283000FFF756FC0A20C649486258E001F01FFB2A
:10284000CAA0FFF77BFD0020C4494860C048006B68
:1028500020F4805000F58050BD4908630846006BA5
:1028600020F00100401C08630220FFF739FC06A895
:10287000FFF72CFAB6480068B8490860FFF719F965
:10288000DFF8D8C2DCF80C30DCF80820DFF8C0C272
:10289000DCF80010DCF80000FFF718FC06A8FFF7D2
:1028A00015FAFFF7FEF8AA48008EC0F3402008B1E1
:1028B00001F0DCFA0A20A649486218E0A44890F822
:1028C000300010F0010F08D0A148006B20F0040088
:1028D000001D9F4908630B20486208E09C48006B7C
:1028E00020F004009A4908630420486200BF00BF3A
:1028F000002546E09648343000EB05142068022895
:1029000006D0032813D004281DD0052837D127E08E
:102910008F4A128EC2F3802282F0010282F00103FC
:1029200004F1080252F823006168884727E0012F6C
:1029300001D1012300E0002304F1080252F8230032
:10294000616888471BE0B8F1010F01D1012300E065
:10295000002304F1080252F82300616888470EE062
:10296000012F02D0B8F1010F01D1012300E00023B3
:1029700004F1080252F823006168884700BF00BFD5
:102980006D1C022DB6DB7248406A07B0BDE8F08FBF
:102990001FB572489DE81E001EC001206C49886268
:1029A0001FBD6B49886270476C49086000216B4A03
:1029B000516070471FB56648C069012802D00228DF
:1029C00011D10AE06248806910B90120604988612C
:1029D00000205F49C861086205E000205C49886109
:1029E000C861086200BF00BF594880690C287BD2CB
:1029F000DFE800F0060D606B7BA3C6D1F8F6F5F4B6
:102A00005348006B20F020005149086319E15048F9
:102A1000006B20F0200020304D4908630020019019
:102A20005448C06A02905348806A0390514890F815
:102A30006800C0F38010E0B14F480068C0F3001098
:102A40004C4991F86810C1F30011884208D14FF049
:102A50004040009003203E4908620520886124E040
:102A60004FF08040009001203949086202208861BF
:102A70001BE041480068C0F340103E4991F86810DF
:102A8000C1F34011884208D14FF0804000900320EC
:102A90002F4908620520886107E04FF04040009010
:102AA00001202B490862022088619DE80F00FFF792
:102AB0006FFFC6E02648006A022805D10320FFF711
:102AC00070FF032022498861BBE02148406A50B969
:102AD0001F48806A012806D001F038FA274908808B
:102AE00004201B498861ACE0AAE001F02FFA2349D9
:102AF0000988401A80B2B0F5C87F1DDD1D4890F8E6
:102B00006800C0F3801018B14FF04040009002E020
:102B10004FF080400090002001901648C06A02905B
:102B20001448806A03909DE80F00FFF731FF0320EF
:102B3000074908620520886183E00548006A042887
:102B400005D10320FFF72DFF06200149886178E0B9
:102B5000B40500208C00002088000020C006002062
:102B60000D0A53746F702E2E2E0000000D0A537440
:102B70006F702100FC04002010040240900000202F
:102B8000F748406A30B9F648806A012802D0072029
:102B9000F349886155E000200190F248C06A029034
:102BA000F048806A0390EF4890F86800C0F3801006
:102BB00030B1EB488068EB49096B401A009005E0A2
:102BC000E7488068E749096B084400909DE80F00DA
:102BD000FFF7DEFE0820E249886132E029E023E0C9
:102BE0000FE0FFE7DE48406A50B9DD48806A0128FF
:102BF00006D001F0ABF9DC4908800920D84988618A
:102C00001FE001F0A3F9D8490988401A80B2B0F555
:102C1000C87F08DD0020FEF788FF0020FFF7C4FE14
:102C20000A20CF4988610CE00020CD490862886104
:102C300007E0CB48006B20F02000C949086300E0A2
:102C400000BF00BFC6488069C849096888422CD0C7
:102C5000C3488069C5490860C14880690B2823D2F0
:102C6000DFE800F022060A0E22161A1222221E00A7
:102C7000BFA0FFF763FB17E0C0A0FFF75FFB13E007
:102C8000C1A0FFF75BFB0FE0C3A0FFF757FB0BE012
:102C9000C4A0FFF753FB07E0C7A0FFF74FFB03E01B
:102CA000CAA0FFF74BFB00BF00BFAD48806904B06E
:102CB00010BD10B5C948006A50B1012816D1A84806
:102CC000006B20F04000A64908630120C8610EE0B7
:102CD0000020FEF72AFF0020FFF766FEA048006BE9
:102CE00020F0400040309E49086300E000BF00BF74
:102CF00010BD02209A49C86170471FB50446012CD7
:102D000024D19748008EC0F34020F8B99449086850
:102D1000FFF74AFE9248006800900120039002905D
:102D2000002001909DE80F00FFF732FE01F09EF8B1
:102D30008B48006B20F4007000F500708849086330
:102D40000846006B20F40030086313E0022C11D118
:102D50008348008EC0F3402060B18148006B20F4AE
:102D600000707F4908630220C8610320FFF719FE45
:102D700001F085F81FBD2DE9F04F2DED028B87B0D6
:102D800004460E4600200690754890F83000C0F3C7
:102D9000401040B97248008EC0F3402018B171480D
:102DA000B0F8440028B9002007B0BDEC028BBDE8A4
:102DB000F08F01F0CBF88046201E01DB014600E0D9
:102DC0004142192900DA00246548C06A02280CD063
:102DD0006348C06A48B16248C06A022807D06048A8
:102DE00090F83000C0F3C00008B9012000E00020D6
:102DF0000746012E04D0022E7ED0032E7DD152E153
:102E000084B97748006868B10320FFF7CAFD5448C9
:102E1000006B20F00800524908630020C862704827
:102E2000046079E06E480068B4EB000901D44846BC
:102E300001E0C9F1000005286EDD6A4801884046BE
:102E400001F088F8642867D9002F65D04448006BEA
:102E500020F008000830424908630220C862002CB4
:102E600001DD204600E0604208EE100A3C4880691F
:102E70000A2814D1002C01DD012000E0002039498E
:102E8000B1F84410012900D100E00021884202D1AC
:102E90003448006801E033484068054613E0002CE0
:102EA00001DD012000E000202E49B1F84410012985
:102EB00000D100E00021884202D14FF0804001E0C3
:102EC0004FF040400546274890ED0F0AB8EEC00A83
:102ED000F8EE480A20EE200ADFED430A80EE201AC1
:102EE00011EE109A48460DF032FD05901D48006C19
:102EF00003900598049001E00FE03CE1019500206B
:102F0000029001A80FC8FFF743FD01200690344846
:102F100004603448A0F800802DE13448006802289D
:102F200002D00F4800680190201E01DB014600E03E
:102F300041422A296DDD2A48D0F800B0BBF1000FCC
:102F400001DB584601E0CBF100002A285CDD244873
:102F5000D0F80090B9F1000F4ADB48464AE0000083
:102F6000B4050020FC040020900000209400002004
:102F70000D0A485374617274000000000D0A48473E
:102F80006F546F4C696D00000D0A4853746F7041A7
:102F9000744C696D000000000D0A484F6666736549
:102FA000740000000D0A484D6F76654F75744F66CA
:102FB0004C696D69740000000D0A4853746F704FBE
:102FC0007574736964654C696D6974000D0A4843D2
:102FD0006F6D706C65746564000000000806002069
:102FE00098000020A0000020000000439C0000206A
:102FF000C9F100002A2809DDB6480188404600F0E2
:10300000A9FFB0F57A7F01D9012000E000208246B7
:103010000BE04FF0000AB048006B20F00800AE490A
:10302000086300F093FFAB490880BAF1010F37D174
:10303000B7B3A948006B20F008000830A649086320
:103040000220C8620846008EC0F3802040BBA3481F
:103050000168002C02DDA248406902E0A0484069F6
:1030600040420D189E480068A84219DB9C48406801
:10307000A84215DC9848006B20F0080008309649FB
:1030800008639748806903909548C069049001954A
:103090000020029001A80FC8FFF77AFC01200690DB
:1030A0009048046067E0201E01DB014600E04142D9
:1030B0002A2952DD884890F83000C0F38010E8B328
:1030C00088490868002801DB014600E041422A29BE
:1030D0004EDCA7B3002C03DD01208349886304E0A4
:1030E000002C02DA0020804988637F48816B7F488A
:1030F00050F821507C482A46816B7DA005F0DCFC0D
:103100007548008EC0F38020C8B974480068A84292
:103110002ED07148006B20F0080008306E4908631B
:103120000220C8626E48806903906D48C0690490AF
:1031300001950020029001A80FC801E005E017E00A
:10314000FFF726FC0120069012E06348006B20F098
:1031500010001030604908630AE05F48006B20F0FF
:1031600008005D4908630846006B20F01000086302
:103170005C48046000BF00BF63480660069813E621
:103180007FB504460025022C04D0032C3BD0042C30
:1031900005D16CE05048008EC0F3402000B995E0A6
:1031A0004D48C06A28B94C4890F83000C0F3C000C0
:1031B00000B18BE04848006B20F008000830464919
:1031C0000863464800684849496C084400904249F1
:1031D00000980968884202DA4148406A00E000200D
:1031E00001903F48806802903D48C06803909DE888
:1031F0000F00FFF7CDFB03203749C862022543A02B
:1032000005F05AFC62E03448008EC0F3402000B95B
:103210005CE03148C06A28B92F4890F83000C0F30C
:10322000C00000B152E02C48006B20F008000830CC
:10323000294908630320C8622B48806C00900098DD
:103240000968884202DA2648406A00E000200190BE
:103250002348806802902248C06803909DE80F00D0
:10326000FFF796FB032530A005F026FC2EE01A4858
:10327000008EC0F3402000B928E01748C06A28B982
:10328000154890F83000C0F3C00000B11EE01248AD
:10329000008EC0F3802010B90F48806900B115E09E
:1032A0000D48006B20F0080008300B490863084601
:1032B000006B20F040000863FFF7FBFC0320064989
:1032C000C86204251FA005F0F7FB00BF00BF284619
:1032D00004B070BDA0000020B4050020C00600208E
:1032E000FC040020980000205406002074050020F3
:1032F0000D0A4D6F766520746F20706F7320256402
:10330000203D2025640000009C0000200D0A54721E
:10331000696767657265642072656C61746976655A
:10332000206D6F76650000000D0A5472696767654D
:10333000726564206162736F6C757465206D6F7661
:10334000650000000D0A5472696767657265642044
:10335000686F6D65206D6F7665000000DF4800685E
:1033600040F00100DD490860DD48006820F00C00F5
:10337000DB4908600846C06820F00C00C8604FF4C4
:10338000802088610846006840F010000860084608
:10339000006820F0200008600846806860F0300077
:1033A0008860880088610846006840F04000086036
:1033B0000846006820F0800008600846806860F0D9
:1033C000C0008860402088610846006840F4805052
:1033D00008600846006820F40050086008468068CD
:1033E00040F4405088600846006820F4403008608F
:1033F0000846C06820F44030C860B848006840F013
:103400000200B6490860B748006820F00C00B549D2
:103410000860B4480C30006820F00C00B1490C3151
:1034200008604FF48020AF4918310860AD4800684B
:1034300040F01000AB4908600846006820F020000A
:103440000860A8480830006820F03000A54908311D
:103450000860A448006820F47060A2490860A14890
:103460000C30006820F470609E490C3108604FF009
:1034700080509C49183108609A48006840F080707C
:10348000984908600846006820F000700860954878
:103490000830006820F040709249083108604FF40D
:1034A00000509049183108608E48006840F08060F4
:1034B0008C4908600846006820F000600860894870
:1034C0000830006820F04060864908310860834871
:1034D000006840F0040081490860082082490860C3
:1034E00081481838006840F040007F49183908606A
:1034F0000846006820F0800008607B4810380068AB
:1035000020F0C00078491039086010207649086022
:1035100075481838006840F480707349183908609D
:103520000846006820F4007008606F481038006892
:1035300020F440706C49103908606B4818380068F6
:1035400020F4406068491839086067480C38006802
:1035500020F4406064490C390860402062490860EA
:1035600061481838006840F480505F491839086095
:103570000846006820F4005008605B481038006876
:1035800020F44050584910390860574818380068EE
:1035900020F4402054491839086053480C3800681A
:1035A00020F4402050490C3908604F481838006812
:1035B00020F040504C49183908604B480C380068DE
:1035C00020F0805048490C3908600846006840F0F7
:1035D000005008604FF400404349086042481838E2
:1035E000006840F08040404918390860084600688B
:1035F00020F0004008603C481038006820F040404F
:10360000394910390860704708B1402101E04FF492
:103610008001334A9161704708B1082101E04FF4FD
:1036200000212F4A916170472D480069012121EA4C
:103630001020704704212C4A11602B491839086862
:1036400020F0300040F0100020F0200008607047AB
:103650002448006820F00C00224908600420224918
:103660000860BFF35F8F1F4810300068C0F3400050
:1036700070474FF480211C4A116008B1022101E01B
:103680004FF40031174A183211601649096841F0A9
:103690000401144A116070471148006820F00C00C2
:1036A0000F4908604FF400400F490860BFF35F8F77
:1036B0000B480069C0F3400070474FF000410A4AD0
:1036C000116008B1022101E04FF40031044A916118
:1036D0001146096841F0040111607047303802401A
:1036E00000000240000402401808024070B5044681
:1036F0000126D4F80001022801D0022070BD2FE07D
:10370000384802680068401C364B1860A5541846BB
:103710000068062817D1207910F0800F01D0A0781A
:1037200000E00020801D30490860207900F07F0013
:10373000502806D16079012803D108460068802806
:1037400001D99020DAE727480068274909688842AC
:1037500006D10020234908600120C4F80001032697
:10376000D4F80001012806D000F043FA0546A0F580
:103770007F41FF39C4D13046C0E730B5D0F80031C1
:1037800002461A4C24681A4D2D686119184C246899
:103790001C44174D2C6003E012F8014B01F8014B5B
:1037A0001C00A3F10103F7D130BD10B5104800682B
:1037B000B0B100F060FA98B10D4801680B4800689C
:1037C00000F034FA094800680A49884202D101F53C
:1037D000807000E00748054908600020044908603F
:1037E00010BD0000B0010020B4010020A80100209D
:1037F000AC010020D40700208448006840F48020F9
:1038000082490860814810380068814908437F492F
:10381000103908607F48006820F480107D490860F6
:103820000846006840F400100860081D006820F495
:103830008060091D086077480C30006820F4401053
:1038400074490C310860081F006820F44010091FFB
:1038500008607048406A20F4706040F4E0616D4890
:103860004162006820F480006A49086008460068E8
:1038700040F40000086067480C30006820F4400005
:1038800064490C3108606348406A20F4704040F499
:10389000E0416048416240F26D105F4908800020BD
:1038A0005D4908310880091D08805B48001D0088BB
:1038B00040F400505849091D088057480C300088D2
:1038C00040F0C00054490C3108805448806D20F00D
:1038D00001005249886500E000BF5048806D10F03B
:1038E000010FF9D14D48806D20F060604B4988652B
:1038F0000846806D40F0006088650846806D40F4A1
:10390000886088654448001F08660020C86508462E
:10391000806A20F00100886200E000BF3F48806AB2
:1039200010F0010FF9D13D48806A20F060603B49FA
:1039300088620846806A40F0006088620846806AB3
:1039400040F4A06088623448001F0863344848632C
:10395000C814C86230480838008820F040002E495A
:10396000083908802C48001D008840F00C002A49C6
:10397000091D08802948806A40F0010027498862B3
:1039800070472649C96AC1F50061264A126891420A
:1039900002D14FF6FF700FE022490A680968491CFE
:1039A000204B19601E49885C19460968B1F5006F03
:1039B00002D100211A4611607047184A926D22F018
:1039C0000102164B9A6500E000BF144A926D12F096
:1039D000010FF9D1114A5066D1650F4A083A128891
:1039E00022F040020C4B083B1A804FF000620B4B58
:1039F0009A601A46926D42F001029A657047064835
:103A00000838008800F0400070470000403802404D
:103A1000020020000004024008480040006002400C
:103A2000D4090020B80100209548006840F010003B
:103A300093490860924814380068924908439049B5
:103A4000143908609048006820F480208E4908608E
:103A50000846006840F4002008600846406820F4EA
:103A6000007048600846C06820F44020C8600846DE
:103A7000806820F4402088600846406A20F0F0000A
:103A800040F0700180484162006820F480107E4957
:103A900008600846006840F4001008600846C068E6
:103AA00020F40010C8600846C06840F48010C86068
:103AB0000846406A20F4706040F4E0617248416258
:103AC000C002714988610846006840F08070086053
:103AD0000846006820F0007008600846806840F0E2
:103AE000407088600846006820F44000086008467E
:103AF000C06820F40000C8600846C06840F4800038
:103B0000C86040F2D920614908810020088288827B
:103B10000846808940F4005088810846808A40F039
:103B2000C00088825A48006820F0010058490860A7
:103B300000E000BF5648006810F0010FF9D154486A
:103B4000006820F06060524908600846006840F054
:103B5000006008600846006840F4886008604B48D0
:103B6000001D4B49083108600020091F08604848C3
:103B70007838006820F0010045497839086000E095
:103B800000BF43487838006810F0010FF8D1404872
:103B90007838006820F060603D4978390860084650
:103BA000006840F0006008600846006840F4A060CB
:103BB00008603648001D3649703908603548091DCF
:103BC000086008153249743908603048008820F0D0
:103BD00040002E4908800846808940F00C0088810A
:103BE0002B487838006840F001002949783908608E
:103BF0007047274974390968C1F58061264A1268FF
:103C0000914202D14FF6FF700FE023490A6809681C
:103C1000491C214B19601F49885C19460968B1F598
:103C2000806F02D100211A4611607047184A12684D
:103C300022F00102164B1A6000E000BF144A12681D
:103C400012F0010FF9D1124A0C321060104A121D05
:103C500011600E4A128822F040020C4B1A804FF07D
:103C600000620B4BAC3B1A60094A126842F0010239
:103C7000074B1A6070470548008800F04000704705
:103C800044380240010040000000024000100140A2
:103C9000B8640240D4110020BC01002082480068B2
:103CA00040F00600804908608048006820F0A0408D
:103CB0007E4908600846006840F020400860081D02
:103CC000006820F44040091D086078480C30006806
:103CD00020F0704075490C310860081F006820F022
:103CE0007040091F08607248006820F4A0307049D5
:103CF00008600846006840F420300860081D00682D
:103D000020F4C070091D086069480C30006820F478
:103D1000703067490C310860081F006820F470306B
:103D2000091F08606148406A20F0706040F04071EF
:103D30005E484162406A20F0704040F040515B486C
:103D400041625A482030006820F0704040F04050F6
:103D50005749203108605548406A20F00F00C01CC8
:103D60005349486250481430006840F002004E4900
:103D70001431086000204F49088048144E490880DB
:103D8000401E4C49091D08604B48008849491031C4
:103D9000086049480088091D0860464814380088B2
:103DA00040F00100434914390880081D008840F4A0
:103DB000C040091D08803F480838008840F0500086
:103DC0003C4908390880081F008840F06000091F3E
:103DD0000880081D008840F4A060091D088035484F
:103DE0001C30008848F21401084332491C31088015
:103DF00006203049083108802E482838008840F0D5
:103E000001002C49283908802A481C38008840F0D5
:103E1000010028491C3908807047274909888842D1
:103E200003DD2549098808B208E023490988494289
:103E3000884203DA20490988494208B200280ADD8D
:103E40001D490988091A1B4A143211601A49098848
:103E5000121F116009E018490988164A14321160CE
:103E6000154909880144121F1160704711481C3020
:103E7000008840F400400F491C31088070470D480D
:103E80001C30008820F400400A491C31088070472B
:103E900010B508481838008820F001000549183985
:103EA0000880FDF78DFE10BD30380240000402404E
:103EB0000008024028040140C0010020FE480068BC
:103EC00040F40030FC490860A720FC49088040F21B
:103ED000E730091D08604010F8490C310860F748C8
:103EE0000838008840F00100F44908390880F34898
:103EF0001038008840F06000F04910390880081F31
:103F0000008840F00100091F0880EC48283800882C
:103F100040F00100E94928390880E748006840F48A
:103F20008030E54908602020E5490881084600897D
:103F300040F007000881002008854FF6FF70C86236
:103F40000846008840F0010008807047DC48406A5D
:103F500080B270470246501A80B27047D648001FA0
:103F6000006840F01000D449091F08605320D5496B
:103F700008854FF6FF704862C8620846008840F026
:103F8000080008800846008840F00100088070475B
:103F90004142CC484162018841F001010180018821
:103FA000C907FCD17047C448001F006840F00800F2
:103FB000C149091F0860C0482438006840F0080063
:103FC000BD492439086000E000BFBB4824380068C0
:103FD00010F0080FF8D0B8482438006820F0080026
:103FE000B549243908600020B7490880091F0860D6
:103FF000B1481438006840F00100AF491439086036
:10400000B248006820F00100B04908600846006826
:1040100040F0020008600846006A20F00F00801C93
:1040200008624FF0FF30A849091D08605720A649D3
:1040300020390880A4481038008840F00100A249C7
:1040400010390880081F008840F00100091F08800F
:104050009D482838008840F001009B492839088095
:104060009548001F006840F002009349091F08604E
:10407000002097490880091F08608F48143800689D
:1040800040F002008C49143908609248006820F022
:104090000100904908600846006840F0020008608E
:1040A0008C482030006820F00F00801C89492031A6
:1040B00008600846006820F0F00040F0200008602A
:1040C00041F267008249091D08604010804914319F
:1040D000086008460068091D086047F270007C49C6
:1040E0000C390880081D008840F48070091D088084
:1040F00077481438008840F0010075491439088069
:10410000704730B50346FFF721FF044600E000BFCB
:10411000FFF71CFF05462146FFF71CFF9842F6DB20
:1041200030BD02466C4850434FF47A73B0FBF3F154
:10413000B1F1807F01D3012070474FF0E02000698A
:1041400040F001004FF0E023186118464161002063
:10415000F2E74FF0E020006900F48030704710B5BE
:1041600048B95E4B19685D4B283B1B685C4C23606B
:104170005A4B243B1A68504B1B1F1B6843F080535B
:104180004D4C241F2360574B1B6843F48073554CE0
:104190002360494B2C331B6843F48033464C2C344A
:1041A000236023461B6823F48033236023461B6867
:1041B00043F44073236023461B6843F400432360A9
:1041C000CA23464C241F236053232360434B1C3BCC
:1041D0001B6843F08003414C1C3C236000E000BF9F
:1041E0003E4B1C3B1B6813F0400FF8D03B4B183B79
:1041F0001B686FF30E0342F20F742344374C183CD4
:10420000236023461B6823F4FE0343F4C6032360A4
:10421000334B1B68314C283C2360334B241D2360F7
:104220002E4B1C3B1B6823F080032C4C1C3C236052
:1042300000E000BF294B1C3B1B6813F0800FF8D136
:10424000FF23264C241F2360244B1C3B1B6823F0B8
:104250002003224C1C3C236010BD1749091F09682C
:1042600041F08051144A121F11601E49096841F43F
:1042700080711C4A116010492C31096841F4803169
:104280000D4A2C3211601146096821F48031116009
:104290001146096840F205121143074A2C32116099
:1042A0001146096841F40041116010B308492839EA
:1042B000098841F0010119E04438024028440140D6
:1042C0000040014000100040280C00400000024067
:1042D0002804004000040240406F400128280040AC
:1042E000C40100200070004002441300854A283AAF
:1042F0001180CA21844A1160532111608249183902
:10430000096841F08001804A183A116000E000BF5E
:104310007D491839096811F0400FF8D07A491439ED
:1043200009686FF30E0142F20F721144764A143A93
:1043300011601146096821F4FE0141F480311160D9
:1043400072490968704A243A11607149121D11605E
:104350006D491839096821F080016B4A183A1160DB
:1043600000E000BF68491839096811F0800FF8D1E2
:10437000FF21654A116064491839096821F020015C
:10438000614A183A11607047624901405F4A116002
:104390007047CA215C4A1160532111605A4918398B
:1043A000096841F08001584A183A116000E000BFE6
:1043B00055491839096811F0400FF8D055490140A6
:1043C000514A243A116050491839096821F0800196
:1043D0004D4A183A1160FF214B4A1160704730B5C1
:1043E0000246CA20484B18605320186046481C38C3
:1043F000006820F48070444B1C3B1860181D006856
:1044000040F001001B1D186000E000BF3E48183856
:10441000006810F0010FF8D03E48104040F0004016
:10442000394B083B1860C1F30E0040F07060364B0A
:104430002033186034481838006820F00100324BEF
:10444000183B18601846006820F480701860181F28
:10445000006840F488501B1F1860181D006820F089
:1044600001001B1D1860FF20274B18602A480068B8
:1044700040F40030284B186027480838006840F4A2
:104480000030254B083B186023480C30006840F48E
:104490000030214B0C331860292000F01F04012349
:1044A000A34044094FF0E02505EB8404C4F8003133
:1044B00000BF30BD10B514481838006820F4807073
:1044C00011491839086000E000BF0F48183800682B
:1044D00010F4807FF8D110480C30006840F40030B0
:1044E0000D490C3108600D4A90685168884710BD2D
:1044F000054B1B1D1A68044B243B18681B1D1968CB
:10450000704700002804004024280040C401002017
:10451000024413007F7F3F00083C01405406002006
:10452000002100205E4A126842F480325C4B1A601F
:1045300000BF5B4A126802F40030491C10B9B1F5A3
:10454000705FF6D1564A1268C2F34040002879D015
:10455000534A4032126842F08052514B40331A6045
:10456000504A126842F480424E4B1A6040F2056293
:104570004D4B1A604A4A08321268494B08331A6098
:104580001A46126842F400421A601A46126842F44F
:10459000A0521A601A46126822F4F81242F440221D
:1045A0001A601A46126822F07C521A601A46126883
:1045B00042F080621A601A46126842F060521A6035
:1045C0001A46126822F040421A601A46126842F0F7
:1045D00080421A60354A1B1F1A601A1F126842F087
:1045E00080721B1F1A6000E000BF2D4A126812F093
:1045F000007FF9D02A4A0832126822F00302284BC1
:1046000008331A601A46126842F002021A6000E08B
:1046100000BF234A0832126802F00C02082AF7D1C0
:10462000234A1F4B84331A601D4A126842F080628D
:104630001B4B1A6001E005E000BF194A126812F036
:10464000006FF9D0704710B51A48006840F4700048
:10465000184908601248006840F0010010490860DD
:1046600000200F49083108600D48006812490840D1
:104670000B4908601148091D0860081F006820F4F4
:104680008020091F0860002005490C310860FFF7F1
:1046900047FF4FF0006007498039086010BD0000F7
:1046A0000038024000700040003C02400C544007BB
:1046B0000040005088ED00E0FFFFF6FE10300024BF
:1046C00004462146FBA004F0F7F901E004F074FA77
:1046D000FCE70FB47FB509A80390BDF82000009057
:1046E00000200190F9A00290BDF82000812818D187
:1046F000039810C80390039820C8039000200090EE
:10470000F348806DA0420CD0B4F5004F07D0812053
:104710000090019402952946EEA004F0CDF9EC48F2
:10472000846500200390EA48406E02280ED1EF4ACB
:104730006946002000F0B7F80646012E06D1EB4886
:10474000FFF71BF80021E94803F01BFC7FBC5DF874
:1047500014FB10B54C22E649E64809F0DCFC6C225B
:10476000E549E4484C3009F0D6FCD9480068E149F5
:104770000C394860E1488860C8220021DD480C38C7
:1047800002F0C7F90446012C05D0DDA248F2D04161
:104790008120FFF79EFF0123C8220021D5480C3855
:1047A00002F074F904462CB1D7A248F2D04181201E
:1047B000FFF78FFF10BDD748D74A128EC2F34022B1
:1047C0007AB140F00040D44A5268D34B1B68D11AEA
:1047D00042F21072914202DC5242914201DA40F000
:1047E0008040CD4A126BC2F300420AB140F08040D3
:1047F000C94A128EC2F380224AB1C74A5269002ABE
:1048000001DD102200E0202242F000521043C24A93
:1048100092F83020C2F3801212B140F4806007E0B9
:10482000BD4A92F83020C2F340120AB140F4007041
:10483000B94A128EC2F380320AB140F00200B64A81
:10484000128EC2F3C0320AB140F00100B24A1268BF
:10485000A94B9B6C9A4201DB40F00800AE4A1268FB
:10486000A54BDB6C9A4201DC40F00400984A92F8B8
:104870006820C2F340123AB1A74A5269002A01DD0A
:10488000402200E080221043A44A1268C2F3400292
:104890000AB140F48010A24A1269C2F340020AB180
:1048A00040F4001070472DE9F74F96B093461698E4
:1048B00078B1DDF85890DDF85890B9F8000080B272
:1048C0001590DDF8589009F10606022080494866E7
:1048D00008E0179830B14FF00009002617980088BB
:1048E00080B215905C46A51D0020E070012020716B
:1048F0005020607100201490CBF8000140F2574224
:104900001598811A90427DD06BDC40F21642A0EBE4
:104910000201904277D03BDC40F21322A0EB02016F
:10492000904271D01BDC142801F02E8209DC022891
:104930006BD005286AD0112869D0122841F09D82D9
:104940007AE1152801F07F82812801F00582B0F517
:10495000047F76D0A0F500701138EFD194E140F2D9
:10496000FD12881A91426DD00BDC01296BD0102901
:104970006AD0B1F5FB7F68D0A1F58071F739DDD140
:1049800093E101287ED003287DD00428D6D113E2FC
:104990002B2979D012DC132977D008DC012975D0B6
:1049A000022974D00D2973D00E29C7D12EE32429F2
:1049B0006FD025296ED02A29C0D196E332296AD03A
:1049C00008DC2D2968D02E2967D02F2966D0302900
:1049D000B4D1F1E33A2962D03B2961D03D29ADD170
:1049E000EBE3CF295DD038DC49295BD01BDC1429EF
:1049F00059D00FDC0D2957D00E2956D00F2955D08C
:104A0000132905E0F8E3F0E1F7E31CE1BEE006E17D
:104A100094D1F3E315294AD0392949D03A2948D00D
:104A20003B298BD1AAE1CA297CD00FDC4A297AD054
:104A3000622901F075819C2901F07D81C9298CD101
:104A4000F2E312E143E1F0E3E5E041E1CB296BD091
:104A5000CC296AD0CD2992D1E8E340F2BD52881A20
:104A6000914200F0FB8776DC40F2AD52A1EB0200F0
:104A7000914200F0B68762DCD0296BD0A1F5A0612D
:104A8000A93953E036E18FE14FE37BE1BAE1B8E1C8
:104A9000D7E1BEE3CBE3F3E371E3B0E3D9E3F0E3C3
:104AA000F0E3F0E3F0E3F0E336E1EFE335E1EEE3EA
:104AB00040E133E10D0A4578697420776974682014
:104AC0006572726F723A20257300000000000000CA
:104AD000540600200D0A415054206E6F74696669B7
:104AE000636174696F6E3A2025730000D006002060
:104AF0006805002040040020FC040020080001009C
:104B00004545577269746500454556657269667911
:104B10000000000000010010B40500201004024055
:104B200000000240FDE3FDE3FDE3FDE300F001874B
:104B3000012900F0218703298DD100F037BF0C280F
:104B400000F05B870D2800F070870F28F4D100F08B
:104B500078BF00E0E9E31D2801F000800CDC0228AA
:104B600000F08F87032800F0B1870C2800F0C5877C
:104B70001C28E1D100F0C7BF3C2801F091803D28FE
:104B800001F09F804E28D7D101F0ACB806202080DC
:104B90005420A070207940F0800020715422F74901
:104BA000284609F073FAF64800682860F54800893D
:104BB000A5F84C00F4A0007885F84200F2A04178F6
:104BC00043204155F0A0C17844204155EEA0017921
:104BD00045204155EFA00079202801D1302001E087
:104BE000ECA0007946214855EAA04179472041557B
:104BF000E8A0017848204155E6A041784920415578
:104C0000E4A081784A20415500214B2041550120E4
:104C1000149001F035B94020E1490865F9E7E04812
:104C2000806E20F010001030DD4988660020486555
:104C3000FA20FFF766FAECE7D948806E20F0100002
:104C4000D7498866E5E70020D54948660846806E62
:104C500020F010008866179830B1022020800020D4
:104C6000A070E07001201490D3E799F803000128A8
:104C700006D1C003CA4988650120FEF73EF802E06C
:104C80000220FEF73AF8C4E740F21220208001200B
:104C9000A070C448008EC0F3402008B1012000E09D
:104CA0000220E07001201490B3E740F20B40208016
:104CB0000620A070207940F080002071012028801B
:104CC000B8480768C5F8027001201490A1E700BF3A
:104CD0001598A0F58061093902D1D6F8020001E0EB
:104CE000D6F8020007463846FCF71FFF3846FDF7A6
:104CF0005BFE8EE740F2124020800620A0702079F3
:104D000040F08000207101202880A6480768C5F87F
:104D10000270012014907CE700BF00BFA04890F80B
:104D20006800C0F3001020B19D48406D322800DDBE
:104D30006FE700BF1598B0F5926F02D140F2914035
:104D400000E0159800B220800E20A0700020E070D6
:104D5000207940F08000207101202880914800686F
:104D6000C5F802008F48808AE88000202881FFF77C
:104D700022FDC5F80A00012014904AE70020884966
:104D8000486546E740F22A4020800620A07020793E
:104D900040F08000207101202880FFF70CFDC5F84D
:104DA00002000120149034E7D6F806007E4988609E
:104DB000D6F80A00C8602CE740F2154020800E208B
:104DC000A070207940F08000207101202880002010
:104DD000C5F8020074488068C5F806007248C068CB
:104DE000C5F80A000120149013E770886E49086125
:104DF00070684861F06888613069C861B08A08628B
:104E000007E700BF4FF4836020801620A070207950
:104E100040F080002071012028806348008A68806B
:104E20006148406968600020A8605F488069E86068
:104E30005D48C06928615C48008CA88201201490FC
:104E4000E7E6B08806285CD2DFE800F05B030F23BA
:104E500036495548806E20F001005349886608465F
:104E6000806E20F0040088664BE04F48806E20F092
:104E70000100401C4C4988660846806E20F0040002
:104E8000001D88660846806E20F01000103088668D
:104E900037E04548806E20F00100401C424988669A
:104EA0000846806E20F00400001D88660846806E6B
:104EB00020F01000886624E03B48806E20F001005E
:104EC000394988660846806E20F00400001D886617
:104ED0000846806E20F010001030886611E03248DD
:104EE000806E20F00100304988660846806E20F010
:104EF0000400001D88660846806E20F01000886659
:104F000000BF00BF7088062875D2DFE800F0740388
:104F10000F234F622448806E20F0020022498866E9
:104F20000846806E20F00800886664E01E48806EA7
:104F300020F00200801C1C4988660846806E20F024
:104F40000800083088660846806E20F02000203077
:104F5000886650E01448806E20F00200801C1249E0
:104F600088660846806E20F008000830886608468B
:104F7000806E20F0200088663DE00000F20B010802
:104F8000340400200806002030393A35323A3238ED
:104F9000000000004A616E2033312032303137008A
:104FA00054060020B4050020FC040020FD48806E5B
:104FB00020F00200FB4988660846806E20F0080059
:104FC000083088660846806E20F020002030886611
:104FD00011E0F448806E20F00200F249886608462D
:104FE000806E20F00800083088660846806E20F049
:104FF0002000886600BF00BFD6F80600E949886433
:10500000D6F80A00C864F089486602E640F22540F6
:1050100020801020A070207940F0800020710120B5
:105020002880E04890F86800C007400FDD4991F8FB
:105030006810C1F3800140EA4100DA4991F8681034
:10504000C1F30011084302280ED0032809D0062816
:1050500004D007280BD10220A8800BE00320A880F1
:1050600008E00420A88005E00520A88002E00120D7
:10507000A88000BF00BFCB4890F86800C0F3400094
:105080008000C84991F86810C1F3C00140EA4100AE
:10509000C44991F86810C1F34011084302280ED0AA
:1050A000032809D0062804D007280BD102206880E5
:1050B0000BE00320688008E00420688005E00520FC
:1050C000688002E00120688000BF00BFB548C06C66
:1050D000C5F80A00B348806CC5F80600B148B0F8BE
:1050E0006400E8810120149093E5D6F80600AD49EC
:1050F0008862D6F80A0008637088012801D101216E
:1051000000E00021A748806E61F38610A5498866FB
:10511000B088042801D1012100E00021A148806E5F
:1051200061F3C7109F49886673E540F242402080D2
:105130000E20A070207940F080002071012028808E
:10514000984890F86800C0F3801008B1012000E092
:1051500002206880934890F86800C0F3C01008B13E
:10516000042000E00120A8808E48806AC5F806006F
:105170008C48006BC5F80A000120149049E58A4864
:10518000008EC0F3402000B943E58748C06A01287B
:1051900009D08548C06A30B1834890F83000C0F328
:1051A000C00000B135E58048008EC0F3802010B902
:1051B0007D48806910B12CE550E0CEE07A48006B64
:1051C00020F008000830784908630846006B20F09A
:1051D00040000863FDF76DFD01207349C862734804
:1051E000806E20F008000830704988660846806E9E
:1051F00020F0020088660CE5F9E01AE254E140F282
:10520000444020800120A0700020E0700120149014
:10521000FFE4D6F80200634948620846406A002865
:1052200001DA00204862F4E440E22AE20AE340F2B4
:105230003C4020800620A070207940F08000207142
:10524000012028805748406AC5F8020001201490C8
:10525000DFE4D6F8020055494864DAE440F24740FA
:1052600020800620A070207940F08000207101206D
:1052700028804E48406CC5F8020001201490C8E414
:1052800006E053E057E005E385E175E1EAE07AE105
:105290004548008EC0F3402000B9BAE44248C06AD5
:1052A000012809D04048C06A30B13F4890F830002A
:1052B000C0F3C00000B1ACE43B48006B20F0080034
:1052C0000830394908630846076899F8040010F067
:1052D000800F03D0D6F80200074402E03348406C48
:1052E00007440697304906980968884202DA2D4833
:1052F000406A00E0002007902A488068089029480A
:10530000C068099006A80FC8FDF742FB0120264996
:10531000C8622648806E20F00200801C23498866FF
:1053200077E41AE25DE117E269E2C9E2D6F8020029
:105330001E4988646DE440F2524020800620A0702F
:10534000207940F080002071012028801748806C6F
:10535000C5F80200012014905BE41348008EC0F3EE
:10536000402000B955E41048C06A012809D00E4811
:10537000C06A30B10C4890F83000C0F3C00000B1F2
:1053800047E40948006B20F008000830064908632C
:105390000120C86299F8040010F0800F08D0D6F8F8
:1053A000027007E0FC040020B40500205406002031
:1053B000FE48876C0697FE4906980968884202DA1B
:1053C000FC48406A00E000200790FA488068089096
:1053D000F848C068099006A80FC8FDF7D9FAF34845
:1053E000806E20F00200801CF049886611E4F048CD
:1053F000008EC0F3402000B90BE4ED48C06A0128DC
:1054000009D0EB48C06A30B1E94890F83000C0F3E9
:10541000C00000B10FE499F80300022802D1E5486A
:10542000076801E0E3484768E148006B20F00800A6
:105430000830DF490863069700200790DD48806840
:105440000890DC48C068099006A80FC8FDF7A0FACC
:105450000120D749C862D548806E20F00200D349A8
:10546000886610E4D248008EC0F3802000B90AE4B8
:1054700099F80310012901D1032100E00221084617
:10548000FDF78FFAFDF735FCC848806E20F002006A
:10549000C64988660846806E20F00400001D8866B4
:1054A0000120C349C86211E4C148008EC0F3402006
:1054B00000B90BE4BE48C06A012809D0BC48C06AE4
:1054C00030B1BB4890F83000C0F3C00000B110E428
:1054D000B648806E20F020002030B4498866B54878
:1054E000006901280FD199F80300022802D1B148C0
:1054F000076801E0AF484768AC48806E20F00200C2
:10550000AA49886621E099F8030002280BD1A8482F
:105510000068A84949694718A6480068B8420DDAEA
:10552000A44807680AE0A2480068A2494969471AE6
:10553000A0484068B84201DD9E4847689B48806E9D
:1055400020F00200801C994988669948006B20F081
:1055500008000830964908630120C86206970020B9
:1055600007909448806908909248C069099006A8FD
:105570000FC8FDF70DFA04E48C48806E20F001009E
:105580008A4988660FE48948806E20F00100401C3B
:105590008649886607E40020708A10F0010F03D066
:1055A000D6F80E208349CA6510F0080F03D0D6F84C
:1055B0000210804A116510F0040F03D0D6F80620BF
:1055C0007C494A6510F0020F03D0D6F80A207949C9
:1055D0008A65C0F3072277490A66C1B2764A11602C
:1055E0000EE440F2A24020801420A070207940F008
:1055F00080002071012005F1020525F8020C6D489C
:10560000C06DE8606B48006D28606A48406D686056
:105610006848806DA860674890F86000664909880E
:1056200041EA00202882A5F102054FF00100149004
:1056300006E499F802005D49896E60F386115B48C3
:10564000816699F80200C0F340015848806E61F30A
:10565000C71056498866594840690A2805D191F80B
:105660006810C1F38010FEF704F8544880690A28D6
:1056700006D14E4991F86810C1F3C010FEF71DF82D
:10568000FEE340F215202080484890F86800C0F3FF
:105690008010464991F86810C1F3C01100EB410039
:1056A000A0700020E07001201490E9E37088414967
:1056B00088637068C863B0680864B08900B2A1F8F4
:1056C0004400D6F80E003D49C860D6F812103B4899
:1056D000016100681190394840681090374880682F
:1056E0000F90F08A35490860308B38B9708B28B933
:1056F00041F270704860022088600EE0708B2F4984
:105700008860308B18B96FF00040486005E0308B3E
:105710004FF4167148432949486028480168119898
:10572000814209D1254841681098814204D123481B
:1057300081680F98814201D0012000E000200E9086
:10574000179840B90E9830B10020184988611B495C
:105750000868FBF797FF93E300BF40F222502080D8
:105760002420A070207940F0800020710120288042
:105770001048008F68800F48C06B68600D48006C4F
:10578000A8600C48B0F84400A8810C48C068C5F86F
:105790000E000A480069C5F8120008480088E8822F
:1057A000064840686FF00041884209E05406002036
:1057B000B4050020FC040020C8010020680500207A
:1057C00002D10020288306E0F74840684FF41671A4
:1057D00090FBF1F02883F448008968834FF00008BB
:1057E00007E0002105F11C0000EB4800018008F1F2
:1057F0000108B8F1040FF4DB0120149040E3708835
:10580000E9494861B088C861F188E7488161318918
:10581000016204F0DFFBE448C26941690120FBF743
:105820004EFF1390E048026A81690220FBF747FFB0
:1058300012901398012802D01298012801D104F087
:10584000C1FB1DE340F2255020801620A070207976
:1058500040F08000207101202880D348808A688031
:10586000D148808BA880D048008BE880CE48008C3F
:1058700028814FF0000807E0002105F10A0000EB45
:105880004800018008F10108B8F1060FF4DB01209F
:105890001490F5E256F8020FC34948627168C24895
:1058A0008162B168C162F168016331694163716904
:1058B0008163B169C163F169A6F102060164DFE2A7
:1058C0004FF4A56020802E20A070207940F0800049
:1058D0002071012005F1020525F8020CB248406A4A
:1058E0002860B148806A6860AF48C06AA860AE4866
:1058F000006BE860AC48406B2861AB48806B686126
:10590000A948C06BA861A848006CE861A5F1020530
:105910004FF0000807E0002105F1220000EB4800ED
:10592000018008F10108B8F1060FF4DB01201490A2
:10593000A6E230889D49086070888860B088C86099
:10594000F08808610846017A0A9861F315400A90C8
:105950009648017B0A9861F30E200A909348017CD7
:105960000A9861F306000A900A98FEF70DFD8F4928
:105970000868FBF794FD83E240F6022020800A20AD
:10598000A070207940F0800020718848008828802D
:1059900086480089688085488089A8808348008A75
:1059A000E880002028810120149069E299F8020023
:1059B0007E4948604968012900D100E0002108467D
:1059C000FEF74BFC79484068012801D178A000E03F
:1059D00079A001467AA003F06FF80120734948616D
:1059E0004EE240F60520208070480079A0706F4894
:1059F000007DE0700120149042E299F802006B49AA
:105A00000864096C012900D100E000210846FDF777
:105A100003FE6648006C012801D170A000E070A070
:105A2000014670A003F048F82AE240F612202080D8
:105A30005E4890F84000A0700020E07001201490B3
:105A40001EE23088C0F30A00584988610846008B7E
:105A5000C0F30A016AA003F02FF811E240F6152006
:105A600020800420A070207940F0800020714F48F1
:105A7000008BC0F30A002880002068800120149069
:105A8000FEE13088C0F30A000C904848C06B08283B
:105A900015D246490C98CA6BC96B491C434BD96354
:105AA00003F11C0141F8220000210C9803F0F5FCE1
:105AB0003E48C16B58A00C9A02F0FEFF05E03B483F
:105AC000C16B62A00C9A02F0F7FFD9E140F61820F2
:105AD00020800420A070207940F08000207199F887
