:020000040800F2
:10000000386A002025DA000843DA000845DA0008DB
:1000100047DA000849DA00084BDA0008000000005F
:100020000000000000000000000000004DDA0008A1
:100030004FDA0008000000006796000853DA000855
:1000400055DA000855DA000855DA000855DA0008D4
:1000500055DA000855DA000855DA000855DA0008C4
:1000600055DA000855DA000855DA000855DA0008B4
:1000700055DA000855DA000855DA000855DA0008A4
:1000800055DA000855DA000855DA0008E38A000856
:10009000E389000855DA000855DA000855DA000847
:1000A00055DA000855DA000855DA000855DA000874
:1000B000A1A400089F52000855DA000855DA00088C
:1000C00055DA000855DA000855DA0008BB52000876
:1000D00055DA000855DA000855DA000855DA000844
:1000E00055DA0008414F000855DA000855DA0008D3
:1000F00055DA000855DA000855DA000855DA000824
:1001000055DA000855DA0008C5A6000855DA0008D7
:1001100055DA000855DA000855DA0008CBA40008C3
:1001200055DA000855DA000855DA000855DA0008F3
:1001300055DA000855DA000855DA000855DA0008E3
:1001400055DA000855DA000855DA000855DA0008D3
:1001500055DA000855DA000855DA000855DA0008C3
:1001600055DA000855DA000855DA000855DA0008B3
:1001700055DA000855DA000855DA000855DA0008A3
:1001800055DA000855DA000800F002F800F0B2F87D
:100190000AA090E8000C82448344AAF10107DA45E2
:1001A00001D100F0A7F8AFF2090EBAE80F0013F082
:1001B000010F18BFFB1A43F001031847902F0100ED
:1001C000B02F01000A444FF0000C10F8013B13F06F
:1001D000070408BF10F8014B1D1108BF10F8015BA0
:1001E000641E05D010F8016B641E01F8016BF9D193
:1001F00013F0080F1EBF10F8014BAD1C0C1B09D1EA
:100200006D1E58BF01F801CBFAD505E014F8016B5B
:1002100001F8016B6D1EF9D59142D6D370470000ED
:100220000023002400250026103A28BF78C1FBD8FF
:10023000520728BF30C148BF0B6070476E290DF0D0
:10024000EF8570290DF03F86662910F00387652938
:1002500010F00087672910F0FD866129AFF3008058
:1002600003681B0A28BF41F0800169290DF09C85B5
:1002700064290DF0998575290DF096856F290EF08A
:10028000978478290DF00B86E9290EF03184E42952
:100290000EF02E84F5290EF02B84EF290EF09484B5
:1002A000F8290DF00A860368DB0928BF41F08001B8
:1002B00063290EF0B28373290EF0B783E3290EF0A1
:1002C0007185F3290EF07685002070471FB510F078
:1002D000B7FE0EF0C7FC04000020002110F0EEF87D
:1002E000401C60600020002110F0D2F8E0601FBDCB
:1002F00010B510BD0EF0AEFF1146FFF7E7FF03F09B
:10030000D1F90EF0D5FF03B4FFF7F2FF03BC0EF0F6
:10031000D5FF00000020F749F74AF84B5B6E012B30
:1003200001D140F40050F54B1B6E012B01D140F080
:1003300001008B8DC3F340330BB140F000408B8D37
:10034000C3F3C03313B140F4806004E00B69012BA8
:1003500001DB40F400708B8DC3F380330BB140F0B0
:100360008040CB6AC3F340431BB9CB6AC3F340530D
:1003700023B140F0100040F0200005E00B7F03F0B7
:1003800080030BB140F4005091F8203003F01003CB
:1003900033B191F82C30C3F3C0030BB140F480406B
:1003A00091F8203003F080030BB140F400400B8C37
:1003B00003F480730BB140F480300B8C03F40073B2
:1003C0000BB140F400300B8C03F400630BB140F42C
:1003D00000200B8C03F480630BB140F4802091F873
:1003E000283003F002030BB140F08070CB6AC3F3F6
:1003F000004333B1CB68002B01DD402300E08023B4
:100400001843536F022B07D191F83C3003F00103DE
:1004100063B140F0010009E0536F032B06D191F85E
:100420003C3003F001030BB940F00100936F022B45
:1004300007D191F83C30C3F3800363B140F0020070
:1004400009E0936F032B06D191F83C30C3F380038E
:100450000BB940F00200D2F8A830012B01D140F4D2
:100460008010D2F8AC30012B01D140F4001070475D
:100470000FB42DE9F04798B09F4D21A81790BDF813
:100480008000ADF8000001208DF8040050208DF8A8
:1004900005000DF106044FF00009BDF8800040F2A0
:1004A0006642811A90427BD00EDCB0F5836F28D073
:1004B00004DC022875D0812874D1D0E0A0F2444039
:1004C00058B12028F8D1A0E01B296CD05C290DD0B0
:1004D0005F297BD0BC29EFD130E001208DF80200EC
:1004E00000208DF803004FF006091BE101208DF874
:1004F0000200824890F85C008DF803004FF0060976
:1005000010E116208DF8020000208DF803009DF800
:10051000040040F080008DF804004FF01C09012019
:100520002080288C6080686A60600020A060A86AD3
:10053000E060E86A2061288EA082F3E024208DF834
:10054000020000208DF803009DF8040040F08000B8
:100550008DF804004FF02A09012020806080E86DAA
:100560006060686EA060B5F86C00A081D5F894005A
:10057000C4F80E0098204059C4F812005E48B0F844
:10058000E000E0825C48B0F8E80060835A48D0F8A8
:10059000E4006FF00041884207D1002020830CE086
:1005A00034E09BE0A2E02FE010E05348D0F8E400F4
:1005B0004FF4167190FBF1F020830020A0830021FE
:1005C00004F11C00E18321846184ABE00E208DF8EE
:1005D000020000208DF803009DF8040040F0800028
:1005E0008DF804004FF01409012020804348C06FAB
:1005F000C4F802004148806FC4F806003F48D0F8B4
:100600008000C4F80A008DE000BF00BF394890F8B0
:100610002C00C0F3C01020B13648006B322800DD3A
:1006200080E00E208DF8020000208DF803009DF878
:10063000040040F080008DF804004FF01409012000
:1006400020802C480068C4F802002A480089E08015
:1006500000202081FFF75EFEC4F80A0062E01798D0
:1006600050F804AB1790179850F8048B1790179810
:1006700080C817902248006880452ED0B8F5004FFA
:1006800028D044208DF8020000208DF803009DF84A
:10069000040040F080008DF80400A4F800A0A4F845
:1006A0000280002603E00021201D8155761C402E8B
:1006B000F9DB002604E017F8011B201D8155761C8C
:1006C000387808B1402EF6DB4FF04A0939460DA0C4
:1006D00003F08EFE0A48C0F8008023E000208DF869
:1006E00002008DF803004FF006091BE0BDF88010F2
:1006F00014E00000CC060020A05900208C5A0020F5
:10070000380000200D0A415054206E6F74696669EC
:10071000636174696F6E3A2025730000FBA003F0DB
:1007200067FE00BF00BF00201790B9F1000F03D093
:100730004946684604F072FC18B0BDE8F0075DF861
:1007400014FB2DE9F04FABB0FD4CFE4DDFF8F893F4
:10075000FE4800881390FD48007900F07F00089063
:1007600014AEB71DDFF8E48308F106080020F0702E
:1007700001203071089870710020079040F25342B8
:100780001398811A904201F03E8064DC40F21442DA
:10079000A0EB0201904274D032DC40F21322A0EBB5
:1007A000020190426ED016DC14286CD009DC0228BD
:1007B0006AD0052869D0112868D0122841F08183B9
:1007C00063E2152879D0B0F5047F77D0A0F211202C
:1007D0000028F3D1F0E340F2F712881A91426ED06C
:1007E00007DC01296CD010296BD0B1F5FB7FE5D176
:1007F000FEE306287ED007287DD00928DED1F8E365
:100800002C2979D014DC122977D00ADC022901F0D6
:10081000CA80032901F0D7800F296FD01029CDD1CC
:10082000E8E315296BD026296AD02729C6D1FDE334
:10083000322970D006DC2D296ED02F296DD03129B8
:10084000BCD1F4E3342969D03C2900F0C5873D29A7
:10085000B4D100F0C6BF732973D03ADC612901F02E
:1008600098811EDC3F296DD011DC042901F0218024
:10087000122901F07680172901F0BF803D299DD112
:100880000BE2F5E3F5E340E30CE25CE0F5E15D2922
:1008900001F059815E2901F0658160298ED101F056
:1008A00072B96D2977D00DDC632901F08481642948
:1008B00001F0B28166298CD1FAE1F2E3F2E3F2E3CE
:1008C000F2E3D6E16E2967D070297DD071298ED1EF
:1008D00075E1A22901F0CA8121DC932901F0F0829F
:1008E0000FDC742971D0772970D078296FD07929DD
:1008F00084D1B2E1FEE3FEE3FEE3FEE3FEE3FEE3CA
:10090000FEE3942901F0BD82A02901F0C081A12954
:1009100085D101F0A2B9F4E3F4E3F4E3F4E3D029E0
:100920006FD007DCAB2901F02E82CD296AD0CE2909
:1009300086D1EAE3D1297AD0D32979D0D42987D1B5
:10094000EFE357E1A6E1062030805420B070307903
:1009500040F08000307154227D4938460DF0F9FC9A
:100960007C48B0F84400A7F850007BA0007887F8D6
:10097000420079A041784320C15577A0C178442036
:10098000C15575A001794520C15576A00079202870
:1009900003D1302003E023E08FE072A000794621EC
:1009A000C85570A041794720C1556EA001784820F4
:1009B000C1556CA041784920C1556AA081784A2070
:1009C000C15500214B2003E083E025E130E132E115
:1009D000C1550120079002206549086001F072BAF4
:1009E0005A48C0780E900E9800F001000D900E98B5
:1009F000012808D002281CD003282FD0042857D162
:100A000041E064E3FEE301205A49C8650846006EF0
:100A1000012803D10020886603F09FF95548006F34
:100A200040F40070534908670020486741E099E3AB
:100A3000B2E302204F49C8650846006E012804D180
:100A400000200866886603F088F94A48006F40F481
:100A5000007048490867002048672AE0032045499C
:100A6000C8650846006E012804D100200866886623
:100A700003F073F93F48006F40F400703D49086788
:100A80000020486715E004203A49C8650846006E12
:100A9000012804D100200866886603F05EF9354815
:100AA000006F40F40070334908670020486700E099
:100AB00000BF00BF0020079090E740F2C2403060C6
:100AC0000120B0702B4890F85C00F0700120079076
:100AD00084E7B8F800000D900D9801286AD1002035
:100AE0002449886603F039F9D8F806002149886757
:100AF000D8F80200C867D8F80A00C1F88000084694
:100B0000806F0A283DDA0A20886735E00D0A556EA5
:100B100068616E646C656420415054206E6F746926
:100B20006669636174696F6E2C2041505420636F55
:100B30006D6D616E64203D2025303458000000004A
:100B4000A0590020CC060020005D00206400002099
:100B500010020020505B002030383A32323A3338ED
:100B6000000000004665622031332032303137000A
:100B70003C5B00208C5A00200846406B40F040004F
:100B80004863F948C06F0A2807DA0A20F649C8679F
:100B90000846406B40F0400048630020F249C1F82D
:100BA0009000C1F89800C1F8A000A1F8A400A1F835
:100BB000A60000E000BF00BF002007900EE740F253
:100BC000C54030600E20B070307940F08000307148
:100BD00001203880E448C06FC7F80200E248806F07
:100BE000C7F80600E048D0F88000C7F80A000120E6
:100BF0000790F3E6DD48C0780E900E98012802D1E8
:100C0000D949C1F8A8000E98022802D1D649C1F8E6
:100C1000A80000200790E1E64FF4996030600120C1
:100C2000B070D14890F8A800F07001200790D5E688
:100C300000200790D2E6CD48C0780E900E9801288B
:100C400002D1C949A1F88C000E98022802D1C649E8
:100C5000A1F88C0000200790C0E640F2CD40306043
:100C60000120B070C04890F86000F070012007903B
:100C7000B4E64020BC494860B0E6E86A20F0800055
:100C80008030E86200202863A8E6E86A20F080004F
:100C9000E862A3E600202863A0E640F28140FFF767
:100CA000E7FB9BE60420B24908600020079095E628
:100CB000B8F8020013901398B0F5966F7ED013DC4D
:100CC00040F22642A0EB0201904278D007DCA0F26D
:100CD0001340E0B1032826D0102871D14BE014292D
:100CE00032D01A29F9D139E040F2C342811A904238
:100CF00067D007DCA0F2B34078B303284CD00D28AE
:100D0000EBD1D4E05D2976D0602959D18DE0002067
:100D1000984988619748A168C161216901624AF6D2
:100D200055214162E5E09348216A8162616AC162AE
:100D3000A16A0163E16A416300218163216BC163A0
:100D40004AF655210164D4E08A48616C4164616CC3
:100D500081644AF65521C164CBE04DE08548216DA0
:100D60000165616D4165A16C8165A16DC1654AF642
:100D700055210166BDE07F48616F4166A16F8166C4
:100D8000E16FC166D4F880100167D4F88410416720
:100D90004AF655218167ACE07748B0F87A1075487B
:100DA000C1677548C16F7348C0F880107248D0F8A9
:100DB00080107048C0F884106F4803E012E026E00D
:100DC00096E080E0B0F884106A48C0F888106A485D
:100DD000B0F886106748C0F88C104AF65521C0F864
:100DE000901086E06348E16DC0F89C104AF65521EA
:100DF000C0F8A0107DE031E05F48B0F878105D48A1
:100E0000C0F894104AF65521C0F8981071E059487E
:100E1000D4F88810C0F8CC10D4F88C10C0F8D010DA
:100E20004AF65521C0F8D41063E05448016951488E
:100E3000C0F8F010514801694E48C0F8F0104F4812
:100E400081684C48C0F8E8104C48C1684948C0F86F
:100E5000EC104AF65521C0F810114AE04548216CC3
:100E6000C0F8A410E16DC0F8A810616EC0F8AC1015
:100E7000E16EC0F8B0100021C0F8B410C0F8B8108E
:100E80003F48D0F8E0103B48C0F8BC103C48D0F8D0
:100E9000E8103848C0F8C0103948D0F8E410354898
:100EA000C0F8C4104AF65521C0F8C81021E02E48F9
:100EB000B0F85C0081B22F48A0F814114AF6552111
:100EC000C0F8181115E02848C16F2A48C0F81C1155
:100ED0002548816F2748C0F820112348D0F880109A
:100EE0002448C0F824114AF65521C0F8281100E022
:100EF00000BF00BF2348406C1E49C8604AF6552019
:100F0000086103201849486468E5D8F80000069095
:100F1000D8F804000590D8F808000490D8F80C0020
:100F20000390D8F810000290D8F8140001900698A9
:100F3000102829D00CDC0C2836D004DC02283DD047
:100F400004283AD126E00D2832D00F2835D13EE0D2
:100F500011281CD0202851D0B0F5C87F68D0A0F24D
:100F6000235050BB50E000008C5A00206400002049
:100F70003C5B0020CC5B0020E8050020080000203E
:100F8000A0590020505B002005F03DFB87E006F0F3
:100F9000F0F884E0D8F80810FE48C0F8D01001211D
:100FA000D52005F0DAF97AE0D8F80400E06276E0BE
:100FB000D8F80400A06272E06FE26FE0D8F8040095
:100FC000F549086004F0DCFC0020079067E0D8F8E1
:100FD0000410F148C0F8D8104AF65521C0F8DC10CA
:100FE00004F0CEFCEC48D0F8D800C4F8900002E041
:100FF0007CE2B7E2E8E20020079050E0059881B279
:10100000E448A0F8DC104AE0E44905980861049837
:101010004861039888600298C8600846006910B962
:10102000012002F0D4FEDD48006902E04CE35CE3FD
:1010300020E0012801D102F0CAFED84800690A2840
:1010400002D1022002F0C3FED448406910B9012049
:1010500002F08BFED1484069012801D102F085FEE3
:10106000CE4840690A2802D1022002F07EFE16E036
:1010700081E2C1E1642003F095FD72B6C8480068C2
:1010800020F48000C64908600846006820F400107B
:101090000860C448C449086002F0F8FC00BF00BF03
:1010A0009CE402E0D2E124E2BFE11620307000208F
:1010B00070702820B070307940F0800030712822A4
:1010C000BA4938460DF045F90120079086E4B8F892
:1010D0000200B2490861B8F806004861B8F8040097
:1010E0008860B8F80800C8600846006988B101281F
:1010F00013D00BE00EE212E282E2DEE152E21FE2E6
:10110000D9E2F7E289E2A2E206E316E10A2810D169
:1011100008E0012002F05BFE0CE0012002F057FE27
:1011200008E056E0022002F052FEA148A149886082
:1011300000E000BF00BF9948406920B1012806D0F7
:101140000A280CD107E0012002F00FFE08E0012080
:1011500002F00BFE04E0022002F007FE00E000BFF8
:1011600000BF3BE440F2255030601620B07030796B
:1011700040F080003071012038808848008A7880F3
:101180008648808AF88085480089B88083488089AD
:1011900038810120079021E4D8F8020086490860D0
:1011A000D8F806004860D8F80A008860D8F81A0015
:1011B000C860D8F80E000861D8F812004861D8F865
:1011C00016008861D8F81A00C861D8F81E000862B5
:1011D00004E44FF4A56030602E20B070307940F008
:1011E000800030710120BF1C27F8020C7248006893
:1011F00038607148406878606F488068B8606E48B1
:10120000C06800E01EE0B8616B480069C8F80E00D5
:1012100069484069C8F8120067488069C8F8160034
:101220006548C069C8F8160000203884BF1E002138
:1012300007F12200B984F98439857985B9850120BF
:10124000079039E4B8F80200401E2064D8F8040082
:10125000E065D8F808006066B8F80C00E066D8F8D9
:101260000E00C4F89400D8F8121098200151534889
:10127000D4F89410C0F8C010982001594F48C0F815
:10128000C4107F21E06D90FBF1F0424908674B48A4
:10129000D0F8E00012904948D0F8E4001190474897
:1012A000D0F8E8001090B8F816004449C1F8E00002
:1012B000B8F8180050B9B8F81A0038B941F270708F
:1012C000C1F8E4000220C1F8E80014E0B8F81A0000
:1012D0003A49C1F8E800B8F8180020B96FF00040AA
:1012E000C1F8E40007E0B8F818004FF4167148435D
:1012F0003249C1F8E4003148D0F8E0101298814238
:101300000BD12E48D0F8E4101198814205D12B481A
:10131000D0F8E8101098814201D0012000E00020B0
:101320000F900F9840B100202549C1F8AC00234927
:10133000D1F8E00005F050FF40E4012044F8400FF0
:1013400040F2225030602420B070307940F08000AC
:101350003071012038802088788001207880E06911
:101360007860606AB860A08DB881606D403CC7F855
:101370000E0098200059C7F812001048B0F8E0009D
:10138000F8820E48B0F8E80078830C48D0F8E40002
:1013900018E00000E8050020CC5B002008000020D9
:1013A00030380240EFBEADDEF01F0020780700208D
:1013B0001B990008BC02002084020020A0590020D4
:1013C0008C5A00206FF00041884202D100203883FF
:1013D00007E0FE48D0F8E4004FF4167190FBF1F0FE
:1013E00038830020B883002107F11C00F983398479
:1013F0007984012007900EE4F548807800F0010020
:1014000018B10120C4F8B00002E00020C4F8B00018
:10141000EF48807800F0020018B10120C4F8B40051
:1014200002E00020C4F8B40004E440F2152030606B
:101430000D9828B90020B070F0700120079004E0EA
:101440000020B070F0700120079005E4E048C078FB
:10145000012812D1E86A20F48040E862E86A20F0AE
:1014600008000830E862E86A20F4005000F50050F7
:10147000E862002006F09EFA0EE0E86A20F008001C
:10148000E862E86A20F40030E862E86A20F400507C
:10149000E862012006F08EFA09E440F21220306082
:1014A0000120B070A88DC0F3403008B1012000E0E9
:1014B0000220F0700120079026E5B8F8040044F8F7
:1014C000880FB8F802006060218808B205F037F98B
:1014D000A188883C08B205F0A3FA05F094F805F05D
:1014E00084F80121D52004F038FF0DE5D8F802A0DA
:1014F0000AE540F20B4030600620B070307940F0D1
:101500008000307101203880D5F800A0C7F802A013
:101510000790F9E4D8F802A0C5F800A0F4E440F27E
:10152000124030600620B070307940F08000307199
:1015300001203880D5F800A0C7F802A00790E3E4A6
:1015400040F22A4030600620B070307940F08000D0
:10155000307101203880FEF7DDFEC7F8020001205F
:101560000790D1E4D8F80600A060A068E060D8F841
:101570000A002061C8E440F2154030600E20B070CF
:10158000307940F080003071012038800020C7F8A9
:101590000200A068C7F806002069C7F80A00012009
:1015A0000790B1E4B8F802006067B8F80400A067DB
:1015B000D8F80600E067D8F80A00C4F88000B8F848
:1015C0000E00C4F884009FE440F2254030601020F3
:1015D000B070307940F0800030710120388034F8EC
:1015E000740F7880A088B880A068C7F80600E0680B
:1015F000C7F80A00208A743CF8810120079083E430
:10160000D8F80600A064B8F802002065B8F8040015
:101610006065D8F80A00A06576E440F24240306088
:101620000E20B070307940F0800030710120388099
:10163000B4F850007880B4F85400B880A06CC7F8B3
:101640000600A06DC7F80A00012007905CE4E86A74
:10165000C0F3404000B120E20620C9F804004FF07A
:101660008040C9F808000020C9F80C004AF2870041
:10167000E064C9F81000A06CC9F81400206DC9F826
:101680001C000020C9F81800C9F8200001202861BA
:10169000E86A20F4003000F50030E862E86A20F4DF
:1016A0000010E862E86A20F040004030E862A06C78
:1016B000C9F81400F1E1D8F802006064606C0028F9
:1016C00001DA00206064FDE340F23C403060062017
:1016D000B070307940F08000307101203880606C4B
:1016E000C7F8020001200790ECE3D8F8020039495E
:1016F0000860E7E340F2474030600620B070307980
:1017000040F0800030710120388032480068C7F80E
:10171000020001200790D5E3E86AC0F3405018B1F9
:10172000E86AC0F3404038B9E86AC0F3404020B1ED
:10173000D9F82000022800D1C4E3D5F800A024483D
:10174000007940F0800018B1D8F80200824402E02D
:101750002048006882440021504606F0E6F983469E
:10176000BBF1010F00D1ADE3E86A20F4003000F5D1
:101770000030E862E86A20F40010E862E86A20F0CD
:101780000200E8620120C9F80400C9F808A0D9F8ED
:1017900008002968884201DA606C00E00020C9F87E
:1017A0000C00A068C9F810002069C9F81400A069ED
:1017B000C9F81800E069C9F82000E86A20F01000B4
:1017C0001030E86205F05AFC7CE30000A0590020CC
:1017D0006400002000000020D8F80200FE494860A4
:1017E00070E340F2524030600620B070307940F033
:1017F0008000307101203880F7484068C7F8020047
:10180000012007905EE3E86AC0F3405018B1E86A2F
:10181000C0F3404038B9E86AC0F3404020B1D9F87D
:101820002000022800D14DE3EC48007940F0800010
:1018300010B1D8F802A002E0E748D0F804A00021D7
:10184000504606F072F98346BBF1010F00D139E32F
:10185000E86A20F4003000F50030E862E86A20F41D
:101860000010E862E86A20F00200E8620120C9F88E
:101870000400C9F808A0D9F808002968884201DAEC
:10188000606C00E00020C9F80C00A068C9F81000E6
:101890002069C9F81400A069C9F81800E069C9F8FE
:1018A0002000E86A20F010001030E86205F077FBB5
:1018B00008E3E86AC0F3405018B1E86AC0F340405A
:1018C00038B9E86AC0F3404020B1D9F820000228B6
:1018D00000D1F7E22069C9F81400D9F814000C907F
:1018E00000200C9906F021F98346BBF1010F00D1CD
:1018F000E8E2E86A20F4003000F50030E862E86AC7
:1019000020F40010E862E86A20F00200E862206932
:10191000C9F814000120C9F80400C9F808A0002083
:10192000C9F80C00A068C9F810002069C9F81400B3
:10193000A069C9F81800E069C9F82000E86A20F039
:101940001000E862A548C078012802D105F0D1FB5B
:1019500006E0D9F814004042C9F8140005F0C9FBAC
:10196000B0E29E48C078012802D104F00AFE01E0EE
:1019700004F007FEE86A20F01000E862E86A20F050
:1019800020002030E8620520C9F8040028690D28ED
:1019900002D12869286101E00020286100209049D7
:1019A0008862C8628EE2B8F802002062D8F80400AB
:1019B0006062D8F80C00A062D8F81000E062B8F8B5
:1019C000140020637EE24FF4836030601620B07014
:1019D000307940F08000307101203880208C788090
:1019E000606A78600020B860A06AF860E06A3861D8
:1019F000208EB8820120079064E2E86AC0F340506C
:101A000018B1E86AC0F3404038B9E86AC0F3404012
:101A100020B1D9F82000022800D153E2E86A20F46E
:101A2000003000F50030E862E86A20F40010E86257
:101A3000E86A20F4803000F58030E862E86A20F03F
:101A40000200E8620120C9F804000020C9F80C0077
:101A5000A06AC9F81000E06AC9F81400A069C9F8C2
:101A60001800E069C9F82000206A012832D1E06A34
:101A7000C9F81400D9F814000C905848C07801280F
:101A800010D100200C9906F050F88346BBF1010FED
:101A900004D1E86A20F40030E86213E2032005F084
:101AA000F1F912E00C9840420C9000200C9906F0DD
:101AB0003CF88346BBF1010F04D1E86A20F4003002
:101AC000E862FFE1052005F0DDF9E86A20F010008A
:101AD000E86237E04148C078012817D12868616A78
:101AE0000844C9F80800D9F808A00021504606F0BB
:101AF0001CF88346BBF1010F04D1E86A20F40030E2
:101B0000E862DFE1042005F0BDF916E02868616AAB
:101B1000401AC9F80800D9F808A00021504606F07C
:101B200004F88346BBF1010F04D1E86A20F40030C9
:101B3000E862C7E1062005F0A5F9E86A20F0100088
:101B40001030E862BEE1D8F804002649C8660846AD
:101B5000C06E0B900B98C11700EBD1514912214A6E
:101B60001167AFE140F2B24030601A20B0703079B6
:101B700040F080003071012038801A48C06E7860D3
:101B8000012007909EE1B8F802001649A1F87800FC
:101B900098E140F2B54030600420B070307940F0F8
:101BA00080003071012038800E48B0F878007880CD
:101BB0000120079086E10B48B0F87A000A90B8F847
:101BC00002000849A1F87A000846B0F87A100A988D
:101BD00081420CD0032007E00000002064000020B8
:101BE00008000020E8050020F949C1F89800B8F87D
:101BF0000200F749A1F87A00D8F80400C867D8F8BD
:101C00000800C1F88000B8F80C00A1F88400B8F80A
:101C10000E00A1F8860055E14FF497603060102067
:101C2000B070307940F08000307101203880E84891
:101C3000B0F87A007880E648C06F7860E448D0F861
:101C40008000B860E248B0F88400B881E048B0F89D
:101C50008600F8810120079034E1B8F80200DC49E1
:101C600008840121882004F078FB2BE140F2F64043
:101C700030600420B070307940F080003071012075
:101C80003880D348008C7880012007901AE100202A
:101C9000D049886143F6A321CE48C161CE49016293
:101CA0004AF65521416202218162CC49C16241F666
:101CB00052510163CA494163002181630221C1631A
:101CC0004AF655210164C549416481644AF65521AB
:101CD000C1640221016501214165C24981654FF45A
:101CE0004821C1654AF65521016602214166816697
:101CF0000021C1660167012141674AF655218167CC
:101D0000B348B0F87A10B348C167B148C16FB14861
:101D1000C0F88010AE48D0F88010AE48C0F88410EB
:101D2000AB48B0F88410AB48C0F88810A848B0F8A9
:101D30008610A848C0F88C104AF65521C0F89010BB
:101D4000A348C16EA348C0F89C104AF65521C0F8BC
:101D5000A0109F48B0F878109E48C0F894104AF63A
:101D60005521C0F898101E21C0F8CC100521C0F8EC
:101D7000D0104AF65521C0F8D4109B4895494860C8
:101D800003F0FEFD9EE099488078202804D1914917
:101D9000C8600020286473E094488078212804D12A
:101DA0008C49C860002028646AE090488078222826
:101DB00004D18849C8600020286461E08B4880789D
:101DC000302804D18349C8600020286458E087483F
:101DD0008078312804D17F49C860002028644FE012
:101DE00082488078322804D17A49C860002028646B
:101DF00046E07E488078402804D17649C8600020BB
:101E000028643DE079488078412804D17149C86050
:101E10000020286434E075488078422804D16D4958
:101E2000C860002028642BE070488078502804D1D6
:101E30006849C8600120286422E06C4880785128F5
:101E400004D16449C8600120286419E0674880789B
:101E5000702804D15F49C8600120286410E06348FD
:101E60008078712804D15B49C8600020286407E0AD
:101E70005E488078752803D15649C86000202864E0
:101E800020E04FF49D6030601420B070307940F055
:101E9000800030710120BF1C27F8020CE06D386013
:101EA000206E7860606EB860A06EF860BF1EE06E55
:101EB00008B1022000E0012078820120079001E0B3
:101EC00000E000BF00BF079870B19DF8540000F01B
:101ED000800018B19DF85200801D00E00620099096
:101EE00014A8099903F09AF82BB0BDE8F08F10B54B
:101EF0000446032C0AD105F01DFA3B4835494860D9
:101F000003F03EFD05F0F9FA022402E00220384910
:101F1000486410BD10B5044672B6012C04D0022CE2
:101F200006D0032C0CD107E0002005F07CFD07E073
:101F3000012005F078FD03E0012005F074FD00BFED
:101F400000BF2B48048062B610BD70B5274EB61D89
:101F5000B01FC08885B2012D06D0052D0BD0072DEE
:101F600003D00D2D08D105E007E074882046FFF767
:101F7000D1FF02E001E000E000BF00BF70BD10B57E
:101F8000014600200023194CA2780F2A37D2DFE83F
:101F900002F03608360D3610361236183631363322
:101FA0000A0008202CE01E200A8029E00C200A806C
:101FB00026E0122024E004200A800D4C24884C8066
:101FC0001EE0062000230A80C1F8023018E000005D
:101FD000E8050020CC5B0020C0445E0455150200DB
:101FE00060222F02FC7A4F010300010064000020F0
:101FF0008C5A0020082003E006200A8000E000BF81
:1020000000BF10BDFD48FE49C26DC1F89C204AF6D4
:102010005522C1F8A020026CC1F8A420C26DC1F8FD
:10202000A820426EC1F8AC20C26EC1F8B0200146B3
:10203000D1F8C020F249C1F8B4200146D1F8C4203B
:10204000EF49C1F8B8200146D1F8E020EC49C1F8C9
:10205000BC200146D1F8E820E949C1F8C02001467A
:10206000D1F8E420E649C1F8C4204AF65522C1F867
:10207000C820E449B1F87820E149C1F894204AF633
:102080005522C1F89820D0F88820C1F8CC20D0F88B
:102090008C20C1F8D0204AF65522C1F8D420DA4964
:1020A0000A68D749C1F8E020D7494A68D449C1F83D
:1020B000E420D5498A68D249C1F8E820D249CA68E3
:1020C000CF49C1F8EC20D0490A69CD49C1F8F020C8
:1020D000CD490A69CA49C1F8F020CB498A69C84983
:1020E000C1F8F820C849CA69C549C1F8FC20C649E9
:1020F0000A6AC349C1F80021C3494A6AC049C1F804
:102100000421C1498A6ABE49C1F80821BE49CA6A88
:10211000BB49C1F80C214AF65522C1F81021BB4930
:10212000B1F85C108AB2B649A1F814214AF65522DA
:10213000C1F81821B549CA6FB149C1F81C21B3498A
:102140008A6FAF49C1F82021B049D1F88020AC494D
:10215000C1F824214AF65522C1F82821704710B54C
:10216000A64CA748006E4AF6552188420BD1A448D8
:10217000006D2065A248406D6065A148806DA06437
:102180009F48C06DA0659E48D0F810014AF65521C1
:10219000884230D19A48D0F8E0009B4908609848BE
:1021A000D0F8E40048609648D0F8E8008860944889
:1021B000D0F8EC00C8609248D0F8F0000861904870
:1021C000D0F8F00008618E48D0F8F80088618C489B
:1021D000D0F8FC00C8618A48D0F80001086288483D
:1021E000D0F8040148628648D0F808018862844823
:1021F000D0F80C01C8628248D0F8C8004AF65521D0
:10220000884213D17E48D0F8BC007C49C1F8E00078
:102210007B48D0F8C000C1F8E8007948D0F8C40085
:10222000C1F8E400D1F8E00004F0D6FF7348D0F81C
:10223000E000002804DB7148D0F8E000642807DDE6
:102240000A206E49C1F8E000D1F8E00004F0C4FFB4
:102250006A48D0F8E4006E49884205DC6748D0F847
:10226000E400B0F5167F04DA41F270706349C1F8FA
:10227000E4006248D0F8E800002804DB5F48D0F8AA
:10228000E000642803DD02205C49C1F8E8005C48F6
:10229000D0F818014AF65521884204D15848B0F8C0
:1022A00014015A49C8655648D0F828014AF6552104
:1022B00088420DD15248D0F81C015449C867504893
:1022C000D0F8200188674E48D0F82401C1F880007A
:1022D0004B48D0F810014AF65521884210D14848A1
:1022E000D0F8E800484988604548D0F8EC00C8605C
:1022F0004348D0F8F00008614148D0F8F000086188
:102300004148006920B1012806D00A280FD107E012
:10231000012001F05CFD0BE0012001F058FD07E019
:10232000022001F054FD3B483B49886000E000BFBB
:1023300000BF3548406920B1012806D00A280CD1D9
:1023400007E0012001F011FD08E0012001F00DFD82
:1023500004E0022001F009FD00E000BF00BF10BD55
:1023600070B5264C00234FF49A721946244803F0A6
:102370005DFA06462248406A4AF65521884205D150
:102380001F48C069A0601E48006A20611C48006C9C
:102390004AF6552188420ED11948806A20621848B1
:1023A000C06A60621648006BA0621548406BE0622C
:1023B0001348C06B20631248C06C4AF6552188420E
:1023C00005D10F48406C60640D48806C60640C4817
:1023D000006E4AF6552188420BD10948006D2065F0
:1023E0000748406D60650648806DA0640448C06D74
:1023F000A0650348806F4AF655210FE0A0590020E0
:10240000CC5B0020E8050020080000208C5A00204A
:10241000006504001B990008BC020020884210D10E
:10242000FD48406E6067FC48806EA067FA48C06E49
:10243000E067F948006FC4F88000F748406FC4F8BF
:102440008400F548D0F890004AF65521884218D10A
:10245000F148B0F87C00F149A1F87A00EE48D0F8D4
:102460008000C867EC48D0F88400C1F88000EA48D2
:10247000B0F88800A1F88400E748B0F88C00A1F813
:102480008600E548D0F8A0004AF65521884203D1DD
:10249000E148D0F89C00E065DF48D0F898004AF6A3
:1024A0005521884203D10120DC49A1F87800DA489F
:1024B000D0F8D4004AF65521884209D1D648D0F840
:1024C000CC00C4F88800D448D0F8D000C4F88C0000
:1024D000D148D0F8DC004AF65521884204D1CE48D4
:1024E000D0F8D800C4F89000CB48D0F810014AF6D4
:1024F0005521884230D1C848D0F8E000C84908606A
:10250000C548D0F8E4004860C348D0F8E8008860C7
:10251000C148D0F8EC00C860BF48D0F8F0000861AE
:10252000BD48D0F8F0000861BB48D0F8F8008861D9
:10253000B948D0F8FC00C861B748D0F8000108627B
:10254000B548D0F804014862B348D0F80801886261
:10255000B148D0F80C01C862AF48D0F8C8004AF6BC
:10256000552188423BD1AC48D0F8A4002064AA4849
:10257000D0F8A800E065AB49E06D0969884202DD4A
:10258000A8480069E065A448D0F8AC006066A2489D
:10259000D0F8B000E066A048D0F8B410A248C0F867
:1025A000C0109D48D0F8B8109F48C0F8C4109A4891
:1025B000D0F8A8007F2190FBF1F098490867964871
:1025C000D0F8BC009849C1F8E0009348D0F8C000AA
:1025D000C1F8E8009048D0F8C400C1F8E4008E4883
:1025E000D0F818014AF65521884204D18A48B0F83B
:1025F00014018E49C8658848D0F828014AF655214B
:1026000088420DD18448D0F81C018849C8678248A7
:10261000D0F8200188678048D0F82401C1F88000F4
:102620007D4800694AF65521884201D17A48C5683B
:102630007FA181480BF04AFE70BD70B504467F480B
:10264000006805287BD2DFE800F00308155E6E0005
:1026500014B901207949086071E079A001F0C8FE41
:10266000FFF7D0FC02F0C5F97A49088002207349CF
:10267000086064E01CB100207049086042E002F08C
:10268000B8F9054673480188284602F0AEF9B0F55E
:10269000FA6F37DD012005F024F804F04BFE01202D
:1026A00002F080FA4AF655205B49086103F068F9A8
:1026B000022002F077FA04F020FF022002F072FA02
:1026C00065A001F095FE0220FDF7D2FE03206549CA
:1026D00008600220644948610846C06A20F0100082
:1026E000C8620846C06A20F02000C86205205D4923
:1026F00048605D48C06A20F080005B49C8620320E2
:102700004E4908601BE002F074F905465148018803
:10271000284602F06AF940F6B831884202DD04200A
:10272000464908600BE04FF4003050490860400112
:1027300008604FF4FA7002F035FA01F0A7F900BF13
:102740003E48006870BD10B52DED048B0446412C49
:102750005CD011DC302C5AD007DC202C58D0212C36
:1027600057D0222C40F02E8794E1312C52D0322CBD
:1027700051D0402CF6D17FE3702C7BD006DC422C6C
:1027800079D0502C78D0512CECD1FDE3752C00F091
:102790008286852CE6D13648006822490860344894
:1027A000406848603248806888603148C068C860C6
:1027B0002F48006908612E48406948612C488069AB
:1027C00088612B48C069C8612948006A08622848A6
:1027D000406A48622648806A88622548C06AC862A2
:1027E0002348006B08632248406B48632048806B95
:1027F00088631F48C06BC8631D48006C08641C4890
:10280000406C48641A48806C886436E0ABE3B8E1F9
:1028100052E0C8E042E2B8E2CC5B0020E8050020CC
:102820000800002010070020A05900208C5A00202A
:102830004B5343313031000014020020400000208F
:102840000D0A506F776572696E6720646F776E2E20
:102850002E2E00003C000020676F6F646279650DCA
:102860000A000000005D0020CC060020180802408D
:10287000A0150108F0E3F0E3F0E3FD48C06CC86484
:10288000FB48006D0865FA48406D4865F84890EDD2
:10289000190A084680ED190A0320F6490864F6482B
:1028A00000694863F44840684861B7EE000A08468A
:1028B00080ED060A00F086BEF0480068EE49086028
:1028C000EE4840684860ED4880688860EB48C06822
:1028D000C860EA4800690861E84840694861E7481B
:1028E00080698861E548C069C861E448006A086297
:1028F000E248406A4862E148806A8862DF48C06A0C
:10290000C862DE48006B0863DC48406B4863DB4804
:10291000806B8863D948C06BC863D848006C086472
:10292000D648406C4864D548806C8864D348C06CF5
:10293000C864D248006D0865D048406D4865CF48EE
:1029400090ED190A084680ED190A0120C94908646A
:10295000C94800694863084690ED0D0AB8EEC00A00
:1029600010EE101A08460EF0F3FA41EC190B9FED29
:10297000C40B53EC102B0DF09DFE41EC180B0DF029
:10298000BFFDBC498866BC4840684861BA4890EDC4
:10299000010AB8EEC00AD0ED190A80EE201A0846E6
:1029A00080ED061A86E7B8480068B3490860B64863
:1029B00040684860B44880688860B348C068C860B0
:1029C000B14800690861B04840694861AE48806913
:1029D0008861AD48C069C861AB48006A0862AA480E
:1029E000406A4862A848806A8862A748C06AC8628C
:1029F000A548006B0863A448406B4863A248806BFD
:102A00008863A148C06BC8639F48006C08649E48F7
:102A1000406C48649C48806C88649B48C06CC86467
:102A20009948006D08659848406D4865964890ED56
:102A3000190A084680ED190A01208E4908648E485B
:102A400000694863084690ED0D0AB8EEC00A10EE22
:102A5000101A08460EF07CFA41EC190B9FED880B1A
:102A600053EC102B0DF026FE41EC180B0DF048FD39
:102A7000804988668048406848617F4890ED010A37
:102A8000B8EEC00AD0ED190A80EE201A084680ED93
:102A9000061A0FE77D480068774908607B48406860
:102AA00048607A48806888607848C068C86077481D
:102AB00000690861754840694861744880698861A7
:102AC0007248C069C8617148006A08626F48406A0C
:102AD00048626E48806A88626C48C06AC8626B4807
:102AE000006B08636948406B48636848806B886383
:102AF0006648C06BC8636548006C08646348406CF6
:102B000048646248806C88646048C06CC8645F48F0
:102B1000006D08655D48406D48655C4890ED190A98
:102B2000084680ED190A012052490864524800699C
:102B30004863084690ED0D0AB8EEC00A10EE101A70
:102B400008460EF005FA41EC190B9FED4D0B53ECC6
:102B5000102B0DF0AFFD41EC180B0DF0D1FC4549E9
:102B60008866454840684861434890ED010AB8EEE0
:102B7000C00AD0ED190A80EE201A084680ED061A28
:102B800098E6434800683C4908604148406848600E
:102B90003F48806888603E48C068C8603C4800691B
:102BA00008613B4840694861394880698861384814
:102BB000C069C8613648006A08623548406A4862A0
:102BC0003348806A88623248C06AC8623048006B05
:102BD00008632F48406B48632D48806B88632C48FE
:102BE000C06BC8632A48006C08642948406C48647C
:102BF0002748806C88642648C06CC8642448006DEF
:102C000008652348406D4865214890ED190A08463B
:102C100080ED190A012017490864174800694863C4
:102C2000084690ED0D0AB8EEC00A10EE101A0846DC
:102C30000EF08EF941EC190B9FED160B53EC102B97
:102C40000DF038FD41EC180B0DF05AFC094988666F
:102C5000094840684861084890ED010AB8EEC00A8A
:102C6000D0ED190A80EE201A084680ED061A21E6FA
:102C7000A0150108505B0020100700205810010823
:102C8000EC51B81E85E7B741C010010828110108B2
:102C900090110108000000860FB59941FE480068B8
:102CA000FE490860FC4840684860FB4880688860CE
:102CB000F948C068C860F84800690861F64840698A
:102CC0004861F54880698861F348C069C861F24885
:102CD000006A0862F048406A4862EF48806A886289
:102CE000ED48C06AC862EC48006B0863EA48406B74
:102CF0004863E948806B8863E748C06BC863E6486F
:102D0000006C0864E448406C4864E348806C886464
:102D1000E148C06CC864E048006D0865DE48406D5D
:102D20004865DD4890ED190A084680ED190A012032
:102D3000DB490864D94800694863084690ED0D0AEC
:102D4000B8EEC00A10EE101A08460EF001F941EC78
:102D5000190B1FED300B53EC102B0DF0ABFC41ECBD
:102D6000180B0DF0CDFBCE498866CC484068486111
:102D7000CA4890ED010AB8EEC00AD0ED190A80EEFB
:102D8000201A084680ED061A94E5C6480068C34933
:102D90000860C44840684860C24880688860C1488C
:102DA000C068C860BF4800690861BE4840694861A2
:102DB000BC4880698861BB48C069C861B948006A7D
:102DC0000862B848406A4862B648806A8862B54876
:102DD000C06AC862B348006B0863B248406B48637E
:102DE000B048806B8863AF48C06BC863AD48006C67
:102DF0000864AC48406C4864AA48806C8864A94860
:102E0000C06CC864A748006D0865A648406D486559
:102E1000A44890ED190A084680ED190A0120A0493E
:102E200008649E4800694863084690ED0D0AB8EEB4
:102E3000C00A10EE101A08460EF08AF841EC190B81
:102E40001FED6C0B53EC102B0DF034FC41EC180B08
:102E50000DF056FB924988669048406848618F485B
:102E600090ED010AB8EEC00AD0ED190A80EE201AE2
:102E7000084680ED061AA5E38B480068874908607C
:102E80008948406848608848806888608648C0688B
:102E9000C860854800690861834840694861824884
:102EA000006A08628048806988617F48C069C8619B
:102EB0007D48406A48627C48806A88627A48C06A75
:102EC000C8627948006B08637748406B486376486E
:102ED000806B88637448C06BC8637348006C086477
:102EE0007148406C48647048806C88646E48C06C5F
:102EF000C8646D48006D08656B48406D48656A4858
:102F000090ED190A084680ED190A01206449086409
:102F1000624800694863084690ED0D0AB8EEC00AA1
:102F200010EE101A08460EF013F841EC190B9FED45
:102F30005F0B53EC102B0DF0BDFB41EC180B0DF0AB
:102F4000DFFA57498866554840684861534890ED14
:102F5000010AB8EEC00AD0ED190A80EE201A084620
:102F600080ED061A2EE3534800684C49086051482A
:102F7000406848604F48806888604E48C068C860B4
:102F80004C480069086100E07CE14A4840694861BA
:102F90004848806988614748C069C8614548006AF7
:102FA00008624448406A48624248806A88624148F0
:102FB000C06AC8623F48006B08633E48406B486384
:102FC0003C48806B88633B48C06BC8633948006CE1
:102FD00008643848406C48643648806C88643548DA
:102FE000C06CC8643348006D08653248406D486560
:102FF000304890ED190A084680ED190A0120284949
:103000000864264800694863084690ED0D0AB8EE4A
:10301000C00A10EE101A08460DF09AFF41EC190B89
:103020009FED220B53EC102B0DF044FB41EC180BE1
:103030000DF066FA1A4988661848406848611748D2
:1030400090ED010AB8EEC00AD0ED190A80EE201A00
:10305000084680ED061AB5E29DE100E089E01648D9
:1030600000680E490860144840684860124880684B
:1030700088601148C068C8600F48006908610E4840
:10308000406948610C48806988610B48C069C86123
:103090000948006A086211E0F811010810070020D1
:1030A000505B002060120108C8120108CDCCCC543E
:1030B00055F59B413013010898130108FE48406AFA
:1030C0004862FD48806A8862FB48C06AC862FA4864
:1030D000006B0863F848406B4863F748806B88636F
:1030E000F548C06BC863F448006C0864F248406C53
:1030F0004864F148806C8864EF48C06CC864EE484E
:10310000006D0865EC48406D4865EB4890ED190A84
:10311000084680ED190A0120E8490864E84800697A
:103120004863084690ED0D0AB8EEC00A10EE101A7A
:1031300008460DF00DFF41EC190B1FED240B53EC6D
:10314000102B0DF0B7FA41EC180B0DF0D9F9DB4953
:103150008866DB4840684861D94890ED010AB8EEBE
:10316000C00AD0ED190A80EE201A084680ED061A32
:1031700028E2D4480068D2490860D24840684860D4
:10318000D04880688860CF48C068C860CD48006972
:103190000861CC4840694861CA4880698861C9486B
:1031A000C069C861C748006A0862C648406A486288
:1031B000C448806A8862C348C06AC862C148006B5C
:1031C0000863C048406B4863BE48806B8863BD4855
:1031D000C06BC863BB48006C0864BA48406C486464
:1031E000B848806C8864B748C06CC864B548006D46
:1031F0000865B448406D4865B248806D8865B1483F
:10320000C06DC865AF48006E0866AE4890ED190AFB
:10321000084680ED190A0120A8490864A8480069F9
:103220004863084690ED0D0AB8EEC00A10EE101A79
:1032300008460DF08DFE41EC190B9FEDA30B53ECEE
:10324000102B0DF037FA41EC180B0DF059F99B4992
:103250008866084690ED1A0ADFED9D0A80EE201A76
:1032600080ED1A1A964840684861954890ED010A29
:10327000B8EEC00AD0ED190A80EE201A084680ED9B
:10328000061A9FE1934800688D490860914840689C
:1032900048609048806888608E48C068C8608D48E3
:1032A000006908618B48406948618A488069886183
:1032B0008848C069C8618748006A08628548406AD2
:1032C00048628448806A88628248C06AC8628148CD
:1032D000006B08637F48406B48637E48806B88635F
:1032E0007C48C06BC8637B48006C08647948406CBC
:1032F00048647848806C88647648C06CC8647548B7
:10330000006D08657348406D48657248806D88653A
:103310007048C06DC8656F48006E08666D4890EDD6
:10332000190A084680ED190A0120644908646448B6
:1033300000694863084690ED0D0AB8EEC00A10EE29
:10334000101A08460DF004FE41EC190B9FED5E0BC0
:1033500053EC102B0DF0AEF941EC180B0DF0D0F83A
:1033600056498866084690ED1A0ADFED590A80EE44
:10337000201A80ED1A1A524840684861504890ED72
:10338000010AB8EEC00AD0ED190A80EE201A0846EC
:1033900080ED061A16E150480068494908604E4819
:1033A000406848604C48806888604B48C068C86086
:1033B0004948006908614848406948614648806951
:1033C00088614548C069C8614348006A086242484C
:1033D000406A48624048806A88623F48C06AC86262
:1033E0003D48006B08633C48406B48633A48806B3B
:1033F00088633948C06BC8633748006C0864364836
:10340000406C48643448806C88643348C06CC8643D
:103410003148006D08653048406D48652E4890ED94
:10342000190A084680ED190A022024490864244834
:1034300000694863084690ED0D0AB8EEC00A10EE28
:10344000101A08460DF084FD41EC190B9FED1E0B80
:1034500053EC102B0DF02EF941EC180B0DF050F839
:1034600016498866084690ED1A0ADFED190A80EEC3
:10347000201A80ED1A1A124840684861104890EDF1
:10348000010AB8EEC00AD0ED190A80EE201A0846EB
:1034900080ED061A96E011480068094908600F4857
:1034A000406848600D48806888600C48C068C86003
:1034B0000A480069086113E098130108505B002076
:1034C00010070020D0140108D7A3703D0AD74A4046
:1034D0000000C848381501080014010868140108E4
:1034E000F94840694861F84880698861F648C069D0
:1034F000C861F548006A0862F348406A4862F248C9
:10350000806A8862F048C06AC862EF48006B08634E
:10351000ED48406B4863EC48806B8863EA48C06BB9
:10352000C863E948006C0864E748406C4864E648B2
:10353000806C8864E448C06CC864E348006D08652A
:10354000E148406D4865E04890ED190A084680ED75
:10355000190A0220DD490864DD480069486308460D
:1035600090ED0D0AB8EEC00A10EE101A08460DF0E4
:10357000EFFC41EC190B1FED2C0B53EC102B0DF055
:1035800099F841EC180B0CF0BBFFD049886608464F
:1035900090ED1A0ACE48D0ED190A80EE201A08469E
:1035A00080ED1A1ACA4840684861C94890ED010A7E
:1035B000B8EEC00AD0ED190A80EE201A084680ED58
:1035C000061A00BF00BFBDEC048B10BD0146C14A06
:1035D000D268402A3CD00EDC302A2AD006DC202AD1
:1035E00018D0212A1BD0222A55D11DE0312A25D0FE
:1035F000322A50D127E0512A3ED006DC412A2CD075
:10360000422A2FD0502A46D131E0702A39D0752A6B
:1036100041D13BE000202022AC4B5A6440E0012025
:103620002122AA4B5A643BE002202222A74B5A6473
:1036300036E003203022A54B5A6431E004203122C9
:10364000A24B5A642CE005203222A04B5A6427E09A
:10365000062040229D4B5A6422E0072041229B4BCA
:103660005A641DE008204222984B5A6418E0092051
:103670005022964B5A6413E00A205122934B5A640D
:103680000EE00B207022914B5A6409E00C20752249
:103690008E4B5A6404E0002020228C4B5A6400BFF9
:1036A00000BF704700BF00BF00BF00BF00BF00BF2A
:1036B000894E00BF00BF0DF0C3FC00F0B4FB022038
:1036C0008649086001F07CF9642001F079FA01F084
:1036D0009BF901F0BCF906F061FC00F047FF00F037
:1036E00005FA04F0C5FF04F0B0FF40207B490860F4
:1036F00006F090FF642006F06CFF06F0D9FD642010
:1037000006F00BFE06F02BFE03F014FEFEF728FE7B
:1037100062B6642001F046FA03F0EFFE642001F087
:1037200041FA0AF0F3F800200AF067F90AF00AF803
:103730006B4808F039FE4FF420700AF025F9642038
:1037400001F030FA0A2008F058FA6648D0F80E2046
:1037500065A14FF4FA6008F03DF801F04AF98520C0
:10376000FEF7F1FF02F0F2F9FEF7F9FC8DE101F04E
:1037700007FC0446902C02D162A000F05AFE684873
:10378000D0F80001012805D1FCF7DBFF02206449D5
:10379000C1F8000101F057FC01F02AFA002877D0A7
:1037A000604890F82C00C0F3C01018B140F281407E
:1037B000FCF75EFE5C4800680A2808DA04205B49D2
:1037C000086059480068401C5749086014E0564892
:1037D00000680A280DDB54480068142809DA4FF401
:1037E00080205249086050480068401C4E490860DB
:1037F00002E000204C49086003F0C2FF4C49C86158
:10380000364808380068012121EA50204849C8623A
:10381000C86A06F0C2FF464948620846406A78B165
:103820000846006E012804D100200866886600F072
:1038300094FA00203E49A1F88A000320A1F88800EC
:103840003B4B9B6A0BB1012300E000231A46384B27
:10385000D969586A343307F0DCF835490863086BD6
:1038600007F0CAFB33480069012121EA10203049E2
:103870004865486DFEF7E1FE2D4988620846006BF9
:10388000002874D10846406B002870D00125A6E0BE
:10389000E1E02748406B2840202876D008DC01284A
:1038A00067D0022848D0082864D0102879D16BE06E
:1038B00040284AD0802869D0B0F5807F4ED0B0F53E
:1038C000007F6ED157E0000068140108505B0020B3
:1038D00010070020CC5B0020005D0020180802408B
:1038E000702601081002002054686F726C616273C8
:1038F000204B53433130310A5377526576202530BF
:1039000036580000496E76616C696420415054203D
:103910006D65737361676520666F726D61742E00EB
:1039200064000020CC06002044000020180402405F
:103930008C5A0020000002405C480068022803D135
:1039400040F2C240FCF794FD47E058480068022866
:1039500003D140F2C540FCF78BFD3EE053480068C0
:10396000022803D14FF48360FCF782FD35E03DE08F
:103970000BE017E000BF4D480068022803D140F279
:103980002250FCF775FD28E027E026E04849486C06
:10399000FEF7D9FE02F0DAF84548406C4549C860A8
:1039A0001BE019E04448406E01280CD14248806E6B
:1039B00010B9002000F0D1F93F48806E01280AD1EB
:1039C00000F0CBF907E03D48D0F80E203CA14FF4C1
:1039D000FA6007F0FFFE00E000BF00BF6D00002DA1
:1039E0007FF457AF00203449486300BF3248806AF3
:1039F000012821D10220FCF73BFD0621032004F021
:103A000052FB2D49A1F888000020A1F88A008866A1
:103A100000F0A3F9052070603148C06A20F0100062
:103A20002F49C8620846C06A20F02000C8620846D4
:103A3000C06A20F08000C8621F48406800280DDD81
:103A40001D4801794068401E1B4A506001F0040087
:103A500010B108F09FFA01E008F0A1FA04F0D6FADC
:103A60001548006B08B904F07CFB00F04BFC1249D0
:103A700048660020086403F0CCFB0F48006C012866
:103A800003D10D49486CFEF732FA70E6BFF34F8F51
:103A90001448006800F4E06013490843001D114910
:103AA0000860BFF34F8F00BFFEE700003C5B0020C3
:103AB000505B0020CC5B00208C5A002010020020BC
:103AC000456E61626C65204B6579537769746368F4
:103AD0000A20746F206F70657261746500000000C9
:103AE000CC0600200CED00E00000FA05864A1268C2
:103AF00042F48022844B1A60834A103A1268834B46
:103B00001A43814B103B1A60814A126822F48012DA
:103B10007F4B1A601A46126842F400121A601A1D8E
:103B2000126822F480621B1D1A60794A0C321268F6
:103B300022F44012764B0C331A601A1F126822F4DA
:103B400040121B1F1A60724A526A22F4706242F4D9
:103B5000E0636F4A5362126822F480026C4B1A6071
:103B60001A46126842F400021A60694A0C3212685E
:103B700022F44002664B0C331A60654A526A22F402
:103B8000704242F4E043624A53626249881040F254
:103B90006D12614B1A8000225F4B08331A801B1D87
:103BA0001A805D4A121D128842F400525A4B1B1DA6
:103BB0001A80594A0C32128842F0C002564B0C331C
:103BC0001A80564A926D22F00102544B9A6500E029
:103BD00000BF524A926D02F00102002AF8D14F4A0A
:103BE000926D22F060624D4B9A651A46926D42F0DA
:103BF00000629A651A46926D42F488629A65464A56
:103C0000121F1A660022DA651A46926A22F0010231
:103C10009A6200E000BF414A926A02F00102002A63
:103C2000F8D13E4A926A22F060623C4B9A621A4690
:103C3000926A42F000629A621A46926A42F4A06264
:103C40009A62354A121F1A63354A5A631A15DA62A4
:103C5000314A083A128822F040022F4B083B1A8062
:103C60002D4A121D128842F00C022B4B1B1D1A808C
:103C70002A4A926A42F00102284B9A627047274909
:103C8000C96AC1F58061274A1268914202D14FF694
:103C9000FF700FE023490A680968491C214B19602D
:103CA0001F49885C19460968B1F5806F02D100216F
:103CB0001A4611607047194A926D22F00102174BA3
:103CC0009A6500E000BF154A926D02F00102002AD9
:103CD000F8D1124A5066D1650F4A083A128822F08C
:103CE00040020D4B083B1A804FF000620B4B9A606C
:103CF0001A46926D42F001029A65704706480838EC
:103D0000008800F040007047403802400200200068
:103D100000040240007A030A0848004000600240A4
:103D2000A00700204800002010B14FF4004101E03E
:103D30004FF00041FE4A1160704708B1042101E0D4
:103D40004FF48021FB4A1160704708B1082101E05F
:103D50004FF40021F84A9161704708B1202101E039
:103D60004FF40011F44A91617047012800D102E03C
:103D7000022800D1002008B1042101E04FF4802185
:103D8000EE4A116068B9EA491839096841F004013E
:103D9000E74A183A11601146096821F008011160DC
:103DA00014E0E3491839096821F00C01E04A183A97
:103DB0001160DF490C39096821F00401DC4A0C3A32
:103DC00011601146096821F008011160704701284F
:103DD00000D102E0022800D1002010B14FF40041D0
:103DE00001E04FF00041D54A116058B9D249096845
:103DF00041F00401D04A11601146096821F0080120
:103E000011600FE0CC49096821F00C01CA4A116029
:103E10001146C96821F00401D1601146C96821F03A
:103E20000801D1607047C648006840F00100C449ED
:103E30000860C148006820F00300BF4908600846D8
:103E4000C06820F00100C8600846C06820F0020089
:103E5000C8600846006820F00C0008600846C0688A
:103E600020F00400C8600846C06820F00800C86060
:103E70000846006840F0500008600846006820F0DE
:103E8000A00008600846006820F4407008600846FA
:103E9000C06820F48070C8600846C06820F40070D4
:103EA000C8600846006840F4806008600846006802
:103EB00020F4006008600846006820F44050086064
:103EC0000846C06820F48050C8600846C06820F4E6
:103ED0000050C8600846006820F44040086008466A
:103EE000C06820F48040C8600846C06820F40040E4
:103EF000C8600846006820F4403008600846C06882
:103F000020F48030C8600846C06820F40030C860E3
:103F10000846006820F0404008600846C06820F06D
:103F20008040C8600846C06820F00040C8608448EF
:103F3000006840F00200824908607D481838006837
:103F400040F011007A49183908600846006820F0EE
:103F5000220008607648006840F4803074490860A8
:103F60000846006840F480200860714818380068EE
:103F700040F004006E49183908600846006820F0D7
:103F8000080008606A48006840F40030684908602A
:103F900067481838006820F0C00065491839086083
:103FA00063480C38006820F0400061490C39086013
:103FB0000846006820F0800008605D4818380068F6
:103FC00020F440705A491839086059480C38006884
:103FD00020F4807056490C3908600846006820F4C7
:103FE0000070086052481838006820F4406050495A
:103FF000183908604E480C38006820F480604C493D
:104000000C3908600846006820F4006008604848E1
:104010001838006820F44050454918390860444871
:104020000C38006820F4805041490C39086008467B
:10403000006820F4005008603D481838006820F4FB
:1040400040403B491839086039480C38006820F472
:10405000804037490C3908600846006820F4004069
:10406000086033481838006820F440303049183967
:1040700008602F480C38006820F480302C490C3937
:1040800008600846006820F40030086028481838A6
:10409000006820F4402026491839086024480C386C
:1040A000006820F4802022490C3908600846006826
:1040B00020F4002008601E481838006840F0AA402C
:1040C0001B49183908600846006820F02A4008603B
:1040D0001748006840F0805015490860084600689D
:1040E00040F0005008600846006840F480400860D6
:1040F0000846006840F0004008601148006840F041
:1041000004000F4908600D481838006840F0550059
:104110000A49183908600846006820F0AA000860BB
:104120001020064908600548183800680AE00000B9
:1041300018040240180C0240000002401808024017
:104140003038024040F480709649086008460068A4
:1041500020F40070086093480830006820F4407034
:104160009049083108608F48006820F440608D490C
:1041700008608C480C30006820F4406089490C319C
:10418000086088481830006840F48030854918314C
:1041900008600846006840F400300860084600687F
:1041A00040F4802008600846006840F40020086061
:1041B0007C48006820F440607A49086079480C30F7
:1041C000006820F4806077490C3108600846006878
:1041D00020F4006008607348006840F4A040714912
:1041E00008600846006820F4204008606D481830D8
:1041F000006840F040006B491831086008460068CC
:1042000040F0800008606748006820F4403065494D
:10421000086064480C30006820F4803061490C313B
:1042200008600846006820F4003008605D480068B7
:1042300020F440205B4908605A480C30006820F4A4
:10424000802058490C3108600846006820F400209E
:1042500008605448006820F04060524908605148A6
:104260000C30006820F080604E490C310860084630
:10427000006820F0006008604A48006820F0405064
:104280004849086047480C30006820F08050454994
:104290000C3108600846006820F000500860414872
:1042A000006840F080403F4908600846006820F000
:1042B000004008603B481830006840F4004039492D
:1042C000183108603848006840F008003649086036
:1042D0003648006840F010003449086031480068F2
:1042E00020F020002F49086030481830006840F066
:1042F00004002E491831086070472D480069C0F34A
:10430000801070472A480069C0F3C01070472948E0
:10431000006820F00C00274908600420214918316A
:104320000860BFF35F8F234810300068C0F340007F
:1043300070474FF480211B4A1832116008B10221E6
:1043400001E04FF400311B4A183211601949096825
:1043500041F00401174A116070471548006820F0C9
:104360000C00134908604FF400400E4918310860F2
:10437000BFF35F8F0E480069C0F3400070474FF0F5
:104380000041084A1832116008B1022101E04FF4DF
:104390000031074A91611146096841F0040111603A
:1043A000704700000008024030380240000C024014
:1043B000000002400004024010B558480068B0B147
:1043C000FFF79CFC98B15548016855480068FFF715
:1043D00072FC534800685349884202D101F580605D
:1043E00000E050484E49086000204C49086010BD6C
:1043F0000FB438B505A8009048480068B0F5806F44
:1044000002D349A000F015F845490968434A1268EB
:104410008818009A049909F04FFC04463F48006848
:1044200020443E49086000200090204638BC5DF8DA
:1044300014FB0446214644A0FFF7DAFF01E0FFF732
:10444000BBFFFCE72DE9F04105460E460027444836
:10445000006808B9434805603DE0082C04D00A2CE8
:104460001DD00D2C20D119E03D480068A8B10821CD
:104470003DA0FFF7BDFF20213BA0FFF7B9FF0821BA
:1044800039A0FFF7B5FF36480068401E3449086080
:1044900034480068401E334908601BE000BF012714
:1044A00000202F49086015E02D480068B04210D266
:1044B00021462DA0FFF79CFF2A4909680C70294866
:1044C0000068401C2749086025480068401C2449B2
:1044D000086000BF00BFFFF7D2FB04464FF6FF7134
:1044E0008842BAD16FB100201E49096808701D4882
:1044F0000068401C1B49086008460068401BBDE876
:10450000F0810020FBE710B500E000BFFFF7F6FBED
:104510000028FAD0FFF750FF10BD00005000002027
:104520004C000020A00B0020436F6E736F6C652061
:104530007072696E7420627566666572206F76654A
:1045400072666C6F770000000D0A457869742077F9
:10455000697468206572726F723A202573000000DA
:10456000540000205800002025630000F94800682E
:1045700040F01000F7490860F64814380068F64922
:104580000843F44914390860F448006820F4802096
:10459000F24908600846006840F4002008600846B8
:1045A000406820F4007048600846C06820F440204D
:1045B000C8600846806820F4402088600846406A49
:1045C00020F0F00040F07001E4484162006820F4FF
:1045D0008010E24908600846006840F40010086056
:1045E0000846C06820F40010C8600846C06840F45F
:1045F0008010C8600846406A20F4706040F4E061B2
:10460000D6484162C002D54988610846006840F03A
:10461000807008600846006820F000700860084656
:10462000806840F0407088600846006820F44000D0
:1046300008600846C06820F40000C8600846C068EA
:1046400040F48000C86040F2D920C54908810020AC
:10465000088288820846808940F400508881084694
:10466000808A40F0C0008882BE48006820F00100C7
:10467000BC49086000E000BFBA48006800F00100D3
:104680000028F8D1B748006820F06060B54908609C
:104690000846006840F0006008600846006840F482
:1046A00088600860AE48001DAE49083108600020EF
:1046B000091F0860AB487838006820F00100A9495C
:1046C0007839086000E000BFA6487838006800F03C
:1046D00001000028F7D1A3487838006820F0606016
:1046E000A049783908600846006840F0006008601A
:1046F0000846006840F4A06008609948001D994988
:10470000703908609848091D086008159549743982
:1047100008609348008820F04000914908800846CE
:10472000808940F00C0088818E487838006840F01D
:1047300001008C497839086070478648001F00687E
:1047400040F400308349091F086008460068824928
:1047500008438049091F08608048006820F48020D1
:104760007E4908600846006840F40020086008465A
:10477000406820F4007048600846C06820F440207B
:10478000C8600846806820F4402088600846406A77
:1047900020F0F00040F0700170484162006820F4A1
:1047A00080106E4908600846006840F400100860F8
:1047B0000846C06820F40010C8600846C06840F48D
:1047C0008010C8600846406A20F4706040F4E061E0
:1047D00062484162C002614988610846006840F051
:1047E000807008600846006820F000700860084685
:1047F000806840F0407088600846006820F44000FF
:1048000008600846C06820F40000C8600846C06818
:1048100040F48000C86040F2D9205149088100204E
:10482000088288820846808940F4005088810846C2
:10483000808A40F0C00088824A48006820F0010069
:104840004849086000E000BF4648006800F00100E9
:104850000028F8D14348006820F0606041490860B2
:104860000846006840F0006008600846006840F4B0
:10487000886008603A48001D3A4908310860002005
:10488000091F086037487838006820F00100354972
:104890007839086000E000BF32487838006800F0DE
:1048A00001000028F7D12F487838006820F06060B8
:1048B0002C49783908600846006840F000600860BC
:1048C0000846006840F4A06008602548001D25499E
:1048D000703908602448091D086008152149743999
:1048E00008601F48008820F040001D4908800846E5
:1048F000808940F00C0088811A487838006840F0C0
:1049000001001849783908607047164974390968F8
:10491000C1F58061154A1268914202D14FF6FF70CD
:104920000FE012490A680968491C104B19600E49CA
:10493000885C19460968B1F5806F02D100211A46DA
:1049400011607047074A126822F00102054B1A6095
:104950000FE0000044380240010040000000024027
:1049600000100140B8640240A01300205C00002049
:1049700000BF114A126802F00102002AF8D10E4A63
:104980000C3210600C4A121D11600C4A128822F081
:1049900040020A4B1A804FF00062074BAC3B1A6092
:1049A000054A126842F00102034B1A60704703483F
:1049B000008800F040007047B864024000100140D9
:1049C000FE48006840F00100FC49086008060088C5
:1049D00040F00100090608804AF20F4008850846A9
:1049E000808A40F00100888270470246501A80B2E7
:1049F00070474FF08040406AC0F34F0070474FF05F
:104A00008040406A40087047EC48006840F0100061
:104A1000EA4908605320EA4908854FF6FF7048626A
:104A2000C8620846008840F00800088008460088F0
:104A300040F00100088070474142E148416201882E
:104A400041F0010101800188C907FCD17047DB48B2
:104A5000006840F00800D9490860D848203800684C
:104A600040F00800D5492039086000E000BFD34875
:104A70002038006800F008000028F7D0CF48203820
:104A8000006820F00800CD49203908600020CD4999
:104A90000880091F0860C9481038006840F001000C
:104AA000C64910390860C848006820F00100C649AE
:104AB00008600846006840F0020008600846006A86
:104AC00020F00F00801C08624FF0FF30BD49091D27
:104AD00008605720BB4920390880BA481038008840
:104AE00040F00100B74910390880081F008840F0E5
:104AF0000100091F0880B3482838008840F00100F1
:104B0000B04928390880AD48006840F00200AB4940
:104B100008600020AD490880091F0860A7481038C8
:104B2000006840F00200A54910390860A8480068F4
:104B300020F00100A64908600846006840F0020025
:104B40000860A3482030006820F00F00801CA049B6
:104B5000203108600846006820F0F00040F0200096
:104B6000086041F267009949091D086040109749A3
:104B70001431086008460068091D086047F270009B
:104B800092490C390880081D008840F48070091D86
:104B900008808E481438008840F001008B49143991
:104BA0000880704700B50146FFF723FF024600E08A
:104BB00000BFFFF71EFF801A80B28842F8DB00BDFD
:104BC0000246844850434FF47A73B0FBF3F1B1F1DD
:104BD000807F01D3012070474FF0E020006940F052
:104BE00001004FF0E0231861184641610020F2E710
:104BF0004FF0E020006900F4803070470CB558B9E0
:104C0000754909680191744928390968734A116026
:104C100071492439096800916849096841F0805157
:104C2000664A11606E49096841F480716C4A1160EE
:104C300062493031096841F48031604A3032116094
:104C40001146096821F4803111601146096841F468
:104C5000407111601146096841F400411160CA2198
:104C60005D4A121F1160532111605B491C390968AC
:104C700041F08001584A1C3A116000E000BF5649DB
:104C80001C39096801F040010029F7D05249183950
:104C900009686FF30C0101F20F714F4A183A116065
:104CA0001146096821F4FE0141F4C60111604B4927
:104CB0000968494A283A11604A49121D116046495B
:104CC0001C39096821F08001434A1C3A116000E058
:104CD00000BF41491C39096801F080010029F7D162
:104CE000FF213D4A121F11603B491C39096821F020
:104CF0002001394A1C3A11600CBD3049096841F065
:104D000080512E4A11603649096841F48071344A55
:104D100011602A493031096841F48031274A303224
:104D200011601146096821F480311160114609684B
:104D300040F205121143214A3032116011460968D0
:104D400041F40041116038B120492839098841F007
:104D500001011E4A283A1180CA211F4A121F116000
:104D6000532111601C491C39096841F080011A4A1D
:104D70001C3A116000E000BF17491C39096801F0B6
:104D800040010029F7D01449183909686FF30C0164
:104D900001F20F71104A183A11601146096821F4A6
:104DA000FE0141F4803111600C4909680A4A283A31
:104DB00011600C49121D1160074915E0403802408E
:104DC00000100040280C0040000002402804004071
:104DD00000040240406F400128280040600000208D
:104DE00000700040024413001C39096821F0800162
:104DF0005F4A116000E000BF5D49096801F0800171
:104E00000029F8D1FF215A4A18321160584909681F
:104E100021F02001564A1160704756490140564A18
:104E200011607047CA21524A183211605321116033
:104E30004F49096841F080014D4A116000E000BF10
:104E40004B49096801F040010029F8D04949014067
:104E5000474A0C3A11604649096821F08001444AEA
:104E60001160FF21424A18321160704710B50246A6
:104E7000CA203F4B18331860532018603C48001F6D
:104E8000006820F480703A4B1B1F1860181D0068E2
:104E900040F001001B1D186000E000BF34480068AE
:104EA00000F001000028F8D03248104040F00040E7
:104EB0002F4B10331860C1F30C0040F070602C4B86
:104EC000383318602A48006820F00100284B186029
:104ED0001846006820F480701860181F006840F4BD
:104EE00088501B1F1860181D006820F001001B1D52
:104EF0001860FF201E4B183318602048006840F4EB
:104F000000301E4B18601D480838006840F400301F
:104F10001A4B083B186019480C30006840F4003008
:104F2000164B0C331860292000F01F040123A34006
:104F30004409A40004F1E024C4F8003100BF10BD0E
:104F40000B48006820F480700949086000E000BF49
:104F50000748006800F480700028F8D107480C303A
:104F6000006840F4003005490C31086070470000CB
:104F70000C2800407F7F3F0060000020083C01407B
:104F800070B501255848D0F80001022801D0022050
:104F900070BD35E0554802680068401C534B1860EE
:104FA000514884541846006806281BD14E480079A1
:104FB00000F0800010B14C48807800E00020801D97
:104FC0004B4908604848007900F07F00502807D11D
:104FD00045484079012803D108460068802801D956
:104FE0009020D5E74148006841490968884207D1C7
:104FF00000203E49086001203B49C1F8000103251B
:105000003948D0F80001012806D0FFF77EFC04469D
:105010004FF6FF718842BDD12846B9E710B5354B30
:105020001B68354C24681A19334B1B680B44324CEF
:10503000236003E010F8013B02F8013B0B00A1F1F3
:105040000101F7D110BD10B52B480068B0B1FFF7D2
:10505000AEFC98B12848016826480068FFF772FC4A
:10506000244800682549884202D101F5807000E09B
:1050700022482049086000201F49086010BD2DE922
:10508000F04393B080460D4616461D4800688542A1
:1050900002D113B0BDE8F0836C46A71D81202060CB
:1050A0004420A0700020E0708120207150206071A9
:1050B000A7F800807D804FF0000900BF3278484695
:1050C00009F10109391D0A5416F8011B0029F5D10F
:1050D000B5F5004F03D04A212046FFF79FFF08484F
:1050E000056000BFD5E700006400002070010020CB
:1050F00074010020680100206C010020A01700202E
:105100007801002010B5C448006840F00200C24990
:105110000860C248006820F00100C04908600846E5
:10512000006840F002000860081D006820F00100DF
:10513000091D0860B9480C30006820F00300B74929
:105140000C310860081F006840F00300091F086068
:10515000B2482030006820F00F00801CAF49203199
:105160000860AE48006820F00400AC4908600846BA
:10517000006840F008000860081D006820F0020088
:10518000091D0860A5480C30006820F00C00A349F8
:105190000C310860081F006840F00C00091F08600F
:1051A0009E482030006820F0F00040F020009B492D
:1051B0002031086098481030006840F0020096499D
:1051C000103108605320964908803120091D08607D
:1051D000052093491431086091480C38008840F04C
:1051E00060008F490C390880081D008840F48070E9
:1051F000091D088005208A491831086088480C3844
:10520000008840F4C04086490C390880081D008899
:1052100040F48050091D088081481438008840F00F
:1052200001007F49143908807D481C38008840F00F
:1052300008007B491C39088079482838008840F0EC
:10524000010077492839088003200246754B196808
:105250004FF6FF031940744B0B4343EA0221714B95
:10526000196000BF1D200121002808DA0A07140E6A
:105270006C4A0C3200F00F031B1FD45403E00A07E2
:10528000130E6A4A135400BF1D20012181404209B8
:10529000920002F1E022C2F8001100BF10BD604888
:1052A0001838008820F008005D491839088000206F
:1052B0005F4908805F498881704708B55E4800688B
:1052C00000F0100000287DD05C4890ED002ADFED52
:1052D0005C2AB4EEE22AF1EE10FA04DD9FED582AC2
:1052E00080ED002A0DE0554890ED002ADFED552AAB
:1052F000B4EEE22AF1EE10FA03D29FED522A80EDCD
:10530000002A514890ED002ADFED4D2AB4EEE22A42
:10531000F1EE10FA04DD9FED4A2A80ED002A0DE03F
:10532000494890ED002ADFED472AB4EEE22AF1EE7B
:1053300010FA03D29FED432A80ED002A4348C0EDC6
:10534000001A434880ED001A424890ED002A424876
:1053500080ED002A414890ED002A3E4880ED002A69
:105360003F4890ED002A3F4880ED002A3E4890EDEE
:10537000002A3B4880ED002A384880ED000A3B486F
:1053800090ED002A3A4880ED002A3A4890ED002A34
:10539000364880ED002A384890ED002A374880EDE5
:1053A000002A374890ED002A334880ED002A314822
:1053B000C0ED000A33480088032815D09FED322A3B
:1053C000294800E016E080ED002A9FED2F2A2C48A6
:1053D00080ED002A9FED2C2A184880ED002A9FEDD1
:1053E0002A2A194880ED002A4FF440101249091D5D
:1053F00008600FE00F48808900900D4800880090F9
:1054000030200D49091D08602048806840F0804028
:105410001E49886008BD0000303802400004024088
:10542000280400400CED00E00000FA0500E400E074
:105430000C3800400030014014080240AC0100204C
:1054400000FEFF4600FEFFC6B0010020B4010020B0
:10545000B801002080010020840100207C01002090
:105460008C0100209001002088010020980100207C
:105470009C01002094010020A4010020A80100202C
:10548000A00100208C5A00200000000000200140F4
:1054900008B56C48006840F001006A490860694836
:1054A0001430006840F48050664914310860664842
:1054B000006820F48040644908600846006840F4B1
:1054C000004008600846406820F0800048600846B8
:1054D000C06820F44040C8600846806860F44040DE
:1054E00088600846006A20F0704040F0A0400862E2
:1054F0000846006820F4806008600846006840F4B0
:10550000006008600846406820F0200048600846B7
:10551000C06820F44060C8600846806860F440605D
:1055200088600846006A20F4700040F4A000086219
:105530000846006820F4805008600846006840F47F
:10554000005008600846C06840F48050C8600846B3
:10555000C06820F40050C8600846006A20F07060FF
:1055600040F0A06008623748006840F00400354908
:10557000086010203549086034481838006840F445
:1055800080703249183908600846006820F40070BD
:105590000860081D006820F01000091D08602B48F5
:1055A0000C38006820F4407028490C390860081F46
:1055B000006860F44070091F08602548808820F06A
:1055C0004000234988800846008820F04000088079
:1055D00040F2273008800846008840F040000880EC
:1055E00008468089009008BD10B501460022184B7E
:1055F000998100E000BF164B1B891BB91346521C52
:10560000642BF7D3124B9B89D8B210BD01461048CA
:10561000818100BF0E48008900F002000028F9D007
:1056200000BF0B48008900F001000028F9D000BF3E
:105630000748008900F080000028F9D104488089DB
:10564000C0B27047303802400000024018080240E3
:105650000030014008B57148006840F004006F490F
:1056600008606E481030006840F400406B4910310B
:1056700008606B48006820F080706949086008463F
:10568000006840F000700860081D006820F4805039
:10569000091D086062480C30006820F040706049C5
:1056A0000C310860081F006860F04070091F086036
:1056B0005B48406A20F4702040F4C02158484162A1
:1056C000006820F48010564908600846006840F4DD
:1056D00000100860081D006820F48060091D086043
:1056E0004F480C30006820F440104D490C310860E0
:1056F000081F006860F44010091F08604848406AAD
:1057000020F4706040F4C06145484162006820F4B4
:105710008000434908600846006840F400000860C3
:105720003F480C30006840F480003D490C3108606F
:105730000846006820F4000008603948406A20F4F8
:10574000704040F4C041364841623448006840F03F
:10575000080032490860042032490860314818388E
:10576000006840F010002F491839086008460068AA
:1057700020F020000860081D006820F00400091DCA
:10578000086028480C38006820F0300025490C39A2
:105790000860081F006860F03000091F08600420DE
:1057A000204908602048008820F040001E490880F9
:1057B000081F008820F04000091F08804FF449703E
:1057C00008800846008840F04000088016480830ED
:1057D0000088009008BD08B1042101E04FF4802149
:1057E000104A11607047014600E000BF0E4A121DCA
:1057F000128802F00202002AF7D00B4A0832118008
:1058000000E000BF084A121D128802F00102002ABF
:10581000F7D0054A08321288D0B2704730380240BB
:1058200000080240180C0240043C00402DE9F05FE3
:1058300081460C4617469A464FF0010B4E46E0193A
:10584000B0F5006F02D30120BDE8F09F0020FFF704
:10585000C2FF0320FFF7C7FFC4F30720FFF7C3FF12
:10586000E0B2FFF7C0FF4FF0000816E00020FFF79E
:10587000BAFF0546BAF1000F02D106F8015B0AE053
:10588000BBF1000F05D016F8011BA94201D1012080
:1058900000E00020834608F10108B845E6D3012066
:1058A000FFF799FFBBF1010F01D00120CCE70020E9
:1058B000CAE710B50020FFF78EFF0620FFF793FF21
:1058C0000120FFF788FF10BD2DE9F05F81460D46EE
:1058D0001646A819B0F5006F02D30120BDE8F09F6D
:1058E000C8462C4644E004F01F07AC4200D0AFB9D4
:1058F0000020FFF770FF0620FFF775FF0120FFF77C
:105900006AFF0020FFF767FF0220FFF76CFFC4F378
:105910000720FFF768FFE0B2FFF765FF18F8010BFB
:10592000FFF761FF1F2F03D0A819401EA0421ED110
:105930004FF0000B0120FFF74EFF00BF0020FFF7E4
:105940004AFF0520FFF74FFF0020FFF74CFF82467C
:105950000120FFF740FF58460BF1010BB0F57A7FAD
:1059600001D90220BAE70AF001000028E6D1641C40
:10597000A819A042B7D80120FFF72DFF0120ADE7FD
:1059800010B54FF49A7200210848FFF79DFF0446B6
:10599000012C00D0002401234FF49A720021034807
:1059A000FFF744FF044604B1002410BDCC5B002087
:1059B000024613461B045818704702464FF6FF7301
:1059C00003EA022203EA0121091242EA01007047B8
:1059D00010B50A46034601461B124FF6FF7404EA4F
:1059E000012109121170537010BD10B501460B88CA
:1059F000DBB24A884FF6FF7404EA022242EA03004F
:105A000010BD2DE9F0410246104600040014044682
:105A1000264636023612A4464FEA2C2C10460014B5
:105A200003461F463F121D462D022D120E7081F8AF
:105A300001C08D70CF70BDE8F081F0B50246104610
:105A4000C0B20646104600F47F4003461B121046C3
:105A5000000CC0B205461046000C00F47F40000A5E
:105A600004460E804B808D80CC80F0BDF0B50246A0
:105A70001046C0B20646104600F47F4003461B1293
:105A800010460014C0B205461046001400F47F40D2
:105A9000001204460E604B608D60CC60F0BD10B506
:105AA0000022034603F47F434FF6FF7404EA022208
:105AB0000A804B8000248C80CC8010BD00210180A6
:105AC00041808180C1807047F0B502461046C0B267
:105AD00004464FF6FF7707EA0424104600F47F409F
