:020000040800F2
:10000000D8270020316400084F64000851640008BC
:10001000536400085564000857640008000000009D
:10002000000000000000000000000000596400080B
:100030005B640008000000005D6400085F64000865
:10004000616400086164000861640008616400087C
:10005000616400086164000861640008616400086C
:10006000616400086164000861640008616400085C
:10007000616400086164000861640008616400084C
:10008000616400086164000861640008616400083C
:10009000616400086164000861640008616400082C
:1000A000616400086164000861640008616400081C
:1000B00061640008FF3100086164000861640008A1
:1000C000616400086164000861640008213200086E
:1000D00061640008616400086164000861640008EC
:1000E00061640008616400086164000861640008DC
:1000F00061640008616400086164000861640008CC
:1001000061640008616400086164000861640008BB
:1001100061640008616400086164000861640008AB
:10012000616400086164000861640008616400089B
:10013000616400086164000861640008616400088B
:10014000616400086164000861640008616400087B
:10015000616400086164000861640008616400086B
:10016000616400086164000861640008616400085B
:10017000616400086164000861640008616400084B
:10018000616400086164000800F002F800F0B2F851
:100190000AA090E8000C82448344AAF10107DA45E2
:1001A00001D100F0A7F8AFF2090EBAE80F0013F082
:1001B000010F18BFFB1A43F001031847F096000027
:1001C000109700000A444FF0000C10F8013B13F0A8
:1001D000070408BF10F8014B1D1108BF10F8015BA0
:1001E000641E05D010F8016B641E01F8016BF9D193
:1001F00013F0080F1EBF10F8014BAD1C0C1B09D1EA
:100200006D1E58BF01F801CBFAD505E014F8016B5B
:1002100001F8016B6D1EF9D59142D6D370470000ED
:100220000023002400250026103A28BF78C1FBD8FF
:10023000520728BF30C148BF0B6070476E2906F0D7
:100240009B83702906F0DD84662909F0FD8165290C
:1002500009F0FA81672909F0F7816129AFF300807D
:1002600003681B0A28BF41F08001692906F0488312
:10027000642906F04583752906F042836F2906F04C
:100280006B84782906F0A984E92906F00584E4291D
:1002900006F00284F52906F0FF83EF2906F0688452
:1002A000F82906F0A8840368DB0928BF41F0800123
:1002B000632907F03280732907F03780E32907F0BC
:1002C0004280F32907F04780002070471FB509F0EE
:1002D000B1F906F065FD04000020002108F090FC53
:1002E000401C60600020002108F074FCE0601FBD2D
:1002F00010B510BD07F0C6F81146FFF7E7FF01F093
:1003000032FF07F02DF903B4FFF7F2FF03BC07F04B
:100310006DF9000070B50025F74CF84EA08CC0F3C5
:10032000802008B145F00045A06A0D2802D145F4AF
:10033000806504E0A06A012801DB45F40075A08C0B
:10034000C0F3C02008B145F08045A08CC0F3403018
:1003500018B9A08CC0F3803038B145F0100545F0D5
:100360002005012003F08DFC02E0002003F089FC51
:10037000207D00F0800008B145F40055207E00F09B
:10038000100030B194F82400C0F3800008B145F4A7
:100390008045207E00F0800008B145F40045208BA8
:1003A00000F4807008B145F48035208B00F40070B3
:1003B00008B145F40035208B00F4006008B145F425
:1003C0000025208B00F4806008B145F4802594F866
:1003D000200000F0020008B145F08075A08CC0F349
:1003E000003030B1E068002801DD402000E08020CE
:1003F0000543306E022807D194F8380000F0010060
:1004000060B145F0010509E0306E032806D194F88B
:10041000380000F0010008B945F00105706E0228AF
:1004200007D194F83800C0F3800060B145F00205B0
:1004300009E0706E032806D194F83800C0F38000FC
:1004400008B945F00205284670BD2DE9F04FA3B06C
:10045000AA4CA94DDFF8A882AA48008880B20B9068
:100460000CAEB71DDFF89C9209F106090020F07070
:10047000012030715020707100200A90099040F2E4
:1004800041420B98811A904274D056DCB0F5826FCD
:1004900071D02ADCB0F5047F6ED00FDC12286CD04E
:1004A00007DC02286AD0052869D0112841F0428073
:1004B000ECE0142877D01528F8D1B8E240F22322D6
:1004C000811A904270D008DCA0F2112000286CD074
:1004D00002286BD00328E9D169E3B1F5F37F74D02A
:1004E000A1F2E7110029E1D1C6E340F22442811ACA
:1004F00090426BD014DC40F21642A0EB0201904215
:100500007ED008DCA0F2114000287AD0022879D0F1
:100510000328CBD1F4E3012975D00D29C6D1EEE330
:10052000162971D004DC02296FD00529BED1CAE397
:1005300017296BD01C29B9D1F9E3702967D024DCC5
:10054000122975D00EDC072973D006DC022971D080
:10055000042970D00529A9D1EAE30F296CD010290C
:10056000A4D1F6E3292968D00ADC16297ED02429F3
:100570009CD1EFE3EFE390E32BE394E09BE02BE0EF
:10058000512974D06F2991D1FEE3A62900F09E87EE
:1005900013DC76296CD00ADC72296AD0732969D001
:1005A000752989D1F1E379E16BE039E3F4E2782947
:1005B00075D0A5298FD100F0A8BFB42970D006DC72
:1005C000B2296ED0B32986D1F2E352E3C4E3BF2946
:1005D00068D0C02987D1BFE2062030805420B07097
:1005E000307940F08000307154224749384606F097
:1005F0009FF846A0007887F8420044A0417807E0C1
:10060000F0E34FE371E3EEE3EEE319E3EDE3EDE353
:100610004320C1553DA0C1784420C1553BA001797C
:100620004520C1553CA00079202807D1302007E0A3
:10063000FEE3FEE3DBE3FDE3FDE3FDE336A000794B
:100640004621C85534A041794720C15532A00178D0
:100650004820C15530A041784920C1552EA081784D
:100660004A20C15500214B20C15504E0F9E31FE0A9
:10067000F8E3F8E3F8E301200A9002202949086032
:1006800032E301202849C1F89800F9E7686A20F4AC
:10069000007000F5007068620020E862F0E710E08A
:1006A000FDE3FDE3D5E1686A20F400706862E7E7E6
:1006B0000020E862E4E704201A49086000200A905C
:1006C000DEE7B9F802000B900B98B0F5886F5ED0AA
:1006D0002CDC40F22342A0EB0201904265D005DC05
:1006E000A0F2134038B103287ED136E003297CD034
:1006F000172979D142E024E02C020020AC1F002011
:100700005421002090120020DE00002030393A35BC
:10071000373A3037000000004E6F76202037203205
:10072000303136007420002054010020B0F5966F5F
:100730006DD0A0F2B340B8B3032845D04D2853D1B3
:1007400086E00020F8494861F748A1688161216985
:10075000C1614AF65521016299E0F348E1694162BD
:10076000216A8162616AC162A16A016300214163F9
:10077000E16A81634AF65521C16388E0EA48216B4A
:100780000164216B41644AF6552181647FE0E648AB
:10079000E16BC164216C0165616B4165616C8165D0
:1007A0004AF65521C16572E03BE0DF48216E0166E3
:1007B000616E4166A16E8166E16EC166216F01675F
:1007C0004AF65521416762E0D848B0F87A10D64819
:1007D0008167D648C16FD448C167D448D0F880102B
:1007E000D148C0F8801001E050E025E0CF48B0F8D3
:1007F0008410CD48C0F88410CC48B0F88610CA48A0
:10080000C0F888104AF65521C0F88C103FE0C74860
:10081000C16EC548C0F898104AF65521C0F89C1022
:1008200035E0C248B0F87810BF48C0F890104AF6DA
:100830005521C0F894102AE0BB48616FC0F8A010A1
:10084000A16FC0F8A4104AF65521C0F8A8101EE008
:10085000B7480168B448C0F8B410B5484168B24818
:10086000C0F8B810B2488168AF48C0F8BC10B048B2
:10087000C168AD48C0F8C010AD480169AA48C0F8C9
:10088000C4104AF65521C0F8C81000E000BF00BFF0
:10089000A848A549486003F0B4F9F1E6D9F800008A
:1008A0000390D9F804000290D9F808000190039849
:1008B0000F2849D00CDC0C2829D004DC02282ED0CB
:1008C000042871D119E00D2825D00E286CD12FE015
:1008D00020284BD004DC102809D0112864D109E06D
:1008E000B0F5C87F75D0B0F5A06F5DD144E004F0DD
:1008F000D1FB9AE005F072F997E0D9F808108B481F
:10090000C0F8C4100121D52004F060FA8DE0D9F8B8
:100910000400A06289E0D9F80400606285E0D9F89B
:1009200004008149086003F06CF900200A907CE023
:10093000D9F804007C49C8604AF65520086103F0E4
:1009400060F900200A9070E0D9F804107648C0F8E9
:10095000AC104AF65521C0F8B01003F052F97248B5
:10096000D0F8AC00E06700200A905EE0029881B207
:100970006E48A0F8D01058E0D9F804000890D9F8D3
:10098000080007900898012802D16949086002E030
:10099000002067490860079838B1022809D0042868
:1009A0000BD0082812D10CE03EE0002060494860DE
:1009B0000DE002205E49486009E004205C4948607F
:1009C00005E008205A49486001E002E000BF00BF8E
:1009D00000BF40F2C5710298884224D1019810BB33
:1009E000642002F040FA72B65348006820F4800098
:1009F000514908600846006820F4001008604F481C
:100A00004F49086000BFBFF34F8F4E48006800F4A5
:100A1000E0604D490843001D4A490860BFF34F8F0D
:100A200000BF00BFFEE700E000BF00BF28E61620C1
:100A30003070002070702820B070307940F0800055
:100A4000307128224149384605F072FE01200A9093
:100A500016E63F48C0780890089800F0010BBBF1FB
:100A6000000F03D001203249086002E00020304925
:100A700008603748C0780890089800F00E0BBBF16A
:100A8000020F06D0BBF1040F07D0BBF1080F0CD149
:100A900007E00220264948600BE004202449486012
:100AA00007E008202249486003E000202049486010
:100AB00000BF00BF2648C0780890089800F0100BCF
:100AC000BBF1100F06D10120194988608007214928
:100AD000086006E00020164988604FF480401D49F8
:100AE00008601B48C0780890089800F0E00BBBF144
:100AF000200F06D0BBF1400F07D0BBF1800F0CD107
:100B000007E020200A49C8600BE040200849C8607F
:100B100007E080200649C86003E000200449C8605F
:100B200000BF00BFACE50000882000205401002079
:100B3000080000200200010030380240EFBEADDEA8
:100B4000F01F00200CED00E00000FA056802002014
:100B500090120020180802404FF0000BF948D0F81E
:100B60000CB08068012801D14BF0100BF5484068AB
:100B700040EA0B0BF348006840EA0B0B0220307090
:100B8000052070700120B07086F803B030715020DD
:100B9000707101200A9073E5EB48807800F0010045
:100BA00010B14FF0000B01E04FF0010B68E540F28F
:100BB00015203060BBF1000F05D10020B070F0703F
:100BC00001200A9004E00020B070F07001200A902B
:100BD00056E5DD48C078012812D1686A20F400602B
:100BE0006862686A20F00400001D6862686A20F488
:100BF000806000F580606862002003F021F80EE05C
:100C0000686A20F004006862686A20F40050686234
:100C1000686A20F480606862012003F011F82FE513
:100C200040F2122030600120B070A88CC0F3802008
:100C300008B1012000E00220F07001200A901FE5B9
:100C4000B9F804006067B9F80200A067B4F874103E
:100C500008B204F0BBFAB4F8781008B204F01CFC37
:100C600004F018FA04F008FA0121D52004F0AEF8D7
:100C700006E5D9F802A003E540F20B4030600620FB
:100C8000B070307940F08000307101203880D5F8A4
:100C900004A0C7F802A00A90F2E4D9F802A0C5F8AF
:100CA00004A0EDE440F2124030600620B0703079CC
:100CB00040F08000307101203880D5F804A0C7F8DA
:100CC00002A00A90DCE440F22A4030600620B070B6
:100CD000307940F08000307101203880FFF71AFB36
:100CE000C7F8020001200A9034E2D9F80600A0609B
:100CF000A068E060D9F80A0020612BE200E018E06B
:100D000040F2154030600E20B070307940F0800025
:100D10003071012038800020C7F80200A068C7F8B1
:100D200006002069C7F80A0001200A9012E232E0AA
:100D3000BCE0B9F802002066B9F804006066D9F892
:100D40000600A066D9F80A00E066B9F80E00206730
:100D5000F1E319E1C6E12CE040F2254030601020BB
:100D6000B070307940F0800030710120388034F864
:100D7000600F7880A088B880A068C7F80600E06897
:100D8000C7F80A00208A01E081E2B8E2603CF881FD
:100D900001200A90CFE3D9F806006063B9F8020099
:100DA000E063B9F804002064D9F80A006064C2E383
:100DB000F7E240F2424030600E20B070307940F0EF
:100DC0008000307101203880A08F7880B4F8400016
:100DD000B880606BC7F80600606CC7F80A00012095
:100DE0000A90A8E3B7E1C6E13FE047E05EE2A88CE5
:100DF000C0F3403000B19EE30620C8F800004FF079
:100E00008040C8F804000020C8F808004AF28700B3
:100E1000A063C8F80C00606BC8F81000E06BC8F85D
:100E200018000020C8F81400C8F81C00012004E0D5
:100E3000BCE04DE035E0A2E0B7E1A862686A20F4CA
:100E4000005000F500506862686A20F480406862D3
:100E5000686A20F0200020306862606BC8F81000DB
:100E600069E3F0E073E232E237E2D9F8020020638E
:100E7000206B002801DA002020635CE340F23C4054
:100E800030600620B070307940F080003071012071
:100E90003880206BC7F8020001200A904BE389E2FA
:100EA00099E2D9F802002949086044E340F247403A
:100EB00030600620B070307940F080003071012041
:100EC000388022480068C7F8020001200A9032E307
:100ED000A88CC0F3803018B1A88CC0F3403038B96A
:100EE000A88CC0F3403020B1D8F81C00022800D1F3
:100EF00021E3D5F804A01448007940F0800018B12F
:100F0000D9F80200824402E0104800688244686A0E
:100F100020F4005000F500506862686A20F48040B8
:100F20006862686A20F0020068620120C8F8000068
:100F3000C8F804A0D8F804006968884208DA206B71
:100F400007E00000080000209012002000000020B0
:100F50000020C8F80800A068C8F80C002069C8F88C
:100F600010006069C8F81400A069C8F81C00686A1D
:100F700020F008000830686204F0B5FDDBE2D9F823
:100F80000200FE494860D6E240F25240306006203E
:100F9000B070307940F08000307101203880F7481F
:100FA0004068C7F8020001200A90C4E2A88CC0F390
:100FB000803018B1A88CC0F3403038B9A88CC0F389
:100FC000403020B1D8F81C00022800D1B3E2EC4830
:100FD000007940F0800010B1D9F802A002E0E748A3
:100FE000D0F804A0686A20F4005000F50050686250
:100FF000686A20F480406862686A20F002006862D3
:101000000120C8F80000C8F804A0D8F804006968F6
:10101000884201DA206B00E00020C8F80800A068D0
:10102000C8F80C002069C8F810006069C8F81400FE
:10103000A069C8F81C00686A20F0080008306862DF
:1010400004F00AFD77E2A88CC0F3803018B1A88CB8
:10105000C0F3403038B9A88CC0F3403020B1D8F884
:101060001C00022800D166E22069C8F81000D8F8F8
:1010700010000690686A20F4005000F50050686285
:10108000686A20F480406862686A20F00200686242
:101090002069C8F810000120C8F80000C8F804A0B2
:1010A0000020C8F80800A068C8F80C002069C8F83B
:1010B00010006069C8F81400A069C8F81C00686ACC
:1010C00020F008006862AE48C078012802D104F020
:1010D00045FD06E0D8F810004042C8F8100004F0C2
:1010E0003DFD28E2A648C078012802D103F082FF26
:1010F00001E003F07FFF686A20F008006862686A18
:1011000020F01000103068620520C8F80000A86ABE
:101110000D2802D1A86AA86201E00020A862002080
:101120009849086140F2664030600E20B070307916
:1011300040F0800030710120388093484068C7F843
:1011400002000020F8803881FFF7E4F8C7F80A00B1
:1011500001200A90EFE1B9F80200E061D9F804003B
:101160002062D9F80C006062D9F81000A062B9F8CA
:101170001400E062DFE14FF4836030601620B0704D
:10118000307940F08000307101203880A08B788069
:10119000206A78600020B860606AF860A06A3861F0
:1011A000A08DB88201200A90C5E1A88CC0F38030E0
:1011B00018B1A88CC0F3403038B9A88CC0F34030C7
:1011C00020B1D8F81C00022800D1B4E1686A20F4EC
:1011D000005000F500506862686A20F48040686240
:1011E000686A20F4805000F580506862686A20F0D8
:1011F000020068620120C8F800000020C8F808005A
:10120000606AC8F80C00A06AC8F810006069C8F8E5
:101210001400A069C8F81C00E069012818D1A06A70
:10122000C8F81000D8F8100006905548C07801287A
:1012300003D1032004F083FB05E0069840420690AA
:10124000052004F07CFB686A20F0080068621DE05D
:101250004B48C07801280AD16868216A0844C8F858
:101260000400D8F804A0042004F069FB09E06868D1
:10127000216A401AC8F80400D8F804A0062004F037
:101280005EFB686A20F008000830686253E1D9F814
:1012900004003D49C8660846C06E05900598C11710
:1012A00000EBD1514912384A116744E140F2B24093
:1012B00030601A20B070307940F080003071012029
:1012C00038803148C06E786001200A9033E1B9F867
:1012D00002002D49A1F878002DE140F2B5403060C0
:1012E0000420B070307940F08000307101203880E7
:1012F0002548B0F87800788001200A901BE1224848
:10130000B0F87A000490B9F802001F49A1F87A00F9
:101310000846B0F87A100498814203D003201A4995
:10132000C1F89800B9F802001749A1F87A00D9F875
:101330000400C867D9F80800C1F88000B9F80C00AB
:10134000A1F88400B9F80E00A1F88600F3E04FF48C
:10135000976030601020B070307940F080003071BC
:10136000012038800848B0F87A0078800648C06FBD
:1013700078600548D0F88000B86007E000000020E1
:10138000901200200800002054010020FE48B0F810
:101390008400B881FC48B0F88600F88101200A90EA
:1013A000C9E0B9F80200F84908840121882003F057
:1013B0000DFDC0E040F2F64030600420B07030799E
:1013C00040F08000307101203880EF48008C788038
:1013D00001200A90AFE00020EC49486143F6A321C8
:1013E000EA488161EA49C1614AF655210162022158
:1013F0004162E849816241F65251C162E6490163A6
:1014000000214163022181634AF65521C163E1490C
:10141000016441644AF6552181640221C1640121BD
:101420000165DE4941654FF4482181654AF6552141
:10143000C16502210166416600218166C166012104
:1014400001674AF655214167CF48B0F87A10CF4876
:101450008167CD48C16FCD48C167CB48D0F88010B7
:10146000CA48C0F88010C848B0F88410C748C0F80F
:101470008410C548B0F88610C448C0F888104AF6F1
:101480005521C0F88C10C048C16EC048C0F89810F3
:101490004AF65521C0F89C10BB48B0F87810BB48FC
:1014A000C0F890104AF65521C0F894101E21C0F8DB
:1014B000A0100521C0F8A4104AF65521C0F8A810C4
:1014C000B748B249486002F09CFB34E04FF49D609D
:1014D00030601420B070307940F08000307101200D
:1014E000BF1C27F8020CA06C3860E06C7860206D9F
:1014F000B860606DF860BF1EA06D08B1022000E00A
:101500000120788201200A9015E0D9F80200A06439
:10151000D9F80600E064D9F80A002065D9F80E0071
:101520006065B9F81200022801D1012000E0002016
:10153000A06500E000BF00BF0A9870B19DF83400BC
:1015400000F0800018B19DF83200801D00E00620F8
:1015500009900CA8099901F046FD23B0BDE8F08F71
:1015600010B5044672B6012C04D0022C06D0032C10
:1015700022D11DE0002002F0A4FB1DE0012002F0BA
:10158000A0FB8848808F012801D1002002E0864816
:10159000B0F91800844988838248808F012801D1DE
:1015A000002002E08048B0F91A007F49C88303E0B8
:1015B000012002F086FB00BF00BF7B48048462B6B6
:1015C00010BD70B52DED068B8AB0784CA01FC08879
:1015D00086B20B2E7ED006DC012E09D0052E7AD0E5
:1015E000072E79D1ADE00D2E77D00E2EF9D14AE03D
:1015F000608800EE100AB8EE400ADFED6D0A80EE5A
:10160000201A684880ED001AA08800EE100AB8EE93
:10161000400ADFED670A80EE201A624880ED011A69
:10162000E08800EE100AB8EE400ADFED610A80EEB5
:10163000201A5C4880ED021A90ED020A10EE101A92
:10164000084607F07FFF41EC180B564890ED010A61
:1016500010EE101A084607F075FF41EC190B5148BF
:1016600090ED000A10EE101A084607F06BFF41ECEF
:101670001A0B8DED028B8DED009B53EC1A2B4DA0B8
:1016800001F0AEF81DE154F8020F464908606068A9
:101690004860A06888602069486160698861E06886
:1016A0000861208BA41E012821D1084690ED061A5E
:1016B000F0EE410A90ED051AB0EE410A684602F0DC
:1016C00007FF1422694605A805F077F872B61422C0
:1016D00005A903E03AE0A4E0F2E03FE0314824301D
:1016E00005F06BF802202F49C86162B60FE01422A2
:1016F000384905A805F061F872B6142205A92948F1
:10170000243005F05AF800202649C86162B6A08B43
:1017100001280DD12348D0ED040AB0EE600A02F092
:101720008FFF204880ED030A01201E49086207E070
:10173000B7EE000A1B4880ED030A00201949086231
:10174000BFE065882846FFF70BFFBAE060881549BF
:10175000088791F8380002F0CFFDB2E0608840427F
:1017600000B211498883A088C8830846B0F91C00DC
:101770000C49B1F94010884204DD0A48B0F8400035
:1017800009498883084827E0540100208820002068
:10179000C0445E045515020060222F02FC7A4F01FE
:1017A000020001005C1F00204C2000209612002047
:1017B00000FEFF460D0A5049443A2050203D2025A6
:1017C000662C2049203D2025662C2044203D2025E4
:1017D000660000004C960008B0F91C00FE49B1F903
:1017E0003E10884203DAFC48C08FFC498883FB48DE
:1017F000B0F91E00F849B1F94410884204DDF648FA
:10180000B0F84400F549C883F448B0F91E00F24925
:10181000B1F93E10884203DAEF48C08FEF49C88320
:101820004FE06088EC49C887E088A1F84000A088B4
:10183000A1F842002089A1F8440060894887A08966
:101840008887E08900B200EE100AB8EEC00ADFED2A
:10185000E40A80EE201A084680ED121A208A00B2AF
:1018600000EE100AB8EEC00ADFEDDD0A80EE201AA5
:10187000084680ED131A90ED130A10EE101A084670
:1018800007F060FE41EC180BD34890ED120A10EE01
:10189000101A084607F056FE41EC190B8DED008B2F
:1018A00053EC192BCFA000F09BFFCB49498F0129A6
:1018B00001D0012100E00021084602F00BFA00E00F
:1018C00000BF00BF0AB0BDEC068B70BD2DE9F04132
:1018D000044600260027CA4885780F2D7DD2DFE810
:1018E00005F0F208F25FF29EF2D4F2DAF2E0F2E9E9
:1018F000380008262580B84890ED000A5FED540AAC
:1019000020EE200A10EE101A084607F046FE00F3FB
:101910000F006080B04890ED010A5FED5B0A20EE99
:10192000200A10EE101A084607F037FE00F30F00E9
:10193000A080A94890ED020A5FED630A20EE200A1C
:1019400010EE101A084607F028FE00F30F00E080A2
:10195000BAE01E26A41C24F8025C9F4800682060A0
:101960009D48406860609C488068A0609A48006913
:10197000E060994840692061974880696061A41ED1
:101980009548C069022801D1012000E0022060834F
:101990009148006A012800D100E00220A08393E072
:1019A0000C2625808D4890ED020AB1EE400A95483C
:1019B000D0ED030A20EE200A10EE101A084607F0B8
:1019C000ECFD00F30F006080844890ED030AB1EE57
:1019D000400A8C48D0ED040A00E074E020EE200AB2
:1019E00010EE101A084607F0D8FD00F30F00A08093
:1019F0007A4890ED050A8348D0ED050A20EE200ACA
:101A000010EE101A084607F0C8FD80F31000E080C1
:101A10007248008B20817148408B608154E012260F
:101A200025806D48C08F60806B48B0F84000E08032
:101A30006948B0F84200A0806748B0F844002081AF
:101A40006548408F60816448808FA081624890ED36
:101A5000120ADFED630A20EE200A10EE101A084683
:101A600007F09BFD00F30F00E0815B4890ED130A47
:101A7000DFED5B0A20EE200A10EE101A084607F090
:101A80008CFD00F30F0020821EE0042625805348C1
:101A9000008C608018E0062600272580C4F80270BC
:101AA00012E0082625804C48008F60800020A0802E
:101AB000E08009E0062625804848008B6080474882
:101AC000408BA08000E000BF00BF3046BDE8F08141
:101AD00070B5414C50340023CC2219464A4801F0DD
:101AE000F1FF05464848006A4AF65521884205D16B
:101AF00045488069A0604448C06920614248C06B85
:101B00004AF6552188420ED13F48406AE0613E487E
:101B1000806A20623C48C06A60623B48006BA062F9
:101B20003948806BE0623848806C4AF6552188421B
:101B300005D13548006C20633348406C206332483F
:101B4000C06D4AF6552188420BD12F48C06CE06326
:101B50002D48006D20642C48406D60632A48806DDC
:101B600060642948406F4AF6552188420ED12648C4
:101B7000006E20662448406E60662348806EA06632
:101B80002148C06EE0662048006F20671E48D0F8EC
:101B90008C004AF65521884217D11B48B0F87800CE
:101BA0001A49A1F87A001848C06FC8671648D0F8DB
:101BB0008000C1F880001448B0F88400A1F88400C7
:101BC0001148B0F88800A1F886000F48D0F89C00B2
:101BD0004AF6552188421BE05C1F00204C20002063
:101BE000000000470D0A466565646261636B20670B
:101BF00061696E203D20256620616E6420256600A7
:101C00009012002034200020882000205401002061
:101C10000BD1FB48D0F89800FA49C866C86EC117C6
:101C200000EBD1514912F74A1167F548D0F89400FA
:101C30004AF65521884203D10120F249A1F87800E3
:101C4000EF48D0F8A8004AF65521884207D1EC4861
:101C5000D0F8A0006067EA48D0F8A400A067E84880
:101C6000D0F8B0004AF65521884203D1E448D0F8B4
:101C7000AC00E067E248D0F8C8004AF65521884237
:101C800014D1DF48D0F8B400DF490860DC48D0F850
:101C9000B8004860DA48D0F8BC008860D848D0F86E
:101CA000C000C860D648D0F8C4000861D4480069B4
:101CB0004AF65521884211D1D148C0680F2804D175
:101CC000D2A1D44804F010FD0CE0CD48C0681E2815
:101CD00008D1CEA1CF4804F007FD03E0CBA1CD4849
:101CE00004F002FD70BD1FB5CB4C0120ADF8000023
:101CF000C448406860606068CDF80200C1488068F0
:101D0000E060A08980B2ADF806000020ADF80800C0
:101D1000FEF700FBCDF80A000621C04801F063F988
:101D20000E21684601F05FF91FBD7FB50446BA4D2C
:101D30005020BB4948710C70200A48700E208870F2
:101D40000020C8708120087140F24440844204D1D0
:101D50000020C8700120887008710120ADF80000D3
:101D6000A848406868606868CDF80200A5488068A7
:101D7000E860A88980B2ADF806000020ADF8080040
:101D8000FEF7C8FACDF80A000621A54801F02BF9A4
:101D900040F24440844203D00E21684601F023F90A
:101DA0007FBD10B502F028FA04469E480068A042A4
:101DB00009D0012C03D19B480460012010BD994833
:101DC00004600220FAE70020F8E72DE9F041964E82
:101DD000914C964D8C484068022804D004284CD081
:101DE00008287DD192E088480069022800D1BCE033
:101DF000A08CC0F3803018B1A08CC0F3403030B953
:101E0000A08CC0F3403018B1E869022800D1ACE0E2
:101E1000D4F804806768864800680744474500D1C5
:101E2000A3E0606A20F4005000F500506062606A30
:101E300020F480406062606A20F00200606201204D
:101E400028606F6068686168884201DA306B00E082
:101E50000020A860B068E860306928617069686136
:101E6000B069E861606A20F0080008306062022012
:101E70006549086103F037FE77E06348006904288C
:101E800000D172E0A08CC0F3803018B1A08CC0F3F8
:101E9000403030B9A08CC0F3403018B1E869022856
:101EA00000D162E0D4F8048061484768B84500D1A9
:101EB0005BE0606A20F4005000F500506062606AE8
:101EC00020F480406062606A20F0020060620120BD
:101ED00028606F6068686168884202DA306B01E0F0
:101EE00042E00020A860B068E8603069286170694D
:101EF0006861B069E861606A20F0080008306062DB
:101F000004204149086103F0A7FD2EE03E48006926
:101F1000082800D129E0062028604FF08040686042
:101F20000020A8604AF28700B063E860706B286107
:101F3000F06BA86100206861E8610120A062606A1E
:101F400020F4005000F500506062606A20F4804088
:101F50006062606A20F0200020306062706B28614F
:101F600008202949086100E000BF00BFBDE8F081FA
:101F700010B5FFF716FF044623480068012804D176
:101F8000012C02D1FFF721FF06E01F48006818B9B5
:101F9000022C01D1FFF719FF10BD70B51E4C1A4875
:101FA000C068002877D000251748C568202D04D0C8
:101FB000402D4DD0802D6FD17BE0A08CC0F3403000
:101FC00038B111488068012803D18003194908609D
:101FD0000AE0A08CC0F3403030B90B48806801287B
:101FE00002D1800713490860A08CC0F3403018B3B9
:101FF0000548806800BB4FF080400E49086026E02D
:102000008820002054010020080000204B3130437C
:1020100052310000E20000202C0200201C000020B1
:102020002200002028000020AC1F002054210020A6
:102030000000002018080240A08CC0F3403030B1EE
:102040008A48806818B94FF480408949086056E092
:10205000A08CC0F3403038B984488068012803D18F
:102060008003834908600AE0A08CC0F3403030B19F
:102070007E488068012802D180077D490860A08CD5
:10208000C0F3403048B97948806830B94FF080409B
:10209000774908600CE065E030E0A08CC0F3403088
:1020A00030B17248806818B94FF4804070490860B8
:1020B00025E001210B2002F089FE6E4890F82C00EB
:1020C00000F0020000280CDD68488068012803D178
:1020D00080036749086010E04FF080406449086061
:1020E0000BE062488068012803D1800760490860DE
:1020F00003E04FF480405E49086000E000BF00BF8D
:10210000A08CC0F34030B0B158488068012807D196
:102110005648C068202803D140025549086020E095
:1021200052488068E8B95148C068202819D1400653
:102130004F49086015E04D488068012807D14B4899
:10214000C068202803D140064949086009E0474893
:10215000806830B94548C068202802D1400244490F
:10216000086000BF70BD0025002600BF424C07F08C
:1021700061FA04F038FA00F05BFE642000F081FEA2
:1021800000F09DFE00F096F900F02AFC00F078F8CF
:1021900003F04AFD01F0D0FA01F0B0FB02F044FB7D
:1021A00002F086FF012001F063FD012001F050FDE7
:1021B000012001F055FD002001F04AFDFFF788FCE9
:1021C000606A20F400606062606A20F00400001D14
:1021D0006062606A20F4806000F5806060620020C8
:1021E00001F02EFD40E000F0C5FE2448006820B15B
:1021F000FEF72BF900202149086000F009FF01F0EB
:10220000ABFD0546284601F020FE0646304601F0AB
:1022100069FE00F04EFED8B1A08CC0F3402018B18A
:1022200040F28140FFF781FDA08CC0F3403018B927
:10223000A08CC0F3803018B1012001F022FD02E033
:10224000002001F01EFD0B49D1F8980001F0F7FFC6
:1022500003F009FF03F06EFD03F0AAFC01F043FD5B
:10226000FFF786FEFFF799FEBDE70000080000209B
:1022700018080240540100202C02002048000020D1
:102280008548006840F480208349086082481038FF
:102290000068824908438049103908608048006816
:1022A00020F480107E4908600846006840F4001061
:1022B0000860081D006820F48060091D08607848E7
:1022C0000C30006820F4401075490C310860081F7C
:1022D000006820F44010091F08607148406A20F42B
:1022E000706040F4E0616E484162006820F4800054
:1022F0006B4908600846006840F4000008606848C0
:102300000C30006820F4400065490C3108606448D6
:10231000406A20F4704040F4E041614841622E2060
:102320006049088000205F4908310880091D088045
:102330005C48001D008840F400505A49091D08807F
:1023400058480C30008840F0C00056490C310880D5
:102350005548806D20F001005349886500E000BFBA
:102360005148806D00F001000028F8D14E48806D82
:1023700020F060604C4988650846806D40F0006040
:1023800088650846806D40F4886088654548001F70
:1023900008660020C8650846806A20F0010088624F
:1023A00000E000BF4048806A00F001000028F8D13A
:1023B0003D48806A20F060603B4988620846806A38
:1023C00040F0006088620846806A40F4A06088623D
:1023D0003448001F0863354848630815C86231480F
:1023E0000838008820F040002E49083908802D4820
:1023F000001D008840F00C002A49091D08802A4869
:10240000806A40F001002849886270472649C96AFD
:10241000C1F58061264A1268914202D14FF6FF70E1
:102420000FE023490A680968491C214B19601F49BC
:10243000885C19460968B1F5806F02D100211A46FF
:1024400011607047184A926D22F00102164B9A658E
:1024500000E000BF144A926D02F00102002AF8D198
:10246000114A5066D1650F4A083A128822F040029C
:102470000C4B083B1A804FF000620B4B9A601A46D7
:10248000926D42F001029A6570470648083800884C
:1024900000F0400070470000403802400200200079
:1024A0000004024008480040006002409002002002
:1024B00030000020BF48006840F00100BD490860BE
:1024C000BD48006820F00C00BB4908600846C068A1
:1024D00020F00400C8600846C06820F00800C8600A
:1024E00008460068B5490843B349086008460068D3
:1024F000B3490840B04908600846806940F01000C0
:1025000088610846806940F080708861084680696B
:1025100040F400408861A748006840F00200A549E7
:102520000860A8480068A8490843A649086008460A
:102530000068A6490840A3490860A248183000680E
:1025400040F480309F49183108600846006840F424
:10255000003008600846006840F0007008600846D7
:10256000006840F0805008609648006820F0C00085
:102570009449086093480C30006820F0400091496D
:102580000C3108600846006820F0800008608D4823
:10259000006820F440708B4908608A480C3000685D
:1025A00020F4807087490C3108600846006820F4E8
:1025B000007008608348006820F44040814908604A
:1025C00080480C30006820F480407E490C3108605F
:1025D0000846006820F4004008607A48006820F44B
:1025E00040307849086077480C30006820F480302B
:1025F00074490C3108600846006820F40030086017
:102600007048006820F440206E4908606D480C3026
:10261000006820F480206B490C310860084600688F
:1026200020F4002008606748006820F04070654989
:10263000086064480C30006820F0807061490C31FB
:1026400008600846006820F0007008605D48006877
:1026500020F040605B4908605A480C30006820F068
:10266000806058490C3108600846006820F000601E
:1026700008605048006840F004004E490860544823
:10268000006820F003005249086051480C3000688F
:1026900020F001004E490C3108600846006820F027
:1026A000020008604A48006820F04060484908601D
:1026B00047480C30006820F0806045490C310860C4
:1026C0000846006820F00060086041480068414901
:1026D00008433F490860084600683F4908403C49B4
:1026E00008600846006840F4AA4008600846006890
:1026F00020F42A4008600846006840F4A0200860E2
:102700000846006820F4202008603148183000682E
:1027100040F400302E49183108600846006840F443
:10272000802008600846006840F4002008600846E1
:10273000006840F0100008600846006840F0200083
:1027400008600846006840F04000086008460068DD
:1027500040F4000008600846006840F4807008609B
:102760000846006840F0007008600846006840F0C5
:10277000005008600846006840F0804008600D483E
:10278000006840F008000B4908601448006840F0F9
:102790001000124908600846006820F02000086018
:1027A0000E480830006840F030000C4908310860DD
:1027B0007047000030380240000002400001014034
:1027C000FFFDFD7F0004024005000401F5FFF7FD59
:1027D000000802405400001057FFFFDF000C0240C9
:1027E0000FB438B505A8009074490968744A126896
:1027F0008818009A049903F065FF04467048006841
:1028000020446F49086000200090204638BC5DF8E5
:1028100014FB2DE9F04104460F460025A84600BFF1
:10282000FFF7F4FD06464FF6FF71884225D0082ECB
:1028300004D00A2E13D00D2E14D10FE06DB1082153
:1028400060A0FFF7CDFF20215EA0FFF7C9FF0821A0
:102850005CA0FFF7C5FF6D1E641E0DE000BF4FF0CA
:10286000010809E0BD4206D2314656A0FFF7B8FF85
:1028700004F8016B6D1C00BF00BFB8F1010FCFD190
:10288000002004F8010B2846BDE8F0812DE9F04155
:1028900005460E4600274C48006808B94B480560BD
:1028A0003DE0082C04D00A2C1DD00D2C20D119E0BD
:1028B00045480068A8B1082142A0FFF791FF2021F8
:1028C00040A0FFF78DFF08213EA0FFF789FF3E489B
:1028D0000068401E3C4908603C480068401E3B4977
:1028E00008601BE000BF012700203749086015E0A1
:1028F00035480068B04210D2214632A0FFF770FF81
:10290000324909680C7031480068401C2F49086042
:102910002D480068401C2C49086000BF00BFFFF72D
:1029200075FD04464FF6FF718842BAD16FB10020A1
:1029300026490968087025480068401C234908603A
:1029400008460068401BBDE8F0810020FBE710B599
:102950001B480068B0B1FFF798FD98B118480168AE
:1029600016480068FFF76EFD144800681849884251
:1029700002D101F5806000E0154810490860002090
:102980000F49086010BD70B505460E4611A0FFF74F
:1029900027FF00240FE0295D0FA0FFF721FFE117BB
:1029A00004EB11710911A4EB01110F2902D109A047
:1029B000FFF716FF641CB442EDDB70BD340000204D
:1029C00038000020256300003C000020400000206B
:1029D000900600200D0A000025303258200000002B
:1029E000F848006840F01000F6490860F5481438CF
:1029F0000068F5490843F34914390860F348006852
:102A000020F48020F14908600846006840F4002066
:102A100008600846406820F4007048600846C068B6
:102A200020F44020C8600846806820F44020886078
:102A30000846406A20F0F00040F07001E34841622F
:102A4000006820F48010E14908600846006840F4FE
:102A5000001008600846C06820F40010C8600846EE
:102A6000C06840F48010C8600846406A20F4706076
:102A700040F4E061D5484162C002D449886108460B
:102A8000006840F0807008600846006820F0007020
:102A900008600846806840F040708860084600681A
:102AA00020F4400008600846C06820F40000C860B8
:102AB0000846C06840F48000C8605B20C4490881B3
:102AC0000020088288820846808940F4005088816E
:102AD0000846808A40F0C0008882BE48006820F026
:102AE0000100BC49086000E000BFBA48006800F07F
:102AF00001000028F8D1B748006820F06060B549AF
:102B000008600846006840F00060086008460068F9
:102B100040F488600860AE48001DAE490831086086
:102B20000020091F0860AB487838006820F00100D9
:102B3000A8497839086000E000BFA64878380068E6
:102B400000F001000028F7D1A2487838006820F092
:102B50006060A049783908600846006840F000606D
:102B600008600846006840F4A06008609848001DAE
:102B70009849703908609848091D086008159549FA
:102B8000743908609248008820F04000904908801D
:102B90000846808940F00C0088818E4878380068AB
:102BA00040F001008B497839086070478548001F64
:102BB000006840F400308349091F08600846006837
:102BC000814908437F49091F08608048006820F454
:102BD00080207E4908600846006840F400200860B4
:102BE0000846406820F4007048600846C06820F439
:102BF0004020C8600846806820F44020886008466D
:102C0000406A20F0F00040F07001704841620068B6
:102C100020F480106D4908600846006840F40010F8
:102C200008600846C06820F40010C8600846C06804
:102C300040F48010C8600846406A20F4706040F498
:102C4000E06162484162C0026049886108460068EC
:102C500040F0807008600846006820F0007008604E
:102C60000846806840F0407088600846006820F49C
:102C7000400008600846C06820F40000C8600846AC
:102C8000C06840F48000C8605B2051490881002082
:102C9000088288820846808940F40050888108466E
:102CA000808A40F0C00088824A48006820F0010015
:102CB0004849086000E000BF4648006800F0010095
:102CC0000028F8D14348006820F06060414908605E
:102CD0000846006840F0006008600846006840F45C
:102CE000886008603A48001D3A49083108600020B1
:102CF000091F086037487838006820F0010035491E
:102D00007839086000E000BF32487838006800F089
:102D100001000028F7D12F487838006820F0606063
:102D20002C49783908600846006840F00060086067
:102D30000846006840F4A06008602548001D254949
:102D4000703908602448091D086008152149743944
:102D500008601F48008820F040001D490880084690
:102D6000808940F00C0088811A487838006840F06B
:102D700001001849783908607047164974390968A4
:102D8000C1F58061154A1268914202D14FF6FF7079
:102D90000FE012490A680968491C104B19600E4976
:102DA000885C19460968B1F5806F02D100211A4686
:102DB00011607047074A126822F00102054B1A6041
:102DC0000FE00000443802400100400000000240D3
:102DD00000100140B8640240900E00204400002022
:102DE00000BF114A126802F00102002AF8D10E4A0F
:102DF0000C3210600C4A121D11600C4A128822F02D
:102E000040020A4B1A804FF00062074BAC3B1A603D
:102E1000054A126842F00102034B1A6070470348EA
:102E2000008800F040007047B86402400010014084
:102E30004B48006840F001004949086008060088D6
:102E400040F001000906088041F2814008858007B2
:102E5000808A40F00100888270474FF08040406ACD
:102E6000C0F34F00704700B50146FFF7F6FF02467A
:102E700000E000BFFFF7F1FF801A80B28842F8DB64
:102E800000BD0246374850434FF47A73B0FBF3F16C
:102E9000B1F1807F01D3012070474FF0E02000693D
:102EA00040F001004FF0E023186118464161002016
:102EB000F2E74FF0E020006900F4803070472848C6
:102EC000006840F08050264908602748006840F4B8
:102ED00080702549086022483030006840F4407016
:102EE0001F49303108600846006840F4004008601F
:102EF000CA201E490860532008601C481838006822
:102F000040F0800019491839086000E000BF1748F8
:102F10001838006800F040000028F7D01348143833
:102F200000686FF30C0041F63F7108440F491439F3
:102F300008600846006820F4FE0040F4F8000860CD
:102F400000200A49243908600948091D086007481B
:102F50001838006820F0800004491839086070476C
:102F600040380240E80D280000700040242800404E
:102F70000244130010B534480068012801D1102024
:102F800010BD23E0314802680068401C2F4B1860D8
:102F90002F4884541846006806280BD12C48007925
:102FA00000F0800010B12A48807800E00020801DE9
:102FB000284908602548006826490968884205D1E3
:102FC00000202249086001201F4908601E4800684F
:102FD000012806D0FFF7D1FE04464FF6FF71884264
:102FE000D0D10420CCE710B51B4B1B681B4C2468C8
:102FF0001A191A4B1B680B44184C236003E010F895
:10300000013B02F8013B0B00A1F10101F7D110BD1A
:1030100010B512480068B0B1FFF701FF98B10F4832
:1030200001680D480068FFF7C5FE0B4800680C49B1
:10303000884202D101F5806000E009480649086035
:1030400000200649086010BD480000205400002000
:1030500090120020580000204C000020500000205A
:103060009016002010B5FE48006840F00200FC49B0
:103070000860FC48006820F00100FA490860084632
:10308000006840F002000860081D006820F00100A0
:10309000091D0860F3480C30006820F00300F14976
:1030A0000C310860081F006840F00300091F086029
:1030B000EC482030006820F00F00801CE9492031E6
:1030C0000860E848006820F00400E6490860084607
:1030D000006840F008000860081D006820F0020049
:1030E000091D0860DF480C30006820F00C00DD4945
:1030F0000C310860081F006840F00C00091F0860D0
:10310000D8482030006820F0F00040F02000D54979
:1031100020310860D2481030006840F00200D049E9
:10312000103108600920D04908803120091D08604D
:103130000520CD4914310860CB480C38008840F098
:103140006000C9490C390880081D008840F480706F
:10315000091D08800520C44918310860C2480C3890
:10316000008840F4C040C0490C390880081D008820
:1031700040F48050091D0880BB481438008840F096
:103180000100B94914390880B7481C38008840F05C
:103190000800B5491C390880B3482838008840F039
:1031A0000100B1492839088003200246AF4B196855
:1031B0004FF6FF031940AE4B0B4343EA0221AB4BE2
:1031C000196000BF1D200121002808DA0A07140E2B
:1031D000A64A0C3200F00F031B1FD45403E00A0769
:1031E000130EA44A135400BF1D200121814042093F
:1031F000920002F1E022C2F8001100BF10BD10B52C
:1032000099481838008820F0080097491839088034
:103210000020994908809949888101F07AF810BD09
:1032200000B52DED088B81B09548006800F01000C6
:1032300000287CD09148808992490968401A00EEA4
:10324000100AF8EEC09A8C4800888E494968401AE6
:1032500000EE100AB8EEC09A8B4840888949896808
:10326000401A00EE100AB8EEC0AA9FED880A29EEB7
:10327000800A8748D0ED020A9FED861A01EE200AE7
:1032800080ED020A9FED810A29EE000AD0ED030AC3
:103290009FED801A01EE200A80ED030A9FED7E0A61
:1032A0002AEE000AD0ED050A9FED7C1A01EE200AF5
:1032B00080ED050AC0ED009A80ED019A80ED04AA28
:1032C000774890ED120A20EE298A90ED130A60EEFD
:1032D000098AD0ED010A734890ED000A08EE200A31
:1032E00080ED000A90ED000ADFED6F0AB4EEE00A0F
:1032F000F1EE10FA04DD9FED6C0A80ED000A0DE09E
:10330000684890ED000ADFED690AB4EEE00AF1EEDC
:1033100010FA03D29FED650A80ED000A6048D0EDF7
:10332000010A634890ED000A08EEA00A00E0C4E13B
:1033300080ED000A90ED000ADFED5B0AB4EEE00AD2
:10334000F1EE10FA04DD9FED580A80ED000A0DE061
:10335000574890ED000ADFED550AB4EEE00AF1EEB1
:1033600010FA03D29FED510A80ED000A4C4890ED0F
:10337000030A5048D0ED000A78EE600A20EE200AD9
:103380004748D0ED030AB7EE001A71EE600A4A48CA
:1033900090ED001A00EE810A80ED000A404890EDA1
:1033A000030A4648D0ED000A78EEE00A20EE200A33
:1033B0003B48D0ED030AB7EE001A71EE600A4048B0
:1033C00090ED001A00EE810A80ED000A394880ED88
:1033D000008A3A48C0ED008A3148D0ED000A3148F1
:1033E00090ED000A08EE200A2D48D0ED020A32487E
:1033F00090ED001AF0EE40AA41EE20AA2848D0ED48
:10340000000A2B4890ED000A08EEA00A2448D0EDEF
:10341000020A2B4890ED001AB0EE40BA01EE20BA35
:10342000284890ED000A284880ED000A274890EDD2
:10343000000A244880ED000A254890ED000A25483E
:1034400080ED000A244890ED000A214880ED000A32
:103450001E48C0ED00AA2148006890ED000A3FE038
:103460003038024000040240280400400CED00E027
:103470000000FA0500E400E00C3800400030014094
:103480001408024034200020A8000020A69BC43B62
:103490004C200020C9767E3F6F12833A77BE7F3F73
:1034A0005C1F00209000002000FEFF4600FEFFC6CB
:1034B0009400002098000020A00000209C00002024
:1034C000A4000020640000206800002060000020AC
:1034D00070000020740000206C0000205C000020C0
:1034E0007F48D0ED000A20EE200A7E480068D0ED2B
:1034F000010A7D4890ED001A01EE200A7948006823
:10350000D0ED020A794890ED001A01EE200A7548C4
:103510000068D0ED030A764890ED001A01EE200A0B
:1035200070480068D0ED040A724890ED001A01EE70
:10353000200A714880ED000A704890ED000A70483A
:1035400080ED000A6F4890ED000A6C4880ED000A9B
:103550006D4890ED000A6D4880ED000A6C4890EDD2
:10356000000A694880ED000A664880ED00BA5D48AF
:10357000006890ED000A6348D0ED000A20EE200AB2
:1035800058480068D0ED010A5C4890ED001A01EE41
:10359000200A54480068D0ED020A594890ED001AFC
:1035A00001EE200A4F480068D0ED030A564890ED1E
:1035B000001A01EE200A4B480068D0ED040A534877
:1035C00090ED001A01EE200A514880ED000A5148A2
:1035D000008C032810D14848006805F0DEFF00F396
:1035E0000F004C4908834A48006805F0D6FF00F3F5
:1035F0000F00484948831AE04648808B45490883B4
:103600000846C08B48839FED440A3B4880ED000A82
:103610009FED410A3E4880ED000A9FED3F0A3F487A
:1036200080ED000A9FED3C0A3D4880ED000A3948D4
:10363000B0F918003B49B1F93E10884204DA394824
:10364000C08F344908830CE03248B0F9180035497E
:10365000B1F94010884204DD3248B0F840002D49ED
:1036600008832C48B0F91A002E49B1F9421088425B
:1036700005DA2C48B0F84200264948830CE025487A
:10368000B0F91A002749B1F94410884204DD2548F1
:10369000B0F844001F4948834FF4401022490860A5
:1036A0001C48408B00F50040204908801948008BD9
:1036B00000F500401E4988810EE01D488089009079
:1036C0001A4800880090302017490860194880681F
:1036D00040F080401749886001B0BDEC088B00BD08
:1036E000600000205C0000206400002068000020D2
:1036F00070000020740000206C0000207C0000207E
:103700008000002078000020880000208C0000202D
:10371000840000204C2000200000000090000020C9
:10372000940000205C1F0020180802400C38004064
:10373000003001400020014008B56C48006840F0AE
:1037400001006A49086069481430006840F48050FC
:103750006649143108606648006820F48040644976
:1037600008600846006840F4004008600846406869
:1037700020F0800048600846C06820F44040C860DF
:103780000846806860F4404088600846006A20F07F
:10379000704040F0A04008620846006820F4806055
:1037A00008600846006840F4006008600846406809
:1037B00020F0200048600846C06820F44060C860DF
:1037C0000846806860F4406088600846006A20F41B
:1037D000700040F4A00008620846006820F48050A1
:1037E00008600846006840F4005008600846C06859
:1037F00040F48050C8600846C06820F40050C8609B
:103800000846006A20F0706040F0A0600862374807
:10381000006840F004003549086010203549086010
:1038200034481838006840F480703249183908600C
:103830000846006820F400700860081D006820F049
:103840001000091D08602B480C38006820F44070F7
:1038500028490C390860081F006860F44070091F8F
:1038600008602548808820F0400023498880084669
:10387000008820F04000088040F20F3008800846A1
:10388000008840F04000088008468089009008BD0C
:1038900010B501460022184B998100E000BF164B7D
:1038A0001B891BB91346521C642BF7D3124B9B89FF
:1038B000D8B210BD01461048818100BF0E48008972
:1038C00000F002000028F9D000BF0B48008900F08A
:1038D00001000028F9D000BF0748008900F08000EF
:1038E0000028F9D104488089C0B2704730380240BE
:1038F00000000240180802400030014008B56D4841
:10390000006840F004006B4908606A4810300068A5
:1039100040F400406749103108606748006820F0B3
:103920008070654908600846006840F000700860D3
:10393000081D006820F48050091D08605E480C30A6
:10394000006820F040705C490C310860081F006876
:1039500060F04070091F08605748406A20F47020EA
:1039600040F4C02154484162006820F4801052495C
:1039700008600846006840F400100860081D0068F0
:1039800020F48060091D08604B480C30006820F46A
:10399000401049490C310860081F006860F440106D
:1039A000091F08604448406A20F4706040F4C06118
:1039B00041484162006820F480003F4908600846A1
:1039C000006840F4000008603B480C30006840F498
:1039D000800039490C3108600846006820F4000076
:1039E00008603548406A20F4704040F4C0413248D5
:1039F00041623048006840F001002E4908604FF4F1
:103A000000402E4988610846006840F08040086008
:103A10000846006820F0004008600846406820F42E
:103A2000004048600846C06820F04040C860084632
:103A3000806860F0404088602148008820F04000A5
:103A40001F490880081F008820F04000091F0880D7
:103A50004FF4497008800846008840F04000088014
:103A6000174808300088009008BD10B14FF400419D
:103A700001E04FF00041114A91617047014600E0BA
:103A800000BF0F4A121D128802F00202002AF7D06E
:103A90000B4A0832118000E000BF094A121D12884B
:103AA00002F00102002AF7D0054A08321288D0B28B
:103AB0007047000030380240000802400000024019
:103AC000043C00402DE9F05F81460C4617469A46BB
:103AD0004FF0010B4E46E019B0F5006F02D3012004
:103AE000BDE8F09F0020FFF7C0FF0320FFF7C6FFEF
:103AF000C4F30720FFF7C2FFE0B2FFF7BFFF4FF0AC
:103B0000000816E00020FFF7B9FF0546BAF1000FE4
:103B100002D106F8015B0AE0BBF1000F05D016F8F0
:103B2000011BA94201D1012000E00020834608F1D9
:103B30000108B845E6D30120FFF797FFBBF1010F5D
:103B400001D00120CCE70020CAE72DE9F05F8146D3
:103B50000D461646A819B0F5006F02D30120BDE846
:103B6000F09FC8462C4644E004F01F07AC4200D04A
:103B7000AFB90020FFF779FF0620FFF77FFF012094
:103B8000FFF773FF0020FFF770FF0220FFF776FFBB
:103B9000C4F30720FFF772FFE0B2FFF76FFF18F8DA
:103BA000010BFFF76BFF1F2F03D0A819401EA04287
:103BB0001ED14FF0000B0120FFF757FF00BF002080
:103BC000FFF753FF0520FFF759FF0020FFF756FFCF
:103BD00082460120FFF749FF58460BF1010BB0F573
:103BE0007A7F01D90220BAE70AF001000028E6D165
:103BF000641CA819A042B7D80120FFF736FF0120A6
:103C0000ADE710B5CC2200210848FFF79EFF04461F
:103C1000012C00D000240123CC2200210348FFF70F
:103C200051FF044604B1002410BD0000882000208C
:103C300008B1102101E04FF48011FE4A1160704775
:103C400008B1102101E04FF48011FB4A91617047E7
:103C500008B1802101E04FF40001F64A116070477D
:103C600008B1402101E04FF48001F24A1160704731
:103C700010B14FF4807101E04FF08071ED4A116096
:103C80007047EC49096841F00071EA4A116008B1D7
:103C9000511501E04FF00071E64A1160704710B114
:103CA0004FF4804101E04FF08041E24A11607047DB
:103CB00010B14FF4005101E04FF00051DD4A1160A6
:103CC000704710B14FF4804101E04FF08041D94A74
:103CD0001160704710B14FF4005101E04FF00051F6
:103CE000D44A1160704710B5D44CFFF7B6F8D449E8
:103CF0000988401A80B202280ADDFFF7AEF8D049E1
:103D00000880CC4808380068A16B60F30001A1630B
:103D100010BD02460B46C94991F8380000F0010079
:103D200048B11AB9002B06DA012070474868904262
:103D300001DD0120F9E791F83800C0F3800048B1B7
:103D40001AB9002B06DD0120EFE74868904201DA3E
:103D50000120EAE70020E8E710B50024FFF77DF82E
:103D6000B8490988401A80B20A286CDDFFF775F857
:103D7000B4490880B448006800F0800020BBB34814
:103D80000068401CB149086008460068192805DD34
:103D90001920086050240120AD490860AA48006835
:103DA00000F4005000284ED1A8480068401CA749E4
:103DB000086008460068192845DD192008600624B7
:103DC0000120A34908603EE09F48006800F40050CD
:103DD00088B99E480068401E9C49086008460068F3
:103DE00010F1190F2FDA6FF018000860602401201D
:103DF0009749086027E096480068012804D1002010
:103E000093490860702417E090480068C82801DDD5
:103E1000102411E08D480068002801DD30240BE0FB
:103E20008A48006810F1C80F01DA202404E08748AE
:103E30000068002800DA40248448006800B9702433
:103E4000002082490860204610BD30B5034600209E
:103E5000804C814DB5F87A10E269002B41D0402B9F
:103E600030D008DC062B39D0102B1FD0202B1ED0D1
:103E7000302B35D11CE0502B04D0602B0CD0702B94
:103E80002ED129E0012905D1012A01D1402002E0EB
:103E9000802000E0012023E0012905D1012A01D181
:103EA000202002E0602000E0102019E018E017E078
:103EB000012905D1012A01D1402002E0802000E043
:103EC00001200DE0012905D1012A01D1202002E0C5
:103ED000602000E0102003E0702001E0062000BF19
:103EE00000BF30BD2DE9F04707464FF00008C1463E
:103EF000584E5A4D514C402F69D008DC012F6ED0DE
:103F0000062F6DD0102F6CD0202F6BD1ADE0602F1D
:103F100031D0702F67D0802FF7D14848808CC0F304
:103F2000403010B14FF0000863E16068316A084426
:103F30006860606A20F4005000F500506062606ABA
:103F400020F480406062606A20F4805000F5805068
:103F50006062606A20F0020060620020A860706AFF
:103F6000E860B06A2861B069E86101202860042037
:103F700001F0E5FC3DE13148808CC0F3403000B1F8
:103F800037E16068316A401A6860606A20F4005066
:103F900000F500506062606A20F480406062606AF0
:103FA00020F4805000F580506062606A20F00200CA
:103FB00060620020A860706AE860B06A2861B06939
:103FC000E86101202860062001F0B9FC11E12448D5
:103FD00007601A48808CC0F3403028B109E1CCE07A
:103FE00075E09BE004E1F5E0B06A2861D5F8109037
:103FF000606A20F4005000F500506062606A20F4AE
:1040000080406062606A20F4805000F580506062F9
:10401000606A20F002006062012028600020A86031
:10402000706AE860B06A286170696861B069E861C7
:10403000032017E018080240000002402C02002074
:10404000AC000020B800002010040240B0000020A6
:10405000B4000020AC1F0020540100205421002097
:10406000BC00002001F06BFCC3E097480760974854
:10407000808CC0F3403000B1BBE0B06A2861D5F855
:104080001090C9F10009606A20F4005000F500505A
:104090006062606A20F480406062606A20F4805050
:1040A00000F580506062606A20F0020060620120CA
:1040B00028600020A860706AE860B06A28617069B2
:1040C0006861B069E861052001F039FC91E07F4842
:1040D000808CC0F3403000B18BE0062028604FF0A8
:1040E000804068600020A8604AF28700B063E86002
:1040F000706B2861F06BA86100206861E8610120A5
:10410000A062606A20F4005000F500506062606AAE
:1041100020F480406062706B28616AE06B48808C9C
:10412000C0F3403000B164E001202860606A20F4F0
:10413000005000F500506062606A20F480406062C8
:10414000606A20F00200606261496068D1F8801006
:10415000A0EB01085E48D0F880006860706AE860F3
:10416000B06A2861B8F1000F03DD042001F0E7FB1D
:1041700002E0062001F0E3FB3BE05448808CC0F3F2
:10418000403000B135E001202860606A20F4005022
:1041900000F500506062606A20F480406062606AEE
:1041A00020F0020060624A496068C96FA0EB010814
:1041B0004748C06F6860706AE860B06A2861B8F10B
:1041C000000F03DD042001F0BAFB02E0062001F03D
:1041D000B6FB0EE03C480068202803D03A4800684F
:1041E000402804D100F006FF00203749086000E0B5
:1041F00000BF00BFBDE8F08736480068C0F340301C
:10420000704710B14FF4804101E04FF08041314AD6
:1042100008321160704710B14FF4007101E04FF0A7
:1042200000712C4A08321160704710B14FF4807150
:1042300001E04FF08071274A08321160704730B5B5
:1042400003460024214D2248B0F8784023B1012BC9
:1042500003D0032B35D101E034E000BF04F00100AE
:1042600010B904F0040058B31B480068401C1A49F8
:10427000086008460068042816D118480068401CE9
:10428000164908600020144908601449086800EBCA
:10429000D0714910A0EB410119B10120FFF7F1FCE9
:1042A00002E00020FFF7EDFC0C480068092807DB5E
:1042B00000200749C1F898000849086006490860CD
:1042C00000E000BF00BF30BDBC0000202C02002079
:1042D0005401002010080240C4000020C00000204B
:1042E00008B1102101E04FF48011704A116070474D
:1042F00081016F4A11607047C0F1FF0101EB0112AB
:10430000C2EBC111FF22B1FBF2F1C91C694A116075
:1043100070476948006820B94FF0707067490860BD
:1043200025E0654800686349096888421FD16448F0
:10433000008800F47070614908606248006840F4C9
:1043400060005A4908605E48006800095C490860DE
:104350005C48006840085B4908600846006810280F
:1043600005D18020086052480068554908605248CD
:104370000068401C504908606F2801D10020086087
:1043800070472DE9F0412DED028B01244E48008C41
:10439000022804D0032805D144F0020402E044F0CE
:1043A000080400BF00BF484890ED058A9FED470A0A
:1043B000B4EEC08AF1EE10FA03D29FED440AB0EEDB
:1043C000408A414890ED020AF1EE040A20EE200AEC
:1043D000C0EE080A10EE907A384605F0DEF8064680
:1043E000394890ED030AF9EE040A20EE200AC0EEE7
:1043F000080A10EE907A384605F0CFF805461EB947
:1044000015B944F0400449E0F01C072818D2DFE851
:1044100000F004070A0D0E11140044F0300417E0F8
:1044200044F0200414E044F0600411E010E044F48F
:1044300088640DE044F480640AE044F4406407E0DA
:10444000002E02DD4FF4006000E01020044300BFA6
:1044500000BFE81C072818D2DFE800F014110E0D89
:104460000A07040044F4407417E044F4007414E0B4
:1044700044F4107400BF10E044F0C0040DE044F0B8
:1044800080040AE044F0840407E0002D02DD4FF4CC
:10449000807000E00420044300BF00BF2046FFF707
:1044A00027FFBDEC028BBDE8F0810000180402403C
:1044B000C8000020CC000020D800002018080240CE
:1044C000D4000020D00000204C20002000007A44BE
:1044D00010B52DED0A8B86B00446B0EE40AAF0EE82
:1044E000608A9FED660A2AEE000ADFED650A80EE1B
:1044F000201AB0EE41CAB0EE4C0A03F0BDFDF7EE53
:10450000000A80EE801AB0EE418AB7EE000A08EE8B
:10451000080AB0EE409A88EE280A30EE090AF0EE5A
:10452000409A89EE290AF0EE40AAB0EE000A68EE41
:10453000000AB0EE000A00EEC80AC0EE290AB0EE8A
:1045400060BA88EE280A39EE400AC0EE290AF0EE79
:1045500060BACDED01AA8DED02BACDED03AAB1EEA0
:104560004B0A8DED040AB1EE6B0A8DED050A14229B
:1045700001A9204602F021F906B0BDEC0A8B10BD5E
:1045800010B52DED088B86B00446F0EE409A9FEDF5
:104590003B0A29EE800ADFED3A0A80EE201AF0EE9F
:1045A00041BAB0EE6B0A03F067FDF7EE000A80EE49
:1045B000801AB0EE418AB7EE000A08EE080AB0EEA3
:1045C00040AADFED300A88EE200A30EE0A0AB0EE8B
:1045D000409AB7EE000AC0EE090AF0EE608AB0EE2B
:1045E000000A68EE000AB0EE000A00EEC80AC0EE4B
:1045F000090AF0EE60AADFED230A88EE200A3AEEFF
:10460000400AC0EE090AB0EE60BACDED018AB0EE04
:10461000000A28EE800A8DED020ACDED038AB1EE84
:104620006A0A8DED040AB1EE4B0A8DED050A1422DB
:1046300001A9204602F0C1F806B0BDEC088B10BD00
:1046400010B52DED048BB0EE408A9FED0F0A28EED9
:10465000000ADFED0B0A80EE201AB0EE419AB0EEB0
:10466000490A03F0B1FBF7EE000A30EEC00AF0EEA3
:10467000408AB0EE680ABDEC048B10BDDB0F4940E8
:1046800000409C46F304353FDB0FC9C00246134689
:104690001B045818704702464FF6FF7303EA0222C4
:1046A00003EA0121091242EA0100704710B50A46E7
:1046B000034601461B124FF6FF7404EA012109125A
:1046C0001170537010BD10B501460B88DBB24A88DB
:1046D0004FF6FF7404EA022242EA030010BD2DE9FE
:1046E000F0410246104600040014044626463602F5
:1046F0003612A4464FEA2C2C1046001403461F46DF
:104700003F121D462D022D120E7081F801C08D70D2
:10471000CF70BDE8F081F0B502461046C0B2064643
:10472000104600F47F4003461B121046000CC0B236
:1047300005461046000C00F47F40000A04460E8037
:104740004B808D80CC80F0BDF0B502461046C0B2E3
:104750000646104600F47F4003461B121046001424
:10476000C0B205461046001400F47F400012044613
:104770000E604B608D60CC60F0BD10B5002203462A
:1047800003F47F434FF6FF7404EA02220A804B8051
:1047900000248C80CC8010BD00210180418081806C
:1047A000C1807047F0B502461046C0B204464FF6CD
:1047B000FF7707EA0424104600F47F4006461046BF
:1047C0000014C0B2034607EA03231046001400F4A5
:1047D0007F4005460C604E608B60CD60F0BD70B5CB
:1047E000014600220024002300250D88EDB24B88ED
:1047F000DBB24FF6FF7606EA03232B438C88E4B244
:10480000CA88D2B206EA02222243104600041843A4
:1048100070BD30B502461004000C0346100C04466F
:104820000B604C6030BD0000F848F9490122F94B9B
:10483000A3F87A2042F21072DA674CF25032C3F8D1
:1048400080204FF4FA72A3F88420A3F88620012276
:10485000A3F87820F04A1A670023EE4AA2F8D03075
:10486000EE4A026143F6A32282600222C263012261
:104870000264EB4A42634FF4482242640022C2675A
:104880000222C261E74A026241F652524262E64A9D
:1048900082620222C262E34A026302220266426626
:1048A00000228266C266012202671E22426705223A
:1048B000826700220A634A63704770B504460D465A
:1048C000207AFEF7F7FF2881A079FEF7F3FFE88052
:1048D0002079FEF7EFFFA880A078FEF7EBFF688055
:1048E0002078FEF7E7FF288070BD10B50020FFF7A5
:1048F0009FF910BD10B50120FFF79AF910BD10B552
:104900000020FFF795F910BD10B50020FFF790F9D2
:1049100010BDFEB506460C4647F6FF773046842E9E
:1049200070D02BDC16286ED013DC0C286CD007DC82
:10493000F0B301285FD0022868D00B2876D1C4E0FC
:10494000112874D0132873D0142872D01528F5D1EB
:104950000EE157286ED008DC40286CD041286BD07F
:1049600054286AD05628E9D174E160286FD0802895
:1049700028D0812836D08328E0D14EE0912867D016
:104980000BDCA0F185000C2850D2DFE800F0626B50
:1049900074838C954F4FAC4FB5BED42874D00ADCCD
:1049A000922872D0C02871D0C22870D0C32800E0ED
:1049B00011E0C3D10FE1D5286AD0D62869D0D92813
:1049C000BCD155E19348058869462846FFF7A3FE08
:1049D000802020815EE16846FFF7DEFE0020208116
:1049E000002757E18B48456869462846FFF793FE44
:1049F000812020814EE16846FFF7CEFE0120208114
:104A0000012747E11AE0BAE066E0FFE76846FFF7F2
:104A1000C3FE0220208102273CE17E48C56869462A
:104A20002846FFF778FE8320208133E131E180E0E2
:104A300090E096E015E1B6E0BCE0E0E0754805697D
:104A400069462846FFF767FE8420208122E119E1AC
:104A500065E07048456969462846FFF75CFE852099
:104A6000208117E16B48856969462846FFF753FEA8
:104A7000862020810EE16748C56969462846FFF710
:104A80004AFE8720208105E1AFE059E081E098E00F
:104A9000CCE0D5E05F48058C69462846FFF73BFE31
:104AA00088202081F6E05B48456A69462846FFF782
:104AB00032FE89202081EDE05648856A6946284605
:104AC000FFF729FE8A202081E4E06846FFF764FEB4
:104AD0000B2020810B27DDE06846FFF75DFE0C20F0
:104AE00020810C27D6E04B48858E69462846FFF783
:104AF00012FE8D202081CDE04648856B6946284610
:104B0000FFF709FE8F202081C4E04248D0F89C5076
:104B100069462846FFF7FFFD90202081BAE03D4816
:104B2000D0F8A05069462846FFF7F5FD9120208176
:104B3000B0E06846FFF730FE112020811127A9E080
:104B40003448B0F8A45069462846FFF7E4FD9220A7
:104B500020819FE06846FFF71FFE13202081132766
:104B600098E06846FFF718FE14202081142791E092
:104B70006846FFF711FE1520208115278AE0254899
:104B8000D0F8B05069462846FFF7C5FD16202081B1
:104B900080E02048B0F8B45069462846FFF7BBFDD6
:104BA000C020208176E06846FFF7F6FD4020208196
:104BB00040276FE06846FFF7EFFD41202081412745
:104BC00068E01448D0F8B85069462846FFF7A3FDBE
:104BD000C22020815EE00F48D0F8B85069462846D0
:104BE000FFF799FDC320208154E00A48B0F8C05077
:104BF00069462846FFF78FFDD42020814AE06846A9
:104C0000FFF7CAFD54202081542743E0AC1F002049
:104C10002C02002054010020403E0300C0445E04EA
:104C20004B1E01005515020060222F02F648D0F8F5
:104C3000C45069462846FFF76EFDD520208129E043
:104C4000F148B0F8C85069462846FFF764FDD62001
:104C500020811FE06846FFF79FFD562020815627E0
:104C600018E06846FFF798FD57202081572711E08C
:104C7000E548B0F8CE5069462846FFF74CFDD920EC
:104C8000208107E06846FFF787FD602020816027CC
:104C900000E000BF00BFBDF80600E080BDF80400E2
:104CA000A080BDF802006080BDF80000208038467A
:104CB000FEBD70B506460C46D44D142C51D00FDC09
:104CC0000B2C34D005DCD4B1012C1ED0022C7AD1AF
:104CD00024E00C2C31D0112C35D0132C73D139E0B9
:104CE000562C5AD006DC152C42D0412C47D0542CDF
:104CF00069D14BE0572C57D0602C64D15CE0304632
:104D0000FFF7E1FCC04948805EE03046FFF767FDF1
:104D1000BD49486008464068686055E03046FFF786
:104D20005EFDB949886008468068E8604CE030461E
:104D3000FFF7C9FCB449888546E03046FFF74FFDD0
:104D4000B149086340E03046FFF749FDAE49C1F87C
:104D5000A00039E03046FFF7B6FCAB49A1F8A60049
:104D600032E03046FFF73BFDA749C1F8A8002BE031
:104D70003046FFF734FDA449C1F8AC0024E03046CA
:104D8000FFF7A1FCA049A1F8B6001DE03046FFF7EF
:104D90009AFC9D49A1F8C20016E03046FFF793FC4B
:104DA0009949A1F8CA000FE03046FFF78CFC9649FC
:104DB000A1F8CC0008E006E03046FFF710FD92496C
:104DC000C1F8D40000E000BF00BF70BD30B587B0AF
:104DD00004460D4647F6FF708D490880012D1DD110
:104DE00004A92046FFF795FD894908800020FEF7B9
:104DF0001FFF01A904A8FFF760FD0120FEF718FFBF
:104E00008348008847F6FF71884206D0214601A8F2
:104E1000FFF74FFF00207E49088000E000BF00BF81
:104E200007B030BD2DE9F04704460D461646002771
:104E3000B946BA46B8462746AA46B8464FEA084891
:104E400048EA0A0931464846FFF765FCFF203081F1
:104E5000BDE8F08770B52DED0A8B04469FED6D0A15
:104E6000B0EE408A9FED6B0AF0EE408A9FED690A32
:104E7000B0EE409A9FED680AF0EE409A9FED670A07
:104E8000B0EE40AA002500EE104AB8EEC00A2AEEA5
:104E9000000AB0EE409AB0EE000A29EE800AB0EEA9
:104EA000408A29EE080AF0EE408A18EE900A04F0D3
:104EB00049FB41EC1C0BB0EE4C0AF0EE6C0A03F01F
:104EC00077F8B0EE40BAF0EE60BA51EC1B0B03F08D
:104ED000B9FE08EE100AB0EEC80AF0EE408A9FED67
:104EE000500A28EE800AB0EE408ABCEEC80A10EEE6
:104EF000100A85B22846BDEC0A8B70BD70B52DED49
:104F00000A8B04460D469FED430AB0EE408A9FEDA2
:104F1000410AF0EE408A9FED3F0AB0EE409A9FEDC5
:104F20003E0AF0EE409A9FED3D0AB0EE40AA002600
:104F300000EE104AB8EEC00A2AEE000AB0EE409A1F
:104F4000B0EE000A29EE800AB0EE408A29EE080A87
:104F5000F0EE408A18EE900A04F0F4FA41EC1C0BD3
:104F6000B0EE4C0AF0EE6C0A03F022F8B0EE40BA54
:104F7000F0EE60BA51EC1B0B03F064FE08EE100A71
:104F8000B0EEC80AF0EE408A40F6FF70401B00EE1B
:104F9000100AB8EE400A20EE280AB0EE408ABCEEB5
:104FA000C80A10EE100A284486B23046BDEC0A8BBF
:104FB00070BD70B586B000240525002600BF00BF77
:104FC00013E029462046FFF799FF064603AA31461B
:104FD0002046FFF727FFFFF788FC694603A8FFF785
:104FE0006CFCFFF787FC601C84B2B4F5005FE8DB63
:104FF00006B070BD10B50F200349A1F8B40001211F
:10500000C020FFF7E3FE10BD540100202C02002059
:10501000DC00002000000000DB0F494000000039E8
:1050200000F07F4530B50346002000241046072BD2
:105030001FD2DFE803F01E04080E13161B00400900
:105040004001084316E020F4F8500C4624022043A7
:1050500010E020F0800040F080000BE020F08000A5
:1050600008E020F4004040F4004003E020F4004059
:1050700000E000BF00BF30BD30B5F848D0F8C440F4
:105080000625224629460620FFF7CCFFF349C1F842
:10509000C40030BD30B5F148D0F8C44003252246E5
:1050A00029460320FFF7BEFFEC49C1F8C40030BD1C
:1050B00010B5FFF77EFFE94800884FF6FC71084005
:1050C000E64908800846008840F010000880012169
:1050D0008020FFF77BFE4FF47A30E049C860012161
:1050E0008320FFF773FE4FF47A30DC490861012119
:1050F0008420FFF76BFE43F2D400D84948610121B8
:105100008520FFF763FE43F2D400D4498861012172
:105110008620FFF75BFE43F2D400D049C86101212D
:105120008720FFF753FE01218120FFF74FFE032068
:10513000CA49A1F8B4000121C020FFF747FE0020B2
:10514000C649A1F8C0000121D420FFF73FFE48F274
:105150000211C248C0F8C4100121D520FFF736FE65
:10516000FFF798FFFFF788FF0121D520FFF72EFEFC
:1051700040F22B21B948A0F8CE100121D920FFF729
:1051800025FE4FF48030B549C1F89C0001219020E4
:10519000FFF71CFE0021B148A0F8A41001219220C5
:1051A000FFF714FE0021AD48C0F8A01001219120A6
:1051B000FFF70CFE0020A949486001218120FFF77C
:1051C00005FEFFF717FFFFF79AFB10BD70B5054608
:1051D000A248D0F8C460652D42D2DFE805F0333430
:1051E0003536373842434445464751525354555655
:1051F000606162636465667071727374757F8081CB
:105200008283848E8F909192939D9E9FA0A1A2A352
:10521000ADAEAFB0B1B2BCBDBEBFC0C1F2F3F4F52C
:10522000F6F7EBEAE9E8E7E6E5E4E3E2E1E0DFDE12
:10523000DDDCDBDAD9D8D7D6D5D4D3D2D1D0CFCE16
:10524000CDCCCB0000BF00BF00BF00BF00BF00241B
:10525000324621460120FFF7E5FE8049C1F8C4002F
:1052600018E100BF00BF00BF00BF00BF01243246ED
:1052700021460120FFF7D6FE7849C1F8C40009E1B4
:1052800000BF00BF00BF00BF00BF0224324621465E
:105290000120FFF7C7FE7149C1F8C400FAE000BF62
:1052A00000BF00BF00BF00BF00BF0324324621463D
:1052B0000120FFF7B7FE6949C1F8C400EAE000BF6A
:1052C00000BF00BF00BF00BF0424324621460120BA
:1052D000FFF7A8FE6149C1F8C400DBE000BF00BFD2
:1052E00000BF00BF00BF0524324621460120FFF762
:1052F00099FE5A49C1F8C400CCE000BF00BF00BF0E
:1053000000BF00BF0624324621460120FFF78AFE77
:105310005249C1F8C400BDE000BF00BF00BF00BFDC
:1053200000BF00BF0724324621460120FFF77AFE66
:105330004A49C1F8C400ADE000BF00BF00BF00BFD4
:1053400000BF0824324621460120FFF76BFE434987
:10535000C1F8C4009EE000BF00BF00BF00BF00BF97
:105360000924324621460120FFF75CFE3B49C1F883
:10537000C4008FE084E079E077E075E073E071E0ED
:105380006FE06DE05FE05DE05BE059E057E055E025
:105390004AE048E046E044E042E040E035E033E007
:1053A00031E02FE02DE02BE020E01EE01CE01AE0D1
:1053B00018E016E014E009E007E005E003E001E092
:1053C000FFE700BF00BF00BF00BF00BF0A24324696
:1053D00021460120FFF726FE2049C1F8C40059E00C
:1053E00000BF00BF00BF00BF00BF00BF0B2432469C
:1053F00021460120FFF716FE1849C1F8C40049E014
:1054000000BF00BF00BF00BF00BF0C2432462146D2
:105410000120FFF707FE1149C1F8C4003AE000BFC0
:1054200000BF00BF00BF00BF0D243246214601204F
:10543000FFF7F8FD0949C1F8C4002BE000BF00BF29
:1054400000BF00BF00BF0E24324621460120FFF7F7
:10545000E9FD0249C1F8C4001CE00000540100202D
:1054600000BF00BF00BF00BF00BF00BF0F24324617
:1054700021460120FFF7D6FDF749C1F8C40009E035
:105480001024324621460120FFF7CCFDF249C1F835
:10549000C40000BF00BF70BD70B50546EE48D0F82F
:1054A000C460652D42D2DFE805F033343536373835
:1054B00042434445464751525354555660616263D6
:1054C0006465667071727374757F80818283848E67
:1054D0008F909192939D9E9FA0A1A2A3ADAEAFB0DD
:1054E000B1B2BCBDBEBFC0C1F2F3F4F5F6F7EBEA52
:1054F000E9E8E7E6E5E4E3E2E1E0DFDEDDDCDBDA94
:10550000D9D8D7D6D5D4D3D2D1D0CFCECDCCCB004D
:1055100000BF00BF00BF00BF00BF002432462146CD
:105520000220FFF77FFDCC49C1F8C40015E100BFA0
:1055300000BF00BF00BF00BF012432462146022049
:10554000FFF770FDC449C1F8C40006E100BF00BF09
:1055500000BF00BF00BF0224324621460220FFF7F1
:1055600061FDBD49C1F8C400F7E000BF00BF00BF46
:1055700000BF00BF00BF0324324621460220FFF7D0
:1055800051FDB549C1F8C400E7E000BF00BF00BF4E
:1055900000BF00BF0424324621460220FFF742FD2F
:1055A000AD49C1F8C400D8E000BF00BF00BF00BFD4
:1055B00000BF0524324621460220FFF733FDA649ED
:1055C000C1F8C400C9E000BF00BF00BF00BF00BFFA
:1055D0000624324621460220FFF724FD9E49C1F8E9
:1055E000C400BAE000BF00BF00BF00BF00BF00BFE3
:1055F0000724324621460220FFF714FD9649C1F8E0
:10560000C400AAE000BF00BF00BF00BF00BF082465
:10561000324621460220FFF705FD8F49C1F8C4003C
:105620009BE000BF00BF00BF00BF00BF092432469F
:1056300021460220FFF7F6FC8749C1F8C4008CE040
:1056400081E076E074E072E070E06EE06CE06AE0C9
:105650005FE05DE05BE059E057E055E04AE048E09C
:1056600046E044E042E040E035E033E031E02FE066
:105670002DE02BE020E01EE01CE01AE018E016E030
:1056800014E009E007E005E003E001E0FFE700BF08
:1056900000BF00BF00BF00BF0A24324621460220DF
:1056A000FFF7C0FC6C49C1F8C40056E000BF00BF62
:1056B00000BF00BF00BF00BF0B24324621460220BE
:1056C000FFF7B0FC6449C1F8C40046E000BF00BF6A
:1056D00000BF00BF00BF0C24324621460220FFF766
:1056E000A1FC5D49C1F8C40037E000BF00BF00BFA6
:1056F00000BF00BF0D24324621460220FFF792FC76
:105700005549C1F8C40028E000BF00BF00BF00BF7A
:1057100000BF0E24324621460220FFF783FC4E498B
:10572000C1F8C40019E000BF00BF00BF00BF00BF48
:1057300000BF0F24324621460220FFF773FC464982
:10574000C1F8C40009E01024324621460220FFF7C8
:1057500069FC4149C1F8C40000BF00BF70BD70B50D
:10576000044600263D4D002C00DA64423C48844249
:1057700001DC0F269EE03A48844204DD3948844229
:1057800001DC142696E03748844204DD3648844222
:1057900001DC14268EE03448844204DD3348844220
:1057A00001DC1E2686E03148844204DD3048844214
:1057B00001DC23267EE02E48844204DD2D4884420D
:1057C00001DC232676E02B48844204DD2A4884420B
:1057D00001DC28266EE02848844204DD2748844204
:1057E00001DC282666E02548844204DD2448844202
:1057F00001DC32265EE02248844204DD21488442F6
:1058000001DC382656E01648844204DD1E488442F6
:1058100001DC3E264EE01C48844204DD1B488442E5
:1058200001DC3E2646E01948844204DD18488442E3
:1058300001DC44263EE01648844204DD15488442DB
:1058400001DC442636E01348844227DD12488442B6
:1058500024DC4B262EE0000054010020AC1F002069
:10586000B6F363026DE7C70423DB2B07D9CE8F099C
:105870008FC2F30B46B6570EFCA9BB10B29D1F1387
:10588000689183151F85E7178B6CAF1CF853772140
:10589000643B3F26D122072B3D0ACF2FDD488442AF
:1058A00004DDDD48844201DC4B2603E0DA48844213
:1058B00000DD4B26D948B0F8D000012802D1B5F858
:1058C000740006B23046FFF781FC0121D520FFF7B6
:1058D0007DFA70BD70B50546D14C2069FFF73FFFDA
:1058E0000220CE49088001218020FFF76FFACB49C2
:1058F000E068886301218F20FFF768FA012D02D04C
:10590000022D11D107E0C5492069086101218420D9
:10591000FFF75CFA09E020694042C04908610121B3
:105920008420FFF753FA00E000BF00BF0020BB490E
:10593000A1F8B4000121C020FFF748FA70BD70B58E
:1059400005460026B64C2069FFF709FF0020B34941
:10595000088001218020FFF739FA0020AF49A1F823
:10596000B4000121C020FFF731FAAC49E068886338
:1059700001218F20FFF72AFAA849E068C8610121B8
:105980008720FFF723FA032D06D0042D1AD0052D0A
:1059900032D0062D5DD142E0A048008840F00200E0
:1059A0009E49088001218020FFF710FA9B49206959
:1059B000086101218420FFF709FA01209749A1F825
:1059C000760047E0954800884FF6FC7108409349FF
:1059D000088001218020FFF7F9F990492069C8600B
:1059E00001218320FFF7F2F966688C4846620121A5
:1059F0008920FFF7EBF92DE08848008840F002008D
:105A00008649088001218020FFF7E0F920694042A3
:105A10008249086101218420FFF7D8F91AE07F4804
:105A200000884FF6FC7108407C49088001218020E5
:105A3000FFF7CCF979492069C86001218320FFF77D
:105A4000C5F966687548466201218920FFF7BEF9ED
:105A500000E000BF00BF70BD2DE9F0410025002629
:105A60006F4C704F60687968461A002E05DD012082
:105A70006A49A1F87600656806E002206749A1F846
:105A80007600D4E90101451A2069FFF768FE00207D
:105A90006249088001218020FFF798F95F49206959
:105AA000C86001218320FFF791F95C49E0688863B1
:105AB00001218F20FFF78AF95849E068C861012168
:105AC0008720FFF783F900205449A1F8B400012191
:105AD000C020FFF77BF95148456201218920FFF77B
