:020000040000fa
:08000000000c040000000000e8
:020000040000fa
:08020000000c00000a000000e0
:020000040000fa
:101800000f962100007f22000001880000000000e8
:101810000c00070080de20000100200011000700fe
:10182000000020000000e000020032000000020082
:101830000000000056150200000000000040da0021
:101840000000fe004440a900801520000000e000d8
:101850000300320000002000a00188004440a800de
:101860000000060091018800800078000000eb0075
:1018700015003700e280400032a0b4009101ba00a8
:10188000e280400032a0b4009102ba00e280400041
:1018900032a0b4000002eb00472bde00f507b200d7
:1018a000602ce10004003a000059eb008301e900dc
:1018b000fdff3e00040037006128e1000100320016
:1018c0000082eb00040007001101ba000200e000f2
:1018d000e8ff3a00000006003159ba008301e90030
:1018e0000c0032002159ba008301e90008003200df
:1018f0000400e00003003a00e280400032a0b4009f
:10190000f5ff370011d9ba008301e900faff3a0068
:101910008100e800e180400032a0b4000000060031
:020000040000fa
:020000040001f9
:0457f0007fff000037
:020000040000fa
:020000040001f9
:0457f400fffc0000b6
:020000040000fa
:020000040001f9
:0457f800cefa0000e5
:020000040000fa
:020000040001f9
:0457fc007f3f0000eb
:020000040000fa
:10000800921c0000921c0000921c0000921c000030
:10001800921c0000921c0000921c0000921c000020
:10002800921c0000921c0000921c0000921c000010
:10003800921c0000921c0000921c0000921c000000
:10004800921c0000921c0000921c0000c8120000c4
:10005800e4120000921c0000921c0000921c000098
:10006800921c0000921c0000921c0000921c0000d0
:10007800921c0000921c0000921c0000921c0000c0
:10008800921c0000921c0000921c0000921c0000b0
:10009800921c0000921c0000921c0000921c0000a0
:1000a800921c0000921c0000921c0000921c000090
:1000b800921c0000921c0000921c0000921c000080
:1000c800921c0000921c0000921c0000921c000070
:1000d800921c0000921c0000921c0000921c000060
:1000e800921c0000921c0000921c0000921c000050
:1000f800921c0000921c0000921c0000921c000040
:10010800921c0000921c0000921c0000921c00002f
:10011800921c0000921c0000921c0000921c00001f
:10012800921c0000921c0000921c0000921c00000f
:10013800921c0000921c0000921c0000921c0000ff
:10014800921c0000921c0000921c0000921c0000ef
:10015800921c0000921c0000921c0000921c0000df
:10016800921c0000921c0000921c0000921c0000cf
:10017800921c0000921c0000921c0000921c0000bf
:10018800921c0000921c0000921c0000921c0000af
:10019800921c0000921c0000921c0000921c00009f
:1001a800921c0000921c0000921c0000921c00008f
:1001b800921c0000921c0000921c0000921c00007f
:1001c800921c0000921c0000921c0000921c00006f
:1001d800921c0000921c0000921c0000921c00005f
:1001e800921c0000921c0000921c0000921c00004f
:0801f800921c0000921c0000a3
:020000040000fa
:10020800921c0000921c0000921c0000921c00002e
:10021800921c0000921c0000921c0000921c00001e
:10022800921c0000921c0000921c0000921c00000e
:10023800921c0000921c0000921c0000921c0000fe
:10024800921c0000921c0000921c0000c8120000c2
:10025800e4120000921c0000921c0000921c000096
:10026800921c0000921c0000921c0000921c0000ce
:10027800921c0000921c0000921c0000921c0000be
:10028800921c0000921c0000921c0000921c0000ae
:10029800921c0000921c0000921c0000921c00009e
:1002a800921c0000921c0000921c0000921c00008e
:1002b800921c0000921c0000921c0000921c00007e
:1002c800921c0000921c0000921c0000921c00006e
:1002d800921c0000921c0000921c0000921c00005e
:1002e800921c0000921c0000921c0000921c00004e
:1002f800921c0000921c0000921c0000921c00003e
:10030800921c0000921c0000921c0000921c00002d
:10031800921c0000921c0000921c0000921c00001d
:10032800921c0000921c0000921c0000921c00000d
:10033800921c0000921c0000921c0000921c0000fd
:10034800921c0000921c0000921c0000921c0000ed
:10035800921c0000921c0000921c0000921c0000dd
:10036800921c0000921c0000921c0000921c0000cd
:10037800921c0000921c0000921c0000921c0000bd
:10038800921c0000921c0000921c0000921c0000ad
:10039800921c0000921c0000921c0000921c00009d
:1003a800921c0000921c0000921c0000921c00008d
:1003b800921c0000921c0000921c0000921c00007d
:1003c800921c0000921c0000921c0000921c00006d
:1003d800921c0000921c0000921c0000921c00005d
:1003e800921c0000921c0000921c0000921c00004d
:0803f800921c0000921c0000a1
:020000040000fa
:101920000d0a000031360000383300003333000068
:1019300020520000616300006b200000555300003e
:1019400042200000436f00006d6d00007320000016
:10195000426f000061720000642000000028000057
:101960006329000020540000686f0000726c0000c2
:101970006162000073200000285500004b29000020
:10198000204c0000746400002c2000003230000065
:1019900031310000000d00000a50000049430000f2
:1019a00032340000464a000036340000474100004f
:1019b00031300000342000007365000072690000bf
:1019c000616c0000207000006f7200007420000045
:1019d000696e0000746500007266000061630000bb
:1019e000650d00000a00000058520000313600006a
:1019f0004c370000383800002055000041520000ec
:101a000054200000646500007465000063740000e9
:101a1000656400002e0000005852000031360000be
:101a200056370000393800002055000041520000b0
:101a300054200000646500007465000063740000b9
:101a4000656400002e000000554100005254000063
:101a500020650000727200006f7200002e0000000e
:101a60002863000029540000686f0000726c0000b9
:101a70006162000073200000285500004b2900001f
:101a8000204c0000746400002c2000003230000064
:101a900031310000000d00000a55000041520000e5
:101aa000542000004348000036200000696e00000a
:101ab000746500007266000061630000650d00003f
:101ac0000a0000000d0a000052650000707200005c
:101ad0006f670000726100006d6900006e670000b2
:101ae0002e2e00002e0000000d0a0000436f0000a3
:101af0006d7000006c65000074650000642e0000cd
:101b000000000000c0680000780400004d4d000097
:101b100052360000303100000000000003000000d9
:101b200001000000010000004d4d00005236000091
:101b30003031000020520000616300006b20000083
:101b40005553000042200000436f00006d6d0000ff
:101b5000756e00006963000061740000696f000029
:101b60006e730000204200006f610000726400008c
:101b700020280000497300007375000065200000f4
:101b800033290000000000000000000000000000f9
:101b90000000000000000000000000000000000045
:101ba00003000000000000000600000030310000cb
:101bb0003233000034350000363700003839000079
:101bc0004142000043440000454600000000000080
:020000040000fa
:101bd000541800000c010000000000002411000057
:101be00030070000020000000000000000000000bc
:101bf00000000000000000000000000000000000e5
:101c000000000000000000000000000000000000d4
:101c100000000000000000000000000000000000c4
:101c200000000000000000000000000000000000b4
:102580000008000024090000000000000000000016
:020000040000fa
:102590003600f800809fbe00829fbe00849fbe0070
:1025a000869fbe000000fa00900307000080fa003a
:1025b0004f03be004f02be004f01be004f00be00e1
:1025c0003600f900004006003600f800809fbe008b
:1025d000829fbe00849fbe00869fbe000000fa005e
:1025e000b80307000080fa004f03be004f02be0090
:1025f0004f01be004f00be003600f900004006004b
:102600000400fa0039040700630307007a04070096
:10261000aa040700c522a900c482a900c502a80017
:10262000cc62a800c422a900a00020008c040700ee
:10263000c422a800c522a800803821008804070011
:1026400000c92800d2030700f0ca2800d003070001
:10265000b0cc2800ce030700aa020700004f780084
:102660001e00fb0010079800800220009e009000d2
:10267000808f500005003200800420009e009000f2
:10268000808f5000040032000600370040cf280041
:10269000bf03070009003700c0d02800bc030700b3
:1026a0000600370040d22800b9030700803e200012
:1026b0006b040700c522a9000140fe0000c92800e4
:1026c000c003070000d32800be030700b0d42800d1
:1026d000bc0307000080fa00000006000800fa00b2
:1026e000300798000000eb00100798003e009000b3
:1026f0001a0307002400370070002000f3020700cf
:10270000000f7800000028009e0f10000800320023
:102710001e007800804078003e009000d202070042
:1027200010002000100798004904070020079800b7
:102730003e009000e5020700000f7800000028002e
:102740009e0f1000040032001e00780080407800c8
:1027500070002000c40207001e009000e10f50002e
:1027600009003a003a040700800078002e0090002b
:102770008080500000772100808f500002003600da
:1027800020002000100798001e009000e20f50006b
:10279000d9ff3a000080fa00000006007a00fa0033
:1027a000401221009000780061079800a0122100db
:1027b000000f980076004700200f98007600470031
:1027c00066004000100f98002e089000e3004000c3
:1027d0000040eb00804878002e089000e4004000a4
:1027e00010c0b300804878002e089000e50040003b
:1027f00010c1b300804878000040eb00704f980093
:102800006e019000423f9800ce399000f48f510045
:102810006a00320000062000ce389000808f500001
:102820004a0032004e399000e50f5100010032009d
:1028300097003700ae089000600020008008780004
:102840002e0890008080e80040c5b30080487800e2
:102850002e089000640140002e08900064004000a3
:102860009040780000c8b30000c0700000497800b4
:102870001e08900023d8280029000900331878008a
:102880004005b1009e08900010c3b300a0c098009e
:102890009e08900010c3b300b0c098009e0890003e
:1028a00050c3b300c0c098009e08900060c3b3003e
:1028b000d0c098001e089000303f980021c3b3009c
:1028c00000c2b30080cf50000300320021c3b30028
:1028d00041f798000200370002c3b30042f79800a6
:1028e0004ef09000be399000e0c198009e08900024
:1028f00050c3b300f0c098009e089000a0c4b3007d
:1029000080c898009e08900050c7b30090c89800f7
:102910009e089000e0c6b300a0c898009e089000f2
:1029200010c3b300b0c898009e08900020c3b30045
:10293000c0c898009e0890000040eb00d0c89800e6
:1029400010c0b300704f98005100370026d1bf006f
:10295000604f9800ae0890001006200080087800b4
:102960002e0890008080e8006e4890008048780033
:102970002e08900063004000103f98006e489000c1
:102980000080fb00690207000004e0000300320041
:1029900011c0b30001f798000200370022c0b30055
:1029a00002f798000ef090009e3990008049780060
:1029b00010c0b300704f9800350037000e0890002b
:1029c0001001be0042079800530798000e089000bf
:1029d00020019000b0019000220798003307980072
:1029e0000e08900040019000d0019000028fbe00c0
:1029f000ce00900000192000808f500001003200ae
:102a00002300370020d62800e10207002e019000a5
:102a1000be019000507c200001002000800f51007a
:102a2000818f59001a003a001e00be00e00f5000ce
:102a3000e08f580007003a00c422a900c522a9006f
:102a4000a0002000860307004007a9000000fe0048
:102a50000f0037001e00be00e00f5000e08f58004e
:102a60000b0034006000200001002000be0f1000a9
:102a7000ae8f180006003c001e0078000000e90040
:102a800016ff07009f01070040d72800c00207007b
:102a90007e4890000004e00002003200760047000b
:102aa000e60007000080fa00000006000600fa00b9
:102ab000d3fe0700000037006600070024d2bf00e5
:102ac0000004e0001600320028d1bf0080407800ea
:102ad0000174a100014f780010c1b3009e4f100097
:102ae00002003a002dff07000b00370000c2b300c0
:102af0009e4f10000800360060c2b3009e4f1000c9
:102b000005003e009e80fb00f0fd2f00008040008d
:102b100041122100130107000040eb0024f2b7002e
:102b2000f30007000000eb00100798002e003700ac
:102b30001e009000790007009e00900060102000a9
:102b40000088b90001102000808040000080200033
:102b500000804000104078000004e0001d003200ba
:102b60009e009000601020000088b900e400400042
:102b700000802000008040001040780080407800f5
:102b80000174a100014f780010c0b3009e4f1000e7
:102b900007003a009e009000601020000088b900f5
:102ba000800078000080200000804000a300070023
:102bb0009e009000601020000088b90001102000e5
:102bc0008080400000802000808040000040eb00ba
:102bd000804878001e0090001e0107001e00900033
:102be0000000e800100798001e009000e50f50005c
:102bf000cfff360016030700800078002e009000fb
:102c00008080500040062000808f5000aaff3600d0
:102c10000f03070020079800c4c2bf000080fb001c
:102c20004400de00614060000004a20061406000da
:102c3000614060004401dd00412c2000914078009b
:102c4000f0ceb30000c0600002407000c4e2b700e4
:102c500099ff37000400fa0024d2bf00e14f500072
:102c600020003a00000120001007980028003700db
:102c7000329180001e0078008040780040122100d0
:102c800000004100014878000200e800309188000f
:102c900030918000e60f50000a003a0028d1bf00b2
:102ca0000004e00005003d0026d1bf000000fb004d
:102cb000660040004091880002003700600020005c
:102cc000409188003191800040918000808f5000b9
:102cd00004003a000000eb003091880010c0b300ff
:102ce00024f2b70024d2bf00e14f500006003200aa
:102cf0007000200075010700000f78000000280018
:102d00009e0f1000daff3a004000200010079800e4
:102d10001e0090000080fa00000006000800fa0083
:102d200020079800ae009000601020000088b900d5
:102d30008000780000802000008f40001e00780096
:102d400000409200e14f50002c003a0000012000aa
:102d500030079800360037001e00780010019100ff
:102d60001e009000804078001e00780000004100a6
:102d7000014878008200e8001e00780011009900e8
:102d80001e00780010009100e60f50000f003a007e
:102d90001e007800404090000004e00008003d0064
:102da0001e007800204090000000fb0066004000fc
:102db000800078001e007800210099000300370091
:102dc0009e00780060002000a00099001e0078009e
:102dd000900091001e00780020009100808f50002c
:102de00006003a009e0078000000eb009000990079
:102df0009e00780010c0b30080409a001e0078004a
:102e000000409200e14f5000070032002e00900079
:102e10002e010700100798009e0090000000280077
:102e2000808f5000ccff3a0040002000300798000f
:102e30003e0090000080fa00000006000600fa0044
:102e4000100798001e0090006400400010407800b9
:102e50000004e00007003d001e0090000080e80034
:102e6000104078000000fb0066004000200798003a
:102e70000200370060002000200798002e0090001c
:102e8000000f780014003700629180001e0090004f
:102e90009040780040e220000000410001487800a6
:102ea0000200e800609188001e0090000000e80029
:102eb000100798006191800000302000808f500042
:102ec00002003a000000eb00609188005091800001
:102ed0000000e800509188001e0fe9000080eb0020
:102ee0009e0f1000e8ff3a000080fa000000060084
:102ef0000000fa000c003700709180000000e8002c
:102f0000709188007191800000302000808f500007
:102f100002003a000000eb007091880050918000a0
:102f20000000e90050918800509180000000e0000e
:102f30000a0034007191800040e2200000804000cf
:102f40009040780070002000c700070080007800e3
:102f500000002800808f5000e7ff3a000080fa0050
:102f6000000006000a00fa002007980031079800c8
:102f7000ae009000601020000088b900800078004a
:102f800000232100008f40003e00900064004000bc
:102f9000104078000004e00007003d003e00900073
:102fa0000080e800104078000000fb006600400050
:102fb000400798000200370060002000400798009a
:102fc0004e009000100798001a0037001e0078008d
:102fd000100191003e009000904078001e007800a3
:102fe00000004100014878008200e8001e007800df
:102ff000110099003e0090000000e80030079800a2
:103000001e0078009000910000102000808f50007a
:1030100003003a009e0078000000eb009000990049
:103020001e007800000091008000e8001e0078007b
:10303000010099001e0090000000e90010079800b0
:103040001e009000e10f4000e0ff3a000080fa000f
:10305000000006000400fa00100798009e0090008f
:10306000601020000088b900800078000023210053
:10307000008f4000120037001e00780020009100f1
:103080008000e8001e007800210099001e007800f2
:10309000a000910000102000808f500003003a0033
:1030a0009e0078000000eb00a00099001e00780050
:1030b000000091008000e9001e00780001009900e6
:1030c0001e007800000091000000e0000b003400ba
:1030d0001e007800a00091001e00780000804000d3
:1030e000904078001e0090005f000700800078008c
:1030f00000002800808f5000dfff3a000080fa00b7
:10310000000006000400fa00d0082400fb010700bc
:103110000000fb00000f7800800220009e0f1000ce
:1031200003003200800420009e0f100049003a0086
:1031300080c0eb00a0082400e801070011c0b30024
:10314000e0082400e50107008040eb0010002400a7
:10315000e201070071c0b30020002400df01070076
:1031600001c8b30030002400dc01070021c0b30017
:1031700000002400d90107008040eb00100024006b
:10318000d601070001c1b30090002400d30107005d
:1031900040002400d90107008040780000c8b30037
:1031a00080c0700040002400cc01070031c0b30093
:1031b00030002400c901070001ccb30080002400c6
:1031c000c6010700c1c3b300b0002400c30107005b
:1031d00040002400c901070080407800b0cfb30050
:1031e00080c0600040002400bc0107009000240063
:1031f000c20107008040780000cdb30080c070009d
:1032000090002400b501070040002400bb01070026
:10321000804078000114a00040002400af010700a6
:103220008040eb00e0082400ac01070001c1b300be
:1032300090062400a90107008040eb0090062400be
:10324000a60107001e0078000000fb001007980090
:10325000020037000080eb00100798001e0090006d
:103260000080fa00000006000800fa00100798002d
:10327000414798001e0090004400dd00000f7800d8
:10328000a00024001e0040009c0107008040780040
:10329000e0c3b30080cf50000300340000002800da
:1032a0003007980006003700000024001e00400090
:1032b000ce409000890107000000eb003007980025
:1032c0003e0090000080fa00000006000600fa00b0
:1032d000100798001e0090004400dd00000f7800e9
:1032e000500024001e004000840107000000fb0085
:1032f0000000a200610060000004e0000300320052
:103300000000280020079800050037000000240076
:103310001e004000790107000000fb002007980014
:103320002e0090000080fa00000006000400fa0061
:10333000100798001e0090004400dd00000f780088
:10334000600024001e0040006c0107000000fb002c
:10335000700060000080fa00000006000400fa001f
:10336000100798001e0090004400dd00000f780058
:10337000900024001e00400001c1b3005701070067
:10338000900024001e0040008040eb005301070025
:103390000080fa00000006000000fa0021e2a90007
:1033a00030012000401188008580a9009580a90087
:1033b0008080280000118800004020001011880043
:1033c0008560a900910a200091407800f0c8b30000
:1033d00000c0600001c4b30001407000a9e0b70064
:1033e0009560a8000080fa00000006000200fa00c4
:1033f00030118000004f78008560a900a1c28000d4
:10340000f0072000808f50000f003c00b1c2800008
:1034100000862100008040001e4878000100e8007e
:10342000b0c28800b1c2800000082000808f500028
:1034300002003a000000eb00b0c28800a0c2800089
:103440000000e800a0c288000080fa00000006002a
:103450000200fa009560a900a0c280000000e00010
:1034600003003a000080eb00000f780011003700e5
:10347000c1c280000086210000804000104078001a
:103480000080fb00000f78000100e800c0c2880047
:10349000c1c2800000082000808f500002003a0066
:1034a0000000eb00c0c28800a0c280000000e9005c
:1034b000a0c288009560a8001e0078000080fa0075
:1034c000000006000000fa00d0c280000000e0000a
:1034d00002003c009580a900120037008580a900f9
:1034e000f1c28000008e2100008040001040780072
:1034f0000000fb00201188000100e800f0c28800f5
:10350000f1c2800000082000808f500002003a00c5
:103510000000eb00f0c28800d0c280000000e9008b
:10352000d0c288000080fa00000006000200fa0005
:10353000004f7800d1c28000f0072000808f50003b
:10354000fcff3c009580a900e1c28000008e2100b4
:10355000008040001e4878000100e800e0c28800ba
:10356000e1c2800000082000808f500002003a0075
:103570000000eb00e0c28800d0c280000000e8003c
:10358000d0c288009580a8000080fa0000000600e4
:103590000200fa00000f7800040037001e007800d7
:1035a000104078001e0fe800e0ff07001e007800c2
:1035b000104078000004e000f8ff3a000080fa00b4
:1035c000000006000200fa00000f78000900370032
:1035d0001e007800904078006000200022ff070065
:1035e0008000780000002800808f50000100320029
:1035f0001e0fe8001e007800104078000004e00074
:10360000f3ff3a000080fa00000006001c00fa00f8
:10361000300f9800410f98006400470061dd2800da
:1036200010000900315878001001b1004e089000d8
:1036300064004000104078000004e00007003d00f6
:103640004e0890000080e800104078000000fb0069
:1036500066004000500f9800020037006000200014
:10366000500f9800de089000110798003e08900067
:10367000c7ff0700150037004e089000104f780074
:103680004e0890000000e800400f98001e00fb006c
:103690004480de000000fb00ef0060006400470093
:1036a0000080400010407800a0ff07001e00fb00d3
:1036b000ef00600064004700008040001040780088
:1036c0009aff070000c2b30098ff07001e00900099
:1036d0000000e900100798001e009000e10f400074
:1036e000e5ff3a000080fa00000006000000fa0042
:1036f000d00020000016880070ff210040168800ce
:1037000020b02300801688000080eb00601988003c
:103710000000eb00703a8800113a8000f00b2000a6
:1037200000816000610420007005200023742000e7
:10373000814978008049780082497800416a2000f8
:103740009140780000ceb30000c060001041b3008b
:10375000a4e6b700616a20009140780000ceb30073
:1037600000c060000014a000a6e6b7006168200059
:103770009140780000ceb30000c060003041b3003b
:1037800086e6b700016d20009140780000ceb300be
:1037900000c060003040b300d0e6b700316c2000bc
:1037a0009140780000ceb30000c060005040b300ec
:1037b000c3e6b700316d20009140780000ceb30021
:1037c00000c060002041b300d3e6b700113a80008a
:1037d00000042000008170006104200070052000ba
:1037e000237420008149780080497800824978005c
:1037f0000080fa00000006000000fa000000eb0064
:10380000800c88000000eb00900c88000040220033
:10381000a00c8800a00c80000000d100b00c880033
:10382000f0012000900c880050c02100800c88001e
:103830000000eb0030088800200028008008880085
:103840000080eb00600888000080fa00000006009d
:103850000000fa00300880000080fa000000060036
:103860000200fa00000f78000000eb00200888003a
:103870000000eb00000888008460a90000402200de
:103880001008880000002800200888000500370084
:1038900084c0bf00684060000004e000fcff32000c
:1038a0008460a9001e0fe9000080eb009e0f10004d
:1038b000f7ff3a000080fa000000060040202000d8
:1038c00010308800f00f240060308800fc02a9004e
:1038d00000382800003088000000060020308800f2
:1038e0008100fb004130880001c8b30003c6bf005f
:1038f00001406000fdff3a00000006002030880013
:103900004030800001c8b30003c6bf000140600022
:10391000fdff3a0005c6a900403080000000fb0012
:04392000000006009d
:020000040000fa
:043924000000fe00a1
:00000001FF
