:020000040800F2
:10000000A08E0020BD040008C5040008C704000835
:10001000C9040008CB040008CD040008000000005B
:10002000000000000000000000000000CF040008F5
:10003000D104000800000000A9990008D5040008B8
:10004000D7040008D7040008D7040008D704000824
:10005000D7040008D7040008D7040008FDC0000832
:10006000D7040008D7040008D7040008D704000804
:10007000D7040008D7040008D7040008D7040008F4
:10008000D7040008D7040008D7040008A7B7000861
:1000900007B70008D7040008D7040008D7040008F1
:1000A000D7040008D7040008D7040008D7040008C4
:1000B000D7040008D7040008D7040008D7040008B4
:1000C000D7040008D7040008D7040008D7040008A4
:1000D000D7040008D7040008D7040008D704000894
:1000E000D7040008D7040008D7040008D704000884
:1000F000D7040008D7040008D7040008D704000874
:10010000D7040008D704000807CC0008D70400086B
:10011000D7040008E1AF0008D7040008D70400089E
:10012000D7040008D7040008D7040008D704000843
:10013000D7040008D7040008D7040008D704000833
:10014000D7040008D7040008D7040008D704000823
:10015000D7040008D7040008D7040008D704000813
:10016000D7040008D7040008D7040008D704000803
:10017000D7040008D7040008D7040008D7040008F3
:10018000D7040008BF99000800F002F800F0B2F8A8
:100190000AA090E8000C82448344AAF10107DA45E2
:1001A00001D100F0A7F8AFF2090EBAE80F0013F082
:1001B000010F18BFFB1A43F001031847D82F0100A5
:1001C000F82F01000A444FF0000C10F8013B13F027
:1001D000070408BF10F8014B1D1108BF10F8015BA0
:1001E000641E05D010F8016B641E01F8016BF9D193
:1001F00013F0080F1EBF10F8014BAD1C0C1B09D1EA
:100200006D1E58BF01F801CBFAD505E014F8016B5B
:1002100001F8016B6D1EF9D59142D6D370470000ED
:100220000023002400250026103A28BF78C1FBD8FF
:10023000520728BF30C148BF0B6070476E290DF0D0
:10024000318170290DF0A084662911F06883652939
:1002500011F06583672911F062836129AFF3008093
:1002600003681B0A28BF41F0800169290CF0B285A0
:1002700064290CF0AF8575290CF0AC856F290DF061
:100280002B8478290DF06C84E9290DF0C383E429CF
:100290000DF0C083F5290DF0BD83EF290DF0288402
:1002A000F8290DF06B840368DB0928BF41F0800159
:1002B00063290DF0448373290DF04983E3290DF080
:1002C000A587F3290DF0AA87002070471FB511F00C
:1002D0001CFB0DF0FBFE04000020002110F0A8FC28
:1002E000401C60600020002110F08CFCE0601FBD0D
:1002F00010B510BD0EF0E4F91146FFF7E7FF00F06E
:10030000E5FF0EF033FC03B4FFF7F2FF03BC0EF081
:1003100047FC000000210020604A126842F480324D
:100320005E4B1A6000BF5D4A126802F40030491C3F
:1003300010B9B1F5705FF6D1584A1268C2F3404067
:1003400000287DD0554A4032126842F08052534B0B
:1003500040331A60524A126842F48042504B1A608D
:1003600040F205624F4B1A604C4A083212684B4B00
:1003700008331A601A46126842F400421A601A469C
:10038000126842F4A0521A601A46126822F4F81257
:1003900042F400221A601A46126822F07C521A6057
:1003A0001A46126842F080621A601A46126842F0D9
:1003B00060521A601A46126822F040421A601A46C9
:1003C000126842F080421A60374A1B1F1A601A1FD7
:1003D000126842F080721B1F1A6000E000BF2F4AB3
:1003E000126812F0007FF9D040F205622D4B1A60BE
:1003F0002A4A0832126822F00302284B08331A6096
:100400001A46126842F002021A6000E000BF234A56
:100410000832126802F00C02082AF7D1234A1F4B57
:1004200084331A601D4A126842F080621B4B1A60C6
:1004300001E005E000BF194A126812F0006FF9D020
:10044000704710B51A48006840F4700018490860F9
:100450001248006840F001001049086000200F4970
:10046000083108600D480068124908400B490860CF
:100470001148091D0860081F006820F48020091F2A
:100480000860002005490C310860FFF743FF4FF07A
:10049000006007498039086010BD00000038024044
:1004A00000700040003C02400850400700400050EF
:1004B00088ED00E0FFFFF6FE103000240948804779
:1004C00009480047FEE7FEE7FEE7FEE7FEE7FEE736
:1004D000FEE7FEE7FEE7FEE704480549054A064B4E
:1004E000704700004304000889010008A084002030
:1004F000A08E0020A0860020A086002010B5044613
:100500002146F9A009F04DFC10BDF0B52DED068B8C
:1005100085B0002602F092FC05466DB9F948D0F886
:10052000F40020F00400001DF649C1F8F40007F0C3
:10053000CFF801F0D7FE2BE0F248D0F8F40020F01D
:100540000400F049C1F8F4000846006801280CD105
:100550002946EDA009F025FCEA48D0F8F80040F063
:100560000100E849C1F8F80012E00320EE494860B4
:10057000EEA009F016FC4FF00060F74908609FED0F
:10058000F70AF74880ED130A9FEDF60A80ED140A8A
:10059000F5A009F006FCF848D0F8B400F749884205
:1005A0003AD1B822F449EE480CF08EFEDE48C0681D
:1005B000F1494968884221D1DB48007A582804D1A2
:1005C000D948007B10F0010F08D1D748007A59288C
:1005D00010D1D548007B10F0010F0BD1C948D0F8DD
:1005E000F80040F00400C749C1F8F800E4A009F0A1
:1005F000D8FB1CE0E9A009F0D4FB18E0C148D0F812
:10060000F80040F00200BF49C1F8F800D448416842
:10061000E54809F0C6FB0AE0BA48D0F8F80040F017
:100620000200B849C1F8F800E0A009F0BAFBCC48D4
:10063000D0ED030AB0EE600A01F0ACFBC848D0ED83
:10064000040AB0EE600A01F08DFBC54890ED030A84
:1006500010EE101A084611F0D9F841EC100BB0EE6C
:10066000408AF0EE608A53EC182BDAA009F099FB6F
:10067000BB4890ED040A10EE101A084611F0C6F8B7
:1006800041EC100BB0EE408AF0EE608A53EC182B70
:10069000D6A009F086FBB248D0ED060AB0EE600A9B
:1006A00001F08BFBAE48D0ED050AB0EE600A01F018
:1006B000A7FBAB4890ED060A10EE101A084611F0A1
:1006C000A5F841EC100BB0EE408AF0EE608A53ECD6
:1006D000182BCBA009F065FBA14890ED050A10EEA0
:1006E000101A084611F092F841EC100BB0EE408A57
:1006F000F0EE608A53EC182BC7A009F052FBCCA097
:1007000009F04FFB00241CE09548603000EB8400AA
:1007100090ED000A10EE101A084611F077F841EC3F
:10072000100BB0EE408AF0EE608A042C01D0C4A019
:1007300000E07CA053EC182B0090C2A009F031FB24
:10074000641C052CE0D3C1A009F02BFB00241CE0A5
:1007500083484C3000EB840090ED000A10EE101A34
:10076000084611F053F841EC100BB0EE408AF0EE61
:10077000608A042C01D0B2A000E06AA053EC182BD0
:100780000090B0A009F00DFB641C052CE0D30522FD
:100790005C49C0317248603003F0E2FB05463DB170
:1007A0005848D0F8F40020F040005649C1F8F40051
:1007B000544890F8F400C0F3801008B1A7A000E0FE
:1007C000A7A00146A7A009F0ECFA9FEDAA0A0CF039
:1007D00003F94C4880ED240A9FEDA70A0CF0FCF8C1
:1007E000484880ED250A90ED250A10EE101A0846BB
:1007F00011F00CF841EC100BB0EE408AF0EE608A7C
:10080000404890ED240A10EE101A084610F0FEFF42
:1008100041EC100BB0EE409AF0EE609A8DED008B3B
:1008200053EC192B95A009F0BCFA9CA009F0B9FA79
:100830005148D0F860015149884209D157A009F0C8
:10084000B0FAAC224C49B83199480CF03DFD02E0B9
:1008500056A009F0A6FA4248016896A009F0A1FA4C
:10086000934890ED000A10EE101A084610F0CEFFE3
:1008700041EC100BB0EE408AF0EE608A53EC182B7E
:1008800090A009F08EFA8A4890ED030A10EE101A33
:10089000084610F0BBFF41EC100BB0EE408AF0EEC2
:1008A000608A834890ED020A10EE101A084610F094
:1008B000ADFF41EC100BB0EE409AF0EE609A7C4830
:1008C00090ED010A10EE101A084610F09FFF41EC5F
:1008D000100BB0EE40AAF0EE60AA8DED028B8DED0C
:1008E000009B53EC1A2BF9E00D0A556E7265636F8D
:1008F00076657261626C65206572726F723A20254E
:1009000073000000D81900200D0A4F6E65576972F8
:1009100065206572726F723A097374617475732021
:100920003D202564000000000C1B00200D0A4E6FC6
:10093000204F6E65576972652049443A096F70749B
:100940006963616C20666565646261636B206173D5
:1009500073756D6564000000180C024055380E4731
:1009600068180020558D63C60D0A43616C69627278
:100970006174696F6E3A09005816002066191225D5
:100980005820616E642059206368616E6E656C73D7
:1009900020737761707065640000000064617461A9
:1009A0002076616C69640000201A0108646174613A
:1009B00020696E76616C69642C207573696E67209E
:1009C00064656661756C7420706172616D657465D3
:1009D000727300000D0A53696E6520667265713A84
:1009E00009252E306620487A000000000D0A536960
:1009F0006E6520616D706C3A09252E3366205600B5
:100A00000D0A44656D6F642070686173653A09254D
:100A10002E336620646567000D0A44656D6F64209F
:100A20006F66667365743A09252E3366205600009A
:100A30000D0A506F6C7920706F776572733A0900F8
:100A40002C200000252B6625730000000D0A506F36
:100A50006C7920636F656666733A09006F6E0000FB
:100A60006F6666000D0A506F6C7920636F72723A80
:100A700009257300CDCCCC3DCDCC9C400D0A506FE8
:100A80007320446D642052616E67653A09252E33E8
:100A90006620746F20252E33662056000D0A55738C
:100AA0006572204F70506172616D733A09000000E9
:100AB000BC1700200D0A556E697420532F4E3A0959
:100AC000257500000D0A55736572204856206C6923
:100AD0006D69743A09252E3166205600F4A009F09C
:100AE00060F9FE48406A012802D1AFF2900001E0AF
:100AF000AFF294000146FAA009F053F9F74890EDDF
:100B00000D0A10EE101A084610F080FE41EC100B92
:100B1000B0EE408AF0EE608AF04890ED0B0A10EEDD
:100B2000101A084610F072FE41EC100BB0EE409A1D
:100B3000F0EE609A8DED008B53EC192BEDA009F0CF
:100B400030F9E648806A012802D1AFF2F00001E0F6
:100B5000AFF2F4000146EDA009F023F9DF4890ED73
:100B60000E0A10EE101A084610F050FE41EC100B61
:100B7000B0EE408AF0EE608AD84890ED0C0A10EE94
:100B8000101A084610F042FE41EC100BB0EE409AED
:100B9000F0EE609A8DED008B53EC192BD5A009F087
:100BA00000F9CE4890F86400C0F3C01020B14FF4B3
:100BB000804001F03BFA0DE0C849B1F86410C1F380
:100BC000002111B14FF4005101E04FF4805108466B
:100BD00001F02CFAD2480068012805D0D04991F8DC
:100BE000FC00842104F04BFEBC4890F86400C0F384
:100BF0004001CB48D0F8F40061F30410C849C1F8B3
:100C0000F400B64890F86400C0F3C00020B14FF083
:100C10000040C449886103E04FF40040C149886145
:100C2000AE4890F86400C0F3001020B14FF480008B
:100C3000BD49086002E04020BB490860A74890F821
:100C40006400C0F3401020B14FF08050B6490860F6
:100C500003E04FF48050B4490860A04890F8640065
:100C6000C0F3001018B10220AD49C1F8F0009B4854
:100C7000D0ED000AB0EE600A00F0F0FFA84908636A
:100C80009FEDAA0A01F001F84FF4FA7009F0C0FBD9
:100C90004FF40040A649086009F08EFB064603E0C9
:100CA000A44909680868804709F086FB0746314671
:100CB00009F087FBB0F57A7FF2DB05B0BDEC068B5F
:100CC000F0BD70B505460C46012D04D0022D1BD099
:100CD000032D6FD143E04FF48040954908605020C8
:100CE000954908609548934908609548954908607A
:100CF0001CB995489549086002E0954893490860F9
:100D00008E489449086055E04FF480408849086057
:100D10008000914988612220874908608848854978
:100D2000086086488749086034B987488749086061
:100D300082488849086005E08548844908608248FF
:100D4000844908604220764981F8FC000AF076FB6D
:100D5000002132200AF06CFC0AF04EFC2AE04FF42D
:100D60008040734908602120734908607B487C49B2
:100D7000086072486F49086071487249086034B968
:100D800071487249086072487249086005E070480D
:100D90006E49086069486F4908604120604981F8E0
:100DA000FC000AF04BFB002131200AF041FC0AF064
:100DB00023FC00BF00BF70BD70B5694800685F4983
:100DC00088420AD16549674800F0BEFC6548D0F802
:100DD000040110B9614862490860614800685749D8
:100DE00088420FD159480068594988420AD05D4865
:100DF00000F0AAFC5B48D0F8040170B95448584987
:100E000008600AE056480168564800F09DFC044618
:100E1000902C02D154A0FFF771FB5248D0F8040186
:100E200000283FD14F4A57A108F0E0FD4D48007916
:100E300000F07F05112D11D154494A4804F010FCEF
:100E40005248D0F80001F8B15149504800F0BCFCBC
:100E50004E4A50A1012008F0C9FD1FE03648006845
:100E6000A84212D1494A00213E4804F07DFE47487D
:100E7000D0F8000140B14649444800F0A5FC434A7F
:100E800044A1012008F0B2FD08E0212D06D135482B
:100E90000146D0F80021414809F06AFC012031499F
:100EA000C1F804013A492E48006800F097FC77E049
:100EB0000D0A50494420706172616D733A095020E7
:100EC0003D20252E30662C2049203D20252E3066E1
:100ED0002C2044203D20252E30660000BC17002029
:100EE0000D0A4E6F7463682023313A0925732C2054
:100EF000000000006663203D20252E316620487AE0
:100F00002C2051203D20252E316600000D0A4E6F09
:100F10007463682023323A0925732C2000000000F6
:100F2000D819002000000240180402400000000010
:100F3000180802400C000020DC1A0020442301089D
:100F40006823010850030020802301089C0400202E
:100F50005C230108BC04002000100240502301085B
:100F60000800002010000020496E76616C69642042
:100F7000415054206D65737361676520666F726DB3
:100F800061742E0041505452783A200054050020DC
:100F90002802002041505454783A200038020020A2
:100FA000FA49FB48006800F019FCF9480168F94863
:100FB00000F0CAFB0446902C02D1F7A0FFF79EFA7E
:100FC000F448D0F8040178B9F24AFDA1012008F0F4
:100FD0000DFDF0480146D0F80021FB4809F0C8FBA0
:100FE0000120EC49C1F8040170BD70B5F7480068F4
:100FF00001281DD00AF0D4FA050002D0284605F0D9
:10100000C9FE0AF0CAFC04468CB1F048D0F8F800DA
:1010100010F4801F0BD12146EDA008F0C2FEEB4872
:10102000D0F8F80040F48010E849C1F8F80000BF9B
:1010300070BD70B500F04AFEE449D1F8F8100843DD
:10104000E249C1F8F80001F0FEF838B1DF48D0F805
:10105000F80040F48040DD49C1F8F80001F0E8F8FC
:1010600068B1DA48D0F8F80040F40040D749C1F838
:10107000F8001020DE490860642001F0CDF8D34864
:10108000D0F8F80000282FD0D048D0F8F800D9497F
:101090000968884223D0CD48D0F8F810D6A008F0CF
:1010A00080FE082001F0BCFD012416E0C748D0F8FE
:1010B000F800204210D0C549D1F8F81001EA040028
:1010C00000F094FB0546C148D0F8F80000EA04029D
:1010D0002946CFA008F065FE6400002CE6D1BB488D
:1010E000D0F8F800C3490860CC48406801283FD1D7
:1010F00009F062F90546C9480189284609F061F9F5
:1011000044F62061884233DDB048D0F8F800C34986
:10111000096A0840C149C96900EA0105EDB12846DC
:1011200000F064FB0646BE4A3146284604F0FEFC49
:10113000A549BB4800F048FBB94AAFF2A81101200D
:1011400008F054FCA148D0F8F800B449C969084037
:10115000B249096A8143B1480162B048C0694000A0
:10116000AE49C8610846C06908B90120C86100BF1E
:1011700070BD10B501F081FC04469448D0F8D4004D
:1011800020449249C1F8D40044B1A64890F86400C4
:10119000C0F3800010B1204600F0FFFE10BD10B576
:1011A0009E48C06878B19E4A40F26161002004F018
:1011B000DBFC85499A4800F007FB994AAFF22C21E5
:1011C000012008F013FC81480068012805D07F4900
:1011D00091F8FC00832104F052FB10BD10B500F023
:1011E00019FF7A49D1F8F41060F341017748C0F84B
:1011F000F41090F8F400C0F340008B49096888426D
:1012000010D0724890F8F400C0F34000864908609E
:1012100040B16E49896909B9022100E00021084600
:101220000BF00AFD6948D0F8F8008002800A03D06C
:10123000042000F0FBFE02E0082000F0F7FE634906
:101240008969022901D1102100E02021084600F01F
:10125000EDFE5E48C069002816DD5C490A7FC96959
:10126000491E5A4BD96112F0040F01D0022100E04F
:101270000121084600F0DAFE54480068012803D036
:101280008421402004F0FBFA10BD10B501F0FCFDF4
:1012900004460A2C02D102F01DFA09E00B2C07D1FA
:1012A0004A48D0F8F80040F480204849C1F8F800D6
:1012B00001F041FF04460C2C07D14448D0F8F80057
:1012C00040F400304149C1F8F80010BD88B010F07A
:1012D0001CFB00F0A3FA09F021F809F076F864206D
:1012E00009F0A6F809F0C2F84FF000504049086034
:1012F00008F0E6FE3549086008460068012801D07C
:10130000012100E000214748406E61F38200454919
:1013100048662E490968032901D1022100E0002115
:10132000084609F04DFA29490968022900D100E070
:101330000021084609F0FCFC09F054FB09F0F0FD1F
:10134000002009F0EFFE09F0FDFF0AF0D5FD0AF0DC
:101350008FFF0AF041FB002000F00AFF9FED330AE7
:1013600000F000FD9FED320A00F04AFD40203149B7
:10137000086080201E4908600AF06EFB46F2A81043
:101380000AF02FFD0AF0EBFC56E0000038020020C6
:101390000C0000201C010020496E76616C696420FD
:1013A000415054206D65737361676520666F726D7F
:1013B00061742066726F6D20736C6176652E00001B
:1013C000536C7652783A200028020020D819002069
:1013D0000D0A43414E206572726F723A2073746138
:1013E000747573203D20307825582E0D0A000000BA
:1013F000180C0240000000200D0A4572726F722C1A
:1014000020636F6465203D20307825583A0D0A002E
:101410002573202830782558290D0A00DC1A002071
:1014200054050020BC17002004000020CDCC5C40F7
:1014300000000000180402401FED030A0AF00EFC31
:1014400062B60A2008F0E4FF4FF480106E4908608D
:10145000FA2008F0DDFF4FF080706C498861400190
:101460006B490860052008F0D3FF4FF4807067498E
:101470008861400166490860C00366490860C00091
:1014800062498861000D604908601FED170A00F08D
:10149000FCFB0A2008F0BCFF5F480BF0B8FB4FF4E0
:1014A00000705C49086009F08BF84FF4FA7008F09E
:1014B000AFFF00F091FE212000F0AEFE4FF400508F
:1014C00051490860012000F0B1FD082000F0AEFD98
:1014D000202000F0ABFD4FF4005000F0A7FD0023EA
:1014E0004FF4B27219464D4801F0C2F94B48D0F89A
:1014F00060014B49884207D1484890F81C0110F020
:10150000010F01D0012000E0002004464549086891
:101510002146FFF7D6FB43480068032801D101208C
:1015200000E00020404A1268404B9A4201D101225B
:1015300000E00022904201D13DA000E03EA0014623
:101540003FA008F02EFC3FA008F02BFC47A008F0BD
:1015500028FC3CA008F025FC32480068012801D195
:101560004CA000E04DA001464EA008F01AFC2D480A
:101570000068032801D152A000E053A0014654A006
:1015800008F00FFC5748D0F80E1057A008F009FCDF
:101590009FED5B0B53EC102B5BA008F002FCFEF7F9
:1015A000B4FF60A008F0FDFB08F01BFC2AE0FFF789
:1015B00003FCFFF71AFDFFF7DCFD08F051FF38B11F
:1015C000FFF7EDFDFFF735FDFFF75FFEFFF706FEC6
:1015D00008F0ABFC01A802F051FEDDE90101CDE904
:1015E00006016846DDE9061202F04BFF9DE80700A0
:1015F00003AB07C303A807C803F0CBFB02F043FE0D
:1016000006F060F8D3E70000180C0240000002402A
:10161000180802401804024010002000581600204C
:1016200066191225D81900209C0400208023010887
:101630001B5B33306D0000001B5B33346D0000001A
:10164000257300000D0A2D2D2D2D2D2D2D2D2D2D29
:101650002D2D2D2D2D2D2D2D2D2D2D2D2D2D2D2DBA
:101660002D2D2D2D2D2D2D2D000000000D0A50505B
:1016700043313058205049455A4F204D4943524F2D
:1016800053434F505920434F4E54524F4C4C4552A8
:101690000000000073696E676C6500006D756C7406
:1016A000690000000D0A50726F64756374207479CC
:1016B00070653A092573206368616E6E656C000081
:1016C000736C6176650000006D6173746572000073
:1016D0000D0A4368616E6E656C20747970653A0915
:1016E000257300009C0200200D0A4669726D776127
:1016F0007265207265763A09253036580000000080
:1017000000000000000064400D0A53797374656D99
:1017100020636C6F636B3A09252E3266204D487A40
:101720000D0A00000D0A0A507265737320456E742D
:10173000657220666F72206465627567206D656EE4
:10174000752E0D0A000000002DE9F04104460E46FA
:101750000127D4F80401012802D00220BDE8F0815D
:1017600026E0D4F80821501CC4F80801A554D4F888
:101770000801062810D1207910F0800F01D0A07840
:1017800000E00020801DC4F80001D4F80001B0F58D
:10179000807F01D99020E1E7D4F80011D4F8080146
:1017A000884205D10020C4F80801C4F804010327C9
:1017B000D4F8040130B1306880470546A0F57F4178
:1017C000FF39CED13846C9E770B504460D462146EB
:1017D0002846D4F8002108F0CBFF70BD70B5044650
:1017E0000D462946204608F0D4FF70BD0246002170
:1017F000F84B18680AE0F84B53F83130134204D024
:10180000F54B03EBC103586806E0491CF24B03EBB0
:10181000C1035B68002BEED100BF704710B586B0E6
:10182000EE48EF490860EF4908600020EE49086083
:1018300048600872C8609FEDED0A084680ED040A12
:10184000B7EE000A80ED050AB2EE040A80ED060A42
:101850009FEDE70A80ED070A5020E6490860002066
:101860004860C86048610861322088610120C86111
:10187000801E086200208862DF48E04908604FF05F
:10188000FF304860022088609FEDDD0A084680ED49
:10189000030AB7EE000A80ED040A9FEDDA0A80ED34
:1018A000050A9FEDD80A80ED060A9FEDD70A80ED64
:1018B000080A9FEDD60A80ED070A9FEDD50A80ED54
:1018C000090A9FEDD40A80ED0A0A9FEDD30A80ED44
:1018D0000B0A9FEDCC0A80ED0C0A9FEDD00A80ED3B
:1018E0000D0A9FEDC80A80ED0E0A9FEDCD0A80ED2E
:1018F0000F0AB0EE040A80ED100A9FEDCA0A80EDCF
:10190000110A9FEDC90A80ED120A9FEDC80AC84866
:1019100080ED160A002417E0012C02D1B7EE000A70
:1019200001E09FEDB80AB5484C3000EB840080ED33
:10193000000A00EE104AB8EE400AB048603000EBF2
:10194000840080ED000A641C052CE5D3B948AB493E
:10195000C1F8B400B822B8480BF0B6FC0522B4496F
:10196000C031A648603002F0FBFAB448406E20F067
:101970000100B24948660846406E20F004004866FF
:101980000846406E20F0020048660846406E20F08F
:10199000080048660846406E20F010004866084679
:1019A000406E20F0200048660846406E20F080001F
:1019B00048660846406E20F4807000F580704866E6
:1019C0009FED9F0A084680ED010A9FED9E0A80ED7B
:1019D000020A9FED9D0A80ED030A9FED9C0A80EDAF
:1019E0000B0AB0EE000A80ED0D0A90ED0D1AF0EE34
:1019F000410A90ED0B1AB0EE410A01A802F024FB57
:101A0000142201A98D483C300BF05EFC01208B496B
:101A100048629FED8F0A084680ED0C0AB0EE000A7E
:101A200080ED0E0A90ED0E1AF0EE410A90ED0C1AC0
:101A3000B0EE410A01A802F007FB142201A97F4879
:101A400050300BF041FC01217C4881629FED810AFE
:101A500080ED050AB7EE000A80ED040A9FED690AE1
:101A600080ED060A9FED670A80ED070A00207349A2
:101A700008629FED5F0A084680ED000A9FED610A4B
:101A800000F0D8F900206A4908600846D0F8F40050
:101A900020F008000830C1F8F400002048609FEDF5
:101AA000590A084680ED020A9FED560A80ED030AA6
:101AB0009FED540A80ED040A9FED520A80ED050A5D
:101AC00000208861C861012008629FED4E0A084627
:101AD00080ED0F0A9FED600A80ED100A9FED490A24
:101AE00080ED0E0A9FED470A80ED120A0020C1F832
:101AF000D400C1F8D8009FED3E0A00F0AFF84C4981
:101B00000863BBEE0E0A00F0A9F8494948639FED4F
:101B10003D0A00F0A3F8464948640120C1F8F000EE
:101B2000B0EE000A084680ED190A9FED360A80EDF6
:101B30001A0A0120C1F89C009FED320A084680ED88
:101B4000220ABEEE000A80ED240AB1EE040A80EDFE
:101B5000250AB0EE020A80ED260A0120C864B7EE1D
:101B6000000A084680ED170AB6EE000A80ED180A52
:101B7000B2EE040A01A802F03DFB142201A92C4890
:101B8000DC300BF0A1FB2A48D0F8F40020F0200054
:101B900020302749C1F8F4000846D0F8F40020F0BE
:101BA00040004030C1F8F4000020C1F8F8000846B9
:101BB000D0F8F40020F00400C1F8F4000846D0F892
:101BC000F40020F08000C1F8F400002081F8FC004F
:101BD00006B010BD44030020801A01084423010808
:101BE0009C040020BC0400200C1B002000409C46EC
:101BF00000001643DC1A002000639F0268180020D2
:101C00000050C34600000000A3A13C488776AC45C5
:101C1000020048B7989999CA0200C8B581A4A0B536
:101C20000000A0B8E16BAF460068BD450000484326
:101C3000D819002099E6EDDA20190020BC17002001
:101C400000C0A8450000F043000048420000A64242
:101C50000000D64200007A440000964270B52DED97
:101C6000028BB0EE408AFA4890ED080AD0ED070AE0
:101C700000EE880A10EE105A28460FF0F2FD80F3AD
:101C800014042046BDEC028B70BD10B52DED028B07
:101C9000B0EE408AEF4880ED0E8AB0EE480AFFF7BA
:101CA000DDFF0446EB4844642046BDEC028B10BDCA
:101CB000E749D1ED080A00EE100AB8EE400A70EECE
:101CC000600A91ED071A80EE810A704770B52DED1C
:101CD000028B002600243FE0651C284608F006FD24
:101CE00000EE100AB8EE400ADFEDDB0A60EE200AD3
:101CF000DA4800EBC50090ED011AD84800EBC500AA
:101D000090ED000AB0EE408A00EE818A04EB840078
:101D1000D34901EB800090ED000AB4EEC80AF1EE61
:101D200010FA06DD04EB840001EB8000C068064376
:101D300011E004EB8400CA4901EB800090ED020A37
:101D4000B4EEC80AF1EE10FA05D204EB840001EB00
:101D5000800000690643641C052CBDDB3046BDECE9
:101D6000028B70BD10B52DED028BB0EE408A9FED59
:101D7000BD0A28EE000A10EE101A08460FF071FD99
:101D800080F31004A1B2012009F035FE2046BDEC1D
:101D9000028B10BD10B52DED028BB0EE408A18EE0F
:101DA000100A0FF05EFD04460AF01BF8F0EE408AC0
:101DB000B0EE680ABDEC028B10BD10B52DED048BA2
:101DC000B0EE408AB5EEC08AF1EE10FA05D29FED72
:101DD000A60A30EE480AB0EE408A9FEDA30AC8EE8C
:101DE000000AB0EE609AB0EE490A09F037FFF0EE53
:101DF000408A9FED9D0A28EE800ABDEC048B10BD41
:101E000010B52DED028BB0EE408AB1EE480ADFED41
:101E1000970A20EE200A10EE101A08460FF021FD56
:101E200080F31004A1B2002009F0E5FD2046BDECCE
:101E3000028B10BD10B52DED028BB0EE408A8548A7
:101E400080ED1B8A824890ED120AD0ED110A08EE4F
:101E5000200A10EE101A08460FF003FD80F312045A
:101E60007C4804672046BDEC028B10BD794890ED9C
:101E70000B0AB8EEC00A7648D0ED0A0A30EE200A06
:101E8000D0ED090A20EE200A7047724890ED090A49
:101E9000B8EEC00A6E48D0ED0C0A30EE200AD0ED44
:101EA0000B0A20EE200A70476A4890ED0A0AB8EE45
:101EB000C00A6748D0ED0E0A30EE200AD0ED0D0AB8
:101EC00020EE200A7047634890ED1E0A7047614873
:101ED00090ED1F0A704710B52DED028BB0EE408AD1
:101EE0005B4890ED100A38EE400AD0ED0F0A80EE04
:101EF000201A11EE104A20460FF0B3FC00F30F0039
:101F0000BDEC028B10BD10B5FFF7B0FFDFED580A36
:101F100020EE200A10EE104A20460FF0A2FC00F33B
:101F20000F0010BD10B52DED028B4A4890F8F4005B
:101F3000C0F3801078B1474890F8F400C0F3401027
:101F400018B1444890ED210A02E0424890ED200A81
:101F5000B0EE408A0EE03F4890F8F400C0F3401025
:101F600018B13C4890ED1F0A02E03A4890ED1E0A75
:101F7000B0EE408A374890ED170AC8EE000AB0EE7E
:101F8000608A18EE100A0FF06CFC3249C96C4843A5
:101F900000F30F00BDEC028B10BD10B52DED048BCE
:101FA00004462C48806928B92A48406C20442949B5
:101FB00048642CE027488069022828D12549C86C4C
:101FC0000FF0DAF841EC100BB0EE409AF0EE609AA8
:101FD0009FED280B53EC102B51EC190B0FF020F94F
:101FE00041EC100BB0EE408AF0EE608A51EC180B19
:101FF0000EF040FE00EE900A164890ED221A00EE18
:10200000104AB8EEC00A00EE801A80ED221ABDEC2C
:10201000048B10BD0F480068012801D000207047D4
:1020200016480068012121EAD020F8E7094909682B
:10203000012900D0704710283CD021DC012847D06E
:1020400002284CD0042827D008285BD12BE00000C0
:1020500068180020D81900206740533AFC22010874
:10206000281B01084473D6450000B443CDCCCC45B1
:1020700059725A432D431CEBE2361A3F10040240BA
:1020800020281ED0B0F5805F30D0B0F5005F31D091
:10209000B0F5804F36D131E0FE49096841F00401C6
:1020A000FC4A11602EE0FB49096821F00401F94A5D
:1020B000116027E0F749096841F00201F54A116013
:1020C00020E0F449096821F00201F24A116019E0A8
:1020D000F049096841F00101EE4A116012E0ED4952
:1020E000096821F00101EB4A11600BE00221EA4A84
:1020F000116007E00121E84A116003E00021E64A8F
:10210000116000BF00BFE449096859B3E14909788B
:1021100011F0040F01D0082101E04FF40021DF4A43
:102120001160DC49097811F0020F01D0022101E0B1
:102130004FF40031D94A1160D649097811F0010FE6
:1021400001D0012101E04FF48031D44A1160D2491D
:102150000968022901D1C90101E04FF08071D04A1C
:10216000116003E04FF43021CC4A116000BF61E7F9
:10217000CC490968022900D1704710F0010F01D045
:10218000012101E04FF48031C74A916110F0020F44
:1021900001D0022101E04FF40031C34A916110F0F7
:1021A000040F01D0042101E04FF48021BE4A916167
:1021B00010F0080F01D0082101E04FF40021BA4AC5
:1021C000916110F0100F01D0911501E04FF0807176
:1021D000B54A916100BFCFE7B448006840F0010004
:1021E000B2490860B1481030006840F00050AF4973
:1021F00010310860AE48006840F44070AC49086097
:102200000846C06820F44070C860AA48006840F0E2
:102210000100A84908607047642800D96420C0EB19
:1022200000216422B1FBF2F1A24A10321160704722
:1022300010B5062008F05AFAB0F59B6F01DB0120BB
:1022400010BD0020FCE7964808380068012121EA0B
:10225000D0107047944A1169C1F3033011F4007F24
:1022600001D040F01000704770B52DED028B044690
:102270002D25002008F03AFA00EE100AB8EE400AC8
:10228000DFED8D0A80EE201AB0EE418A9FED8B0AB9
:1022900038EE400AB0EEC00ADFED890AB4EEE00A7B
:1022A000F1EE10FA01D258250DE09FED860A38EEC6
:1022B000400AB0EEC00ADFED820AB4EEE00AF1EEA9
:1022C00010FA00D2592504B125709FED7F0A68EEFF
:1022D000000A9FED7E0A30EE481A80EE810ABDECBE
:1022E000028B70BD30B585B0794CA07E012806D137
:1022F00002207849486080056849086005E00120AF
:102300007449486080206549086004F1030454F86A
:10231000010C70490860608B00EE100AB8EE400AAC
:10232000084680ED060A208B00EE100AB8EE400A3F
:10233000084680ED070AD4F81300C860E06900EE93
:10234000100AB8EE400A084680ED040A206AA4F19B
:10235000030400EE100AB8EE400ADFED5F0A80EEDB
:10236000201A084680ED051A0068642803D101F19F
:102370000800FFF779FF5748006864287ED0B0F561
:10238000E17F04D0A0F50070C63878D1CFE00120FD
:102390004449C8649FED510A084680ED0F0A9FED3D
:1023A000500A80ED100ABEEE000A80ED240AB1EE5C
:1023B000040A80ED250AB0EE020A80ED260A9FEDA0
:1023C000470A80ED1A0AB0EE000A80ED190AB7EE4E
:1023D000000A444880ED000AB6EE000A80ED010ACA
:1023E000B0EE000A80ED020A9FED3C0A80ED030A80
:1023F0009FED3D0A80ED040A9FED3C0A3C4880EDCC
:10240000030AB7EE000A80ED040A9FED3A0A80ED58
:10241000060A9FED320A80ED050A9FED370A37481C
:1024200080ED010A9FED360A80ED020A9FED350A24
:1024300080ED030A9FED340A80ED0B0AB0EE000A2E
:1024400080ED0D0A90ED0D1AF0EE410A90ED0B1A99
:10245000B0EE410A684601F0F7FD142269462748AC
:102460003C300AF031FF0120244948629FED270AE1
:10247000084680ED0C0AB0EE000A01E0E6E083E1D8
:1024800080ED0E0A90ED0E1AF0EE410A90ED0C1A56
:102490003EE00000480300204C030020180C0240DE
:1024A00018040240D81900200010024030380240C1
:1024B000000002400074004000F07F45143BB13E34
:1024C000CDCC4C3D9425303F0080D445C520803F85
:1024D000C41B00200C1B002000007A4400000000F8
:1024E00000009642D0030020000002430050C34683
:1024F000681800200000A04200C0A845BC170020BA
:102500000000F043000048420000A6420000D6420E
:10251000B0EE410A684601F097FD14226946BD48B5
:102520000AF0D2FE0121BB48503881622CE1012023
:10253000B949C8641FED170A084680ED0F0A1FED60
:10254000180A80ED100ABEEE000A80ED240AB1EEF2
:10255000040A80ED250AB0EE020A80ED260A1FED7E
:10256000210A80ED1A0AB0EE000A80ED190AB7EED2
:10257000000AAA4880ED000AB6EE000A80ED010AC2
:10258000B0EE000A80ED020A1FED2C0A80ED030A6E
:102590001FED2B0A80ED040A1FED2C0AA04880EDE8
:1025A000030AB7EE000A80ED040A1FED2E0A80ED43
:1025B000060A1FED360A80ED050A1FED380A954818
:1025C000503880ED010A9FED970A80ED020A1FED59
:1025D0003D0A80ED030A9FED940A80ED0B0A9FED02
:1025E000930A80ED0D0A90ED0D1AF0EE410A90ED80
:1025F0000B1AB0EE410A684601F026FD1422694626
:10260000844814380AF060FE01208249503948623B
:102610009FED870A084680ED0C0AB5EE000A80EDB2
:102620000E0A90ED0E1AF0EE410A90ED0C1AB0EE83
:10263000410A684601F008FD1422694675480AF00F
:1026400043FE01217348503881629DE07948007A49
:10265000592802D14FF0FF3000E001206E49C864D4
:10266000BBEE0E0A084680ED0F0A9FED730A80ED5F
:10267000100AB9EE040A80ED240AB1EE040A80EDD6
:10268000250A1FED6A0A80ED260A1FED6C0A80ED0F
:102690001A0AB0EE000A80ED190AB1EE000A5F488E
:1026A00080ED000AB0EE040A80ED010AB1EE020AE4
:1026B00080ED020ABBEE090A80ED030A9FED5F0A76
:1026C00080ED040A9FED5E0A554880ED030AB1EEE5
:1026D000000A80ED040A9FED5B0A80ED060A1FEDFB
:1026E000810A80ED050AB9EE020A80ED130A9FED1A
:1026F000560A80ED140A9FED550A4648503880ED81
:10270000010A9FED530A80ED020A9FED520A80ED07
:10271000030A9FED510A80ED0B0AB0EE000A80ED2E
:102720000D0A90ED0D1AF0EE410A90ED0B1AB0EE85
:10273000410A684601F088FC14226946354814387D
:102740000AF0C2FD01203349503948629FED430A27
:10275000084680ED0C0AB7EE000A80ED0E0A90EDF7
:102760000E1AF0EE410A90ED0C1AB0EE410A6846DE
:1027700001F06AFC1422694626480AF0A5FD0121F1
:1027800024485038816200BF00BF234890ED100AF2
:10279000DFED330A20EE200ADFED320A80EE201A48
:1027A00011EE105A28460FF05CF81B4908650846E0
:1027B00090ED260ADFED2A0A20EE200AF1EE020A49
:1027C00080EE201A11EE105A28460FF04AF81249EE
:1027D00048659FED250A084680ED170A1548D0ED9B
:1027E000060A084690ED130AB8EEC00A20EE800AE9
:1027F000F1EE020A80EE201A80ED161A90ED130A0F
:10280000B8EEC00ADFED190A20EE200A80ED180AA2
:1028100005B030BD0C180020D8190020D0030020CE
:1028200068180020008045440000DC429A99993FD6
:1028300000005C430C1B00200000704200001143AC
:1028400000A08C46000020436666E63F00A00C46D0
:102850000000484400401C460000D24200002A43C9
:1028600000FEFF4600001643200110396666E63E72
:102870002DE9F05F81460C4617469A464FF0010B52
:102880004E46E019B0F5804F02D30120BDE8F09F1D
:10289000002008F0A7FD032008F0AEFDC4F30720D8
:1028A00008F0AAFDE0B208F0A7FD4FF0000816E01E
:1028B000002008F0A1FD0546BAF1000F02D106F88C
:1028C000015B0AE0BBF1000F05D016F8011BA9421D
:1028D00001D1012000E00020834608F10108B8453D
:1028E000E6D3012008F07EFDBBF1010F01D00120ED
:1028F000CCE70020CAE72DE9F04180460C4615469A
:102900006019B0F5804F02D30120BDE8F081474641
:10291000002008F067FD062008F06EFD012008F099
:1029200061FD002008F05EFD022008F065FDC4F3A3
:10293000072008F061FDE0B208F05EFD002604E02B
:1029400017F8010B08F058FD761CAE42F8D30120B1
:1029500008F048FD002008F045FD042008F04CFD7B
:10296000012008F03FFD0120CFE7000010B521490C
:102970000968086880470446A4F57F40FF3800D105
:1029800010BD1D48006C012801D00120F8E71B484C
:10299000006860B92A2C01D00320F1E717480268CB
:1029A0000068401C154B18601348845407E0134816
:1029B00002680068401C114B18600F4884540F488F
:1029C0000068082804D100200C4908600A490864FE
:1029D0000220D5E770B504460D462A462146084830
:1029E00007F0C6FE70BD10B505490248006807F043
:1029F000D0FE10BD5003002054030020A803002087
:102A0000980300208D48417899B1012919D1817925
:102A10008B4AD16090F903105161817801F0F00187
:102A20001161817801F00F0151600121854A116027
:102A300007E00121824A1160817801F00F015160A5
:102A400000BF00BF704710B504467F498C7003215A
:102A50007D48FFF7BFFF10BD38B504462A208DF82A
:102A60000000E0B28DF80100754800798DF8020091
:102A700003216846FFF7AEFF38BD70B50024FFF7AD
:102A800075FF6E48006C20B9FFF7BCFF01206B4951
:102A90000864FFF7A8FF6D480068082874D2DFE8D3
:102AA00000F0040C52657B222E7407F085FC684907
:102AB0000880012065490860AFE000206549086092
:102AC00007F07AFC054662480188284607F079FC41
:102AD00040F6C411884205DD5FA007F062F90520C9
:102AE0005A49086099E05B480068FFF7ACFF07F0BF
:102AF00063FC574908800620544908608DE007F0C0
:102B00005BFC054652480188284607F05AFC6428B9
:102B100018DD4B48007810F0010F03D002204B491C
:102B200008600FE04B4800680F2803DD0720474985
:102B3000086007E047480068401C464908600520D7
:102B40004249086069E03E4841684AA007F029F917
:102B50000920FFF781FF0620FFF77EFF07F02CFC1E
:102B60003B49088003203949086056E007F024FCFF
:102B7000054637480188284607F023FC642802DD13
:102B800004203249086048E046E042A007F009F915
:102B900008202E49086040E02A48006801282FD10B
:102BA0002748806808B1012000E000202449096915
:102BB00009B1012100E0002188420FD020480069BE
:102BC00008B1012000E000201D498860896809B132
:102BD000052100E006210846FFF73EFF1848C068BF
:102BE000401C17494969484315498968012901D1A1
:102BF0000A2100E0012100FB01F4022011490860D4
:102C000010484068012806D128480068FFF724FFD3
:102C100002200C49486000E000BF00BF204670BDA4
:102C20000121084A516021490860704710B50446E7
:102C30001822034920460AF047FB10BD5403002028
:102C4000AC1B0020AC030020B4030020B80300201C
:102C5000C0030020BC0300200D0A4A6F7973746919
:102C6000636B206964656E74696669636174696F1A
:102C70006E3A20006A6F79737469636B20666F75B2
:102C80006E642C206368616E6E656C203D20256447
:102C90002E0D0A006A6F79737469636B206E6F740E
:102CA00020666F756E642E0D0A000000C4030020BC
:102CB00010B56048806940F010005E4988614FF4AB
:102CC000F07007F09AFB5B48806940F48010594926
:102CD0008861462007F091FB56480069C0F3401018
:102CE00080F001044FF4CD7007F087FB204610BD43
:102CF00010B5044694B14F48806940F010004D492A
:102D00008861062007F079FB4A48806940F480100A
:102D100048498861402007F070FB11E04548806910
:102D200040F01000434988613C2007F066FB4148B1
:102D3000806940F480103F4988610A2007F05DFBFC
:102D400010BD10B53B48806940F0100039498861DA
:102D5000062007F052FB3748806940F4801035495F
:102D60008861092007F049FB32480069C0F340142C
:102D7000372007F042FB204610BD70B50446002501
:102D800006E004F00100FFF7B3FF6410681CC5B251
:102D9000082DF6DB70BD70B50024002507E0641037
:102DA000FFF7CFFF08B144F08004681CC5B2082DBE
:102DB000F5DB204670BD70B5054600BFEFF310800F
:102DC0001D4908601B48806940F4801019498861DA
:102DD000002404E04FF47A7007F00FFB641C642CAD
:102DE000F8DBFFF765FFB8B10126CC20FFF7C5FF80
:102DF000F020FFF7C2FF0020FFF7BFFF0020FFF722
:102E0000BCFF002404E0FFF7C6FF05F8010B641CBB
:102E1000B4F5007FF7DB00E000260648806940F04B
:102E20001000044988610449086880F3108800BFD5
:102E3000304670BD00100240C80300202DE9F0416B
:102E40001048FFF7B8FF074617B90120BDE8F08129
:102E50000C4D28783D2801D00220F7E768784642DB
:102E6000002403E00748005D0644641CB4F5007FBD
:102E7000F8DBF1B26878814201D00320E6E7002058
:102E8000E4E70000C41B002010B52DED028BED48D7
:102E900000680C281AD2DFE800F0061A1B32406ADC
:102EA0007684AEF1EFEEE848006801280ED19FED80
:102EB000E70AE74880ED020A9FEDE40A80ED030A85
:102EC0000020E14908600120DE49086026E100BFDA
:102ED000E0A006F066FF9FEDDD0AFEF7D6FE9FED4F
:102EE000DB0AFEF78DFF9FEDD90AFEF766FF07F0BC
:102EF00063FADE4908800320D24908600EE107F03A
:102F00005BFA0446D9480188204607F05AFA64283B
:102F100002DD0420CB49086000E1FEF7C5FFD4487C
:102F200080ED000A00680EF071FC41EC100BB0EE71
:102F3000408AF0EE608A53EC182BCEA006F031FFE9
:102F4000CB4890ED000AB0EEC00AF2EE030AB4EEF0
:102F5000E00AF1EE10FA06DD0520BD4948600B20BD
:102F6000B849086002E00520B6490860D6E09FED48
:102F7000C90AFEF722FF07F01FFABC4908800620A5
:102F8000B0490860CAE007F017FA0446B74801885C
:102F9000204607F016FA642802DD0720A9490860D8
:102FA000BCE0FEF781FFBC4880ED000A00680EF02F
:102FB0002DFC41EC100BB0EE408AF0EE608A53EC31
:102FC000182BB6A006F0EDFEB34890ED000AB0EE67
:102FD000C00AF2EE030AB4EEE00AF1EE10FA06DDE2
:102FE00005209B4948600B209649086002E00820B4
:102FF0009449086092E09E4890ED000AB0EEC00A45
:10300000F6EE000AB4EEE00AF1EE10FA12D2A2488F
:1030100090ED000AB0EEC00AF6EE000AB4EEE00A47
:10302000F1EE10FA06D20420894948600B20854948
:10303000086073E09848D0ED000A8D4890ED000AD2
:103040000CF0EEF9DFED9D0A20EE200A9C4880EDA1
:10305000000A00680EF0DAFB41EC100BB0EE408A7B
:10306000F0EE608A53EC182B96A006F09AFE092029
:103070007449086052E04AE02AE0FFE7904890ED8A
:10308000000AB1EE400ADFED830A30EE200A10EEAE
:10309000101A08460EF0BAFB41EC100BB0EE408A55
:1030A000F0EE608A53EC182B8BA006F07AFE844871
:1030B000D0ED000AF1EE600A9FED761A70EE810AFB
:1030C000B0EE600AFEF779FE0A205E49086025E04E
:1030D0007B4890ED000AB1EE400ADFED6E0A30EE5B
:1030E000200A844880ED060A614890ED000A58489D
:1030F00080ED020A684890ED000A554880ED030A09
:103100007DA006F04EFE00204E49086006E080A03B
:1031100006F047FE00204B49086000BF00BF494849
:103120000068BDEC028B10BD0120474908600220F9
:1031300047494860704710B52DED048B82B07F4839
:1031400000680D281BD2DFE800F0071B44537C7B8E
:103150007A797877767574007948006801280ED1FD
:103160009FED3A0A3A4880ED040A9FED380A80ED57
:10317000050A002072490860012070490860A2E237
:1031800070A006F00EFE7448D0ED030AB0EE600A9F
:10319000FEF77BFD9FED2D0A564880ED050AD0ED28
:1031A000050AB0EE600AFEF72BFE6B4890ED000AB0
:1031B000504880ED040AD0ED040AB0EE600AFEF734
:1031C000D1FD07F0F9F86549088002205B490860E5
:1031D00079E207F0F1F8044660480188204607F0DC
:1031E000F0F8B0F57A7F02DD0320544908606AE206
:1031F000FEF75AFE5A4880ED000A00680EF006FB02
:1032000041EC100BB0EE408AF0EE608A524890ED2F
:10321000030A10EE101A08460EF0F8FA41EC100BF3
:10322000B0EE409AF0EE609A8DED008B53EC192BC6
:1032300098E03DE216E2D3E104E2A0E18FE111E182
:10324000C3E0B3E0EC030020CC030020000000004A
:10325000D81900200D0A5374617274206F662070B3
:103260006861736520696E69742E0000E8030020B0
:10327000F00300200D0A4174205068203D20302CBE
:10328000205664656D6F64203D20252E33662056E0
:10329000000000000000B442F40300200D0A417455
:1032A000205068203D2039302C205664656D6F64B5
:1032B000203D20252E33662056000000E02E65427A
:1032C000F80300200D0A506830203D20252E33667B
:1032D00020646567000000000D0A53657474696E10
:1032E0006720706861736520746F20252E33662017
:1032F00064656700681800200D0A506861736520D6
:10330000696E697420636F6D706C6574652E000062
:103310000D0A506861736520696E69742066616981
:103320006C65643A20616D706C6974756465206FBA
:103330007574206F662072616E676500FC03002063
:10334000E40300200D0A5374617274206F66207AC2
:1033500065726F696E672E00D003002000040020A4
:1033600008040020E5A006F01CFDF04890ED000ADE
:10337000B5EEC00AF1EE10FA09D2EDA006F011FD8B
:103380000420F94948600C20F84908609BE107F0E7
:1033900013F8F7490880F748D0ED040AB0EE600A48
:1033A000FEF773FC0420F14908608CE107F004F893
:1033B0000446EF480188204607F003F8B0F57A7F0D
:1033C00002DD0520E94908607DE1FEF76DFDEA4870
:1033D00080ED000A00680EF019FA41EC100BB0EE17
:1033E000408AF0EE608AE34890ED040A10EE101A6D
:1033F00008460EF00BFA41EC100BB0EE409AF0EEDE
:10340000609A8DED008B53EC192BBCA006F0C9FC23
:10341000D94890ED000AB5EEC00AF1EE10FA08D3D3
:1034200090ED000AF2EE030AB4EEE00AF1EE10FAB3
:1034300009DDD2A006F0B5FC0520CB4948600C2080
:10344000CA4908603FE106F0B7FFC9490880C9488A
:10345000D0ED030AB0EE600AFEF717FC0620C34960
:10346000086030E1C44890ED000AB048D0ED000A91
:1034700030EE600AF1EE020A80EE801ACC4890ED40
:10348000040A21EE000A80ED040A90ED040A10EE11
:10349000101A08460EF0BAF941EC100BB0EE408A53
:1034A000F0EE608A53EC182BC2A006F07AFCC048FC
:1034B00090ED040AAF48D0ED010AB4EEE00AF1EE57
:1034C00010FA0AD3BA4890ED040AAA48D0ED020ACD
:1034D000B4EEE00AF1EE10FA32DDC0A006F061FCB5
:1034E000A44890ED020A10EE101A08460EF08EF96C
:1034F00041EC100BB0EE408AF0EE608A9D4890EDF2
:10350000010A10EE101A08460EF080F941EC100B7B
:10351000B0EE409AF0EE609A8DED008B53EC192BD3
:10352000BEA006F03EFC934890ED000AA04880ED56
:10353000040A06208C4948600C208C490860C2E0CF
:103540009B48D0ED040AB0EE600AFEF70BFC06F0D3
:1035500033FF87490880072084490860B3E006F0FC
:103560002BFF044682480188204606F02AFF40F6D9
:10357000B831884202DD08207C490860A3E0FEF7EC
:1035800093FCAA4880ED000A90ED000AB5EEC00A4F
:10359000F1EE10FA0AD390ED000AB1EE400AFAEE0D
:1035A000040AB4EEE00AF1EE10FA06D203206E49E6
:1035B00048600C206D49086085E09C4800680EF06A
:1035C00025F941EC100BB0EE408AF0EE608A53EC26
:1035D000182B974806F0E5FB0A206449086072E062
:1035E0001FEDE60AFEF751FB9048D0ED000AF1EE20
:1035F000600AB5EE001A70EE810AB0EE600AFEF7BE
:10360000FFFB8A4890ED000AB1EE400AF5EE000A91
:1036100030EE200A10EE101A08460EF0F7F841ECD2
:10362000100BB0EE408AF0EE608A53EC182B81A0AC
:1036300006F0B7FB06F0C0FE4D49088009204B4953
:10364000086040E006F0B8FE04464948018820467C
:1036500006F0B7FE40F6B831884202DD0B20434940
:10366000086030E09FED7B0AFEF70FFB6F4890ED9E
:10367000000AB1EE400AF5EE000A30EE200A4C488E
:1036800080ED050A294890ED000A374880ED040ACC
:10369000394890ED000A344880ED050A012032498E
:1036A00048606DA006F07DFB0020304908600AE00C
:1036B0009FED680AFEF7E9FA6DA006F072FB0020A4
:1036C0002A49086000BF00BF2848006802B0BDEC6E
:1036D000048B10BD01207149086070472DE9F74F38
:1036E0002DED0A8B92B006468946DDF87880DDF82C
:1036F0007880CDF83C804FF0000AD6E00D0A446592
:103700006D6F64756C61746F72206F757470757411
:103710002061742048566F7574203D20252E316637
:1037200020563A20252E336620560000080400203B
:103730000D0A44656D6F64756C61746F72206F75EE
:103740007470757420746F6F206C6F77206166746D
:1037500065722070686173652061646A7573746D49
:10376000656E742E0D0A0000D8190020FC0300209D
:1037700000040020D00300200C0400200D0A446542
:103780006D6F64756C61746F72206F757470757491
:103790002065786365737369766520617420686954
:1037A000676820766F6C746167652E0D0A000000F3
:1037B000681800200D0A53696E6520616D706C6990
:1037C0007475646520636F727265637465642074D8
:1037D0006F20252E33662056000000000D0A41643C
:1037E0006A75737465642073696E657761766520A8
:1037F000616D706C6974756465206973206F757490
:10380000736964652061636365707461626C6520CF
:1038100072616E6765206F6620000000252E33669A
:1038200020746F20252E33662E0D0A00040400201C
:103830008C1B01080D0A536574207A65726F696EDE
:1038400067206F666673657420746F20252E33665B
:1038500020560000000000000D0A5A65726F696E64
:103860006720636F6D706C6574652E0D0A00000033
:103870000D0A5A65726F696E67206661696C6564CE
:103880003A20616D706C6974756465206F75742081
:103890006F662072616E67652E0D0A00E4030020DA
:1038A00000204DF82A000AF1010AC245F8DB002089
:1038B0001190C4E19FEDFE0BB0EE40BAF0EE60BA9D
:1038C0004FF0000A3BE05DF82A00012835D00027C0
:1038D00031E05DF8270068BB0AEB8A0006EBC00008
:1038E00000EBC70090ED001BB0EE410AF0EE610A5C
:1038F0000BF0B2FFB0EE40CAF0EE60CA53EC1B2BE7
:1039000051EC1C0B0DF08AFD14D80AEB8A0006EB73
:10391000C00000EBC70090ED001BB0EE410AF0EED6
:10392000610A0BF099FFB0EE40BAF0EE60BACDF844
:1039300040A03D467F1C4745CBDB0AF1010AC2454A
:10394000C1DB5DF82500401C4DF825001098A84209
:1039500056D0002426E0109800EB800006EBC00053
:1039600000EBC40090ED000BB0EE409AF0EE609AD0
:1039700005EB850006EBC00000EBC40090ED000BEA
:10398000109800EB800006EBC00000EBC40080ED57
:10399000000B05EB850006EBC00000EBC40080EDDA
:1039A000009B641C4445D6DB002426E0109800EB05
:1039B000800009EBC00000EBC40090ED000BB0EEFE
:1039C000409AF0EE609A05EB850009EBC00000EB31
:1039D000C40090ED000B109800EB800009EBC000D4
:1039E00000EBC40080ED000B05EB850009EBC00087
:1039F00000EBC40080ED009B641C0F988442D5DB73
:103A000005AADDE9100142F821000AA9119841F840
:103A1000205005EB850006EBC00000EBC50090EDE3
:103A2000001BB0EE410AF0EE610A9FEDA11B53ECC2
:103A3000112B51EC100B0DF063FB05D1012012B0DE
:103A4000BDEC0A8BBDE8FE8F05EB850006EBC000E0
:103A500000EBC50090ED001BB0EE410AF0EE610AEC
:103A600053EC102B9FED941B51EC110B0DF0F0F962
:103A700041EC180B9FED900B05EB850006EBC000A9
:103A800000EBC50080ED000B00241CE005EB850079
:103A900006EBC00000EBC40090ED001BB0EE410A45
:103AA000F0EE610A53EC182B51EC100B0DF0B8FB43
:103AB00041EC100B05EB850006EBC00000EBC400E9
:103AC00080ED000B641C4445E0DB00241CE005EBAA
:103AD000850009EBC00000EBC40090ED001BB0EEC8
:103AE000410AF0EE610A53EC182B51EC100B0DF06B
:103AF00097FB41EC100B05EB850009EBC00000EBD8
:103B0000C40080ED000B641C0F988442DFDB4FF093
:103B1000000B8EE0AB457DD00BEB8B0006EBC000BD
:103B200000EBC50090ED000BB0EE40AAF0EE60AAED
:103B30009FED5F0B0BEB8B0006EBC00000EBC500AD
:103B400080ED000B002434E005EB850006EBC0009F
:103B500000EBC40090ED001BB0EE410AF0EE610AEC
:103B600053EC1A2B51EC100B0DF05AFB41EC100BDF
:103B7000B0EE40CAF0EE60CA0BEB8B0006EBC00063
:103B800000EBC40090ED001BB0EE410AF0EE610ABC
:103B900053EC102B51EC1C0B0DF076FC41EC100B90
:103BA0000BEB8B0006EBC00000EBC40080ED000BBC
:103BB000641C4445C8DB002436E005EB850009EBB6
:103BC000C00000EBC40090ED001BB0EE410AF0EE27
:103BD000610A53EC1A2B51EC100B0DF021FB41EC58
:103BE000100BB0EE40CAF0EE60CA0BEB8B0009EB95
:103BF000C00000EBC40090ED001BB0EE410AF0EEF7
:103C0000610A53EC102B51EC1C0B0DF03DFC41EC08
:103C1000100B00E00BE00BEB8B0009EBC00000EB9E
:103C2000C40080ED000B641C0F988442C5DB0BF1CF
:103C3000010BC345FFF66EAF1198401C119011980F
:103C40004045FFF637AEA8F1010446E005A850F85C
:103C500024000AA951F8241088423DD0002739E0F9
:103C600007EB870006EBC00005A951F8241000EB14
:103C7000C10090ED000BB0EE409AF0EE609A07EBB9
:103C8000870006EBC0000AA951F8241000EBC10020
:103C900090ED000B07EB870006EBC00005A951F87B
:103CA000241000EBC10080ED000B07EB870007E05C
:103CB0000000000000000000000000000000F03FD5
:103CC00006EBC0000AA951F8241000EBC10080EDFA
:103CD000009B7F1C4745C3DB641E002CB6DA002026
:103CE000ADE62DE9F04F2DED0C8BE7B0804689460F
:103CF00092469B46CA4505DD012067B0BDEC0C8BA2
:103D0000BDE8F08F5646052E01DD0220F5E70024C0
:103D100053E000254EE01FED1A0BB0EE408AF0EEA6
:103D2000608A00273AE008EBC70090ED000A10EE29
:103D3000101A08460DF06AFD41EC190B0BEB8400DC
:103D400090ED000A0BEB8500D0ED000A30EE200A62
:103D500010EE101A08460DF059FD41EC100BB0EEB4
:103D600040CAF0EE60CAB0EE4C1AF0EE6C1AB0EE3B
:103D7000490AF0EE690A0BF0EFFDB0EE40BAF0EE42
:103D800060BA53EC182B51EC1B0B0CF0A5FF41EC67
:103D9000100BB0EE408AF0EE608A7F1C4F45C2DB0C
:103DA00004EB840034A901EBC00000EBC50080EDFA
:103DB000008B6D1CB542AEDB641CB442A9DB002451
:103DC00070E000256BE01FED460BB0EE408AF0EE90
:103DD000608A00274FE008EBC70090ED000A10EE64
:103DE000101A08460DF012FD41EC100BB0EE409A8F
:103DF000F0EE609A08EBC70090ED010A10EE101A81
:103E000008460DF003FD41EC1A0B0BEB840090ED1E
:103E1000000A10EE101A08460DF0F8FC41EC100BE9
:103E2000B0EE40DAF0EE60DAB0EE4D1AF0EE6D1A58
:103E3000B0EE490AF0EE690A0BF08EFDB0EE40CA12
:103E4000F0EE60CA53EC1A2B51EC1C0B0DF0E8F9A4
:103E500041EC100BB0EE40BAF0EE60BA53EC182B08
:103E600051EC1B0B0CF038FF41EC100BB0EE408A0C
:103E7000F0EE608A7F1C4F45ADDB25B9B0EE480AF5
:103E8000F0EE680A01E01FED760B04EB840002A956
:103E900001EBC00000EBC50080ED000B6D1CB542CE
:103EA00091DB641CB4428CDB324602A934A8FFF7D4
:103EB00015FC0190019808B103201EE7741E12E062
:103EC00004EB840002A901EBC00090ED001BB0EEF2
:103ED000410AF0EE610A51EC100B0CF0CBFE7C991C
:103EE00041F82400641E002CEADA002005E7F0EE19
:103EF000400AB7EE000A704710B52DED028BB0EE08
:103F0000408AB0EE480A0CF06FFBBDEC028B10BD8E
:103F10007047F0EE400A20EEA00A7047F0EE400A2B
:103F200020EEA00A20EE200A7047F0EE400A20EEB4
:103F3000A00AB0EE401A21EE010A7047F0EE400AE6
:103F4000B7EE001A81EE200A7047F0EE400AB7EE95
:103F5000000AC0EE201AB0EE611A21EE010A704785
:103F600030B503460C461546002258E003EB8200AC
:103F700090ED000A04EB8201B5EEC00AF1EE10FAF2
:103F800002D12948086049E0F6EE000AB4EE600A62
:103F9000F1EE10FA02D1254808603FE0F7EE000A82
:103FA000B4EE600AF1EE10FA02D12148086035E063
:103FB000F0EE000AB4EE600AF1EE10FA02D11D48EC
:103FC00008602BE0F0EE080AB4EE600AF1EE10FA99
:103FD00002D11948086021E0F1EE000AB4EE600A4F
:103FE000F1EE10FA02D11548086017E0FFEE000A62
:103FF000B4EE600AF1EE10FA02D1114808600DE04B
:10400000F8EE000AB4EE600AF1EE10FA02D10D48A3
:10401000086003E004480860012030BD521CAA4239
:10402000A4D30020F9E70000EF3E0008F93E0008A5
:10403000113F0008133F00081D3F00082B3F0008F8
:104040003D3F00084B3F000810B52DED0A8B86B0B0
:104050000446B0EE40AAF0EE608A9FED800A2AEE98
:10406000000ADFED7F0A80EE201AB0EE41CAB0EE02
:104070004C0A0CF0D7FAF7EE000A80EE801AB0EE88
:10408000418AB7EE000A08EE080AB0EE409A88EEC0
:10409000280A30EE090AF0EE409A89EE290AF0EE7D
:1040A00040AAB0EE000A68EE000AB0EE000A00EE88
:1040B000C80AC0EE290AB0EE60BA88EE280A39EEC6
:1040C000400AC0EE290AF0EE60BACDED01AA8DEDEE
:1040D00002BACDED03AAB1EE4B0A8DED040AB1EEA2
:1040E0006B0A8DED050A142201A9204609F0ECF8AF
:1040F00006B0BDEC0A8B10BD10B52DED088B86B057
:104100000446F0EE409A9FED550A29EE800ADFED55
:10411000540A80EE201AF0EE41BAB0EE6B0A0CF0B1
:1041200081FAF7EE000A80EE801AB0EE418AB7EE0F
:10413000000A08EE080AB0EE40AADFED4A0A88EE4F
:10414000200A30EE0A0AB0EE409AB7EE000AC0EE3E
:10415000090AF0EE608AB0EE000A68EE000AB0EEDE
:10416000000A00EEC80AC0EE090AF0EE60AADFED10
:104170003D0A88EE200A3AEE400AC0EE090AB0EE87
:1041800060BACDED018AB0EE000A28EE800A8DED0E
:10419000020ACDED038AB1EE6A0A8DED040AB1EE92
:1041A0004B0A8DED050A142201A9204609F08CF86E
:1041B00006B0BDEC088B10BD10B52DED048BB0EE34
:1041C000408A9FED290A28EE000ADFED250A80EEDD
:1041D000201AB0EE419AB0EE490A0BF045FAF7EE1C
:1041E000000A30EEC00AF0EE408AB0EE680ABDEC7C
:1041F000048B10BD10B52DED048B86B00446B0EED7
:10420000408A9FED190A28EE000ADFED150A80EEBC
:10421000201AB0EE419AB0EE490A0BF025FAF0EE02
:10422000408AB7EE000A30EE680A8DED010A9FED74
:104230000F0A8DED020A9FED0D0A8DED030ACDEDFB
:10424000048A9FED0A0A8DED050A142201A9204671
:1042500009F03AF806B0BDEC048B10BDDB0F494005
:1042600000409C46F304353FDB0FC9C0000000004E
:1042700003B5FE48DDE9001206C00CBDFB4A06CAC4
:10428000C0E9001270470020F84908607047F0B597
:1042900089B005460E4600200690079008900B272F
:1042A00006AAF3A1304608F097FE00240DE0F1487D
:1042B00000EB0410416806A809F038F820B9ED4871
:1042C00000EB0410076802E0641C0B2CEFDD00BF5C
:1042D000002001900B2F6ED2DFE807F0061723298C
:1042E000316F7B8593888D0004AAE3A1304608F0E6
:1042F00073FE0446012C02D1E14904980860E048AD
:104300000168E0A005F04DFD82E003AAE4A130467B
:1043100008F062FE072001909DED030A8DED020A70
:1043200076E0E1A005F03DFD0820019070E0E7A0F7
:1043300005F037FD00200190FEF7F6FE68E005AAC3
:10434000E9A1304608F048FEE9A105A808F0EEFF13
:1043500018B90120019002902EE0E7A105A808F00D
:10436000E5FF20B9012001900220029024E0E4A1A1
:1043700005A808F0DBFF20B901200190042002907D
:104380001AE0E1A105A808F0D1FF20B901200190B1
:104390000520029010E0DDA105A808F0C7FF20B9B4
:1043A000012001900320029006E000200190D9A096
:1043B00005F0F7FC2CE028E02AE003AAB8A130467B
:1043C00008F00AFE022001909DED030A8DED020A1D
:1043D0001EE004AAA8A1304608F0FEFD03200190CB
:1043E0000498029014E00420019011E0092001904B
:1043F000CD4802900CE009200190CB48C0430290C8
:1044000006E006200190029002E00A20019000BF21
:1044100000BFDDE90101C5E9000109B0F0BD10B53B
:1044200094B0C2A005F0BDFC002423E0914800EB4D
:1044300004108068007840B98E4800EB0410BFA1DA
:104440004268684608F05EFC0BE08A4800EB041006
:104450008368884800EB0410B9A14268684608F0F8
:1044600051FC844800EB04106946C268B6A005F010
:1044700098FC641C0B2CD9DBB6A005F092FC14B0A0
:1044800010BD77B585B006460020029003900490D9
:104490000290B148006806287DD005DC7CD2DFE8B8
:1044A00000F010E3E2E1E0DF0A2876D004DC072820
:1044B00074D0082870D1CEE20B2870D06328F9D1CF
:1044C000F6E306980A286BD2DFE800F06A056A6A0C
:1044D0006A6A8CB6CF91A1490798086008460068BF
:1044E000062876D2DFE800F07503132333439C4897
:1044F00090ED080A624880ED080A994890ED070A95
:104500005F4880ED070A02209449486061E09448C2
:1045100090ED0A0A5A4880ED0A0A914890ED090A7E
:10452000574880ED090A02208C49486051E08C48C8
:1045300090ED0C0A524880ED0C0A894890ED0B0A68
:104540004F4880ED0B0A02208449486041E08448CE
:1045500090ED120A4A4880ED120A814890ED110A46
:10456000474880ED110A02207C49486031E07D48CF
:10457000D0F8F40020F010007A49C1F8F4009FED63
:104580007A0A084680ED240A9FED780A80ED250A14
:10459000D0F8F40005E06CE256E2B6E355E2BAE387
:1045A00014E120F04000C1F8F4000A206B49486093
:1045B0006F484068012806D0022803D16D486E4933
:1045C000086004E000BF6D486B49086000BF00BF91
:1045D00000BF00BF00206149886001205E4908607B
:1045E0000290F3E00D20029007980390EEE06048FF
:1045F000C068234948600798C1F8B400B8226048F1
:1046000008F062FE5F490798C1F8A800AC225C4838
:10461000B83008F059FE4FF4B27200215848FEF746
:104620006AF90F20029001234FF4B272002154481E
:10463000FEF71EF90390C9E001204A49C1F8F000D5
:10464000800551490860400250498861DDED070A44
:10465000B0EE600AFDF7EEFB0D200290042097E01B
:10466000ABE21CE259E143E1B2E093E01004002028
:1046700025397300DC1B0108252A7325750000000D
:10468000681800200D0A53657269616C206E756DA3
:104690006265722069732025752E0D0A00000000E6
:1046A000252A7325660000000D0A41646A7573743B
:1046B0002073747261696E2067617567652070721E
:1046C000656D6170206E6F772E0D0A000D0A5A65B8
:1046D000726F696E6720706861736520616E676CC8
:1046E000652E0D0A00000000252A732573000000C6
:1046F00068766F757400000068766D6F6E0000005C
:104700006D6F6E6461630000706F7300657874692B
:104710006E0000000D0A496E76616C696420636862
:104720006F6963652E0D0A00661912250D0A436133
:104730006C6962206D656E753A0A000025733A0057
:1047400025732025733A00000D0A252D3230730998
:10475000257300000D0A000018040020C41D00206D
:1047600020190020D8190020CDCCCC3DCDCC9C40C8
:104770000C1B0020AC1C01081C040020D41C0108E8
:1047800058160020BC170020180402400000024008
:1047900003901BE09FEDF70AFDF732FB9FEDF60A51
:1047A000F64880ED030AD0ED030AB0EE600AFDF78B
:1047B000F1FAB1EE000AFDF7D5FA9FEDF10AFDF727
:1047C000FCFA0D2002900720039000BF00BFD9E241
:1047D000EC48406E20F00200EA4948660846406E08
:1047E00020F004004866E848006806287BD2DFE82D
:1047F00000F07A030438591B00BFE3488068E3499E
:1048000001EB8000D0ED000AB0EE600AFDF73DFA42
:1048100002200290DC488068DC4901EB800090EDCA
:10482000000A8DED030A5EE0D948D0F8F40020F0CC
:104830004000D749C1F8F40002208861D24880685E
:10484000D449096801EB800090ED000AD04880ED62
:10485000220A09200290CE4890ED220A8DED030A2B
:1048600041E00120CA49C1F8F0008005CA4908604A
:104870004002CA498861C4488068C94901EB800088
:10488000D0ED000AB0EE600AFDF7D4FA03200290E2
:10489000BD488068C34901EB800090ED000A8DEDB2
:1048A000030A20E00120BA49C1F8F0008005BA49A6
:1048B00008604002B9498861B3488068B84901EB93
:1048C0008000D0ED000AB0EE600AFDF7B3FA0A20CE
:1048D0000290AD488068B24901EB800090ED000A7B
:1048E0008DED030A00BF00BF0220AF49086049E216
:1048F000069860B1022802D0032809D103E0032002
:10490000A949086007E00620A749086003E002E023
:104910000E20029000BF00BF34E29B4800680628CA
:104920006BD2DFE800F06A03172A3D51984890EDFA
:104930000E0A95488168343000EBC10080ED010A11
:104940009DED070A90488168343000EBC10080ED8E
:10495000000A52E09DED070A8B488168343000EB75
:10496000C10080ED010AFDF781FA87488168343083
:1049700000EBC10080ED000A3FE09DED070A824890
:104980008168343000EBC10080ED010AFDF77DFA4B
:104990007D488168343000EBC10080ED000A2CE0D6
:1049A0007B4890ED1B0A78488168343000EBC100E9
:1049B00080ED010A9DED070A73488168343000EBF1
:1049C000C10080ED000A18E0714890ED1F0A6E48A2
:1049D0008168343000EBC10080ED000A9DED070ACC
:1049E0006B48D0ED160A80EE201A67488168343093
:1049F00000EBC10080ED011A00BF00BF042002904F
:104A000061488168343000EBC10090ED000A8DED03
:104A1000030A5D488168343000EBC10090ED010A63
:104A20008DED040A584881684068401E814208D2D2
:104A300055488068401C5449886001205A490860E4
:104A400002E00720584908609CE1062002900820F7
:104A50005549086096E10698032804D0042806D139
:104A60005149086003E006204F49086000BF00BFBD
:104A700088E1079800280EDD43488068424949686C
:104A8000884208D80798401E3F4988600520029058
:104A900008468068039001204349086072E10024C1
:104AA00008E09FED340A38480C3000EB840080EDBC
:104AB000000A641C052CF4DB3348006806284CD23D
:104AC000DFE800F04B030405061D00BF00BF00BF78
:104AD0009FED280A2C4880ED080AB7EE000A80ED09
:104AE000090A0C3000900C388068411C264B20339A
:104AF000022203F11400FFF7F4F805462DE09FEDC4
:104B00001D0A214880ED080AB6EE000A80ED090A68
:104B1000B7EE000A80ED0A0AB0EE000A80ED0B0A3B
:104B2000B1EE000A80ED0C0A05221949C03120308F
:104B3000FFF716FA054614480C3000900C388068D0
:104B4000411C114B2033052203F11400FFF7C9F873
:104B500005460D48C0F8385100BF00BF4DB90520CB
:104B600011490860082002900748006805281DD1F7
:104B70001DE01EE00000000000A08C466818002028
:104B800000002043BC170020C41D00209C1C01080D
:104B9000D81900201C040020180402400000024024
:104BA000041D0108FC1C01081804002002200390C9
:104BB00002E06320F4490860E4E0F4480068062855
:104BC00022D2DFE800F09D03223C5676F04890EDBB
:104BD000080AD0ED070AED4890ED031A00EE810AAD
:104BE000EB4880ED080A90ED070AE848D0ED040A8A
:104BF00020EE200AE64880ED070AE648D0ED0E0ACE
:104C0000B0EE600AFDF741F87AE0E14890ED090A5C
:104C1000DE48D0ED040A20EE200ADD4880ED090AC6
:104C2000DA48D0ED030ADA4890ED091A80EE810ADD
:104C3000D0ED0A0A30EE200A80ED0A0A60E0D4487E
:104C400090ED0B0AD148D0ED040A20EE200AD0489E
:104C500080ED0B0ACD48D0ED030ACD4890ED0B1A3C
:104C600080EE810AD0ED0C0A30EE200A80ED0C0AAD
:104C700046E0C74890ED120AD0ED110AC34890ED06
:104C8000031A00EE810AC24880ED120A90ED110A63
:104C9000BE48D0ED040A20EE200ABD4880ED110A7E
:104CA000BC48D0ED1B0AB0EE600AFDF7C3F827E060
:104CB00062E0002418E0B5480C3000EB840090ED71
:104CC000000AB3484C3000EB840080ED000AAF4886
:104CD000203000EB840090ED000AAD48603000EB1E
:104CE000840080ED000A641C052CE4DBA948D0F8A0
:104CF000F40020F040004030A649C1F8F40000BFA5
:104D000000BF0A20A04908603CE0072002900B2069
:104D10009D49086036E09D480068012806D00228B9
:104D200005D0042808D005281FD10AE000BF1FEDD8
:104D30006F0AFCF7AAFF18E01FED720AFDF77AF878
:104D400013E01FED740A934880ED220A9FED920A4A
:104D500007F042FE8F4880ED240A9FED900A07F08D
:104D60003BFE8C4880ED250A00BF00BF002086492D
:104D700008600B20029005E00020834908600C20A9
:104D8000029000BF00BF02A807C886E8070008B06D
:104D900070BD17B52DED068B87B00D9810287AD20F
:104DA000DFE800F0F008273D81A5ABEFB36953EED3
:104DB000EDECAFEB75480068062818D2DFE800F08C
:104DC0001703070B0F1376A004F0EBFF0FE07BA097
:104DD00004F0E7FF0BE080A004F0E3FF07E084A00D
:104DE00004F0DFFF03E08AA004F0DBFF00BF00BF98
:104DF000C9E29DED0E0A10EE101A08460CF006FDF1
:104E000041EC100BB0EE409AF0EE609A53EC192B87
:104E100086A004F0C6FF8BA004F0C3FFB3E29DEDB3
:104E20000E0A10EE101A08460CF0F0FC41EC100BC4
:104E3000B0EE409AF0EE609A53EC192B90A004F07B
:104E4000B0FF97A004F0ADFF9DE29DED0E0A10EEBD
:104E5000101A08460CF0DAFC41EC100BB0EE409A48
:104E6000F0EE609A53EC192B99A004F09AFF9EA0E3
:104E700004F097FF87E29DED0E0A10EE101A084627
:104E80000CF0C4FC41EC100BB0EE409AF0EE609ACE
:104E900053EC192B00E072E2A2A004F082FFA9A05B
:104EA00004F07FFF6FE29DED0F0A10EE101A084626
:104EB0000CF0ACFC41EC100BB0EE409AF0EE609AB6
:104EC0009DED0E0A10EE101A08460CF09FFC41EC06
:104ED000100BB0EE40AAF0EE60AA8DED009B2B48BF
:104EE00053EC1A2B8168A6A004F05BFF4BE20E98EE
:104EF000411CAEA004F055FF45E2B5A004F051FFFF
:104F000041E2BDA004F04DFF3DE2C7A004F049FF1F
:104F10000E98441E2EE01D48203000EB840090EDDA
:104F2000000A10EE101A08460CF070FC41EC100B51
:104F3000B0EE409AF0EE609A14480C3000EB84001A
:104F400090ED000A10EE101A08460CF05FFC41ECE0
:104F5000100BB0EE40AAF0EE60AA0CB92BA000E056
:104F6000B6A002908DED009B53EC1A2BB4A004F078
:104F700018FF641E002CCEDA05E2F6E179E171E15A
:104F80006CE167E1FAE1000018040020C41D002074
:104F900068180020D8190020CDCCCC3DCDCC9C4049
:104FA0000D0A43616C6962726174696E67204856CC
:104FB000206F75747075742E0D0A00000D0A436120
:104FC0006C6962726174696E67204856206D6F6EFD
:104FD00069746F722E0D0A000D0A43616C6962726A
:104FE0006174696E672045585420494E2E0D0A00A1
:104FF0000D0A43616C6962726174696E67206D6F3E
:105000006E69746F72204441432E0D0A0000000047
:105010000D0A43616C6962726174696E6720706F1A
:10502000736974696F6E2E0D0A0000000D0A4856F0
:105030006F75742073657420746F20252E3366207D
:10504000560000000D0A4D65617375726520485663
:10505000206F757470757420766F6C74616765204D
:10506000616E6420656E746572207573696E672069
:105070002763616C64617461272E0D0A00000000D3
:105080000D0A496E70757420252E336620566F6C9C
:10509000747320746F2045585420494E000000005E
:1050A0000D0A456E7465722074686520696E6A65C4
:1050B0006374656420766F6C7461676520757369CD
:1050C0006E67202763616C64617461272E0D0A008E
:1050D0000D0A455854204F55542073657420746F41
:1050E00020252E33662056000D0A4D6561737572BA
:1050F000652074686520455854204F555420766FBC
:105100006C7461676520616E6420656E74657220E1
:105110007573696E67202763616C64617461272E03
:105120000D0A00000D0A506F736974696F6E206478
:10513000656D616E642073657420746F20252E3355
:10514000662056000D0A4D6561737572652074689E
:10515000652061637475616C20706F736974696F29
:105160006E20616E6420656E746572207573696E61
:1051700067202763616C64617461272E0D0A00004B
:105180000D0A43616C6962206461746120706F690B
:105190006E742025643A202566202D3E2025662049
:1051A00061646465642E0D0A000000000D0A43610D
:1051B0006C696220676F206261636B20746F20648A
:1051C00061746120706F696E742025642E0D0A0071
:1051D0000D0A4461746120656E74727920636F6D8D
:1051E000706C6574652C207573652027706F6C7901
:1051F000666974272E0D0A000D0A447572696E6780
:105200002063616C6962726174696F6E2074686991
:105210007320636F6D6D616E6420697320696E76B3
:10522000616C69642E0D0A000D0A436F727265632A
:1052300074696E6720706F6C793A2000202B200013
:1052400028252B362E3666202A20785E252E3166BC
:105250002925730051A004F0A4FD94E05AA004F0A5
:10526000A0FD90E06048D0F8381160A004F099FDEE
:1052700089E00E98042858D0062802D0072871D15A
:1052800067E0AFF2CC2004F08CFD002409E0224658
:1052900060A103A807F036FD03A961A004F081FD19
:1052A000641C092CF3DBAFF2F02004F07AFD00243B
:1052B00034E0204605F01AFA00EE100AB8EE400A73
:1052C000DFED590A60EE200A584800EBC40090ED6B
:1052D000011A564800EBC40090ED000AB0EE408A77
:1052E00000EE818A18EE100A0CF090FA41EC100BD7
:1052F000B0EE409AF0EE609A072C01D14CA001E08C
:10530000AFF2C42053EC192B4AA1009003A807F078
:10531000F9FC03A942A004F044FD641C092CC8DB7D
:10532000AFF26C3004F03DFD1DE0454890ED1B0AE6
:1053300010EE101A08460CF069FA41EC100BB0EEB2
:10534000409AF0EE609A53EC192B3EA004F029FD30
:1053500009E0454804F025FD43487C3004F021FD78
:1053600001E0FFE700BF00BF0DE00E9909B93FA1C2
:1053700000E042A1084604F014FD04E003E044A06C
:1053800004F00FFD00BF00BF07B0BDEC068B1EBDD3
:1053900010EE100A704700EE100A70470D0A4361C4
:1053A0006C6962726174696F6E20636F6D706C6599
:1053B00074656420666F722074686973206974650F
:1053C0006D2E0D0A000000000D0A526573746F7295
:1053D000696E672064656661756C747320737461AF
:1053E00074652E0D0A000000C41D00200D0A4361E3
:1053F0006C6962726174696F6E206661696C656464
:10540000207769746820537461747573203D20257A
:10541000640D0A004368616E6E656C2025640000AF
:10542000252D3132730000006740533AFC220108F9
:105430004300000025332E32662025730000000053
:10544000D81900200D0A4D6F6E69746F72204441A7
:10545000432073657420746F20252E336620566FA9
:105460006C74730D0A0000000C1D01080D0A4545FF
:105470005772697465204F4B2E0D0A000D0A454581
:105480005772697465206661696C65642E0D0A0047
:105490000D0A556E68616E646C65642063616C69A9
:1054A00062726174696F6E20616374696F6E2E0D34
:1054B0000A00000070B54FF00054F74890F8F4006F
:1054C000C0F3C00008B144F00044F34880690228EA
:1054D00001D144F48064F0484068012802D144F0CE
:1054E000100405E0EC484068022801D144F0200493
:1054F000E948D0F8F80043F6F071084201D044F0D2
:105500008044E54890ED1E0ADFEDE40AB4EEE00ABF
:10551000F1EE10FA01D244F48054DF4890ED1E0AF7
:10552000DFEDDF0AB4EEE00AF1EE10FA05DCFCF77D
:10553000F9FC47F6FF71884201DB44F40054FCF7A4
:1055400089FE054615F0010F01D044F4801415F0D2
:10555000020F01D044F4001415F0040F01D044F4FC
:10556000800415F0080F01D044F40004204670BDFB
:105570002DE9FC5F06460C460027B846B946BA46F8
:10558000BB4600E000BF306880470546A0F57F417C
:10559000FF39F7D100E000BF206880470546A0F53D
:1055A0007F41FF39F7D152E00BE0E8B20190BD49ED
:1055B0000122486801A905F0DBF87F1C04F0FCFE1D
:1055C0008346306880470546A0F57F41FF39ECD11E
:1055D0000CE0E8B20190B3490122086801A905F086
:1055E000C7F808F1010804F0E7FE83462068804709
:1055F0000546A0F57F41FF39EBD1AA480168304646
:1056000005F0C7F8A7484168204605F0C2F807EB47
:10561000080919F4806F04D14FF00050A2490860C6
:1056200003E04FF40050A049086042F21070814539
:105630000BD904F0C1FE5946009004F0C2FE41F2BD
:105640008831884201DD012000E000208246BAF165
:10565000010FA9D195480760C0F80480BDE8FC9F00
:105660002DE9FE4F06460D4630881FFA80F906F1F7
:1056700006082C46A81D02900020E0700120207131
:10568000112060710020C5F80001B9F1140F35D068
:1056900006DCB9F1020F7BD0B9F1050F79D107E033
:1056A000B9F1600F15D0A9F500702338F6D11FE0CD
:1056B000062020805420A070207940F080002071C6
:1056C00054227B49029807F0BAFD5A20C5F8000120
:1056D000D2E0B77861202080A7700FB1012F01D1EF
:1056E000012000E00220E0700620C5F80001C3E0C0
:1056F000B078694908624020C861BDE0D8F800A0D0
:10570000D8F804B0D8F808000190BAF5C87F78D16D
:10571000ABF5E060C538FAD1019830B1012815D059
:1057200002282CD040286DD185E072B6614800680F
:1057300020F480005F4908600846006820F40010EB
:10574000086000205C49086001F0A2FB5BA004F047
:1057500028FB04F046FB322004F05AFE72B655488E
:10576000006820F48000534908600846006820F46F
:105770000010086058485049086001F089FB04F0A7
:1057800008FF0090009800F07F02C0F3062101E0BE
:105790006CE06CE051A004F004FB04F022FB4FF439
:1057A00000404149086040100860C00308600120C3
:1057B0005849886140F2DC5004F02AFE4FF48030F2
:1057C00054498861642004F023FE4FF400503649A8
:1057D000086040040860022005F0AAFA4E494F48CC
:1057E000FFF7C6FE04F0D5FE0090009800F07F029F
:1057F000C0F306214AA004F0D4FA2C48426801689C
:1058000001E032E030E054A004F0CBFA4FF4005055
:1058100025490860002005F08BFA01203D49886188
:10582000052004F0F5FD4FF480303A49886151A01D
:1058300004F0B7FA18E002203649886140F2DC50E3
:1058400004F0E6FD4FF4003032498861642004F032
:10585000DFFD022005F066FC4D494E48FFF788FE4B
:10586000002005F05FFC00BF00BF05E004E04946F2
:1058700049A004F096FA00BF00BFBDE8FE8F70B5E6
:1058800005460E46822E04D0832E03D0842E02D1EC
:105890000CE197E09CE03EE1D8190020CDCCCC3D56
:1058A000CDCC9C4040040020180C02404C04002049
:1058B0004802002030380240F01F00200D0A456EDB
:1058C000746572696E6720626F6F746C6F61646576
:1058D000722E2E2E0D0A0000EFBEADDE0D0A53749F
:1058E000617274656420736C617665207265707294
:1058F0006F6772616D6D696E67206174202530324B
:1059000058206D696E203A20253032582073656327
:105910000000000000100240682301085023010825
:105920000D0A53746F7070656420736C6176652026
:10593000726570726F6772616D6D696E67206174F8
:105940002025303258206D696E203A20253032589B
:1059500020736563000000000D0A54782F527820F0
:105960006279746520636F756E74203D2025752CF7
:10597000202575000D0A536C6176652068617320DF
:105980006265656E2072657365742E0D0A000000F5
:1059900080230108742301080D0A556E68616E6446
:1059A0006C65642041505420726F75746572206379
:1059B0006F6D6D616E643A203078253034580D0A71
:1059C000000000000120F949087382200871A2E05C
:1059D0000620F649087383200871FCF794FAF3490E
:1059E000A1F80500FCF79EFAF049A1F80700002194
:1059F000EE484172EE488069022823D1EB48407A94
:105A000040F00101E94841720146B1F90710E84A46
:105A1000526D881A01D4014600E041420C46B4F5AB
:105A2000A37F02DCE348006830B1B4F5F57F05DC04
:105A3000E0480068012801D1012000E00020DD4994
:105A400008601CE0D949B1F90510D94A126D881ACD
:105A500001D4014600E041420C46B4F5A37F02DCCC
:105A6000D448006830B1B4F5F57F05DCD148006852
:105A7000012801D1012000E00020CE490860CD4876
:105A80000068012805D1C948407A40F00401C748A0
:105A90004172C748D0F8F8008002800A05D0C34898
:105AA000407A40F00201C148417234E00320BF490E
:105AB000087384200871C04890F86400C0F3C010D7
:105AC00018B10021B94841710CE0BB48B0F864003E
:105AD000C0F3002018B11A21B448417102E0FF213F
